:020000040000FA
:060000008EEF9EF01200DD
:020006001200E6
:06000800DBEF4DF01200D9
:02000E000004EC
:04001000A300000049
:020014000100E9
:02001600FFFFEA
:06001800A6EF4DF01200FE
:02001E000D00D3
:10002000483E0100B202000001000000463E01000F
:10003000AE02000002000000413E010096020000F6
:10004000050000003D3E0100A40200000400000085
:100050003C3E0100B1020000010000003A3E0100F8
:10006000AC02000002000000393E0100B0020000B6
:1000700001000000373E0100AA020000020000005B
:10008000333E0100A0020000040000001600000042
:10009000A8020000020000007F200100FF03000012
:1000A00001000000763D010010030000BD000000CB
:0C00B000140000005E0F000002000000C1
:0400BC004D5046530A
:1000C00002011C00CAF8FFFF26B52AFAFFFFAAFBAF
:1000D000FFFF2AFCFFFFCAA7FFFF264F262D0AA31A
:1000E000FFFF06D40A61FFFF2ACF3E67265EFFFFAF
:1000F0008A5EFFFF6AFBFFFFCA01FFFFA802000044
:10010000750300009D010000F63F795500000000D6
:100110000200B50200001205000028000000F63FB2
:100120007955000000000000B60200003A0500000A
:1001300066010000F63F7955000000000000C7028C
:100140000000A006000074030000F63F795500008F
:1001500000000200D4020000140A00005800000051
:10016000F63F7955000000000000D50200006C0A3F
:100170000000B6060000FA96FB55000000000200E1
:10018000E20200002211000078000000FA96FB5500
:10019000000000000000E30200009A110000750258
:1001A0000000F63F7955000000000200F002000058
:1001B0000F14000030000000F63F795500000000E9
:1001C0000000F10200003F140000B0000000F63F04
:1001D0007955000000000200FB020000EF1400004F
:1001E00010000000F63F7955000000000000FC02FE
:1001F0000000FF140000A3000000F63F7955000046
:100200000000000007030000A21500002804000001
:10021000F63F795500000000000012030000CA19E3
:10022000000086000000F63F795500000000020043
:100230001C030000501A000010000000F63F795522
:100240000000000000001D030000601A0000490FBC
:100250000000ABB6055300000000000026030000BC
:10026000A9290000E7050000F63F795500000000CD
:10027000020031030000902F000008000000F63F4C
:10028000795500000000000032030000982F0000A4
:100290002B040000F63F79550000000001003B03ED
:1002A0000000C3330000120A0000F63F7955000039
:1002B0000000010043030000D53D000008000000DD
:1002C000F63F79550000000002004E030000DD3DBE
:1002D000000008000000F63F795500000000000013
:1002E0004F030000E53D000070010000F63F795526
:1002F0000000000002005A030000553F00001000FB
:100300000000F63F79550000000000005B0300008C
:10031000653F0000D7000000F63F7955000000005F
:100320000200670300003C40000010000000F63FA0
:100330007955000000000000680300004C400000F8
:1003400026020000F63F7955000000000200740309
:1003500000007242000030000000F63F79550000B6
:1003600000000000636F6E66696764742E68746DC8
:100370000000636F6E6669676865616465722E6907
:100380006E6300636F6E66696768772E68746D00D0
:1003900000636F6E6669676E772E68746D00006328
:1003A0006F6E66696770772E68746D000065727293
:1003B0006F722E68746D0000666F6F7465722E69BF
:1003C0006E63006865616465722E696E6300696EB4
:1003D0006465782E68746D00006C6F676F2E706EA8
:1003E00067006C6F676F75742E68746D00006D63C5
:1003F00068702E637373006D6368702E6A73007289
:1004000065626F6F742E63676900007265626F6F5B
:10041000742E68746D0000737563636573732E6862
:10042000746D000076657273696F6E2E68746D006E
:10043000007E696E633A6865616465722E696E63F9
:100440007E0D0A7E696E633A636F6E6669676865E2
:10045000616465722E696E637E0D0A0D0A3C666FDB
:10046000726D206D6574686F643D22706F737422C5
:1004700020616374696F6E3D222F636F6E666967DA
:1004800064742E68746D22206E616D653D22636F09
:100490006E6669676474223E0D0A3C6669656C6429
:1004A0007365743E0D0A0D0A3C6469763E3C6C61CE
:1004B00062656C3EC490E1BAB774206E67C3A079E0
:1004C0003C2F6C6162656C3E0D0A3C696E70757400
:1004D00020747970653D226461746574696D65226C
:1004E000206E616D653D2264617465222076616CC9
:1004F00075653D227E646174657E222F3E3C2F64CB
:1005000069763E0D0A3C6469763E3C6C6162656CBE
:100510003EC490E1BAB774206769E1BB9D3C2F6C83
:100520006162656C3E0D0A3C696E70757420747969
:1005300070653D226461746574696D6522206E6129
:100540006D653D2274696D65222076616C75653D2F
:10055000227E74696D657E222F3E3C2F6469763E53
:100560000D0A0D0A3C6469763E3C696E7075742014
:10057000747970653D227375626D69742220636CB5
:100580006173733D22736D222076616C75653D2227
:100590004CC6B07522202F3E3C2F6469763E0D0A72
:1005A0003C2F6669656C647365743E0D0A3C2F666A
:1005B0006F726D3E0D0A3C2F6469763E0D0A7E69AE
:1005C0006E633A666F6F7465722E696E637E0000AB
:1005D0000000000000001200000001000000C30045
:1005E00000000200000020010000030000008D0157
:1005F0000000040000003C6469762069643D2263C9
:100600006F6E74656E74223E0D0A0D0A3C68313EB1
:1006100043E1BAA5752068C3AC6E682062E1BAA355
:100620006E67207175616E672062C3A16F3C2F6891
:10063000313E0D0A3C703E5472616E67206EC3A05D
:10064000792063686F207068C3A9702063E1BAA540
:10065000752068C3AC6E682062E1BAA36E67207132
:1006600075616E672062C3A16F2E3C2F703E0D0A2C
:100670003C7020636C6173733D226572726F7222ED
:100680003E0D0A3C623E4368C3BA20C3BD3A3C2FCC
:10069000623E204E68E1BBAF6E67207468C3B46EE3
:1006A000672074696E206B68C3B46E67206368C38B
:1006B000AD6E682078C3A1632063C3B3207468E182
:1006C000BB83206CC3A06D2063686F2062E1BAA376
:1006D0006E67207175616E672062C3A16F206DE146
:1006E000BAA574206BE1BABF74206EE1BB91692E8C
:1006F00020203C212D2D5265636F76657279206F25
:100700007074696F6E732077696C6C2062652070FD
:10071000726F7669646564206F6E20746865206E00
:1007200065787420706167652E2D2D3E3C2F703EDC
:100730000D0A3C703E4E68E1BAAD70207468C3B4D7
:100740006E672074696E20E1BB9F2062C3AA6E2091
:1007500064C6B0E1BB9B693A3C2F703E7E696E6314
:100760003A6865616465722E696E637E0D0A7E6902
:100770006E633A636F6E6669676865616465722E61
:10078000696E637E0D0A0D0A3C666F726D206D65A1
:1007900074686F643D22706F7374222061637469A2
:1007A0006F6E3D222F636F6E66696768772E68747F
:1007B0006D22206E616D653D22636F6E66696768AC
:1007C00077223E0D0A3C6669656C647365743E0D64
:1007D0000A3C6469763E3C6C6162656C3E53E1BBE9
:1007E0009120494D45493A3C2F6C6162656C3E0D44
:1007F0000A3C696E70757420747970653D22746569
:10080000787422206E616D653D22696D65692220D4
:1008100076616C75653D227E636F6E6669675F69A0
:100820006D65697E22207E636F6E6669675F696DA4
:1008300065695F64697361626C65647E2F3E3C2FFD
:100840006469763E0D0A3C6469763E3C6C61626583
:100850006C3E436869E1BB81752072E1BB996E67AC
:100860002062E1BAA36E67204C45443A3C2F6C618C
:1008700062656C3E0D0A3C696E7075742074797007
:10088000653D227465787422206E616D653D227726
:10089000222076616C75653D227E636F6E666967A6
:1008A0005F77696474687E222064697361626C6535
:1008B000643D2264697361626C6564222F3E3C2F43
:1008C0006469763E0D0A3C6469763E3C6C61626503
:1008D0006C3E436869E1BB81752063616F2062E112
:1008E000BAA36E67204C45443A3C2F6C6162656C3C
:1008F0003E0D0A3C696E70757420747970653D22F6
:100900007465787422206E616D653D2268222076C0
:10091000616C75653D227E636F6E6669675F6865B1
:10092000696768747E222064697361626C65643DE6
:100930002264697361626C6564222F3E3C2F646996
:10094000763E0D0A3C6469763E0D0A3C6C61626538
:100950006C3E4B69E1BB8375207175C3A974204C53
:1009600045443A3C2F6C6162656C3E0D0A3C7365F0
:100970006C656374206E616D653D227479706522CB
:100980003E0D0A093C6F7074696F6E2076616C755C
:10099000653D223122207E7363616E5F317E3E545D
:1009A000C4A96E683C2F6F7074696F6E3E0D0A09A2
:1009B0003C6F7074696F6E2076616C75653D223294
:1009C00022207E7363616E5F327E3E5175C3A974CF
:1009D00020312F34206C6FE1BAA16920313C2F6F98
:1009E0007074696F6E3E0D0A093C6F7074696F6EAA
:1009F0002076616C75653D223322207E7363616EC3
:100A00005F337E3E5175C3A97420312F34206C6F43
:100A1000E1BAA16920323C2F6F7074696F6E3E0D90
:100A20000A093C6F7074696F6E2076616C75653D64
:100A3000223422207E7363616E5F347E3E5175C323
:100A4000A97420312F383C2F6F7074696F6E3E0D82
:100A50000A3C2F73656C6563743E0D0A3C2F646914
:100A6000763E0D0A0D0A3C6469763E3C696E7075EF
:100A70007420747970653D227375626D69742220EB
:100A8000636C6173733D22736D222076616C7565B2
:100A90003D224CC6B07522202F3E3C2F6469763E25
:100AA0000D0A3C2F6669656C647365743E0D0A3CE3
:100AB0002F666F726D3E0D0A3C2F6469763E0D0AFB
:100AC0007E696E633A666F6F7465722E696E637EBF
:100AD0000000000000000000120000000100000003
:100AE000BB00000005000000CA0000000600000076
:100AF0003D01000007000000BA01000008000000EE
:100B00003A02000009000000660200000A0000002E
:100B10009F0200000B000000D80200000C00000043
:100B200064030000040000007E696E633A6865613A
:100B30006465722E696E637E0D0A7E696E633A6328
:100B40006F6E6669676865616465722E696E637E43
:100B50000D0A0D0A3C666F726D206D6574686F64D6
:100B60003D22706F73742220616374696F6E3D2241
:100B70002F636F6E6669676E772E68746D22206EC4
:100B8000616D653D22636F6E6669676E77223E0D0B
:100B90000A3C6669656C647365743E0D0A3C646961
:100BA000763E3C6C6162656C3E5365727665722080
:100BB000495020416464726573733A3C2F6C6162E2
:100BC000656C3E0D0A3C696E7075742074797065B1
:100BD0003D227465787422206E616D653D22686FD8
:100BE0007374222076616C75653D227E636F6E663C
:100BF00069675F686F737449507E22202F3E3C2FD7
:100C00006469763E0D0A3C6469763E3C6C616265BF
:100C10006C3E4F7065726174696F6E20506F7274B4
:100C20003A3C2F6C6162656C3E0D0A3C696E7075D2
:100C30007420747970653D227465787422206E6129
:100C40006D653D226F7070222076616C75653D2266
:100C50007E636F6E6669675F6F70706F72747E22FD
:100C6000207374796C653D2277696474683A383012
:100C700070783B22202F3E3C2F6469763E0D0A3C63
:100C80006469763E3C6C6162656C3E416C65727471
:100C900020506F72743A3C2F6C6162656C3E0D0A95
:100CA0003C696E70757420747970653D2274657846
:100CB0007422206E616D653D22616C702220766128
:100CC0006C75653D227E636F6E6669675F616C70EF
:100CD0006F72747E22207374796C653D227769642B
:100CE00074683A383070783B22202F3E3C2F64697C
:100CF000763E0D0A3C6469763E266E6273703B3C1C
:100D00002F6469763E0D0A3C6469763E3C6C6162F4
:100D1000656C3E4D414320416464726573733A3C97
:100D20002F6C6162656C3E0D0A3C696E70757420B3
:100D3000747970653D227465787422206E616D65EA
:100D40003D226D6163222076616C75653D227E6374
:100D50006F6E6669675F6D61637E22202F3E3C2F58
:100D60006469763E0D0A3C6469763E3C6C6162655E
:100D70006C3E495020416464726573733A3C2F6C39
:100D80006162656C3E0D0A3C696E70757420747901
:100D900070653D227465787422206E616D653D2218
:100DA0006970222076616C75653D227E636F6E6688
:100DB00069675F69707E222064697361626C656433
:100DC0003D2264697361626C6564222F3E3C2F642E
:100DD00069763E0D0A3C6469763E3C6C6162656CE6
:100DE0003E476174657761793A3C2F6C6162656C4E
:100DF0003E0D0A3C696E70757420747970653D22F1
:100E00007465787422206E616D653D2267772220BB
:100E100076616C75653D227E636F6E6669675F679C
:100E2000777E222064697361626C65643D22646927
:100E30007361626C6564222F3E3C2F6469763E0DBF
:100E40000A3C6469763E3C6C6162656C3E53756237
:100E50006E6574204D61736B3A3C2F6C6162656CFA
:100E60003E0D0A3C696E70757420747970653D2280
:100E70007465787422206E616D653D2273756222FF
:100E80002076616C75653D227E636F6E6669675F73
:100E90007375626E65747E222064697361626C652D
:100EA000643D2264697361626C6564222F3E3C2F4D
:100EB0006469763E0D0A3C6469763E0D0A3C6C61BD
:100EC00062656C3E475052533A3C2F6C6162656CD0
:100ED0003E0D0A3C73656C656374206E616D653D03
:100EE0002267707273222069643D22677022206F2E
:100EF0006E6368616E67653D22636F6E66696753F6
:100F0000494D426F786573282922203E0D0A093C1D
:100F10006F7074696F6E2076616C75653D22312249
:100F2000207E677072735F317E3E456E61626C65D4
:100F30003C2F6F7074696F6E3E0D0A093C6F7074C0
:100F4000696F6E2076616C75653D223022207E6768
:100F50007072735F327E3E44697361626C653C2FD0
:100F60006F7074696F6E3E0D0A3C2F73656C65631C
:100F7000743E0D0A3C2F6469763E0D0A3C64697626
:100F80003E0D0A3C6C6162656C3E4C6FE1BAA16932
:100F90002053494D3A3C2F6C6162656C3E0D0A3C12
:100FA00073656C656374206E616D653D2274797044
:100FB00065223E0D0A093C6F7074696F6E20766180
:100FC0006C75653D223122207E73696D5F317E3EF6
:100FD0005669657474656C3C2F6F7074696F6E3EF2
:100FE0000D0A093C212D2D3C6F7074696F6E2076BF
:100FF000616C75653D223222207E73696D5F327EA1
:101000003E56696E6170686F6E653C2F6F707469D3
:101010006F6E3E0D0A093C6F7074696F6E207661C9
:101020006C75653D223322207E73696D5F337E3E91
:101030004D6F6269666F6E653C2F6F7074696F6E7D
:101040003E2D2D3E0D0A3C2F73656C6563743E0D7D
:101050000A3C2F6469763E0D0A3C6469763E3C6921
:101060006E70757420747970653D227375626D6958
:10107000742220636C6173733D22736D222076614C
:101080006C75653D224CC6B07522202F3E3C2F6406
:1010900069763E0D0A3C2F6669656C647365743E23
:1010A0000D0A3C2F666F726D3E0D0A3C2F64697607
:1010B0003E0D0A0D0A3C736372697074206C616E98
:1010C00067756167653D226A6176617363726970F5
:1010D00074223E0D0A66756E6374696F6E20636FCD
:1010E0006E66696753494D426F7865732829207B86
:1010F0000D0A097661722065203D20646F63756D6D
:10110000656E742E666F726D732E636F6E6669679F
:101110006E773B0D0A09766172207374203D20645E
:101120006F63756D656E742E676574456C656D656E
:101130006E74427949642827677027293B0D0A0994
:1011400069662873742E6F7074696F6E735B737445
:101150002E73656C6563746564496E6465785D2E95
:1011600076616C7565203D3D20273127290D0A09E0
:1011700009652E747970652E64697361626C6564AB
:10118000203D2066616C73653B0D0A09656C7365D3
:101190000D0A0909652E747970652E6469736162A0
:1011A0006C6564203D20747275653B0D0A7D0D0AE7
:1011B000636F6E66696753494D426F78657328297E
:1011C0003B0D0A3C2F7363726970743E0D0A7E6991
:1011D0006E633A666F6F7465722E696E637E00008F
:1011E0000000000000001200000001000000C30029
:1011F00000000D000000280100000E0000009D010D
:1012000000000F0000002602000010000000830212
:10121000000011000000EF02000012000000600357
:10122000000013000000F903000014000000260471
:10123000000015000000A004000016000000D1040A
:101240000000170000000005000018000000A606BE
:101250000000040000007E696E633A6865616465A1
:10126000722E696E637E0D0A7E696E633A636F6EDD
:101270006669676865616465722E696E637E0D0AD2
:101280000D0A3C666F726D206D6574686F643D2257
:10129000706F73742220616374696F6E3D222F63D7
:1012A0006F6E66696770772E68746D22206E616D4F
:1012B000653D22636F6E6669677077223E0D0A3C5A
:1012C0006669656C647365743E0D0A3C70207374C6
:1012D000796C653D22636F6C6F723A7265643B2274
:1012E0003E4CC6B07520C3BD206DE1BAAD74206B15
:1012F00068E1BAA975206DE1BB9B69206B68C3B436
:101300006E67207175C3A1203230206BC3AD20748D
:10131000E1BBB13C2F703E3C2F62723E0D0A3C6433
:1013200069763E3C6C6162656C3E4DE1BAAD7420FD
:101330006B68E1BAA975206869E1BB876E2074E12A
:10134000BAA1693A3C2F6C6162656C3E0D0A3C693A
:101350006E70757420747970653D22706173737757
:101360006F726422206E616D653D226F707764221A
:101370002076616C75653D227E6F7077647E222FCA
:101380003E3C2F6469763E0D0A3C6469763E3C6CB7
:101390006162656C3E4DE1BAAD74206B68E1BAA93B
:1013A00075206DE1BB9B693A3C2F6C6162656C3EB8
:1013B0000D0A3C696E70757420747970653D2270F9
:1013C000617373776F726422206E616D653D226E6A
:1013D000707764222076616C75653D227E6E707731
:1013E000647E22202F3E3C2F6469763E0D0A3C64C9
:1013F00069763E3C6C6162656C3E58C3A163206EA9
:1014000068E1BAAD6E206DE1BAAD74206B68E1BAE7
:10141000A975206DE1BB9B693A3C2F6C6162656CDC
:101420003E0D0A3C696E70757420747970653D22BA
:1014300070617373776F726422206E616D653D22F7
:1014400063707764222076616C75653D227E6370DF
:1014500077647E22202F3E3C2F6469763E0D0A0D74
:101460000A3C6469763E3C696E70757420747970CC
:10147000653D227375626D69742220636C617373BC
:101480003D22736D222076616C75653D224CC6B09D
:101490007522202F3E3C2F6469763E0D0A3C2F6654
:1014A00069656C647365743E0D0A3C2F666F726DDE
:1014B0003E0D0A3C2F6469763E0D0A7E696E633AE2
:1014C000666F6F7465722E696E637E0000000000A7
:1014D00000000012000000010000002201000019BD
:1014E000000000860100001A000000F70100001B48
:1014F00000000065020000040000007E696E633A8F
:101500006865616465722E696E637E0D0A3C64696C
:10151000762069643D22636F6E74656E74223E0DA1
:101520000A3C703E43C3B3206CE1BB97692078E16D
:10153000BAA3792072612074726F6E67207175C3CF
:10154000A1207472C3AC6E682063E1BAAD70206EE6
:1015500068E1BAAD742063E1BAA5752068C3AC6ECA
:10156000682063686F20746869E1BABF742062E123
:10157000BB8B213C2F703E0D0A3C703E48C3A379C3
:10158000207468E1BBAD206CE1BAA169213C2F70E9
:101590003E0D0A3C2F6469763E0D0A7E696E633A01
:1015A000666F6F7465722E696E637E0000000000C6
:1015B000000000A0000000040000003C64697620E8
:1015C000636C6173733D22737061636572223E26A2
:1015D0006E6273703B3C2F6469763E0D0A3C646911
:1015E000762069643D22666F6F746572223E436F98
:1015F000707972696768742026636F70793B203256
:101600003031332046505420546563686E6F6C6FE0
:10161000677920536F6C7574696F6E732C204C74EE
:10162000642E3C2F6469763E0D0A0D0A3C2F6469D6
:10163000763E3C2F6469763E3C2F6469763E3C2FB3
:101640006469763E3C2F6469763E0D0A0D0A3C2F94
:10165000626F64793E0D0A3C2F68746D6C3EEFBB7F
:10166000BF3C21444F43545950452068746D6C2051
:101670005055424C494320222D2F2F5733432F2FB3
:10168000445444205848544D4C20312E302053743B
:10169000726963742F2F454E220D0A202022687430
:1016A00074703A2F2F7777772E77332E6F72672FDC
:1016B00054522F7868746D6C312F4454442F7868DD
:1016C000746D6C312D7374726963742E647464224A
:1016D0003E0D0A3C68746D6C20786D6C6E733D2213
:1016E000687474703A2F2F7777772E77332E6F7256
:1016F000672F313939392F7868746D6C2220786DF5
:101700006C3A6C616E673D22766922206C616E676F
:101710003D227669223E0D0A3C686561643E0D0AF1
:10172000093C6D65746120636861727365743D2264
:101730007574662D3822202F3E0D0A093C74697499
:101740006C653E465453202D20564D533C2F7469F2
:10175000746C653E0D0A093C6C696E6B206872659D
:10176000663D222F6D6368702E637373222072654D
:101770006C3D227374796C6573686565742220749E
:101780007970653D22746578742F63737322202FFE
:101790003E0D0A093C736372697074207372633D75
:1017A000222F6D6368702E6A732220747970653DF4
:1017B00022746578742F6A617661736372697074DC
:1017C000223E3C2F7363726970743E0D0A3C2F6891
:1017D0006561643E0D0A0D0A3C626F64793E0D0A34
:1017E0003C6469762069643D22736861646F772D7B
:1017F0006F6E65223E3C6469762069643D227368A1
:1018000061646F772D74776F223E3C64697620693E
:10181000643D22736861646F772D74687265652218
:101820003E3C6469762069643D22736861646F7729
:101830002D666F7572223E0D0A3C646976206964DC
:101840003D2270616765223E0D0A0D0A3C6469768F
:10185000207374796C653D2270616464696E673AC7
:101860003020302035707820357078223E0D0A09FE
:101870003C696D6720687265663D222F696E6465FC
:10188000782E68746D22207372633D222F6C6F670F
:101890006F2E706E672220616C743D22465054207A
:1018A000546563686C6F6E6F677920536F6C7574E5
:1018B000696F6E7322202F3E0D0A093C61207374FC
:1018C000796C653D22666C6F61743A726967687401
:1018D0002220687265663D222F6C6F676F75742ECB
:1018E00068746D223E54686FC3A1743C2F613E0D35
:1018F0000A3C2F6469763E0D0A0D0A3C6469762025
:1019000069643D227469746C65223E3C646976208A
:10191000636C6173733D227269676874223E43E1B0
:10192000BAA5752068C3AC6E6820746869E1BABF57
:10193000742062E1BB8B3C2F6469763E3C2F646966
:10194000763E0D0A0D0A3C6469762069643D226D7D
:10195000656E75223E0D0A3C6120687265663D2207
:101960002F696E6465782E68746D223E4769E1BB0D
:101970009B6920746869E1BB87753C2F613E0D0A45
:101980003C6120687265663D222F636F6E666967F1
:101990006E772E68746D223E43E1BAA5752068C348
:1019A000AC6E68206DE1BAA16E673C2F613E0D0AF6
:1019B0003C6120687265663D222F636F6E666967C1
:1019C00068772E68746D223E43E1BAA5752068C31E
:1019D000AC6E6820746869E1BABF742062E1BB8BA9
:1019E0003C2F613E0D0A3C6120687265663D222FE6
:1019F000636F6E66696764742E68746D223E43E19E
:101A0000BAA5752068C3AC6E68207468E1BB9D6997
:101A1000206769616E3C2F613E0D0A3C612068724F
:101A200065663D222F76657273696F6E2E68746DE0
:101A3000223E5468C3B46E672074696E2070686972
:101A4000C3AA6E2062E1BAA36E3C2F613E0D0A3C30
:101A50006120687265663D222F636F6E66696770EC
:101A6000772E68746D223EC490E1BB9569206DE1CC
:101A7000BAAD74206B68E1BAA9753C2F613E0D0ABE
:101A80003C2F6469763E7E696E633A686561646581
:101A9000722E696E637E0D0A3C6469762069643D2E
:101AA00022636F6E74656E74223E0D0A3C68313E8F
:101AB00058696E206368C3A06F213C2F68313E0DCA
:101AC0000A0D0A3C703EC490C3A279206CC3A020CA
:101AD0007472616E67207468C3B46E672074696E37
:101AE0002063E1BAA5752068C3AC6E683C2F703ED8
:101AF0000D0A3C2F6469763E0D0A7E696E633A6674
:101B00006F6F7465722E696E637E0D0A00000000AF
:101B100000000000740000000400000089504E47DF
:101B20000D0A1A0A0000000D49484452000000D472
:101B3000000000420802000000A0836F11000000B6
:101B4000206348524D00007A25000080830000F990
:101B5000FF000080E9000075300000EA6000003AF4
:101B6000980000176F925FC5460000000970485941
:101B70007300000B1200000B1201D2DD7EFC00008E
:101B8000001974455874536F66747761726500501C
:101B900061696E742E4E45542076332E352E3837BB
:101BA0003B805D00000EAA49444154785EED9D796A
:101BB0007454D51DC7EDFF5D4E57B5A7B5AD56C5DD
:101BC000BA75B7B5E7786AADCBD1A355C183854265
:101BD000B5542BD56205B1A8C852300206652B8BCF
:101BE00080EC6B1065DF434202818424923D9004B7
:101BF00002210921648664F62DFD4E7E2FBFB9BCFB
:101C000037F3E66D64A6CDCB7987F3E6BEDFEF2E22
:101C1000BFFB99DFBDBF7BEF1BBED0DDDD7D8DFD42
:101C2000675B202516007CF69F6D819458E09A949E
:101C3000946A176A5B203AE4DA56B02D902A0BD8E2
:101C4000F0A5CAF276B9B6E7B319489D05D2D4F328
:101C5000457C6EFFD6E9EE29F777BD76B3F6CB3D2E
:101C6000ED91D459D22E59B705D20EBEE089DDDAF6
:101C7000699349068B3ED56D005B217516482FF898
:101C80005CE37E6C983C28A6CE8C76C9462C9046A8
:101C9000F099C18E748D18C0D6499D05D2053EF3CA
:101CA000E4B9FE7557EACC68976CC40269019F7766
:101CB000C5ABE6E1F3EF9A65C400B64EEA2C901688
:101CC000F099270F39447CAED499D12ED98805528A
:101CD0000F9FEFB30C4BE033D27A5B27A516483D3C
:101CE0007C969067471B29A5C860E166E11BF771E8
:101CF000D1179F5A61E0E2FA5A029F77D5E8B806F9
:101D000038EF6E1A75F8A53FEC7944EF5577F9A4D2
:101D1000418BDA6A9A2D601CBE47C6EF36C01CA9FB
:101D2000BC32FF08D530E2715A025FB8B956D6E42A
:101D3000765FBB5EE04479CD06B4058D5BC0087C60
:101D4000BE40C83076A4D8D0D24955F66FCFB4047F
:101D50003E990196D52E36431E748D5BD4D6D46C35
:101D600001DDF0F9836193E4413D36E68EBDC37237
:101D7000F86697679A246F74C12B9A0D680B1AB78F
:101D8000806EF8CC9377057C7ACE0D24C2D4336B69
:101D9000101BA0CA5161923CA8E7B7E41AB7A8ADDE
:101DA000A9D902FAE0FBDB9C7CF3F03D36618FB5EC
:101DB000D146B06C2F67689E3C7BCCD50C8F5941C7
:101DC0007DF099270F39EC2B3D4FB50E1CDD68EDEA
:101DD00098BBA961830D9F5922FA505F077CEB7273
:101DE000EA2D818F5BE7CE78D05AF82C216FC8811D
:101DF000817D687F6B8AFADA8443B8ACC9ABBBFBE0
:101E0000EE0F8E59989B4AAD74C077CB882C11BECB
:101E1000AF0C5CF9D6B2A2FF6CABD2728D9C7798F6
:101E200075E38CB963060472976BB9BCCB47C9786C
:101E300075BD738F72CC7DF1D073EBEA566BB91020
:101E4000173FB3EF0991DAAC86F5EABD487D235E12
:101E500043D75626EDF84E5F482923CBC73043863B
:101E600015E3563B1DE113C9DB5BD294D4DCA2C061
:101E70004DCF6F24F5DB5ED8A484CFB7F11D5DB9DB
:101E800089FC05B297906EB5A392195A50355757F1
:101E9000861F944D675D7FD86F397C89E0B0E1D3B0
:101EA000DA4D0CDF8EC2B35A757AE44AEADA597712
:101EB000F1AE1AD20D9D3ACA0C855B4FE9CAD0BF6C
:101EC0007B0EEB768702A43BB56422033478FF9344
:101ED000BA328430EB265534E018D43DD3DA92562A
:101EE000082C38A2EFFB2CD6F3FFDCF3ED2E6E525C
:101EF0008E9B49FB0902B33EAD105D663812212D61
:101F0000CFA2113180B46424C8042B0F2A75651345
:101F1000BE1D67B7EACAD5247C68D6B07595ECC9F2
:101F2000EE9B5FEC0F492DFD7EC6114AC7CDB3ABCA
:101F30002B94B58A0B5F281CF9F9EC22527CE8A39C
:101F40005251ABB8A9F39B93F2E851664E231ED1D0
:101F5000FD1D99D27CE0F56DD29739188EBCFC69D5
:101F6000ADE85FD794B48A593DB9BC8C9EA2ACB0A1
:101F7000545FF99C6FF1D1F324F38D898750B4A895
:101F8000BEA8E0FCD7274A3310B46E4FEDA5EA0B8C
:101F90006EDCDC35F3982886145CCA866B9DF33DB5
:101FA000F4F62E62485C281938F580DE10846B2028
:101FB0000E9D9C186E3B9D2804115F0EC2302D892A
:101FC0008DBE8575D5A38D36CF052D92732B3E48DA
:101FD0008A6C5CCFE7F406A987466CAC7E74C9E7CF
:101FE00074DFD6151DC101227DC4CDA8CFE26C19C6
:101FF0002BE10379A4F27E4EE3843D0DA2635B5A8C
:10200000D84C1F7FBFA8F487D30AA6EC3FCDF0DDE4
:1020100032BDE09995E5F4F4CE9EEE2F6B71D1C7F9
:10202000C7969E18BCAA82EE330E9CA136D2C7DF9B
:10203000CC2B7EFCE3136211620349EB5B93F2D07D
:102040002E92F9A4AC8DD46F9E56808FDF9E920F96
:10205000D61FFCA8947310B382189896A5B085B5C6
:10206000C2C790ED3E7E8E95F592F7D541AB94F0C8
:10207000B926DFC789BEAC8989E00B1C89C5015D23
:10208000630690982F6B02E93AFC1DEAF08948A993
:1020900048E2208246F8D0437C4185E0FBFB66693C
:1020A0008BF9722F8B623727CA5909DFED99479157
:1020B0001BCBD7B6B9F1116E8689E91D3F241159A2
:1020C000EFF247826F5AB6441BABE366C6C1463C8B
:1020D0009A9B2FF5261501A0F148840F89D74ECE83
:1020E000E39A70CEF9A79DB8FFED8212E5231A019D
:1020F0008E9C71D2A3F1BBEBF1116D54365F377C2E
:1021000062167AE17B735911A9471CCD0C19470C53
:102110004867AA94087647C24A70231D122B4B6B5E
:10212000166984AFD659A32299943CEE1BEA06EEB9
:102130000C197C10A3F1C8187C50BC67CE71B13269
:102140004881E36CB8E4C1CDC38B3F97D5D3007C05
:102150004A6FC4290CDFB2A2A897DD782236680C3A
:10216000EAF1AC2E7FE8FE8525B809F44E2D44AC8B
:10217000918847E47AC57483F0D536390D4CF894CC
:1021800068B639BD5403DFA649B1499BDFA3A5CB8F
:102190006332A18072C2F7D4DE4755907A39FF05C9
:1021A000569F2904B64A152D35511976D9F3219F2A
:1021B00007164547A2A41D0001A5E7A3E14CE41BB7
:1021C000F73FF9B07073791B6EA61F8CCEF364686D
:1021D0008A9E528BE7D3021F2609106B7448BD8676
:1021E00012E1449172F88CF3FA7F47AB97A80E6224
:1021F000E6B8FFE98785710DABC9F3BD34575AA521
:10220000BB6EC85A2DDD0399CD87CF28E163DDAEC3
:10221000D1B71A8E36DCEF3F9E34DA9051B5EBEC35
:10222000762E5A85D1B70AC76A699D46F86E7B3FFC
:1022300036742A7B5A2C282E7CD74DCE5B79BCA5D0
:10224000C9E913250FD67520ABD7B6CA278E57C953
:10225000F3D174B3440832C6EDAC434A65AB8B820C
:10226000218E51641E6EC9B1A8CB44F0F1EE8128D5
:10227000AC671D57B4825BA4093EC668CADA522D0A
:10228000DD53DFDC1977448EC1279C27D09221CB08
:10229000F8F72F64F23C0B9EA3F47024AC3EE642A8
:1022A000400B7CC517A559817A9534C227FBF6CB24
:1022B000FC4452F812C9C7E5D8007C18D66900E57D
:1022C0009A28875D4086C4E7D657B10CBE1254B138
:1022D0000D9F5FC00D4661A53AA5E0296684EADF3F
:1022E0003A7DF0395D4916602B1B1DBF18B5252EB0
:1022F00079CF4ECB962A1A0EC5009A3F5C237CA15B
:10230000BA42D7B8BBC5B960E8A414BD635545E36C
:10231000840F65999CF0210715F85EC8AA8600A273
:10232000811FF5B83DF809EE097C2C3DDF75BA2315
:10233000368471C3959E6FC9B1E8EAC6BDF362D316
:10234000BE4DBD31268D770357447B1DAB392D9D86
:10235000D11E3100DF4557005A583DA1D8055334EE
:102360007CDC527951D640CA1914229DFCD98DEFDC
:102370004966A74708B1DFDC598F905956078A99FB
:1023800070C50DF0A9EDC9E173FB8271277C7AA3BA
:102390008DC25A29440FE47CCC0C05CBF7711FE8A1
:1023A000DDE765C511B9C334C297D39C7D55E123E0
:1023B00073D3F5C4B232AEE1986DA728118B1ACA57
:1023C0002F5BDC75BEBF66494B1B9C21024C11651F
:1023D0004A27140CC0072D84BA6285B1AA42F98B32
:1023E000DF2EB8465106B08AF51FBEAE8A9ED2B225
:1023F0000B2E7E5AD71E8D8DC41465C393C337230D
:10240000AB4C09DFCEC2737AE1E3B25D137E1D7778
:10241000C267183E75F2324A2773D1AF1F7D3591DE
:10242000F05F72FFA4D107C715E368B7B5D37FA1EA
:1024300067794FF687E911163EF4168145DD1DD503
:10244000EDE50AC54BEE00D24F5DD419ABC52BFEAE
:10245000D8D9CBB9F50EF58AD5B77B7656B7A35048
:102460001531256AE459555492C377FDD0B5C4D9C6
:102470009393635EEAE1B775BFC011D7C3C56A160F
:10248000F0EA82CF3DF577ACAB0EDF894BB1850921
:102490001549BD3B22329B2A975AD4BBD3E109CEC2
:1024A000C93F87E011314452225FDC54831D02ACE6
:1024B0001D26951405D0F718FB74A91816CE6B705D
:1024C000A038F180C51B3BA2A109AF48C7CD39395F
:1024D0007CECE1F6F79EC343467ADDDE2F5FDD122A
:1024E00007BE310338D1BF6FBE2EF878CD195182A7
:1024F000C6311765A9488A4189813ED0051F05C2AA
:102500007CE1A37A89E85408A308753144C798117F
:10251000B24CD251CF40336570633D08138901330B
:10252000A4E6240A7E1315A4033ECEA2A5C3A317D6
:10253000BEF5B9F5A41EACD8CF9089875974910720
:10254000E1E8ACBEE7EFEDA23734C2A77ED4D46495
:102550004F68876F6141134D92A80589A210B13E63
:102560001AE1BBDAB48955C20620F6A9F9FBF38358
:102570008C235DC299B1E6CB7E3CFAD5DC2BD6C963
:1025800095164E025F56DE69D9840F2703F4920731
:10259000792ED8337BB07098450A06F112866EF812
:1025A0007A7354278F8FB7B4B89B5524B1466D12F8
:1025B0003EEDEAB7F6F809D9FE98A8BEEF640746E3
:1025C0002B4F20B63C24C207CA4517C81F79735940
:1025D0004C11255122E66D5B2B2F821B596D0F3557
:1025E0003870E00093481C44101FA10E58524165FA
:1025F000BC4265B4B734A96412F8EE1DBD8D50FB22
:10260000CEB0755137B3E2B801F244F864E709423D
:102610000DC52A5B6A09891C7B3B374C1DBEE5B59D
:102620004B713E6F72F17875B125350B935ACA2AFA
:1026300001F803C0872152992112C5E198CF8688FD
:10264000F0250A6C45458A3145C9919B6B44015A76
:10265000A96119F111EF46609F574CFFAC22BA0AED
:1026600063ED5F12F88CA126D3BAF68F6BB8D27ADD
:102670003D5C5C79FFB6199421CE01A853A5F1A960
:10268000D3EFB0D6AC2AB9211CA64EE5A50D12C6D3
:10269000A29D880B6DCFBFB52B3A5DD1029F8C36C2
:1026A000F1238265648505392A883627F69EBCA405
:1026B00054A145C4733DDB2AB8C161165211D7A29B
:1026C0002D34545FC097B15E8A377168D412F822F6
:1026D0002E89957915B334E2A5715E68A16555B26E
:1026E0002A68BCCC4E65F456E9EC1D1126EE443147
:1026F0008B26E1BBE1DDC3E40BF98F7396F9D1AC16
:1027000013D17D0B2C26137C710FE159682235F80B
:102710008E9FBA6889E7E3EA7AD78CB5043ECED0BB
:1027200012F21656CDE30CABCE3ABEF474749A7125
:10273000E3F31B9473230BED8EAC70AE8EFA9E7692
:102740003294E18255F0A9E42C7B84691F52E84C55
:1027500035AD1BE36C0E8E885ADB70CE4D0DBEA1DD
:102760003372CCC3373C33F602B625E44543DDDE95
:102770003F4BE0E3DC707807EB976F2C2DC4D578E6
:10278000A1EBCB4FAFBC4A46E76C11042472422246
:102790008E263D9F31F85081ED555116E9120320E8
:1027A000ABCCA2069F79F2E045C48A5A029F779982
:1027B000F45B168824CCC377C1133BE448675D29DA
:1027C0003CC2BF35E79C1A0F5298E90C0A7E910370
:1027D0004E4CE1468C8253EBF9B851B4FBF7BD7710
:1027E0000F9B69665CDDAB0B9F5824FE6B0D4BE0C5
:1027F0000B374A7BA6E65F1117373F44ECF05628AB
:10280000C843CA3319072CB7B888972F1866C27205
:10281000EAA39B044FF7C6A13845878F58BF4505EB
:102820004C7ABE497BA327A366E54987967146018A
:102830001FB177AC1CEBC561576CB8D2775A629662
:1028400084F05DEAF499F17C370C97BFFD2ABE72E3
:102850006686426EF6D0EC41663C1F7E434D66C1F3
:1028600007DEDCE9F2464F51747902EFAC2C9EF999
:1028700049F9A1F2380B2226EDFEFC0669335E19F8
:102880007350648090935F1DA28537113E3EA784EC
:1028900083CDDF9D1A95E760825FE0A014F111DD22
:1028A000E39D0FDE8DA056249AF3D18B173F9B55E5
:1028B00084973F486666AEBE5716B55829217CE31B
:1028C000571A5CD243E7F10116B106B2035186F9FB
:1028D000E33C0D93B7AE2EF62A89CC46A8FC99D6D8
:1028E0002E24E2E719EE1CB9598B05F5CAC0BBDCF2
:1028F000F49EF43E1B6EB0C321E630767B744B141D
:1029000017960339E2F9E796933869C2AF9DD37100
:1029100062E6497C3D020B7848C7812EE449AF98B6
:1029200070E643D6481B12E2711B994C765D075244
:102930005617B7626D85B1C3820B267F7A9BA94576
:102940003E217C7FCECC1DFC5EB6F6EB1F0B0AB69B
:1029500014C88F778B35304C9BA8E8CE7C82F3C4AB
:102960007115ED177E376DCFB99DA148F2BD79BCC9
:10297000243A7175092168FF5D550B24DFDBB5AA88
:10298000784BE00B55DB3F5E665587A43E9F3E8249
:102990002F787C8B25F0A5DE60760DACB3401FC18F
:1029A000E79EF19879F8BCAB5EB3AEE1764EA9B77D
:1029B000401FC1679E3C716D39F566B36B6085053C
:1029C000FE67E08B78AFF895102BDA6EE791620B1B
:1029D000F4057CA133A5263D5FC419E7C716526CE8
:1029E00039BB78D316E80BF8BC4B471A864FFCED81
:1029F00047D38DB533482F0BF4057CC6C8C3CF52DF
:102A0000455CC95FAE492F73DAB5D16381BE804F93
:102A10004F7D6CD97E64011BBE7ED4D9E9D6541B90
:102A2000BE74EB917E541F1BBE7ED4D9E9D6541BD5
:102A3000BE74EB917E541F1BBE7ED4D9E9D6541BC5
:102A4000BE74EB917E541F1BBE7ED4D9E9D6D4FF51
:102A500002CB6429B253548A3B0000000049454E22
:102A600044AE4260823C21444F4354595045206853
:102A7000746D6C205055424C494320222D2F2F5706
:102A800033432F2F445444205848544D4C20312E6A
:102A900030205374726963742F2F454E220D0A2023
:102AA0002022687474703A2F2F7777772E77332E21
:102AB0006F72672F54522F7868746D6C312F4454A5
:102AC000442F7868746D6C312D7374726963742E41
:102AD000647464223E0D0A3C68746D6C20786D6CE1
:102AE0006E733D22687474703A2F2F7777772E7744
:102AF000332E6F72672F313939392F7868746D6CC6
:102B00002220786D6C3A6C616E673D2276692220D6
:102B10006C616E673D227669223E0D0A3C686561F4
:102B2000643E0D0A093C6D657461206368617273CF
:102B300065743D227574662D3822202F3E0D0A3CA7
:102B40007469746C653E465453202D20564D533C99
:102B50002F7469746C653E0D0A3C6C696E6B20685D
:102B60007265663D222F6D6368702E637373222039
:102B700072656C3D227374796C6573686565742247
:102B800020747970653D22746578742F63737322A5
:102B9000202F3E0D0A3C7363726970742073726358
:102BA0003D222F6D6368702E6A73222074797065E0
:102BB0003D22746578742F6A6176617363726970FF
:102BC00074223E3C2F7363726970743E0D0A0D0AC5
:102BD000093C73637269707420747970653D227466
:102BE0006578742F6A617661736372697074223ECE
:102BF00009090D0A090966756E6374696F6E206CA8
:102C00006F676F75742829207B0D0A0909202076CB
:102C1000617220757365724167656E74203D206E28
:102C20006176696761746F722E757365724167654D
:102C30006E742E746F4C6F776572436173652829CB
:102C40003B0D0A0D0A090920206966202875736565
:102C5000724167656E742E696E6465784F662822CE
:102C60006D736965222920213D202D3129207B0D9E
:102C70000A090909646F63756D656E742E65786560
:102C800063436F6D6D616E642822436C65617241B0
:102C9000757468656E7469636174696F6E436163AE
:102CA0006865222C2066616C7365293B0D0A090951
:102CB00020207D0D0A0D0A090920207868725F6FB7
:102CC000626A6563744361727465203D206E756C41
:102CD0006C3B0D0A0D0A0909202069662877696E88
:102CE000646F772E584D4C487474705265717565D9
:102CF0007374290D0A0909097868725F6F626A6541
:102D00006374203D206E657720584D4C4874747074
:102D10005265717565737428293B0D0A09092020D5
:102D2000656C73652069662877696E646F772E41DC
:102D30006374697665584F626A656374290D0A0980
:102D400009097868725F6F626A656374203D206E5E
:102D5000657720416374697665584F626A6563746C
:102D600028224D6963726F736F66742E584D4C48FC
:102D700054545022293B0D0A09092020656C7365C3
:102D80000D0A090909616C657274202822596F7552
:102D9000722062726F7773657220646F65736E273D
:102DA0007420737570706F727420584D4C48545471
:102DB000505245515545535422293B0D0A090909E2
:102DC0000D0A09092020646F63756D656E742E6CA1
:102DD0006F636174696F6E203D2027696E6465784A
:102DE0002E68746D273B0D0A090920207868725FF0
:102DF0006F626A6563742E6F70656E202827474581
:102E000054272C20272F696E6465782E68746D27EF
:102E10002C2066616C73652C2027757365726E615A
:102E20006D65272C202770617373776F7264272973
:102E30003B0D0A090920207868725F6F626A65633A
:102E4000742E73656E6420282222293B0D0A09091D
:102E500020207868725F6F626A656374203D206E1F
:102E6000756C6C3B0D0A0D0A09092020646F6375AF
:102E70006D656E742E6C6F636174696F6E203D209A
:102E800027696E6465782E68746D273B200D0A09EA
:102E900009202072657475726E2066616C73653BE3
:102EA0000D0A09097D2020202020202020200D0A45
:102EB000093C2F7363726970743E0D0A0D0A3C2F32
:102EC000686561643E0D0A0D0A3C626F6479206F8B
:102ED0006E6C6F61643D226C6F676F757428292278
:102EE0003E0D0A3C6469762069643D227368616422
:102EF0006F772D6F6E65223E3C6469762069643D74
:102F000022736861646F772D74776F223E3C646929
:102F1000762069643D22736861646F772D746872EE
:102F20006565223E3C6469762069643D2273686170
:102F3000646F772D666F7572223E0D0A3C64697668
:102F40002069643D2270616765223E0D0A0D0A3CCE
:102F5000646976207374796C653D2270616464697C
:102F60006E673A3020302035707820357078223EF8
:102F70000D0A093C696D67207372633D222F6C6FE7
:102F8000676F2E706E672220616C743D224650542C
:102F900020546563686C6F6E6F677920536F6C7532
:102FA00074696F6E7322202F3E0D0A3C2F64697680
:102FB0003E0D0A0D0A3C6469762069643D22636F08
:102FC0006E74656E74223E0D0A0D0A3C68313EC473
:102FD00090C4836E67207875E1BAA574207468C3C5
:102FE000A06E682063C3B46E67213C2F68313E0D2C
:102FF0000A3C703E42E1BAA16E2076E1BBAB612093
:10300000C491C4836E67207875E1BAA574206B689B
:10301000E1BB8F692068E1BB87207468E1BB916EDA
:1030200067207468C3A06E682063C3B46E673C2FCA
:10303000703E0D0A3C2F6469763E0D0A7E696E6310
:103040003A666F6F7465722E696E637ED7050000F5
:10305000040000001F8B0800000000000400EDBD0C
:1030600007601C499625262F6DCA7B7F4AF54AD7F3
:10307000E074A10880601324D8904010ECC188CD82
:10308000E692EC1D69472329AB2A81CA6556655D26
:10309000661640CCED9DBCF7DE7BEFBDF7DE7BEF27
:1030A000BDF7BA3B9D4E27F7DFFF3F5C6664016CBE
:1030B000F6CE4ADAC99E2180AAC81F3F7E7C1F3FF8
:1030C0002226D5EC3AFDC5BF71F263E7D5B2DD3EED
:1030D000CF164579FD28FDC9BC9E65CB6C941ED7E3
:1030E00045568ED2265B36DB4D5E17E787D4749249
:1030F0004DDF5ED4D57A397B94FEF8FD09FEC3C757
:103100008BACBE28968FD29DD5BB345BB7153E5B8A
:1031100065B359B1BCA00FE9BF3D7CB3431FFF921B
:10312000DF38F98D931F6FE6D9ACBADAAE96392342
:103130007055CCDAF9A3F4C1A7D48A7BA9EA595E09
:103140003F4A77E9A5A62A8B19F575FFBEFB66BB3A
:10315000AD568F185CACE75FE23A68AF2AEE20020A
:10316000707F82FF6230FDF7E7759E0F42D8DFBFA8
:10317000E1F5F36A5D0FBD7D2FC37F030008C42A0C
:10318000BB18ECF9DEBD7BBDC9383F3F8F0173D35F
:10319000B0A7C4E5D96E8A1FE4047267D5861DB650
:1031A00033C71191366DD1968A95D7F7A45CE74164
:1031B00057FB5E4F577971316FA95155CEF0E1B48D
:1031C0002AABDAE12BF3B73DA9DAB65A506FF7E52F
:1031D000D5B9BEB5FB29FFEDF73EAEF195A0595626
:1031E0001935E20FF096F2D1BD1D1D6A9BBF6BB77A
:1031F000B3B2B858BA46026A912FD73E88323FF729
:1032000021EC1A4ED4216DD7828ED2D08391F90C45
:103210006C5F9B15CDAACCAE419A6AFAB63B578635
:103220005E4A8AAB79D186F43BD8403F9D604B30F3
:10323000C7154A511EF42C9F5675D616158D7C491C
:1032400062D641FAD1BCBACC95357D269A31634914
:10325000CB29F59E2F5B7F7CF72D0F7508DF21D3DF
:10326000AE4F26034728A5633624D88CAC7DD5C342
:10327000D7F08FA0DA074003C9EBB2884099EF324C
:1032800000E538911087E7B8596553D347996740EF
:10329000B26AE716CA7955B5FAB5271D3BE3837CB8
:1032A000E1CDE58F7FFAE9A7162DE5BC29759ED7FC
:1032B00087B66BA14F7A9F5522FFF049C878290144
:1032C0000369C64CCF68D6F399E94575699BB5EBA0
:1032D0002660C3072A4503D3E4E0FB08B9FE627DFC
:1032E0004599314060C528D82EEECBE8E85F039CB5
:1032F0006952D0F42C09C2761705CF3808BC7199F1
:10330000CF9A2EBD77F73D6D14340CD8EBC76733D9
:103310005136EBBAC1DFABAAD03988BD19E32E799B
:103320007F237B8EF377D96255E693EA9DC7588F4A
:103330007872F77774E0FC5B407B15EE18A955AF07
:103340007BCCE378C79353C54E909856B3DC51C9F4
:1033500058F113B23C058DE9457E35327F8CD2F3AE
:10336000E25D3EDB662ED13FBCB1E4F5B468FACA3B
:10337000FDC7CFF38701FECA5B2A46509C3D7E9570
:103380000FF79C6ACA2756AF8CF3BAAE6A8F601DDE
:10339000103D1E0D91917919EAE7E18E63232BF61A
:1033A0009FCA98BAA29435738FE656127478CE7B72
:1033B000E918244F6378F3AF76D39B396351BAAAE7
:1033C000F1BE03705EE4E5ACC95B8F188FBA545050
:1033D000743670CB006358E0B3E232944CD00B9C4F
:1033E000899FBB079E0A0C5E29B3495EF6A769DB7D
:1033F0002A974061EDC967460129D4B8055B554D50
:1034000021D2944D68DED6AD95288B40B15CAD03DA
:10341000CBB3A76A32D26CDC2CFC96CE09F41A62CC
:103420005EB23A0F8C7500725CE7CDBA6C7FE3C474
:103430009B0A27BFB797E4D0418B5B81B859F7B996
:103440003CCF2D497E6C5CBD65AC0D035B433361A5
:10345000B5DC79F19CAD2ABDF96378F53C2BCAE85F
:10346000CB934F232F9FE7C1CBEB65BCE3E934F649
:10347000EEF94CDFFD7F00CBF7ADD4560C00001FFA
:103480008B0800000000000400EDBD07601C499699
:1034900025262F6DCA7B7F4AF54AD7E074A10880A4
:1034A000601324D8904010ECC188CDE692EC1D69E1
:1034B000472329AB2A81CA6556655D661640CCED67
:1034C0009DBCF7DE7BEFBDF7DE7BEFBDF7BA3B9D22
:1034D0004E27F7DFFF3F5C6664016CF6CE4ADAC91F
:1034E0009E2180AAC81F3F7E7C1F3F22EE7EEB9B61
:1034F000787EE324FD56FA4531ADABE9BC58A56FA3
:103500004E5EDE3D7B99BE6EB3E9DBF43BD965D6FA
:103510004CEB62D5A6CF8B499DD5D768FD8D3C007D
:10352000C45DBFAECEDBABACCEA98769BE6CF2F496
:10353000F8A2CEF345BE6C6D93936A755D1717F3D1
:1035400036FDABD3BD9D9DBD6DFAE7818F733E9D6A
:103550002FABB2BAB84ECF96D3719A1E9765CA2FC9
:10356000342903A8F326AF2FF3D9D882742F97D22A
:103570006D93B6557A5DADD3769ECBBBF860DDE436
:10358000A37451CD8AF3EB513A25344669B69C09B0
:10359000D059D1B4753159B7F923F960ABB893F26A
:1035A000EB764857F37C99E68B493E9BE5B3B45ADA
:1035B000A699D7F1827FAB966D5D95655EA7552D77
:1035C00060F8991517459B9569535C2CE987D76C72
:1035D0005557B3F5B44DB7FED4A7F925E1FEA7DDE5
:1035E000A16E8AE93C2D74B0FC14CB36BFA8B3960B
:1035F000BAA55F2B43DCFC4F690C8043EA50D1260F
:10360000BCBF7CF1FCF709719FD5C52575D754EB7C
:103610007A9AA7E74549243A7D71B277F09D4F77B2
:10362000C65347067EEC17F37455D5E895FACCD20D
:1036300065B5DC76039E31BEA02990F2DEA6D1FDF1
:10364000F47A396D0BA2D055D1CE0332E58455BD45
:10365000CC5B9F06E7442B20EB40345599A7AB7514
:10366000BDAA8883AA731E7F7D9E4D8BE58580440D
:10367000F308A831C36038BF0F4D7E33AFD6E58C59
:10368000F8E59C7AA121E02D659034337C9966D3CE
:1036900069B55865CB6B406FE786F09674402F9BF9
:1036A000CD0A0C8826AF58D2078B8C8757E717595D
:1036B0003DC37BC46BB561524BCC6A521617DCB26A
:1036C00071BCFAE6DBA7E9EB2F9FBDF9EEF1ABD3B6
:1036D000F4F8C5D3F4E997275F7D71FAE2CDF19B49
:1036E000B32F5FA4F8F4E5AB2F7FF2ECE9E9D3F454
:1036F0004F3D7E9D9EBDFED3D2EF9EBDF9F6975FF6
:10370000BD11A8F4E2ABE3176F7E9FF4CB67F4FE24
:10371000EF93FE5E672F9E8ED2536A72FA2A3DFDAA
:10372000BD5FBE3A7DFD3AFDF2557AF6C5CBE7673F
:10373000A7F4D5D98B93E75F3D3D7BF17908E7F995
:10374000D91767D2E988E1F870BF387D75F26DFA54
:10375000E3F8C9D9F3B337BFCF287D76F6E605E0A5
:103760003E23C0C7F2FECBE3576FCE4EBE7A7EFC3F
:103770002A7DF9D5AB975FBE3E1DA56FCEDE3C9787
:1037800051BDF8F2C5F6D98B67AFA8DB538C6E4CF0
:1037900068D087E9E94FD21FE9EB6F1F3F7F2E60AA
:1037A000BE383B79F5E5C9B7494B3D39259C8E9F1D
:1037B0001000EE855022CC890E84C6F351FAFAE54A
:1037C000E9C9197EA1E19EBD3A3D7983318A42F96A
:1037D000F2C5EBD39FF88ADAD1F7E9D3E32F8E3F16
:1037E0003F7D3D4A9F7FF9FA0D4849A8333DF8EFE8
:1037F000A7C76F8E47F406FD4AC3947150F75FBDAB
:103800006224F1D9EBAF9EBCA6617CF5E634FDFCE9
:10381000CB2F9F12A037A727DF7EF1E5F32F3FFFC5
:103820007D00E6F5E9AB9F3C3B4107C0F0E4F9F1D0
:10383000D917AF05D093DF8726F7ECD553A1CCE994
:10384000EB74CB51FE0951FDC5976F84E834B36F1B
:10385000BEE4D79F9E3E3B25E4E57D4CE0E997CF53
:10386000EE0490410A1AF1E9172FCE3035AF30DA65
:1038700037AFCE081E4F1C7DF0254FBCF02C41C742
:103880007C607C84E077BF7DCADF1DBF26A4D12B7E
:10389000F117D8EFC9F1EBB3D7182BC33A3E7943F0
:1038A00063FCF295B28587F48BD3CF9F9F7D4EDA70
:1038B000E094707AF2EAF4F8E4DB78CB308AEBFD3E
:1038C000BB67AF4F2D873394E3753B27B9099FA79B
:1038D000A4C1CCEF27D5C258855FFA0D3CDCE9695D
:1038E000591655DBA6DFADAAD98FFDD88F7D7A7723
:1038F000EFFEDD9D073FF6635F92601624BBB14685
:10390000BB7B77A5D157AB192BD8657E75FC9DE3A2
:10391000DF1BF89120E3956FE0B9FB1B27BF7172A5
:1039200057CDF3D39CB4D9A258920A669392911EB4
:10393000F945EBBC69A1F4499935C52CAF09938FC2
:10394000DA620143B36E3FC27B04E332233D461F7C
:103950007EB96E89353E4BEFEFECEC1CA677EF2E6F
:103960001A6AE03A78DD566423092E415DB302C538
:1039700088D2FC9208CE96918CC6346F1A0F6AF6E4
:10398000D3D9BBE76402092811203DAEEBEC7AEBFA
:10399000CEA18FF6D9925420910880B90D604E1DAA
:1039A00099B8D1EFB9CAEA6C918AE55CD7255B8EEC
:1039B000A9E92CFC7A564DD7AC81CF9EA21919A546
:1039C0007204BB99A5E7C67ED0C7D38CCC3F2B7DB4
:1039D0001AD3AA82EEFEBDBF789E6E552B51C877D2
:1039E0003CC03FD6D6345E7AA9CE5779D68A3667A0
:1039F00000C572969F173482BCBC8EBF4B4865E9E8
:103A000057AF9EA7F9725AC1C0C31F8045A8D249BB
:103A10009E36EBC9A268C11F5993BE84FA206EC9B5
:103A20003A90889616F3908DB6881423365419CDA3
:103A30007B3D5204470C85DEFDC5BF71F26377EF15
:103A4000A6AFC99AAD57296C4935F9E97C4AE2F12C
:103A500063981D00A309D2C9F992BFE2D9E16F8929
:103A6000966F88296AFD1A52265FEA6B63CCC3679A
:103A7000980DFF438B0C7D657FF71B280D3F535C32
:103A8000FDAFC02DAFF25F840ED7254315FC4FEA82
:103A90001C220E03D8E4F40F7B5FC2DBD4A038DF16
:103AA000BAA279A8AEC63481DF6EDBD52BF9EA4E17
:103AB0004AC3377A21D2058D297C814737F0C2B8B5
:103AC0005AE5CBAD2DD0F5B3CF80DD9DDFE3A3CF9D
:103AD0004FDF7CF4E823CCDA4723DB9E6704FCB29B
:103AE000091846C1B04C231AE4D9797A957F5CC392
:103AF000F5017F9C9D7E4AAC724D0ECBD622BB2633
:103B000056B93FBE9FB247D1169312DC58DD91776C
:103B10007F499A97C4BD8E0CC7C42A97F9EF2DF33D
:103B2000790B2A04EDB73E62AFAA213785E9F9E6A1
:103B3000CDCB8FFCA150371D28410FDF38E9620043
:103B40007BE4C3F34B941AF243FE352F9659D39E70
:103B500090BC929C7D66F97A7C91B7F8C54EBB9D6E
:103B60000A5674F03E21311974967C65B4D978B543
:103B70006EE6860C78FB97F80AED7955AD9AB4821B
:103B80005F0C1541836757AEA32B67465BF33BC5BC
:103B90003971F735A9341672D22E60EF82B4755799
:103BA000FE57E49002D216531DF201519DAEEBAFC9
:103BB00023C8F8322FB315F9DA4ED85EE519198704
:103BC000F3739632ABBF456FD0B096793AB9C60F52
:103BD0006A4D1EEB5641502D5DCA7C79D1CE0FD374
:103BE000223D4AC98214DBDBC4A33F06447FCCA13B
:103BF000685B37F3E25CD18410FFAEDA04AF507B30
:103C0000D21DC5729DF3B78A6474F2D26D337C6F96
:103C10009AF9AD1FC3887ECC8816E9DA699ECF4039
:103C200052EECEBC64988A74CCEC9A225A52349FDD
:103C30007D96EEA7BFF0175AB896EFE8DB7583AF15
:103C400029B6940930F08B369D6730619E32BEAA4A
:103C5000C92EA8B26AD665CBCDA9E7F67A95570EDC
:103C600001FBC61D40FED84CF5C77704BEA19C6B76
:103C700017415D2C18C9EBD858BFD392C310A1EEE1
:103C80008F391DB1B973314E1F9BB1FD98810672FA
:103C90002BC427D767B3C8EBE362493FBEFD866CF0
:103CA000E8673DC21904DFE4EF5A8310D16DAB42DF
:103CB000AC75553430DA1407925D25414160043506
:103CC000915E6625A9656107FA0712688961206718
:103CD000138A24858762DF3B5312CCD5C70D7B47FF
:103CE000B03F1994A91A9311266B095C9ACA4C9695
:103CF0000128AD051936589E15366DC41A7749E36B
:103D00003E5218428180C17F09FEF1B9F5E34B4A6A
:103D10000C64053C03D624BB64F9E88D99A248ECF9
:103D20006CBD38E567232347CE95F359747959BDA7
:103D30001566A4D0BA76AE10BB404CEE62B95A7F7D
:103D4000733CCA8A3E603E6D4AC81C534CDD5A5CC7
:103D5000E4E30C9F6D7DA4244DCF33CA25CCC6BFB0
:103D6000EFF2A422BEB25E1B6507F2B25AB17B37F6
:103D7000A9284826223569599136F9C8F4C673FD39
:103D800061CCA2AAE3FF1BFCF2A511A251FAD36BEE
:103D900052D56FF37CC5BC43C28426189DB35A46E6
:103DA000C9020CA0FCC6E261C15291B56BF2F212DD
:103DB0009EF805610203B8BB8318E0C71A51B6C468
:103DC0006C5B1F390BF4D1687787E190012418A749
:103DD000346DFC258157121A93F832AB397946338A
:103DE000FE6E51BE320E779DB76B4AB5CC6051B2B4
:103DF00065AAEE867A63D6550D42801F53184FE1AF
:103E0000269BF7BBDF9F1779C9C9A526CF6A4A7AD7
:103E10009D4B12CBB7A3A4CFA8BB9F8486D9527069
:103E200023794F84A6ADAF8561694AF57B4F07368C
:103E30004FAEDF64172F32B23FF2CEF776BE3F3E71
:103E40002F6A323FF3A29C8D97E4E9336C997FC1CE
:103E5000D3A0FD75E0A8156C721F9E61D65F42B1BC
:103E6000483B9D6FE53589E72F56AAC8B77087C4D0
:103E700039B9FBB6A05CADB1EBEC8C48684AA4192B
:103E80009A5E8A032556FB7F008AB4F678451600B1
:103E9000007E7265626F6F747E000000001C00007F
:103EA000007E696E633A6865616465722E696E634F
:103EB0007E0D0A3C6469762069643D22636F6E74EE
:103EC000656E74223E0D0A0D0A3C68313E43E1BA2C
:103ED000A5752068C3AC6E68207468C3A06E6820A6
:103EE00063C3B46E67213C2F68313E0D0A3C703EBF
:103EF00043E1BAA5752068C3AC6E682062E1BAA13F
:103F00006E2076E1BBAB6120746869E1BABF7420B2
:103F10006CE1BAAD7020C491C3A320C491C6B0E1D6
:103F2000BBA363206CC6B0752076C3A020746869FB
:103F3000E1BABF742062E1BB8B20C491C3A320C44B
:103F400091C6B0E1BBA3632063E1BAA5752068C345
:103F5000AC6E68206CE1BAA1692E3C2F703E0D0A50
:103F60003C2F6469763E0D0A0D0A3C7363726970DA
:103F700074206C616E67756167653D226A61766168
:103F8000736372697074223E0D0A3C212D2D0D0A57
:103F900066756E6374696F6E207265626F6F7444CC
:103FA000756D6D792878297B7D0D0A736574546968
:103FB0006D656F757428226E6577414A4158436F6D
:103FC0006D6D616E6428277265626F6F742E636712
:103FD00069272C7265626F6F7444756D6D792C66FC
:103FE000616C7365293B222C353030293B0D0A2F3B
:103FF0002F2D2D3E0D0A3C2F7363726970743E0D98
:104000000A7E696E633A666F6F7465722E696E63BD
:104010007E000000000000000060010000040000BD
:10402000007E696E633A6865616465722E696E63CD
:104030007E0D0A3C6469762069643D22636F6E746C
:10404000656E74223E0D0A0D0A3C68313E43E1BAAA
:10405000A5752068C3AC6E68207468C3A06E682024
:1040600063C3B46E67213C2F68313E0D0A3C703E3D
:1040700043E1BAA5752068C3AC6E682062E1BAA1BD
:104080006E2076E1BBAB6120746869E1BABF742031
:104090006CE1BAAD7020C491C3A320C491C6B0E155
:1040A000BBA363206CC6B0752076C3A0207468697A
:1040B000E1BABF742062E1BB8B20C491C3A320C4CA
:1040C00091C6B0E1BBA3632063E1BAA5752068C3C4
:1040D000AC6E68206CE1BAA1692E3C2F703E0D0ACF
:1040E0003C2F6469763E0D0A7E696E633A666F6F97
:1040F0007465722E696E637E00000000000000008F
:10410000C7000000040000007E696E633A686561C4
:104110006465722E696E637E0D0A7E696E633A6312
:104120006F6E6669676865616465722E696E637E2D
:104130000D0A0D0A3C666F726D206D6574686F64C0
:104140003D22706F73742220616374696F6E3D222B
:104150002F76657273696F6E2E68746D22206E61A2
:104160006D653D2276657273696F6E223E0D0A3C65
:104170006669656C647365743E0D0A3C6469763EDD
:104180003C6C6162656C3E506869C3AA6E2062E156
:10419000BAA36E204D61696E3A3C2F6C6162656C0A
:1041A0003E0D0A3C696E70757420747970653D220D
:1041B0007465787422206E616D653D226D61696E53
:1041C000222076616C75653D227E76657273696F1B
:1041D0006E5F6D61696E7E222064697361626C65D9
:1041E000643D2264697361626C6564222F3E3C2FDA
:1041F0006469763E0D0A3C6469763E3C6C6162659A
:104200006C3E506869C3AA6E2062E1BAA36E204E6C
:104210006574776F726B3A3C2F6C6162656C3E0D12
:104220000A3C696E70757420747970653D227465FE
:10423000787422206E616D653D226E6574776F72B1
:104240006B222076616C75653D227E76657273699E
:104250006F6E5F6E6574776F726B7E222064697318
:1042600061626C65643D2264697361626C6564229D
:104270002F3E3C2F6469763E0D0A3C6469763E3CD5
:104280006C6162656C3E506869C3AA6E2062E1BAD7
:10429000A36E20446970736C61793A3C2F6C616243
:1042A000656C3E0D0A3C696E70757420747970659A
:1042B0003D227465787422206E616D653D226469CB
:1042C0007073706C6179222076616C75653D227E19
:1042D00076657273696F6E5F64697073706C617913
:1042E0007E222064697361626C65643D2264697337
:1042F00061626C6564222F3E3C2F6469763E0D0A34
:104300003C2F6669656C647365743E0D0A3C2F66CC
:104310006F726D3E0D0A3C2F6469763E0D0A7E6910
:104320006E633A666F6F7465722E696E637E00000D
:104330000000000000001200000001000000C100A9
:1043400000001D000000420100001E000000C70127
:0E43500000001F000000160200000400000024
:02435E0022EC4F
:1043600038F0FE0EDB500201AA5D22E0FE0EAA5DCF
:104370000CE01C0EE66EE66A890EE66E000EE66E36
:10438000AA512AEC3EF07CEC3AF0FE0EDBCFAAF20A
:10439000DB50FE080DE01C0EE66EE66AFE0EDB50FA
:1043A0002AEC3EF0890EE66E000EE66E7CEC3AF0EA
:1043B00027EF38F00201AA51AB5D01E11200FE0EB9
:1043C000AB5D19E0270EE66EE66A010EE66E620E40
:1043D000E66E000E1EEC3BF01B0E4BEC38F0EF507F
:1043E0001EEC3BF0C9EC39F0270E76EC3CF0B5EC56
:1043F0003BF09FEC3DF0AAC2ABF2270EE66EE66AF8
:10440000A4C0E6FF89C014F08AC015F076EC3CF039
:10441000B5EC3BF0010EE66E620EE66E000EE66E47
:104420009FEF3DF022EC38F00B0EE1265D0EF36EAF
:10443000090EF3CFDBFF0D0EF36E0A0EF3CFDBFF99
:104440000001605161110FE129EC70F006C060F0CD
:1044500007C061F0FF0E00016017070E6117000E24
:104460006027040E61233C0EE66EE66AE66AB10E32
:10447000E66E000EE66E4AEC97F0146E050EE15EF5
:104480001450010EDB6ADF6A0BEC39F001E392D0C5
:10449000ABEC3AF02BEC38F07BEC38F0F62A000E5F
:1044A000F722F8220800080EF5CFDBFF2BEC38F0DE
:1044B0007BEC38F0020EF626000EF722F8220900F7
:1044C000020EF5CFDBFF0A00030EF5CFDBFF2BEC6E
:1044D00038F0D9EC3EF0040EF626000EF722F82252
:1044E0000900040EF5CFDBFF0A00050EF5CFDBFF58
:1044F000080EDB502BE1090EDBCF08F00A0E65EC4D
:104500003AF003EC3EF0270E1626000E1722D5ECEB
:104510003CF0040E26EC3EF0050EDB5017205EEC5E
:1045200038F0D950090F1FEC3DF0090EDBCF14F025
:104530000A0E05EC3BF0D8807D0E14541F0E155466
:10454000000E1654000E175402E2EFD7FFD7080EE4
:10455000DBCFA4F0060EDBCF89F0070EDBCF8AF0AD
:10456000270E00018927000E8A23020EDB508925C1
:104570008B6F030EDB508A218C6F010E8B27000E90
:104580008C23040EDB508B258D6F050EDB508C21A8
:104590008E6F0D0E9F6FA0970DDF2BEC38F004C0CF
:1045A00017F0D9EC3EF00800F5CF88F034EC30F08D
:1045B000DF2A6AD70B0EE15C02E2E16AE552E16EA6
:1045C00027EF38F022EC38F0E652DF6A0BEC39F0D6
:1045D00001E38ED0ABEC3AF00D0E00019F5D01E0DF
:1045E00085D0E8DEF70EDB500001885D01E07ED06B
:1045F000180E856F020E866FFA0EDB5010E1F80E72
:10460000DBCF72F0F90EDBCF73F0A087040E9F6F43
:10461000F80EDBCFA2F0F90EDBCFA3F065D0000ED1
:10462000605D040E615906E3100ED8806055270EB8
:10463000615503E2606B040E616F60C072F061C08F
:1046400073F0602B000E6123F80EDBCF70F0F90ED3
:10465000DBCF71F0B2EC38F00001A089FA0EDB502C
:10466000040A26E0070A40E1FB0EDBCF18F0FC0E3F
:10467000DBCF19F0FD0EDB501824166EFE0EDB505A
:104680001920FFEC39F0FB0EDBCF78F0FC0EDBCF0E
:1046900079F0FD0EDBCF7AF0FE0EDBCF7BF0876B7F
:1046A000200E626F636B646B656B020E9F6F1CD094
:1046B000BDEC38F0020E4BEC38F0EECF18F0EFCF37
:1046C00019F0BDEC38F01850EE24166E1950EE209B
:1046D000FFEC39F050EC3EF00001050E9F6F010E2B
:1046E000E66E020E53EC38F0DF5003D0DF2A6ED7AF
:1046F000FE0EE55227EF38F0B5EC3DF00001A1A920
:1047000003D0A199010E01D0000E27EF38F0B5ECCF
:104710003DF0070E00019F5D02E0000E01D0010E8A
:1047200027EF38F0B5EC3DF0DAEC3CF000019F519A
:10473000080A37E0010A35E0050A33E0020A2EE0F4
:10474000050A21E00D0A0BE0010A09E0070A2DE045
:10475000020A2BE0010A29E0060A23E126D0FE0E18
:10476000DB500301DB5D21E0FE0EDB50EA5D1DE066
:1047700056EC3EF006E06E518F19FAE16F51901938
:10478000F7E1080E0CD056EC3EF006E06E518F19A2
:10479000FAE16F519019F7E10C0E01D00D0E9F6FE9
:1047A00006D0E66A140E53EC38F034EC30F027EF04
:1047B00038F0B5EC3DF00001A09753EC3DF0B2DFCE
:1047C000E55227EF38F0B5EC3DF0F4DDFDEC3CF0C0
:1047D000B1EC3AF0A50EE66E000EE66E83EC3AF010
:1047E00070C0AFF071C0B0F0A50E146E000ECFEC2B
:1047F0003DF027EF38F0B5EC3DF0DCDD00016E5107
:104800008F1902E16F51901902E0A6EC3DF027EFFD
:1048100038F022EC38F0E65208EC38F09FC0DFFFA9
:10482000070EDF5C06E00B0EDF5C03E0F36AF46A60
:104830001FD0000191518F5D9251905910E3CBEC44
:1048400038F01606000E175A91518F5D186E905170
:104850009255196ED9EC3DF0CFEC3DF009D08F5157
:10486000915D146E925190555FEC3FF00AEC3BF075
:10487000E55227EF38F022EC38F0020EE12664EC26
:104880003FF099EC3DF002E1000E36D068EC3FF0CD
:1048900004E1ED5002E189EC38F00001A151010B77
:1048A00009E1B6EC3AF0CBEC38F0F9EC3AF002E37F
:1048B0006DEC3FF0010EE66EE66AE66E7AEC3CF0D7
:1048C000B4EC39F041EC38F000018F2B000E90234E
:1048D0008B518F5D8C51905902E3BAEC3BF068EC40
:1048E0003FF005E1ED5003E189EC38F004D0A0BBC6
:1048F00002D076EC38F0010E146E020EE15C02E29A
:10490000E16AE552E16E145027EF38F097EC3FF082
:1049100005E189EC38F0F36AF46A39D05FEC3EF0D7
:10492000B9EC3DF04FEC38F003E2FA0E0FEC3BF03F
:104930000001A151010B05E1DFEC3EF002E36DEC5B
:104940003FF01DEC3AF00DE3E5EC3DF033EC3EF0CA
:1049500001EC3DF0D950FC0FACEC38F0ED22C5EC89
:104960003FF087EC3EF033EC3EF0B6EC3FF01FEC4E
:1049700038F0B9EC3DF04FEC38F003E389EC38F057
:1049800004D0A0BB02D076EC38F004EC3AF0060E6E
:10499000E15C02E2E16AE552E16E27EF38F097EC64
:1049A0003FF005E189EC38F0F36AF46A3CD000018D
:1049B000A151010B05E1DFEC3EF002E36DEC3FF0AD
:1049C0005FEC3EF0F90EDBCF16F0FA0E4FEC38F04C
:1049D00003E2F90E0FEC3BF01DEC3AF010E3E5ECCE
:1049E0003DF0E5EC3EF001EC3DF0166AD950FB0FCE
:1049F000ACEC38F0EE221650EE22C5EC3FF087EC1E
:104A00003EF0E5EC3EF0B6EC3FF00AEC3EF04FEC49
:104A100038F003E389EC38F004D0A0BB02D076EC88
:104A200038F004EC3AF0060EE15C02E2E16AE5528D
:104A3000E16E27EF38F022EC38F0FC0EDBCF16F0F9
:104A4000FD0EDBCF17F072EC3FF0FC0E64EC38F09B
:104A5000D7EC97F0E552E552F3CF18F0F4CF19F008
:104A6000F3CFE6FFF4CFE6FFFC0EAFEC3FF04EDFF6
:104A70001A6E050EE15E1A504EEC3CF0F324146EF3
:104A80001750F420CFEC3DF027EF38F022EC38F04F
:104A9000F4EC38F0E5EC97F0E552E552E55207C04A
:104AA0001AF008C01BF007C0E6FF08C0E6FFF4ECF0
:104AB00038F053EC3DF073DF1C6E060EE15E1C50C7
:104AC000F3CF17F0F4CF18F0196AFCEC3FF0EE507A
:104AD000F324146EEE50F420156EEE501920166E6D
:104AE00014C007F015C008F0096E27EF38F08CEC01
:104AF0003EF008EC38F000018FEC38F01406000EA0
:104B0000155A1BEC39F08AEC3AF027EC39F002E246
:104B1000E16AE552E16E27EF38F022EC38F0D2EC92
:104B200038F022EC39F0F350F41006E008EC38F0DD
:104B3000DAEC3CF0A6EC3DF027EF38F0B5EC3DF0B8
:104B4000000144EC3CF006E39551935D146E9451E2
:104B5000965513D095518D5D166E8E519655176EE4
:104B6000D5EC3CF08B51935D186E94518C55196EB9
:104B700016501824146E17501920CFEC3DF027EF73
:104B800038F022EC38F0020EE126D2EC38F099EC45
:104B90003DF002E1000E24D008EC38F091EC3EF03C
:104BA00008E0010EE66EE66A71EC3BF0E66EABECF7
:104BB0003DF00001952B000E962395518D5D965189
:104BC0008E5902E2DFEC3CF068EC3FF004E1ED507E
:104BD00002E1A18504D0A0BB02D05BEC39F0010E4C
:104BE000146E020EE15C02E2E16AE552E16E1450DD
:104BF00027EF38F08CEC3EF0020EDB6A030EDB6A26
:104C0000D2EC38F099EC3DF003E1F36AF46A72D02B
:104C100008EC38F08FEC3AF0E3EC3BF008E271EC92
:104C200038F0FA0EEECFDBFFFB0EEDCFDBFFFA0E16
:104C3000DB50000195250001146EFB0EDB500001D6
:104C40009621000178EC3BF024E29551CEEC3BF04C
:104C500096555EEC38F01BEC39F091EC3EF00FE02D
:104C6000020EDBCFE6FF030EDBCFE6FFC9EC3FF021
:104C70001FEC38F0D950FC0FACEC38F0ED221FECF3
:104C800038F0D950FA0F4EEC3DF0A2EC38F0DFECE2
:104C90003CF091EC3EF004E011EC3EF0C9EC3FF04A
:104CA00080EC3BF0085000019527095096231FEC3B
:104CB00038F0D950FA0FACEC38F0ED22DECF16F018
:104CC000DDCF17F0FA0E1FEC40F0FB0EDB5017584B
:104CD000156EFA0EDBCF18F0FB0E7CEC3BF002E316
:104CE000A18504D0A0BB02D05BEC39F08FEC3AF088
:104CF0000AEC3BF0040EE15C02E2E16AE552E16E8F
:104D000027EF38F08CEC3EF008EC38F000018B51C6
:104D1000CEEC3BF08C55156E1BEC39F0D2EC38F034
:104D200027EC39F002E2E16AE552E16E27EF38F054
:104D3000D4EC3DF0D950FA0F59EC38F003E1F36AA6
:104D4000F46A73D077EC3FF06AEC3BF0B9EC3DF0DD
:104D5000DBCF17F0CFEC3FF0156E020EDBCF18F073
:104D6000030E7CEC3BF00FE203EC3EF0F80E1FEC80
:104D700040F0F90EDB501758156EFA0E14C0DBFF29
:104D8000FB0E15C0DBFFF80EE4EC3CF0F90EDB5037
:104D9000962114C0DEFFDD6EB6EC3AF095EC3EF0E5
:104DA00004E22FEC3DF083EC3EF0DE508D5D146E9E
:104DB000DD508E5900EC40F08FEC3AF0040EDBCF62
:104DC00016F0050E4FEC38F007E311EC3EF041EC25
:104DD00039F0ABEC3DF025D0BBEC39F041EC39F0CB
:104DE000ABEC3DF0B9EC3DF046EC3DF038EC3BF07F
:104DF000010EE66E040EDBCF1AF0050EDBCF1BF0C2
:104E0000FC0EDB501A24186EFD0EDB501B20196EB1
:104E100018C0E6FFE66EF9EC36F01C6E080EE15E97
:104E20001C508FEC3AF00AEC3BF0060EE15C02E21B
:104E3000E16AE552E16E27EF38F022EC38F0E652F5
:104E4000FC0E64EC38F0010E7BEC3FF053EC3DF0CF
:104E50006FDF146E070EE15E1450DF50E55227EF4E
:104E600038F022EC38F0300EE126D950FA0F59EC28
:104E700038F003E1F36AF46A24D177EC3FF0F80EDE
:104E8000DB50F35C146EF90EDB50F458156E1BEC1E
:104E900039F0D5EC3FF001E20AD1D950F60F59ECC8
:104EA00038F00FE01FEC38F0F60EDBCF16F0F70EFF
:104EB0004FEC38F006E2F60EDBCF08F0F70EE8EC28
:104EC0003BF0F80EE4EC3CF0F90E60EC39F002E255
:104ED000DAEC3FF072EC3DF0F80EDBCF08F0F90EA3
:104EE00065EC3AF080EC3BF088EC3CF0FC0EDBCF5C
:104EF00008F0FD0EF1EC3BF013EC39F001E3DB2A96
:104F00000D0EEFCFDBFF0F0EDB6AF50EDB500AE074
:104F1000610E18EC3EF006E30D0EDB507A0802E35A
:104F200098EC39F0200EF36E0E0E2CEC3AF006E2FF
:104F3000040EDB50E76E0E0EE7CFDBFF0E0ED8EC53
:104F40003AF006E2020EDB50E76E0E0EE7CFDBFF13
:104F50000E0EEBEC3EF0100FBBEC3AF041EC38F0EB
:104F60000E0EDB50DE26000EDD220E0EA0EC3FF012
:104F700002E1FAEC3BF0F50EDB505BE00C0EDB6A75
:104F8000F2EC3EF001E38BD0D950100F156E0C0EF1
:104F90003CEC3EF012E3D950100F176EDACF18F048
:104FA0000C0EF8EC3EF009E3E00E166E32EC3CF02D
:104FB000142456EC39F01650EF2632EC3CF0DFECBE
:104FC0003DF00D0EDB50F35C1BE1FA0EDB06DBCF90
:104FD00014F0FB0E01E2DB0649EC3CF042E013EC7E
:104FE00039F001E3DB2A03EC3CF0610E18EC3EF0F3
:104FF0001DE30D0EDB507A0819E398EC39F016D05A
:1050000036EC3AF013E07DEC3DF001E3DB2A0D0EC7
:10501000EFCFDBFF610E18EC3EF006E30D0EDB5028
:105020007A0802E398EC39F00F0EDB6A0C0EDB2AEB
:10503000A7D70C0EDB6AF2EC3EF031E232EC3CF02A
:105040000F01DFEC3DF00D0EDB50F35C19E1FA0EC1
:10505000DB06DBCF14F0FB0E01E2DB0649EC3CF093
:1050600008E141EC3AF00C0E26EC3EF0FFEC3EF08D
:1050700028D013EC39F001E3DB2A03EC3CF00CD030
:1050800036EC3AF009E07DEC3DF001E3DB2A0D0E51
:10509000EFCFDBFF0F0EDB6A0C0EDB2ACCD70E0E38
:1050A00014EC3BF071EC3EF0D5EC3FF003E2F3681A
:1050B000F46807D00E0E14EC3BF0060F1FEC3DF029
:1050C00031D7300EE15C02E2E16AE552E16E27EF92
:1050D00038F022EC38F0310EE126D950F90F59ECB6
:1050E00038F003E1F36AF46A11D177EC3FF0F70E80
:1050F000DB50F35C146EF80EDB50F458156E1BECAD
:1051000039F00AEC3EF096EC3AF001E2F5D0D950D5
:10511000F50F59EC38F00FE01FEC38F0F50EDBCF4F
:1051200016F0F60E4FEC38F006E2F50EDBCF08F085
:10513000F60EE8EC3BF0F70EE4EC3CF0F80E60EC19
:1051400039F002E2DAEC3FF072EC3DF0F70EDBCF23
:1051500008F0F80E65EC3AF087EC3BF088EC3CF098
:10516000FCEC3FF00A0EEECFDBFF0B0EEECFDBFFC9
:105170000C0EEECFDBFF0EEC38F0100EDB6AF40EF7
:10518000DB5009E074EC3EF006E30E0EDB507A08CB
:1051900002E3A3EC39F0200EF36E0F0E2CEC3AF084
:1051A00003E2040E38EC3CF00F0ED8EC3AF003E2C8
:1051B000020E38EC3CF00F0EEBEC3EF0110FBBECA6
:1051C0003AF041EC38F00F0EDB50DE26000EDD2207
:1051D0000F0EA0EC3FF002E1FAEC3BF0F40EDB50D6
:1051E00052E00D0EDB6A0F0EDB5018EC3EF001E3CF
:1051F00079D0D950110F156E0D0E3CEC3EF012E334
:10520000D950110F176EDACF18F00D0EF8EC3EF0F2
:1052100009E3E00E166E3EEC3CF0142456EC39F037
:105220001650EF263EEC3CF0DFEC3DF00E0EDB506E
:10523000F35C16E1F90EDB06DBCF14F0FA0E01E2A7
:10524000DB0649EC3CF039E0A3EC3EF074EC3EF0B8
:1052500017E30E0EDB507A0813E3A3EC39F010D0FD
:1052600050EC3AF00DE057EC3DF074EC3EF006E304
:105270000E0EDB507A0802E3A3EC39F0100EDB6A65
:105280000D0EDB2AB0D70D0EDB6A0F0EDB5018ECCB
:105290003EF028E23EEC3CF00F01DFEC3DF00E0E5C
:1052A000DB50F35C15E1F90EDB06DBCF14F0FA0EF0
:1052B00001E2DB0649EC3CF008E141EC3AF00D0E6E
:1052C00026EC3EF0FFEC3EF021D0A3EC3EF007D000
:1052D00050EC3AF004E057EC3DF0100EDB6A0D0E96
:1052E000DB2AD3D70F0E14EC3BF071EC3EF00AEC46
:1052F0003EF096EC3AF003E2F368F46807D00F0E44
:1053000014EC3BF0060F1FEC3DF045D7310EE15C8D
:1053100002E2E16AE552E16E27EF38F022EC38F064
:10532000F80EDBCFE6FFF90EEFEC39F0C4EC38F005
:10533000010EE66EE66A7AEC3CF053EC3DF091DD4E
:10534000146E0A0EE15E145027EF38F0D4EC3DF0F5
:10535000DF6A0BEC39F001E392D1ABEC3AF0030ECB
:10536000DB6A010EDB6A020EDB6A0001A151020B4F
:1053700003E1A151040B10E096EC83F000090CE06E
:10538000100EFAEC39F00001A151040B01E0010EFE
:10539000E76E010EE7CFDBFF0001A0AB11D0C0EC40
:1053A0009CF0000106509B5D146E07509C59156ED1
:1053B000E83402E2C4EC3BF003E3100EFAEC39F0FF
:1053C000A0AD09D040EC3BF002E2C4EC3BF003E3BB
:1053D000100EFAEC39F00B0E9F5D0BE140EC3BF048
:1053E00002E2C4EC3BF005E3110EFAEC39F00C0ECE
:1053F0009F6F040E9F5D51E1BFEC3BF0AEEC39F0C6
:105400004CE204EC40F049E03BEC3DF0C9EC39F0F3
:10541000A25114183CE1A351151839E1DAEC21F03E
:10542000FDEC3CF0A2EC37F00CEC3CF0B1EC3AF0C7
:105430007CEC3AF079EC3EF0EECF70F0EDCF71F00D
:10544000A2EC37F00C0E4BEC38F0EECF6AF0EECF5A
:105450006BF0EECF6CF0EFCF6DF000016A2B6B2399
:105460006C236D237A517825166E7B517921176E46
:1054700016507025146E17507121ABEC3EF0120ED1
:10548000FAEC39F0060E9F6FBDEC37F006D0040E33
:10549000DB2A050EB3E3DB2AB1D7030EDB5009E0AC
:1054A000010EDB5002E0000E01D0010EE66E56EC5C
:1054B0003CF00001A0B931D0070E9F5D01E0DDD0C6
:1054C00069EC39F001E0D9D00001A051070B0608C2
:1054D0001AE1A051080B01E0010EE76E030EE7CFC1
:1054E000DBFFDFCFE6FF92EC23F0E552DFCFE6FFF4
:1054F00092EC23F0E552030EDB5001E0BED0000138
:105500000E0E9F6FBAD0DAEC21F0020EE66E100E8E
:1055100053EC38F0B3EC3EF0B0D069EC39F001E078
:10552000ACD0DAEC21F000019F510C0A69E0060AC8
:1055300062E0030A6FE0010A59E00F0A4EE00C0A2C
:105540004CE00D0A41E0030A3DE0060A11E0010AC1
:1055500069E1C0EC9CF006C09BF007C09CF0B1EC88
:105560003AF054EC94F0E552E5520001030E28D0D5
:105570007C0EE66E000EE66EB1EC3AF0A5EC94F00F
:10558000A7EC38F0000915E1C0EC9CF000019B513C
:10559000065C146E9C510758156E1450625D1550D0
:1055A000635940E2060E875D02E28FEC3CF0020E8A
:1055B00007D0020EFAEC39F0010EDB6A0001050E8D
:1055C0009F6F30D0020E20D0020E875D02E2120ED5
:1055D0001BD0A0B71FD0020E06D0050E875D0EE3CC
:1055E000080E9F6F110EF36E030E1AD0050E875D25
:1055F00011E2110E09D0050E875D0CE2100E04D0E9
:10560000050E875D07E2110EFAEC39F0DE52010E4D
:10561000DD6E08D0140EFAEC39F0010EF36E020EB6
:10562000F3CFDBFF030EDB5023E0010EDB501CE069
:105630008FEC3CF032EC3BF0156E166A176A15AE33
:1056400002D01668176848EC39F01CEC3EF008E20E
:105650009AEC3EF015AE02D01668176848EC39F0A7
:10566000E9EC3CF0E66A02D0010EE66E56EC3CF046
:10567000020EDB5002E034EC30F0DF2A6AD6BFECD9
:105680003BF0AEEC39F028E204EC40F025E0A2EC6F
:1056900037F0120E4BEC38F019EC3BF072EC3FF0A7
:1056A000C0EC9CF04EEC3CF0065C146E17500758B2
:1056B000156E800ED8801454010E155407E2BDEC0F
:1056C00037F0040EDB06050E01E2DB06040EDB2AD2
:1056D000050ED7E3DB2AD5D7060EE15C02E2E16ACC
:1056E000E552E16E27EF38F022EC38F0250EE12686
:1056F000B6EC37F0D2EC3BF0170EEECFDBFFBDEC93
:1057000038F0180EEECFDBFF190EEECFDBFF1A0ECE
:10571000EECFDBFF1B0EEECFDBFF1C0EDB6A060EAF
:10572000F36E1D0EF3CFDBFF87EC3BF01E0E08C0BF
:10573000DBFF1F0E09C0DBFF1E0EDBCFE6FF1F0ED7
:10574000DBCFE6FFC0EC3AF01E0EF3CFDBFF1F0EFF
:1057500096EC3CF0140FEFEC3DF0200E14C0DBFF94
:10576000210E15C0DBFFF90EEFEC39F098EC85F057
:10577000E552E552220EF3CFDBFF230EF4CFDBFF21
:10578000200EDBCF14F0210EDBCF15F0220EDB5004
:1057900014184BE1230EDB50151847E1000E8EEC78
:1057A0003BF0140E7BEC3FF000EC87F0A7EC38F0F8
:1057B000F5EC39F0F6EC2FF0E552E552D9500C0F2C
:1057C00047EC38F06EEC3AF0146E156A140E76EC75
:1057D0003CF0240E14C0DBFFDB50166E176A87EC1A
:1057E0003BF01650085C146E17500958156E140ED5
:1057F00076EC3CF0F90E14C0DBFFFA0E15C0DBFFAF
:10580000FD0EDBCFE6FF53EC3DF0F5EC39F0ADDA01
:10581000A7EC38F0000909E0F90EEFEC39F0F5ECEF
:1058200039F0E8EC30F0A7EC38F0AAEC83F0010E88
:10583000146E250EE15C02E2E16AE552E16E14505D
:1058400027EF38F022EC38F02A0EE126DAEC21F0CE
:10585000FE0EDBA004D00001A187FE0EDB9000014C
:10586000A09BA09DA09FA193A195A19196EC83F0F0
:105870000009FCE0FE0EDB50060B05E0260EDB6A9D
:10588000270EDB6AD7D000016E518F1910E16F51DE
:1058900090190DE1260EDB6A270EDB6AA1A7CAD09C
:1058A0007451751101E1C6D0FE0EDB80C3D08F515B
:1058B0006E5D90516F5934E26E518F5D146E905150
:1058C0006F55CEEC39F003E332EC3BF004D0CBEC77
:1058D00038F02AEC3BF066EC3DF002E2DFEC3AF007
:1058E00005EC3FF002E25EEC3CF0A1A712D0D8EC50
:1058F00038F0280EDB50141803E1290EDB50151880
:1059000008E015EC3CF002E18651171802E0FE0EAB
:10591000DB8095EC3BF0BEEC3DF0BBEC3EF08AD07A
:105920006E518B5D146E8C516F5566EC3CF0240EFD
:10593000DB508F250001166E250EDB5000019021F3
:105940000001176E00018951165C146E8A511758B8
:10595000CEEC39F003E332EC3BF004D0CBEC38F082
:105960002AEC3BF066EC3DF002E2DFEC3AF005ECAD
:105970003FF002E25EEC3CF0A1A712D0D8EC38F088
:10598000280EDB50141803E1290EDB50151808E02F
:1059900015EC3CF002E18651171802E0FE0EDB80A8
:1059A000240EDBCF14F0250EDBCF15F0260EDBCF57
:1059B00016F0270E4FEC38F004E29DEC3AF09DEC27
:1059C0003CF09CEC3BF0BEEC3DF00CEC3FF0240EC8
:1059D0001FEC40F0250EDB50175866EC3CF0D95018
:1059E000240F2AEC3DF01DE09CEC3BF0A4C0E6FF48
:1059F00089C0E6FF8AC0E6FFE66A00016E518B5D52
:105A0000146E8C516F55156E166A176AA20E142605
:105A1000070E1522000E16221722B5EC3BF013ECF0
:105A20003FF0BBEC3EF08B516E5D8C516F5902E341
:105A30001AEC3FF0D950260F2AEC3DF004E1FE0E9F
:105A4000DB50030B15E0D950260F2AEC3DF002E0A5
:105A5000FE0EDB86FD0EDBA007D00001876B626BBC
:105A6000800E636F646B656B0DEC3AF0A08931D0EA
:105A7000FD0EDBA21FD0A00EE96E000EEA6EEF5005
:105A8000070BE82AF36EE850070BF36EF46EF80E7E
:105A9000EF14F310EF6EF45000016607000E675B21
:105AA000685B695B010EF36E260EF3CFDBFF270EFA
