:020000040800F2
:1000000098900020ED010008291900082B1900081C
:100010002F190008331900083719000800000000E4
:100020000000000000000000000000003B19000874
:100030003D190008000000003F19000841190008A0
:10004000070200080702000807020008070200086C
:10005000070200080702000807020008070200085C
:10006000070200080702000807020008070200084C
:10007000070200080702000807020008070200083C
:10008000070200080702000807020008070200082C
:10009000070200080702000807020008911900087B
:1000A000070200080702000807020008070200080C
:1000B00095190008971900080702000807020008B0
:1000C00007020008070200080702000807020008EC
:1000D000070200088F19000807020008070200083D
:1000E00007020008070200080702000807020008CC
:1000F00007020008070200080702000807020008BC
:1001000007020008070200080702000807020008AB
:1001100007020008070200089319000807020008F8
:10012000070200080702000807020008070200088B
:1001300000F002F800F03AF80AA090E8000C8244BF
:100140008344AAF10107DA4501D100F02FF8AFF29C
:10015000090EBAE80F0013F0010F18BFFB1A43F0A5
:1001600001031847E018000000190000103A24BFEE
:1001700078C878C1FAD8520724BF30C830C144BF0C
:1001800004680C607047000000230024002500264E
:10019000103A28BF78C1FBD8520728BF30C148BFEA
:1001A0000B6070471FB51FBD10B510BD01F013FCEB
:1001B0001146FFF7F7FF01F059FB01F031FC03B4E2
:1001C000FFF7F2FF03BC01F035FC0000EFF30980FC
:1001D000704780F309887047EFF30880704780F319
:1001E0000888704740BA7047C0BA704709488047CE
:1001F00009480047FEE7FEE7FEE7FEE7FEE7FEE709
:10020000FEE7FEE7FEE7FEE704480549054A064B20
:10021000704700000B030008310100089808002017
:100220009890002098880020988800200CB5002025
:10023000019000906C48006840F480306A49086082
:1002400000BF6948006800F4003000900198401C2D
:100250000190009818B90198B0F5A06FF1D16248EB
:10026000006800F4003010B10120009001E000208F
:1002700000900098012843D15C48006840F01000CD
:100280005A4908600846006820F0030008600846E4
:10029000006840F0020008605348406852494860D6
:1002A0000846406848600846406840F480604860FE
:1002B0000846406820F47C1048600846406840F4D6
:1002C000E81048600846006840F08070086000BF91
:1002D0004548006800F000700028F9D042484068A6
:1002E00020F00300404948600846406840F00200A2
:1002F000486000BF3C48406800F00C000828F9D175
:100300000CBD10B5FFF792FF10BD10B53648006860
:1003100040F001003449086008464068344908400C
:100320003149486008460068324908402E49086053
:100330000846006820F4802008600846406820F4E1
:10034000FE0048604FF41F008860FFF7DAFF4FF0AF
:1003500000602949086010BD10B50021002000226E
:10036000214B5B6803F00C0121B1042906D0082958
:1003700028D107E0214B224C236027E01F4B204C63
:10038000236023E0184B5B6803F47010164B5B6826
:1003900003F48032022303EB904022B9194B43430C
:1003A000174C23600DE0104B5B6803F4003323B15E
:1003B000144B4343124C236003E0104B4343104C57
:1003C000236003E00D4B0E4C236000BF00BF064BC3
:1003D0005B68C3F303130C4CE15C094B1B68CB4017
:1003E000074C236010BD00000010024000200240B6
:1003F0000000FFF8FFFFF6FE08ED00E000127A00B3
:100400000000002000093D0004000020DF480068D3
:1004100040F00100DD49086008464068DC490840BA
:10042000DA49486008460068DA490840D749086058
:100430000846006820F4802008600846406820F4E0
:10044000FE0048604FF41F0088607047CF4909687C
:1004500021F48031CD4A11601146096821F48021D0
:100460001160B0F5803F03D0B0F5802F0ED106E0CB
:10047000C649096841F48031C44A116007E0C349A4
:10048000096841F4A021C14A116000E000BF00BF2B
:10049000704710B501460022002300204A11012AAE
:1004A00002D1BA4C236806E0022A02D1B74C236A73
:1004B00001E0B64C636A01F01F02012494401C4025
:1004C0000CB1012000E0002010BD38B500200090E4
:1004D0000024002500BF3120FFF7DBFF0546009810
:1004E000401C00900098B0F5A06F01D0002DF2D014
:1004F0003120FFF7CEFF08B1012400E000242046A0
:1005000038BD01460020A14A106820F0F80040EAFA
:10051000C10010607047A049086070470246002083
:100520009A4B586820F47C1042EA01031843974B19
:100530005860704798490866704701460020934A02
:10054000506820F003000843506070478F484068AF
:1005500000F00C007047014600208C4A506820F0E3
:10056000F00008435060704701460020874A5068F9
:1005700020F4E06008435060704701460020834A41
:10058000506820F4605040EAC1005060704729B1C3
:100590007E4A527A02437D4B5A7204E07B4A527A79
:1005A00082437A4B5A7270477B49D8310860704752
:1005B00001460020754A506820F4404008435060CE
:1005C00070470021714A20321170704A82F8201061
:1005D000012802D004280AD104E001216B4A20320C
:1005E000117005E00521694A2032117000E000BF5A
:1005F00000BF70476949086070476449096A014350
:10060000624A11627047654944390860704730B5E5
:1006100000210022002400235C4D6D6805F00C01D0
:1006200021B1042905D0082923D105E05C4D0560DE
:1006300022E05B4D05601FE0544D6D6805F47012BB
:10064000524D6D6805F48034022505EB92421CB9C9
:10065000544D554305600BE04C4D6D6805F4003575
:100660001DB1504D5543056002E04D4D55430560A9
:1006700002E04B4D056000BF00BF444D6D6805F0C2
:10068000F0010909484D6B5C0568DD4045603F4D50
:100690006D6805F4E061090A434D6B5C4568DD4017
:1006A00085603A4D6D6805F46051C90A3E4D6B5C3A
:1006B0004568DD40C560354D6D6805F44041890BE6
:1006C0003A4D6B5CC568B5FBF3F5056130BD29B1EA
:1006D0002E4A526902432D4B5A6104E02B4A52695B
:1006E00082432A4B5A61704729B1284A92690243D2
:1006F000264B9A6104E0254A92698243234B9A6112
:10070000704729B1214AD2690243204BDA6104E0E3
:100710001E4AD26982431D4BDA61704729B11B4AD8
:10072000D2680243194BDA6004E0184AD268824367
:10073000164BDA60704729B1144A12690243134B11
:100740001A6104E0114A12698243104B1A61704722
:1007500012494039086070470F49C86470470B4917
:10076000C87170470948406A40F080700749486284
:10077000704701460020054A92680A400AB10120EC
:1007800000E0002070470149887270470010024065
:100790000000FFF8FFFFF6FE0000424280044242E4
:1007A00000127A0000093D001400002024000020FF
:1007B00010B50446FB48844209D101218803FFF7A4
:1007C000ADFF00214FF48040FFF7A8FF32E0F6486C
:1007D000844209D101214804FFF7ADFF00214FF405
:1007E0000030FFF7A8FF25E0F048844209D101213D
:1007F0008804FFF7A0FF00214FF48020FFF79BFF44
:1008000018E0EB48844209D10121C804FFF793FFA7
:1008100000214FF40020FFF78EFF0BE0E5488442F3
:1008200008D101210805FFF786FF00214FF4801051
:10083000FFF781FF10BD2DE9F04786B005460E4653
:100840000024A24600BFA1460027B08900B100BF26
:100850002F462C8A4CF6FF700440F08804432C820B
:10086000AC894EF6F3100440B08831890843718991
:1008700008430443AC81AC8A4FF6FF400440B08982
:100880000443AC8201A8FFF7C2FEC648874202D1EA
:10089000DDF810A001E0DDF80CA0A88900F400400C
:1008A00040B10AEBCA0000EB0A1031684900B0FB06
:1008B000F1F807E00AEBCA0000EB0A103168890082
:1008C000B0FBF1F86420B8FBF0F0040120096421CA
:1008D00001FB1089A88900F4004040B1322000EBF0
:1008E000C900B0FBF1F000F00700044308E032203B
:1008F00000EB09106421B0FBF1F000F00F0004439D
:100900002C8106B0BDE8F0874FF41651016000213C
:100910008180C18001810C2141810021818170474A
:1009200010B502460020108A4FF2FF0318400B88D2
:100930004C8823438C882343CC882343184310825C
:1009400010BD0021018041808180C180704721B1AC
:10095000828942F40052828104E082894DF6FF735D
:100960001A4082817047F0B5034600240026002516
:10097000002040F66A17B94200D100BF1846C1F303
:10098000421401F01F06012707FA06F5012C01D1D8
:100990000C3004E0022C01D1103000E014301AB108
:1009A00007682F43076002E00768AF430760F0BDA8
:1009B0001AB1838A0B43838202E0838A8B4383824A
:1009C0007047028A4FF6F0731A400282028A0A4385
:1009D0000282704782894FF2FF731A4082818289B6
:1009E0000A438281704721B1828942F002028281EA
:1009F00004E082894FF6FD731A4082817047028AB3
:100A00004FF6DF731A400282028A0A43028270475D
:100A100021B1028A42F48042028204E0028A4BF64B
:100A2000FF731A4002827047C1F308028280704748
:100A300001468888C0F308007047818941F00101B0
:100A400081817047028BD2B20283028B42EA01227B
:100A500002837047028B02F47F420283028B0A43B7
:100A60000283704721B1828A42F02002828204E030
:100A7000828A4FF6DF731A408282704721B1828AE0
:100A800042F01002828204E0828A4FF6EF731A402D
:100A90008282704721B1828A42F00802828204E099
:100AA000828A4FF6F7731A408282704721B1828999
:100AB00042F40042828103E08289C2F30E02828105
:100AC000704721B1828A42F40062828204E0828A05
:100AD0004FF2FF731A4082827047828A4FF6FB738F
:100AE0001A408282828A0A438282704721B1828AB6
:100AF00042F00202828204E0828A4FF6FD731A40BD
:100B00008282704702460020B1F5007F00D100BF0D
:100B100013880B400BB1012000E00020704701F466
:100B20000072B2F5007F00D100BFCA430280704757
:100B300070B50246002400230025002040F66A1606
:100B4000B14200D100BFC1F3421501F01F030126DD
:100B500006FA03F3012D02D19689334006E0022DF7
:100B600002D1168A334001E0968A33400C120126E6
:100B700006FA04F41688344013B10CB1012000E0E9
:100B8000002070BD10B50022002340F66A14A14277
:100B900000D100BF0A1201249440A3B2DC430480B8
:100BA00010BD0000003801400044004000480040F3
:100BB000004C00400050004001460020FE4A1068F2
:100BC00000F03800084310607047FB49096821F0C5
:100BD0000801F94A11601146096801431160704724
:100BE000F549096821F01001F34A116011460968BE
:100BF000014311607047F148EF494860F048486090
:100C00007047EE48EC494860ED4848607047EA4854
:100C1000006940F08000E84908617047E6480069D3
:100C200040F08000E449086170470420E249C96847
:100C300001F0010109B101200EE0DF49C96801F0AE
:100C4000040109B1022007E0DB49C96801F0100185
:100C500009B1032000E00420704700B502460423D8
:100C6000FFF7E3FF034603E0FFF7DFFF0346521EF3
:100C7000012B01D1002AF7D102B90523184600BD86
:100C800030B5044604254FF43020FFF7E6FF054653
:100C9000042D17D1C848006940F00200C649086118
:100CA00008464461006940F0400008614FF430207C
:100CB000FFF7D3FF0546C048006941F6FD710840C3
:100CC000BD490861284630BD10B504244FF43020DA
:100CD000FFF7C3FF0446042C16D1B748006940F063
:100CE0000400B54908610846006940F04000086109
:100CF0004FF43020FFF7B1FF0446AF48006941F6DA
:100D0000FB710840AC490861204610BD00B50246A1
:100D10000423FFF78AFF034603E0FFF786FF03463D
:100D2000521E012B01D1002AF7D102B90523184622
:100D300000BD10B504244FF43020FFF7E7FF044650
:100D4000042C16D19C48006940F004009A490861BF
:100D50000846006940F0400008614FF43020FFF77A
:100D6000D5FF04469448006941F6FB71084092495A
:100D70000861204610BD00208F49C96901F00201B9
:100D800009B1012000E00020704730B5A5250424FA
:100D9000FFF7F1FF00B100254FF43020FFF75DFFB2
:100DA0000446042C3AD18548834988608448886089
:100DB0000846006940F0200008610846006940F0DC
:100DC000400008614FF43020FFF747FF0446042C31
:100DD0001BD17948006941F6DF7108407649086106
:100DE0000846006940F01000086176480580E0027E
:100DF000FFF733FF0446052C10D06F48006941F619
:100E0000EF7108406C49086108E0052C06D06A487B
:100E1000006941F6EF71084067490861204630BD1E
:100E200078B506460C46042500200090E802FFF73E
:100E300014FF0546042D24D15F48006940F00100ED
:100E40005D4908613480E802FFF707FF0546042D7D
:100E500010D1B01C0090200C00990880E802FFF728
:100E6000FCFE05465448006941F6FE7108405249AF
:100E7000086106E05048006941F6FE7108404E499D
:100E80000861284678BD70B504460D460426F00278
:100E9000FFF7E3FE0646042E11D14748006940F0F3
:100EA0000100454908612580F002FFF7D6FE06469D
:100EB0004148006941F6FE7108403F4908613046EB
:100EC00070BD70B505460E460424E002FFF7C5FE6E
:100ED0000446042C17D1394837498860384888605F
:100EE0000846006940F0100008612E80E002FFF71C
:100EF000B4FE0446052C06D02F48006941F6EF7178
:100F000008402D490861204670BD2DE9F043044694
:100F10004FF6FF763746B046B1460425E443E6B2C5
:100F2000C4F30727C4F307484FEA1469E802FFF740
:100F300094FE0546042D49D120481F498860204869
:100F400088600846006940F010000861FF2E06D056
:100F50001C4808300680E802FFF77FFE0546042D96
:100F600008D1FF2F06D017480A300780E802FFF7A4
:100F700074FE0546042D0AD1B8F1FF0F07D01148C1
:100F80000C30A0F80080E802FFF767FE0546042D4C
:100F90000AD1B9F1FF0F07D00A480E30A0F800902F
:100FA000E802FFF75AFE0546052D0FD002480069FA
:100FB00041F6EF71084007E0002002402301674539
:100FC000AB89EFCD00F8FF1F664908612846BDE8F0
:100FD000F08330B5054604244FF43020FFF73DFE82
:100FE0000446042C41D160485E4988605F488860AF
:100FF0000846006940F0200008610846006940F09A
:10100000400008614FF43020FFF727FE0446042C0F
:1010100022D15448006941F6DF7108405149086106
:101020000846006940F0100008611DB100205049D9
:10103000088002E0A5204E4908804FF43020FFF7D9
:101040000CFE0446052C10D04648006941F6EF71AD
:1010500008404449086108E0052C06D04148006971
:1010600041F6DF7108403F490861204630BDF0B5C8
:1010700005460E46174604243B483A4988603B48DB
:101080008860E002FFF7E9FD0446042C19D13548D9
:10109000006940F010003349086147F0F800304320
:1010A00028433349891C0880E002FFF7D6FD044637
:1010B000052C06D02B48006941F6EF7108402949FC
:1010C00008612046F0BD2748C06980087047254860
:1010D000006A704700202349096801F0200109B126
:1010E000012000E00020704729B11E4A1269024326
:1010F0001C4B1A6104E01B4A12698243194B1A61A6
:10110000704701460020012908D1164AD26902F031
:1011100001020AB1012008E0002006E0114AD2686D
:101120000A400AB1012000E0002070470D49C86064
:10113000704704200B49C96801F0010109B1012081
:101140000EE00849C96801F0040109B1022007E076
:101150000449C96801F0100109B1032000E004202E
:10116000704700000020024023016745AB89EFCDA6
:1011700000F8FF1F10B50446CC48844208D1012175
:101180000420FFF7CBFA00210420FFF7C7FA46E05E
:10119000C748844208D101210820FFF7BFFA002187
:1011A0000820FFF7BBFA3AE0C248844208D1012187
:1011B0001020FFF7B3FA00211020FFF7AFFA2EE05E
:1011C000BD48844208D101212020FFF7A7FA002161
:1011D0002020FFF7A3FA22E0B848844208D1012179
:1011E0004020FFF79BFA00214020FFF797FA16E016
:1011F000B348844208D101218020FFF78FFA0021F3
:101200008020FFF78BFA0AE0AE48844207D1012123
:101210008015FFF783FA0021A015FFF77FFA10BDB4
:1012200010B501210846FFF779FA00210120FFF7E8
:1012300075FA10BD2DE9F041024600250026002078
:1012400000230024002791F803C00CF00F0591F84B
:1012500003C00CF0100CBCF1000F03D091F802C0D9
:101260004CEA050591F800C0BCF1000F31D01468BC
:1012700000202BE04FF0010C0CFA00F3B1F800C095
:101280000CEA03069E4220D183004FF00F0C0CFAAB
:1012900003F7BC4305FA03FC4CEA040491F803C0CD
:1012A000BCF1280F06D14FF0010C0CFA00FCC2F87B
:1012B00014C00AE091F803C0BCF1480F05D14FF00B
:1012C000010C0CFA00FCC2F810C0401C0828D1D355
:1012D0001460B1F800C0BCF1FF0F34DD5468002089
:1012E0002EE000F1080C4FF0010808FA0CF3B1F8F9
:1012F00000C00CEA03069E4221D183004FF00F0C80
:101300000CFA03F7BC4305FA03FC4CEA040491F819
:1013100003C0BCF1280F05D100F1080C08FA0CF845
:10132000C2F8148091F803C0BCF1480F07D100F156
:10133000080C4FF0010808FA0CF8C2F81080401CA5
:101340000828CED35460BDE8F0814FF6FF710180CC
:10135000022181700421C170704702460020936809
:101360000B400BB1012000E0002070470146886867
:1013700080B2704702460020D3680B400BB10120B9
:1013800000E0002070470146C86880B270470161E4
:101390007047416170470AB1016100E041617047E7
:1013A000C16070474FF480320A438261816182617B
:1013B00082698269704702460020434B18684FF6E5
:1013C0008073184040EA021008433F4B1860704792
:1013D0003E49C8617047F0B50A4600230024002149
:1013E000002500F00046B6F1004F02D1364EF169FB
:1013F00001E0354E7168C0F3034583B200F4401636
:10140000B6F5401F08D121F070612F4E766826F0A6
:1014100070662D4F7E6012E000F48016B6F5801FD6
:1014200006D1032606FA05F4A14341F0706106E0F7
:10143000460D360103FA06F6B14341F0706122B160
:10144000460D360103FA06F6314300F00046B6F1C8
:10145000004F02D11C4EF16101E01B4E7160F0BDE6
:1014600030B500228B071C0F0F2303FA04F2164B32
:1014700008338C1053F824309343134C08348D10E8
:1014800044F8253023468C1053F824308C07240F61
:1014900000FA04F423430C4C08348D1044F8253032
:1014A00030BD0A49DC310860704700000008014087
:1014B000000C0140001001400014014000180140E0
:1014C000001C0140002001400000014000002042BB
:1014D0000E49086070470D49486070470B498860A5
:1014E00070474AF6AA200949086070474CF6CC407C
:1014F00006490860704701460020044AD2680A4045
:101500000AB1012000E000207047000000300040D8
:1015100070B503460C4603E014F8015B03F8015B69
:101520001500A2F10106B2B2F6D170BD10B50024CB
:1015300000BF20219D48FFF7E5FA0028F9D09B481D
:10154000FFF776FAC4B2204610BD10B5044600BFBE
:1015500080219648FFF7D6FA0028F9D02146934813
:10156000FFF762FA00BF40219048FFF7CBFA00284E
:10157000F9D010BDFEB50020029000240025009097
:101580000027042600BF05E0FFF7D0FF01A908559A
:10159000601C84B2042CF7DBFFF7C8FF07469DF8F8
:1015A00004009DF8051048409DF8061048409DF83D
:1015B00007104840B84267D1042201A902A8FFF7EA
:1015C000A7FF7F20FFF7C1FFFFF7B0FF0546FFF73A
:1015D000ADFF40EA0525002405E0FFF7A7FF7449A9
:1015E0000855601C84B2AC42F7DBFFF79FFF07464B
:1015F000FFF707FB6F480078B0B94FF0E0200069B3
:1016000020F007004FF0E02108616B48FFF738FB3E
:101610000646042E05D14FF485716748FFF700FC9C
:101620000646012063490870042E03D10298FFF793
:1016300027FB0646002418E0281B042801DD0420AF
:1016400000E0281B82B25A4801196846FFF760FF84
:10165000042E00D00BE000990298FFF7E1FB06464C
:101660000298001D0290201D84B2AC42E4DB00BF52
:10167000FFF7D4FA042E03D17F20FFF766FF06E0C0
:101680001920FFF762FF02E01920FFF75EFFFEBDA1
:1016900000270024A046042687E0FFF722FFFFF77B
:1016A00045FF0746312F06D0412F13D0512F50D080
:1016B000612F75D129E0FFF739FF0446CE2C05D103
:1016C0007F20FFF742FFFFF755FF02E01920FFF7E9
:1016D0003CFF66E0FFF72AFF0446BE2C11D17F20B5
:1016E000FFF733FF00BF3548006800F4E06034497D
:1016F0000843001D31490860BFF3408F00BF00BFA1
:10170000FEE71920FFF721FF4BE02A480078E0B1FF
:10171000FFF777FA2848FFF7B3FA0646042E05D1FB
:1017200040F20D212448FFF77BFB064600202149AB
:101730000870FFF773FA042E03D17F20FFF705FF2F
:1017400006E01920FFF701FF02E01920FFF7FDFE78
:1017500027E0194DD5F8008040F20D2080451BD1BF
:101760007F20FFF7F2FE4FF0E020006920F0070035
:101770004FF0E021086113484068134908600846AB
:101780000068124908600F490868FEF728FD0F48F5
:101790000068804703E003E01920FFF7D6FE00E071
:1017A00000BF00BF00200A49086076E7003801400A
:1017B0003800002028000020003800080CED00E070
:1017C0000000FA0500400008300000202C00002036
:1017D0003400002010B501210420FEF785FF01210F
:1017E0000846FEF781FF01218803FEF77DFF10BD4B
:1017F00008B54FF48060ADF8000004208DF80300B8
:1018000069461848FFF716FD4FF40070ADF8000068
:1018100003208DF8020018208DF803006946114856
:10182000FFF708FD08BD1FB54FF4E1300090002020
:10183000ADF80400ADF80600ADF80800ADF80C00F6
:101840000C20ADF80A0069460748FEF7F4FF0022B5
:1018500040F225510448FFF786F801210248FFF7BE
:1018600076F81FBD000801400038014070B5FFF751
:10187000B1FFFFF7BDFFFFF7D6FF274800680A2238
:10188000B0FBF2F1B1F1807F00D31DE021F07F4089
:10189000401E4FF0E022506150170F22002807DA57
:1018A00013071D0E1D4B00F00F04241F1D5503E0F0
:1018B00013071C0E1A4B1C5400BF00204FF0E022EF
:1018C00090610720106100BF0120FEF793FE00BF6A
:1018D0006120FEF7DEFD0028FAD045F25550FFF7F3
:1018E000F7FD0620FFF7F7FD40F6FF70FFF7F6FD66
:1018F000FFF7F7FDFFF7FAFDFFF783F90948FFF758
:10190000BFF940F20D210748FFF78AFAFFF786F981
:10191000FFF7BEFE002070BD0000002018ED00E0C3
:1019200000E400E000380008704700F035F800F0EF
:1019300033F800F031F800F02FF870477047704727
:1019400070B500251B4800684FF6FF7188421DD214
:1019500018480068401C174908600846006832288B
:1019600014D3154C256840F20D2085420ED1134842
:1019700040681349086008460068124908600F492A
:101980000868FEF72CFC0F480068804770BD704760
:1019900070477047704770470B48006800F4E0607C
:1019A0000A490843001D08490860BFF3408F00BF83
:1019B000FEE7000034000020003800080040000866
:1019C000300000202C0000200CED00E00000FA05A3
:1019D000704770477047754600F028F8AE4605001E
:1019E0006946534620F00700854618B020B5FEF73B
:1019F0000BFCBDE820404FF000064FF000074FF011
:101A000000084FF0000B21F00701AC46ACE8C0091C
:101A1000ACE8C009ACE8C009ACE8C0098D46704725
:101A20000446AFF300802046FEF7C9FB004870472C
:101A30003808002001491820ABBEFEE7260002004E
:101A400070470000641A0008000000203800000001
:101A50006C0100089C1A000838000020609000000B
:101A60008801000800A24A040000000000000000F5
:101A70000102030406070809000000000102030434
:101A8000010203040607080902040608000000001A
:0C1A90000000000000000000000000004A
:0400000508000131BD
:00000001FF
