:020000040800F2
:1080000020C50020C9820008490101084B01010870
:108010005D0101086F0101088101010800000000F5
:1080200000000000000000000000000093010108B3
:10803000950101080000000097010108990101085D
:10804000E3820008E3820008E3820008E38200087C
:10805000E3820008E3820008E3820008930201083B
:10806000E3820008E3820008E3820008E38200085C
:10807000E3820008E3820008E3820008E38200084C
:10808000E3820008E3820008E3820008E38200083C
:10809000E3820008E3820008E3820008E38200082C
:1080A000E3820008E3820008E3820008E38200081C
:1080B000E3820008E3820008E3820008E38200080C
:1080C000E3820008E3820008E3820008E3820008FC
:1080D000E3820008A1010108E3010108E38200082E
:1080E000E3820008E3820008E3820008E3820008DC
:1080F000E3820008E3820008E3820008E3820008CC
:10810000E3820008E382000869060108E3820008B0
:1081100031020108E382000875060108E3820008C5
:10812000E3820008E3820008E3820008E38200089B
:1081300000F002F800F0B8F80AA090E8000C8244C1
:108140008344AAF10107DA4501D100F0ADF8AFF29E
:10815000090EBAE80F0013F0010F18BFFB1A43F025
:1081600001031847040A0100240A010010F8013B2A
:108170000A4413F0030408BF10F8014B1D1108BF97
:1081800010F8015B641E05D010F8016B641E01F845
:10819000016BF9D1002D15D010F8014B03F00C0341
:1081A0000C2BA1EB04040ABF10F8013BA4EB8314D1
:1081B000A4EB032405F1010314F8016B5B1E01F825
:1081C000016BF9D5914238BF10F8013BD1D370470C
:1081D0000023002400250026103A28BF78C1FBD8D0
:1081E000520728BF30C148BF0B6070476E290EF0A0
:1081F0007F8670290EF0BF87662910F021816529DE
:1082000010F01E81672910F01B816129AFF30080F7
:1082100003681B0A28BF41F0800169290EF02E86F1
:1082200064290EF02B8675290EF028866F290EF032
:108230004D8778290EF08B87E9290EF0E986E4292D
:108240000EF0E686F5290EF0E386EF290EF04A8758
:10825000F8290EF08A870368DB0928BF41F0800106
:1082600063290FF0288373290FF02D83E3290FF082
:108270003883F3290FF03D83002070471FB59DE838
:1082800003000EF0F3FC0FF08DFB04000020002132
:1082900010F0C0F8401C60600020002110F0A4F82D
:1082A000E0601FBD10B510BD0FF04FFB1146FFF78A
:1082B000E5FF04F07CFB0FF025FC03B4FFF7F2FFB1
:1082C00003BC0FF053FC00000948804709480047F1
:1082D000FEE7FEE7FEE7FEE7FEE7FEE7FEE7FEE776
:1082E000FEE7FEE704480549054A064B70470000D3
:1082F000E783000831810008203D002020C50020D0
:1083000020BD002020BD00200CB500200190009071
:108310006B48006840F480306949086000BF6848D5
:10832000006800F4003000900198401C0190009813
:1083300018B90198B0F5A06FF1D16148006800F458
:10834000003010B10120009001E000200090009862
:10835000012843D15B48006840F01000594908608B
:108360000846006820F0030008600846006840F0F6
:108370000200086052484068514948600846406819
:1083800048600846406840F480604860084640689D
:1083900020F47C1048600846406840F4E8104860CB
:1083A0000846006840F08070086000BF44480068DC
:1083B00000F000700028F9D04148406820F0030028
:1083C0003F4948600846406840F00200486000BFEE
:1083D0003B48406800F00C000828F9D10CBD10B5EE
:1083E000FFF792FF10BD10B53548006840F001005E
:1083F00033490860084640683349084030494860BE
:1084000008460068314908402D4908600846006860
:1084100020F4802008600846406820F4FE00486090
:108420004FF41F008860FFF7DAFF294829490860E8
:1084300010BD10B5002100200022214B5B6803F025
:108440000C0121B1042906D0082928D107E0224BCC
:10845000224C236027E0204B204C236023E0184B64
:108460005B6803F47010164B5B6803F480320223E0
:1084700003EB904022B91A4B4343184C23600DE0A4
:108480000F4B5B6803F4003323B1154B4343134C8C
:10849000236003E0104B4343104C236003E00E4B7A
:1084A0000E4C236000BF00BF054B5B68C3F3031392
:1084B0000C4CE15C094B1B68CB40084C236010BDA1
:1084C00000100240002002400000FFF8FFFFF6FE0F
:1084D0000080000808ED00E000127A000000002093
:1084E00000093D000400002010B50446FB4884420A
:1084F00009D10121880300F083FB00214FF4804063
:1085000000F07EFB32E0F648844209D101214804A4
:1085100000F083FB00214FF4003000F07EFB25E0EB
:10852000F048844209D10121880400F076FB002143
:108530004FF4802000F071FB18E0EB48844209D131
:108540000121C80400F069FB00214FF4002000F075
:1085500064FB0BE0E548844208D10121080500F0E6
:108560005CFB00214FF4801000F057FB10BD2DE99B
:10857000F04786B005460E460024A24600BFA1463D
:108580000027B08900B100BF2F462C8A4CF6FF703F
:108590000440F08804432C82AC894EF6F31004406A
:1085A000B08831890843718908430443AC81AC8A9F
:1085B0004FF6FF400440B0890443AC8201A800F0AC
:1085C00098FAC648874202D1DDF810A001E0DDF834
:1085D0000CA0A88900F4004040B10AEBCA0000EBEF
:1085E0000A1031684900B0FBF1F807E00AEBCA0055
:1085F00000EB0A1031688900B0FBF1F86420B8FB89
:10860000F0F004012009642101FB1089A88900F41D
:10861000004040B1322000EBC900B0FBF1F000F0A7
:108620000700044308E0322000EB09106421B0FB8E
:10863000F1F000F00F0004432C8106B0BDE8F08794
:108640004FF41651016000218180C18001810C210D
:10865000418100218181704710B502460020108AB7
:108660004FF2FF0318400B884C8823438C88234328
:10867000CC8823431843108210BD00210180418023
:108680008180C180704721B1828942F40052828189
:1086900004E082894DF6FF731A4082817047F0B57D
:1086A0000346002400260025002040F66A17B94240
:1086B00000D100BF1846C1F3421401F01F06012784
:1086C00007FA06F5012C01D10C3004E0022C01D18F
:1086D000103000E014301AB107682F43076002E041
:1086E0000768AF430760F0BD1AB1838A0B438382EA
:1086F00002E0838A8B4383827047028A4FF6F073CD
:108700001A400282028A0A430282704782894FF22B
:10871000FF731A40828182890A438281704721B1A6
:10872000828942F00202828104E082894FF6FD7361
:108730001A4082817047028A4FF6DF731A40028224
:10874000028A0A430282704721B1028A42F48042BF
:10875000028204E0028A4BF6FF731A4002827047DD
:10876000C1F308028280704701468888C0F3080080
:108770007047818941F0010181817047028BD2B23B
:108780000283028B42EA012202837047028B02F4C9
:108790007F420283028B0A430283704721B1828A9F
:1087A00042F02002828204E0828A4FF6DF731A4090
:1087B0008282704721B1828A42F01002828204E0F4
:1087C000828A4FF6EF731A408282704721B1828A03
:1087D00042F00802828204E0828A4FF6F7731A4060
:1087E0008282704721B1828942F40042828103E093
:1087F0008289C2F30E028281704721B1828A42F4DB
:108800000062828204E0828A4FF2FF731A40828201
:108810007047828A4FF6FB731A408282828A0A432B
:108820008282704721B1828A42F00202828204E091
:10883000828A4FF6FD731A408282704702460020FA
:10884000B1F5007F00D100BF13880B400BB10120B0
:1088500000E00020704701F40072B2F5007F00D103
:1088600000BFCA430280704770B50246002400234F
:108870000025002040F66A16B14200D100BFC1F3C6
:10888000421501F01F03012606FA03F3012D02D160
:108890009689334006E0022D02D1168A334001E06A
:1088A000968A33400C12012606FA04F416883440E6
:1088B00013B10CB1012000E0002070BD10B5002202
:1088C000002340F66A14A14200D100BF0A1201241D
:1088D0009440A3B2DC43048010BD00000038014086
:1088E0000044004000480040004C00400050004060
:1088F000DF48006840F00100DD4908600846406834
:10890000DC490840DA49486008460068DA4908400E
:10891000D74908600846006820F4802008600846AF
:10892000406820F4FE0048604FF41F0088607047E4
:10893000CF49096821F48031CD4A11601146096898
:1089400021F480211160B0F5803F03D0B0F5802F75
:108950000ED106E0C649096841F48031C44A11606D
:1089600007E0C349096841F4A021C14A116000E051
:1089700000BF00BF704710B5014600220023002051
:108980004A11012A02D1BA4C236806E0022A02D118
:10899000B74C236A01E0B64C636A01F01F02012460
:1089A00094401C400CB1012000E0002010BD38B5FF
:1089B000002000900024002500BF3120FFF7DBFFDE
:1089C00005460098401C00900098B0F5A06F01D0BB
:1089D000002DF2D03120FFF7CEFF08B1012400E0D6
:1089E0000024204638BD01460020A14A106820F02E
:1089F000F80040EAC10010607047A0490860704765
:108A0000024600209A4B586820F47C1042EA010389
:108A10001843974B5860704798490866704701465D
:108A20000020934A506820F00300084350607047CC
:108A30008F48406800F00C007047014600208C4AC7
:108A4000506820F0F0000843506070470146002055
:108A5000874A506820F4E060084350607047014640
:108A60000020834A506820F4605040EAC100506002
:108A7000704729B17E4A527A02437D4B5A7204E014
:108A80007B4A527A82437A4B5A7270477B49D8317B
:108A90000860704701460020754A506820F4404045
:108AA0000843506070470021714A20321170704AAB
:108AB00082F82010012802D004280AD104E0012104
:108AC0006B4A2032117005E00521694A203211708D
:108AD00000E000BF00BF7047694908607047644903
:108AE000096A0143624A1162704765494439086066
:108AF000704730B500210022002400235C4D6D68D2
:108B000005F00C0121B1042905D0082923D105E085
:108B10005C4D056022E05B4D05601FE0544D6D68C3
:108B200005F47012524D6D6805F48034022505EB92
:108B300092421CB9544D554305600BE04C4D6D6895
:108B400005F400351DB1504D5543056002E04D4D13
:108B50005543056002E04B4D056000BF00BF444D2A
:108B60006D6805F0F0010909484D6B5C0568DD4052
:108B700045603F4D6D6805F4E061090A434D6B5C4B
:108B80004568DD4085603A4D6D6805F46051C90A5D
:108B90003E4D6B5C4568DD40C560354D6D6805F444
:108BA0004041890B3A4D6B5CC568B5FBF3F5056137
:108BB00030BD29B12E4A526902432D4B5A6104E05F
:108BC0002B4A526982432A4B5A61704729B1284A7D
:108BD00092690243264B9A6104E0254A92698243D6
:108BE000234B9A61704729B1214AD2690243204B35
:108BF000DA6104E01E4AD26982431D4BDA61704794
:108C000029B11B4AD2680243194BDA6004E0184AC2
:108C1000D2688243164BDA60704729B1144A126950
:108C20000243134B1A6104E0114A12698243104B4C
:108C30001A61704712494039086070470F49C8648B
:108C400070470B49C87170470948406A40F080700E
:108C500007494862704701460020054A92680A4069
:108C60000AB1012000E00020704701498872704776
:108C7000001002400000FFF8FFFFF6FE0000424235
:108C80008004424200127A0000093D0014000020D6
:108C90002400002010B50446CC48844208D10121AC
:108CA0000420FFF7ADFF00210420FFF7A9FF46E0F5
:108CB000C748844208D101210820FFF7A1FF002105
:108CC0000820FFF79DFF3AE0C248844208D1012105
:108CD0001020FFF795FF00211020FFF791FF2EE0F5
:108CE000BD48844208D101212020FFF789FF0021DF
:108CF0002020FFF785FF22E0B848844208D10121F7
:108D00004020FFF77DFF00214020FFF779FF16E0AC
:108D1000B348844208D101218020FFF771FF002170
:108D20008020FFF76DFF0AE0AE48844207D10121A1
:108D30008015FFF765FF0021A015FFF761FF10BD4B
:108D400010B501210846FFF75BFF00210120FFF766
:108D500057FF10BD2DE9F0410246002500260020F6
:108D600000230024002791F803C00CF00F0591F8B0
:108D700003C00CF0100CBCF1000F03D091F802C03E
:108D80004CEA050591F800C0BCF1000F31D0146821
:108D900000202BE04FF0010C0CFA00F3B1F800C0FA
:108DA0000CEA03069E4220D183004FF00F0C0CFA10
:108DB00003F7BC4305FA03FC4CEA040491F803C032
:108DC000BCF1280F06D14FF0010C0CFA00FCC2F8E0
:108DD00014C00AE091F803C0BCF1480F05D14FF070
:108DE000010C0CFA00FCC2F810C0401C0828D1D3BA
:108DF0001460B1F800C0BCF1FF0F34DD54680020EE
:108E00002EE000F1080C4FF0010808FA0CF3B1F85D
:108E100000C00CEA03069E4221D183004FF00F0CE4
:108E20000CFA03F7BC4305FA03FC4CEA040491F87E
:108E300003C0BCF1280F05D100F1080C08FA0CF8AA
:108E4000C2F8148091F803C0BCF1480F07D100F1BB
:108E5000080C4FF0010808FA0CF8C2F81080401C0A
:108E60000828CED35460BDE8F0814FF6FF71018031
:108E7000022181700421C17070470246002093686E
:108E80000B400BB1012000E00020704701468868CC
:108E900080B2704702460020D3680B400BB101201E
:108EA00000E0002070470146C86880B27047016149
:108EB0007047416170470AB1016100E0416170474C
:108EC000C16070474FF480320A43826181618261E0
:108ED00082698269704702460020434B18684FF64A
:108EE0008073184040EA021008433F4B18607047F7
:108EF0003E49C8617047F0B50A46002300240021AE
:108F0000002500F00046B6F1004F02D1364EF1695F
:108F100001E0354E7168C0F3034583B200F440169A
:108F2000B6F5401F08D121F070612F4E766826F00B
:108F300070662D4F7E6012E000F48016B6F5801F3B
:108F400006D1032606FA05F4A14341F0706106E05C
:108F5000460D360103FA06F6B14341F0706122B1C5
:108F6000460D360103FA06F6314300F00046B6F12D
:108F7000004F02D11C4EF16101E01B4E7160F0BD4B
:108F800030B500228B071C0F0F2303FA04F2164B97
:108F900008338C1053F824309343134C08348D104D
:108FA00044F8253023468C1053F824308C07240FC6
:108FB00000FA04F423430C4C08348D1044F8253097
:108FC00030BD0A49DC3108607047000000080140EC
:108FD000000C014000100140001401400018014045
:108FE000001C014000200140000001400000204220
:108FF00031490143314A1160704770B500210023A7
:109000000F22C47804B32D4C246804F4E064C4F542
:10901000E064210AC1F10403CA40447804FA03F170
:109020008478144021430901254C0678A155047821
:1090300004F01F050124AC4005786D11AD0005F169
:10904000E025C5F8004109E0047804F01F0501247B
:10905000AC401C4D0678761145F8264070BD1A4A82
:109060000A400243154B1B1F1A60704739B1134A5F
:10907000121D12680243114B1B1D1A6006E00F4AB5
:10908000121D126882430D4B1B1D1A607047042885
:1090900008D14FF0E021096941F004014FF0E022CE
:1090A000116107E04FF0E021096921F004014FF060
:1090B000E0221161704700000000FA050CED00E0AD
:1090C00000E400E080E100E080FFFF1F10B50446EF
:1090D000FA48844208D101214015FFF791FD002193
:1090E0006015FFF78DFD17E0F548844208D1012196
:1090F0000015FFF785FD00212015FFF781FD0BE02E
:10910000F048844208D10121C803FFF779FD00210E
:109110004FF40040FFF774FD10BD30B5024600204B
:1091200000235068E84C20400D790C6844EA05247F
:10913000204350609068E54C2040D1E902542C4314
:109140004D7944EA450420439060D06A20F47000D1
:109150000C7C641EE4B2234340EA0350D06230BD6D
:1091600000210160017141718160C16001210174C0
:10917000704721B1826842F00102826003E0826898
:1091800022F001028260704721B1826842F480724D
:10919000826003E0826822F480728260704710B5BA
:1091A0000023CBB21AB144681C43446002E0446817
:1091B0009C43446010BD816841F0080181607047A4
:1091C000014600208A6802F008020AB1012000E08E
:1091D00000207047816841F00401816070470146BA
:1091E00000208A6802F004020AB1012000E0002099
:1091F000704721B1826842F4A002826003E0826875
:1092000022F4A00282607047014600208A6802F4BE
:1092100080020AB1012000E00020704710B50A4624
:1092200000210023416821F46041531E41EA43318B
:10923000416010BD21B1426842F40062426003E027
:10924000426822F4006242607047F0B504460D4661
:1092500000200021092D11DDE068A5F10A0606EBCA
:109260004607072606FA07F18843A5F10A0606EB2A
:10927000460603FA06F10843E0600CE0206905EBBE
:109280004507072606FA07F1884305EB450603FA6A
:1092900006F108432061072A0FDA606B561E06EBC1
:1092A00086071F2606FA07F18843561E06EB860638
:1092B00005FA06F10843606322E00D2A0FDA206BFD
:1092C000D61F06EB86071F2606FA07F18843D61F2E
:1092D00006EB860605FA06F10843206310E0E06A13
:1092E000A2F10D0606EB86071F2606FA07F1884352
:1092F000A2F10D0606EB860605FA06F10843E062C8
:10930000F0BD21B1826842F48012826003E082687D
:1093100022F48012826070470146C86C80B27047A8
:1093200066484C300068704721B1426842F4806260
:10933000426003E0426822F480624260704721B1DB
:10934000426842F48052426003E0426822F4805254
:10935000426070470A460021816821F4E0411143D0
:109360008160704721B1826842F40042826003E06C
:10937000826822F400428260704721B1826842F420
:109380000212826003E0826822F402128260704757
:10939000014600208A6802F400120AB1012000E0B0
:1093A00000207047F0B50446154600200022002634
:1093B000092911DDE068A1F10A0707EB470C07272F
:1093C00007FA0CF29043A1F10A0707EB470703FAEB
:1093D00007F21043E0600CE0206901EB410C072725
:1093E00007FA0CF2904301EB410703FA07F210432E
:1093F0002061A06BC0F30156EF1C06F1010CA7EB36
:109400000C0707EB870C1F2707FA0CF29043EF1CA1
:1094100006F1010CA7EB0C0707EB870701FA07F22F
:109420001043A063F0BD10B50A4600210023816BF4
:1094300021F44011531E41EA0351816310BD08B568
:10944000002300930090009B0B440093009B1A6044
:1094500008BD08B5024600200090009201F12800E6
:10946000009B184400900098006880B208BD0A462E
:1094700000214168164B1940114341607047416219
:10948000826270470A460021416821F01F011143A2
:109490004160704740B109490831096841F4000151
:1094A000064A0832116007E004490831096821F4CE
:1094B0000001024A08321160704700000024014098
:1094C00000280140003C0140FFFEF0FFFDF7F1FFE6
:1094D000FFFD3FFF0246002013680B400BB1012047
:1094E00000E000207047CA430260704770B5024632
:1094F0000020002300240B125568CEB205EA0604B2
:1095000015681D4015B10CB1012000E0002070BDB0
:1095100000220A12D34303607047000010B50446CE
:10952000BE48844208D101218014FFF769FB002165
:10953000A014FFF765FB16E0B948844208D1012169
:109540000014FFF76AFB00212014FFF766FB0AE016
:10955000B448844207D10121C013FFF75EFB00210C
:10956000E013FFF75AFB10BD10B50022028802F489
:1095700041520B884C8823438C882343CC88234357
:109580000C8923434C8923438C892343CC8923436F
:109590001A430280838B4FF2FF74234083830B8A2C
:1095A000038210BD2DE9F04F85B005460C464FF003
:1095B000000902274FF000084FF0010B0026B246C9
:1095C000A88B4FF240010840A88302202884B5F8F8
:1095D0001C90A068022801D100BF38E0A08810B913
:1095E0004FF0010B01E04FF0020B8D48854200D196
:1095F00000E000BF6846FFF77CFADDF800A0E088D5
:10960000B0F5007F0AD14FEA1A2000EB800040003D
:10961000A168B0FBF1F0401D86B20BE04FEA4B10A1
:10962000BAFBF0F000EB80004000A168B0FBF1F065
:10963000401D86B20A20B6FBF0F606F00108A6EB44
:109640000800C0F34F074FF6FF7000EA0828022F0A
:1096500001DBFF2F02DD02274FF00008E08840EA1F
:10966000080038432884A088A189084361880843FA
:109670002188084340F4006040EA0909A5F81C90DD
:1096800005B0BDE8F08F0021018041808180C1805C
:10969000018141818181C1810721018270470021BF
:1096A000018041808180C18002218160002181810F
:1096B000704721B1028842F04002028004E0028833
:1096C0004FF6BF731A400280704721B1828B42F47B
:1096D0008062828304E0828B4FF6FF331A408283DC
:1096E000704730B5002400230C110125A540ABB212
:1096F0001AB185881D43858002E085889D43858059
:1097000030BD1AB183880B43838002E083888B438A
:1097100083807047818170470146888970474FF682
:10972000FF62914204D0028842F48072028004E019
:1097300002884FF6FF631A400280704721B1828889
:1097400042F00402828004E082884FF6FB731A40E4
:109750008280704702884FF2FF731A4002800288AD
:109760000A4302807047018841F4805101807047AC
:1097700021B1028842F40052028004E002884DF6D2
:10978000FF731A400280704702460020012901D071
:10979000108B00E0908A70470146088A7047B1F547
:1097A000804F04D1028842F48042028004E00288A3
:1097B0004BF6FF731A40028070470246002013895F
:1097C0000B400BB1012000E000207047CA4302812A
:1097D0007047F0B50246002000240023002501F068
:1097E0000F070126BE40B4B20B1101269E40B3B252
:1097F000968806EA03051689264016B10DB10120A8
:1098000000E00020F0BD10B5002201F00F0401239C
:10981000A3409AB2D343038110BD00000030014041
:1098200000380040003C004010B50446F748844230
:1098300009D101214805FFF7F0F900214FF400108C
:10984000FFF7EBF908E001218805FFF7E6F90021B1
:109850004FF48000FFF7E1F910BD2DE9F04385B02A
:1098600004460D460026B1460427DFF8A483A688E7
:109870004FF6C07006406846FFF73BF9DDF80880F8
:10988000E448B8FBF0F01FFA80F946EA0906A68022
:1098900020884FF6FE71084020800026DE492868A7
:1098A00088420CD828684000B8FBF0F087B2042F3B
:1098B00000DA04273E4309F10100208427E0E8880C
:1098C0004BF6FF71884206D1286800EB4000B8FBD8
:1098D000F0F087B209E0286800EBC00101EB00104E
:1098E000B8FBF0F087B247F48047C7F30B0008B924
:1098F00047F0010747F4004006434FF4967009FB18
:1099000000F04FF47A7190FBF1F0401C2084A683A4
:10991000208840F00100208026884FF6F530064070
:10992000A8886989084306432680A88929890843AD
:10993000208105B0BDE8F08341F28831016000214B
:1099400081804BF6FF71C1800021018141814FF47C
:1099500080418181704721B1028842F0010202807A
:1099600004E002884FF6FE731A400280704721B16E
:10997000828842F40062828004E082884FF2FF73A2
:109980001A408280704721B1828842F480528280DE
:1099900004E082884EF6FF731A408280704721B13E
:1099A000028842F48072028004E002884FF6FF636E
:1099B0001A400280704721B1028842F4007202808E
:1099C00004E002884FF6FF531A400280704721B12D
:1099D000028842F48062028004E002884FF6FF337E
:1099E0001A40028070470A46002181894FF60173B0
:1099F000194002F0FE0319438181704721B1828929
:109A000042F00102828104E082894FF6FE731A401F
:109A10008281704721B1028842F04002028004E056
:109A200002884FF6BF731A40028070471AB18388CC
:109A30000B43838002E083888B43838070470182DD
:109A400070470146088AC0B2704712B141F0010167
:109A500002E04FF6FE7319400182704708B50246D6
:109A60000020009000920098084400900098008820
:109A700008BD21B1028842F40042028003E002885E
:109A8000C2F30E0202807047B1F5006F04D1028864
:109A900042F40062028004E002884FF2FF731A4031
:109AA00002807047B1F5005F04D1028842F4005291
:109AB000028004E002884DF6FF731A40028070476E
:109AC00021B1028842F48052028004E002884EF6FE
:109AD000FF731A4002807047B1F5006F04D102880D
:109AE00042F40062028004E002884FF2FF731A40E1
:109AF0000280704721B1028842F02002028004E017
:109B000002884FF6DF731A40028070470146088BC7
:109B10000012704721B1028842F01002028004E076
:109B200002884FF6EF731A400280704721B902880D
:109B300042F08002028004E002884FF67F731A40F0
:109B400002807047B1F5804F05D0828B4BF6FF73D2
:109B50001A40828303E0828B42F480428283704702
:109B600070B502460024002500230020958A138B3F
:109B70001B0445EA030626F07F4404EA01068E42F0
:109B800001D1012000E0002070BD10B50146002089
:109B9000002300228B8A0A8B120443EA020424F079
:109BA0007F4010BD0CB502460020002301930093B6
:109BB00000920B0F019321F07F41019B1BB1009B91
:109BC0001433009303E0090C009B18330093009BAF
:109BD0001B680B400BB1012000E000200CBD0022EF
:109BE00021F07F42D3438382704730B50246002084
:109BF0000023948801F0E06504EA154321F07F41D9
:109C0000948A0C4054B14BB1012008E0005400404C
:109C100000127A0040420F00A0860100002030BDF3
:109C2000002221F07F42D3438382704710B504465F
:109C3000FE48844208D10121C014FEF7E1FF002153
:109C4000E014FEF7DDFFC4E0B4F1804F08D101213C
:109C50000846FEF7E2FF00210120FEF7DEFFB8E034
:109C6000F348844208D101210220FEF7D6FF0021EB
:109C70000220FEF7D2FFACE0EE48844208D1012179
:109C80000420FEF7CAFF00210420FEF7C6FFA0E073
:109C9000E948844208D101210820FEF7BEFF0021D7
:109CA0000820FEF7BAFF94E0E448844208D101217D
:109CB0001020FEF7B2FF00211020FEF7AEFF88E073
:109CC000DF48844208D101212020FEF7A6FF0021B1
:109CD0002020FEF7A2FF7CE0DA48844208D101216F
:109CE0004014FEF78DFF00216014FEF789FF70E03D
:109CF000D548844209D10121C804FEF781FF002123
:109D00004FF40020FEF77CFF63E0D048844209D185
:109D100001210805FEF774FF00214FF48010FEF7C3
:109D20006FFF56E0CA48844209D101214805FEF779
:109D300067FF00214FF40010FEF762FF49E0C548BD
:109D4000844208D101214020FEF767FF0021402016
:109D5000FEF763FF3DE0C048844208D10121802026
:109D6000FEF75BFF00218020FEF757FF31E0BB4884
:109D7000844208D101218015FEF74FFF0021A01574
:109D8000FEF74BFF25E0B648844209D101210804C3
:109D9000FEF736FF00214FF48030FEF731FF18E068
:109DA000B048844209D101214804FEF729FF00216F
:109DB0004FF40030FEF724FF0BE0AB48844208D19B
:109DC00001218804FEF71CFF00214FF48020FEF7DC
:109DD00017FF10BD00220288944B98420ED0994B79
:109DE00098420BD0B0F1804F08D0914B984205D0EB
:109DF000904B984202D0904B984204D14FF68F730B
:109E00001A404B881A438D4B984207D08C4B98428E
:109E100004D04FF6FF431A40CB881A4302808B8848
:109E200083850B880385814B98420BD0854B9842E4
:109E300008D08B4B984205D08A4B984202D08A4B6F
:109E4000984201D10B7A038601238382704770B553
:109E5000002400220023058C4FF6FE763540058451
:109E6000028C8388048B4FF68F752C40B51E2C40D6
:109E70000D882C43751E2A400D892A434D882A439C
:109E80006A4DA8420BD06F4DA84208D0744DA8422D
:109E900005D0744DA84202D0734DA84213D14FF69D
:109EA000F7752A404D892A434FF6FB752A408D8865
:109EB0002A434FF6FF652B404FF6FF552B408D8907
:109EC0002B43CD892B4383800483CD8885860284F0
:109ED00070BD70B5002400220023058C4FF6EF768C
:109EE00035400584028C8388048B48F6FF752C402E
:109EF0004FF6FF452C400D884FF6FF7606EA052504
:109F00002C434FF6DF752A400D8906EA05152A43D2
:109F10004D8806EA05152A43444DA84202D0494D12
:109F2000A8421DD14FF67F752A404D894FF6FF7626
:109F300006EA05152A434FF6BF752A408D8806EAC2
:109F400005152A434FF6FF352B404FF2FF752B4086
:109F50008D8906EA85052B43CD8906EA85052B43C5
:109F600083800483CD880587028470BD70B500248A
:109F700000220023058C4FF6FF6635400584028CD5
:109F80008388848B4FF68F752C404FF6FC752C40E0
:109F90000D882C434FF6FF552A400D894FF6FF766A
:109FA00006EA05252A434D8806EA05252A431F4D62
:109FB000A84202D0234DA8421DD14FF2FF752A407E
:109FC0004D894FF6FF7606EA05252A434FF6FF3501
:109FD0002A408D8806EA05252A434EF6FF752B4058
:109FE0004DF6FF752B408D8906EA05152B43CD896B
:109FF00006EA05152B4383808483CD8885870284F8
:10A0000070BD70B5002200230024058C4EF6FF764B
:10A0100035400584038C8488828B48F6FF752A407E
:10A020004FF6FF452A400D8820E00000002C01403B
:10A030000004004000080040000C004000100040F8
:10A040000014004000340140004C01400050014029
:10A050000054014000180040001C00400020004057
:10A060000040014000440140004801404FF6FF76A7
:10A0700006EA05252A434DF6FF752B400D8906EAB1
:10A0800005352B434D8806EA05352B43FA4DA8428A
:10A0900002D0FA4DA84208D14BF6FF752C408D89AD
:10A0A0004FF6FF7606EA85152C4384808283CD889F
:10A0B000A0F84050038470BD828B4FF2FF331A40EA
:10A0C0008283828B4FF6FF7303EA01231A43828354
:10A0D0007047F0B50C461546002200210026078C7B
:10A0E0004EF6FF7C07EA0C070784828B018C4FF643
:10A0F000FF7707EA043640F6FF473A404FF6FF770E
:10A1000007EA05273A434FF6FF7707EA03373A4352
:10A11000D94FB8420ED0D94FB8420BD0B0F1804FD2
:10A1200008D0D74FB84205D0D64FB84202D0D64F4C
:10A13000B84206D14DF6FF77394046F4805739438F
:10A1400005E047F6FF57394044F48057394382838E
:10A150000184F0BD828B4FF6F3731A408283828BA9
:10A160000A4382837047F0B50C4615460022002151
:10A170000026078C4FF6FF6C07EA0C070784828BDA
:10A18000018C4FF6FF7707EA04264FF60C773A402A
:10A190004FF6FF7707EA03172F433A43B64FB8420B
:10A1A0000ED0B64FB8420BD0B0F1804F08D0B44FAC
:10A1B000B84205D0B34FB84202D0B34FB84206D12F
:10A1C0004FF6FF57394046F48077394305E04FF2A8
:10A1D000FF57394044F48077394382830184F0BDCE
:10A1E000028B4FF2FF331A400283028B4FF6FF734C
:10A1F00003EA01231A4302837047F0B50C46154663
:10A20000002200210026078C4FF6EF7C07EA0C079E
:10A210000784028B018C4FF6FF7707EA041640F69D
:10A22000FF473A404FF6FF7707EA03373A434FF6C6
:10A23000FF7707EA05273A438F4FB8420ED08F4F7A
:10A24000B8420BD0B0F1804F08D08D4FB84205D046
:10A250008C4FB84202D08C4FB84206D14FF6DF7710
:10A26000394046F01007394305E04FF65F77394033
:10A2700044F01007394302830184F0BD028B4FF68E
:10A28000F3731A400283028B0A4302837047F0B5CE
:10A290000C46154600220021068C4FF6FE773E4004
:10A2A0000684028B018C4FF60C7632407E1C06EA47
:10A2B00003162E433243704EB0420ED06F4EB04262
:10A2C0000BD0B0F1804F08D06D4EB04205D06D4E2E
:10A2D000B04202D06C4EB04206D14FF6FD7631400E
:10A2E00044F00106314305E04FF6F576314044F085
:10A2F0000106314302830184F0BD70B505460C466A
:10A300005D4885420ED05D4885420BD0B5F1804F47
:10A3100008D05B48854205D05A48854202D05A4849
:10A32000854200D100E000BF208850B92389A2886F
:10A3300061882846FFF7ABFFE1882846FFF79EFFBC
:10A3400025E0208804280AD12389A288618828462C
:10A35000FFF753FFE1882846FFF742FF17E0208808
:10A3600008280AD12389A28861882846FFF7FBFEC6
:10A37000E1882846FFF7EEFE09E02389A28861887C
:10A380002846FFF7A6FEE1882846FFF795FE70BD38
:10A390002DE9F04105460C4600260127608808B9E2
:10A3A000022600E00026A088012801D1022700E053
:10A3B00001272088A0B92389A28861882846FFF751
:10A3C00066FFE1882846FFF759FF23893A46314660
:10A3D0002846FFF712FFE1882846FFF701FF13E048
:10A3E0002389A28861882846FFF707FFE18828466D
:10A3F000FFF7F6FE23893A4631462846FFF747FF26
:10A40000E1882846FFF73AFFBDE8F0810A884B88CB
:10A410001A438B881A43CB881A430B891A434B89FA
:10A420001A438B891A43A0F8442070474FF6FF71F6
:10A43000818000210180C18041800172704700212C
:10A44000018041808180C180018141818181C18100
:10A450007047002101804180012181800021C1805D
:10A46000018170470021018041808180C18001818C
:10A470004181818170470000002C0140003401407F
:10A480000004004000080040000C004021B1028898
:10A4900042F00102028004E002884FF6FE731A4087
:10A4A0000280704731B1B0F8442042F40042A0F875
:10A4B000442005E0B0F84420C2F30E02A0F8442086
:10A4C00070471AB183890B43838102E083898B43F0
:10A4D000838170478182704741EA0203A0F84830C7
:10A4E00070471AB183890B43838102E083898B43D0
:10A4F0008381704701894FF6F872114001817047DE
:10A500000A46002101894FF68F73194011430181DA
:10A51000704730B504460D4629462046FFF7F0FF48
:10A52000208940F00700208130BD2DE9F04104462C
:10A530000D4616461F46602D06D13B460122314688
:10A540002046FFF75AFE05E03B46012231462046F1
:10A55000FFF79DFE29462046FFF7D2FF208940F0F5
:10A5600007002081BDE8F08130B50C46002101894B
:10A57000C9B24FF6FF7505EA032515432543294364
:10A58000018130BD2DE9F04105460E46174698463B
:10A59000002443463A4631462846FFF7E5FF2C891A
:10A5A0004FF6F870044044F007044FF68F700440F3
:10A5B00044F070042C81BDE8F081F0B504460D46EE
:10A5C00016461F463B46324629462046FFF7CCFF3B
:10A5D000208940F480402081F0BD0185828270474F
:10A5E0000A46002101884FF68F73194011430180FC
:10A5F0007047F0B50C4615461E4600210022002388
:10A600000189028B038C4FF6F877394021434FF6CE
:10A61000FC473A4040F201173A434FF6DD773B40A2
:10A620004FF6FF7707EA06172F433B43018102836A
:10A630000384F0BD0A460021018B4FF68F73194049
:10A640001143018370470A460021018B48F6FF73CE
:10A6500019404FF6FF7303EA022319430183704741
:10A660000A460021818B4FF68F7319401143818375
:10A6700070470A460021818B48F6FF7319404FF658
:10A68000FF7303EA022319438183704721B10288D3
:10A6900042F08002028004E002884FF67F731A4085
:10A6A0000280704721B1828842F00402828004E077
:10A6B00082884FF6FB731A408280704721B18288EE
:10A6C00042F00802828004E082884FF6F7731A4055
:10A6D0008280704721B1828842F00102828004E0CA
:10A6E00082884FF6FE731A40828070470A46002126
:10A6F000018B4FF6F77319401143018370470A46E7
:10A700000021018B4FF2FF7319404FF6FF7303EAEC
:10A7100002231943018370470A460021818B4FF6BB
:10A72000F77319401143818370470A460021818BDA
:10A730004FF2FF7319404FF6FF7303EA02231943E8
:10A74000818370470A460021018B4FF6FB73194045
:10A750001143018370470A460021018B4FF6FF33F6
:10A7600019404FF6FF7303EA022319430183704730
:10A770000A460021818B4FF6FB73194011438183F8
:10A7800070470A460021818B4FF6FF3319404FF680
:10A79000FF7303EA02231943818370470A460021AD
:10A7A000018B4FF67F7319401143018370470A46AE
:10A7B0000021018BC1F30E014FF6FF7303EA022360
:10A7C0001943018370470A460021818B4FF67F733E
:10A7D00019401143818370470A460021818BC1F3E0
:10A7E0000E014FF6FF7303EA02231943818370477A
:10A7F0000A460021018C4FF6FD7319401143018474
:10A8000070470A460021018C4FF6F7731940114337
:10A81000018470470A460021018C4FF6DF7319400E
:10A820004FF6FF7303EA02131943018470470A4687
:10A830000021018C4FF67F7319404FF6FF7303EA36
:10A8400002131943018470470A460021018C4FF618
:10A85000FF5319404FF6FF7303EA022319430184A3
:10A8600070470A460021018C4FF2FF7319404FF6E2
:10A87000FF7303EA02231943018470470A4600214B
:10A88000018C4DF6FF7319404FF6FF7303EA023354
:10A8900019430184704730B5002301248C40A3B2D2
:10A8A000048C9C430484048C02FA01F5ADB22C4361
:10A8B000048430BD30B5002304248C40A3B2048C42
:10A8C0009C430484048C02FA01F5ADB22C43048449
:10A8D00030BD70B50346002000241846183001250D
:10A8E0008D40ACB21D8CA5431D8409B1082909D146
:10A8F00000EB6100056825F07005056005681543EB
:10A9000005600EE00D1FC5F34E052844056825F4CB
:10A91000E045056005684FF6FF7606EA02263543F6
:10A92000056070BD21B1028842F00202028004E09D
:10A9300002884FF6FD731A400280704721B10288E9
:10A9400042F00402028004E002884FF6FB731A40D2
:10A950000280704721B1828842F08002828004E048
:10A9600082884FF67F731A408280704702884FF6C4
:10A97000F7731A40028002880A4302807047828877
:10A980004FF68F731A40828082880A438280704714
:10A9900002894FF6F8731A40028102890A43028144
:10A9A000704702894FF67F731A40028102890A4379
:10A9B0000281704781847047818570478186704726
:10A9C0000187704781877047A0F840107047028860
:10A9D0004FF6FF431A40028002880A430280704704
:10A9E0000146888E70470146088F70470146888F60
:10A9F00070470146B1F8400070470146888C7047A7
:10AA00000146088D704702460020138A0B400BB1A7
:10AA1000012000E000207047CA430282704730B531
:10AA20000246002000230024158A05EA01039589C7
:10AA300005EA010413B10CB1012000E0002030BD93
:10AA4000CA4302827047000001460020FE4A106897
:10AA500000F03800084310607047FB49096821F096
:10AA60000801F94A116011460968014311607047F5
:10AA7000F549096821F01001F34A1160114609688F
:10AA8000014311607047F148EF494860F048486061
:10AA90007047EE48EC494860ED4848607047EA4826
:10AAA000006940F08000E84908617047E6480069A5
:10AAB00040F08000E449086170470420E249C96819
:10AAC00001F0010109B101200EE0DF49C96801F080
:10AAD000040109B1022007E0DB49C96801F0100157
:10AAE00009B1032000E00420704700B502460423AA
:10AAF000FFF7E3FF034603E0FFF7DFFF0346521EC5
:10AB0000012B01D1002AF7D102B90523184600BD57
:10AB100030B5044604254FF43020FFF7E6FF054624
:10AB2000042D17D1C848006940F00200C6490861E9
:10AB300008464461006940F0400008614FF430204D
:10AB4000FFF7D3FF0546C048006941F6FD71084094
:10AB5000BD490861284630BD10B504244FF43020AB
:10AB6000FFF7C3FF0446042C16D1B748006940F034
:10AB70000400B54908610846006940F040000861DA
:10AB80004FF43020FFF7B1FF0446AF48006941F6AB
:10AB9000FB710840AC490861204610BD00B5024673
:10ABA0000423FFF78AFF034603E0FFF786FF03460F
:10ABB000521E012B01D1002AF7D102B905231846F4
:10ABC00000BD10B504244FF43020FFF7E7FF044622
:10ABD000042C16D19C48006940F004009A49086191
:10ABE0000846006940F0400008614FF43020FFF74C
:10ABF000D5FF04469448006941F6FB71084092492C
:10AC00000861204610BD00208F49C96901F002018A
:10AC100009B1012000E00020704730B5A5250424CB
:10AC2000FFF7F1FF00B100254FF43020FFF75DFF83
:10AC30000446042C3AD1854883498860844888605A
:10AC40000846006940F0200008610846006940F0AD
:10AC5000400008614FF43020FFF747FF0446042C02
:10AC60001BD17948006941F6DF71084076490861D7
:10AC70000846006940F01000086176480580E0024F
:10AC8000FFF733FF0446052C10D06F48006941F6EA
:10AC9000EF7108406C49086108E0052C06D06A484D
:10ACA000006941F6EF71084067490861204630BDF0
:10ACB00078B506460C46042500200090E802FFF710
:10ACC00014FF0546042D24D15F48006940F00100BF
:10ACD0005D4908613480E802FFF707FF0546042D4F
:10ACE00010D1B01C0090200C00990880E802FFF7FA
:10ACF000FCFE05465448006941F6FE710840524981
:10AD0000086106E05048006941F6FE7108404E496E
:10AD10000861284678BD70B504460D460426F00249
:10AD2000FFF7E3FE0646042E11D14748006940F0C4
:10AD30000100454908612580F002FFF7D6FE06466E
:10AD40004148006941F6FE7108403F4908613046BC
:10AD500070BD70B505460E460424E002FFF7C5FE3F
:10AD60000446042C17D13948374988603848886030
:10AD70000846006940F0100008612E80E002FFF7ED
:10AD8000B4FE0446052C06D02F48006941F6EF7149
:10AD900008402D490861204670BD2DE9F043044666
:10ADA0004FF6FF763746B046B1460425E443E6B297
:10ADB000C4F30727C4F307484FEA1469E802FFF712
:10ADC00094FE0546042D49D120481F49886020483B
:10ADD00088600846006940F010000861FF2E06D028
:10ADE0001C4808300680E802FFF77FFE0546042D68
:10ADF00008D1FF2F06D017480A300780E802FFF776
:10AE000074FE0546042D0AD1B8F1FF0F07D0114892
:10AE10000C30A0F80080E802FFF767FE0546042D1D
:10AE20000AD1B9F1FF0F07D00A480E30A0F8009000
:10AE3000E802FFF75AFE0546052D0FD002480069CB
:10AE400041F6EF71084007E000200240230167450A
:10AE5000AB89EFCD00F8FF1F664908612846BDE8C1
:10AE6000F08330B5054604244FF43020FFF73DFE53
:10AE70000446042C41D160485E4988605F48886080
:10AE80000846006940F0200008610846006940F06B
:10AE9000400008614FF43020FFF727FE0446042CE1
:10AEA00022D15448006941F6DF71084051490861D8
:10AEB0000846006940F0100008611DB100205049AB
:10AEC000088002E0A5204E4908804FF43020FFF7AB
:10AED0000CFE0446052C10D04648006941F6EF717F
:10AEE00008404449086108E0052C06D04148006943
:10AEF00041F6DF7108403F490861204630BDF0B59A
:10AF000005460E46174604243B483A4988603B48AC
:10AF10008860E002FFF7E9FD0446042C19D13548AA
:10AF2000006940F010003349086147F0F8003043F1
:10AF300028433349891C0880E002FFF7D6FD044608
:10AF4000052C06D02B48006941F6EF7108402949CD
:10AF500008612046F0BD2748C06980087047254831
:10AF6000006A704700202349096801F0200109B1F7
:10AF7000012000E00020704729B11E4A12690243F7
:10AF80001C4B1A6104E01B4A12698243194B1A6177
:10AF9000704701460020012908D1164AD26902F003
:10AFA00001020AB1012008E0002006E0114AD2683F
:10AFB0000A400AB1012000E0002070470D49C86036
:10AFC000704704200B49C96801F0010109B1012053
:10AFD0000EE00849C96801F0040109B1022007E048
:10AFE0000449C96801F0100109B1032000E0042000
:10AFF000704700000020024023016745AB89EFCD78
:10B0000000F8FF1F002044490860091D0860091D61
:10B010000860091D086041483F49143108607047C5
:10B0200000213D498279002A3AD00A461268036815
:10B030009A430B461A600A1D126803689A430B1D57
:10B040001A60027911440A6803681A430A60324A96
:10B050000832126803689A432F4B08331A601A1D8E
:10B06000126803689A432C4B0C331A604279102AF9
:10B070000ED11A1F126803681A43274B08331A604F
:10B080001A1D126803681A43234B0C331A600DE033
:10B090002149427911440A6803681A430A6005E0AD
:10B0A000027911440A6803689A430A6070470021D4
:10B0B000016001710C2141710021817170471649B5
:10B0C000103109680143144A10321160704701467B
:10B0D0000020114A143212680A400AB1012000E02F
:10B0E000002070470C491431086070470146002069
:10B0F0000022094B1B6803EA0102074B14331B684B
:10B100000B4013B10AB1012000E000207047024952
:10B11000143108607047000000040140FFFF0F0079
:10B120000E49086070470D49486070470B498860B8
:10B1300070474AF6AA200949086070474CF6CC408F
:10B1400006490860704701460020044AD2680A4058
:10B150000AB1012000E000207047000000300040EC
:10B1600070B505460E4600BF80219848FDF766FB86
:10B170000028F9D000240CE0295D9448FDF7F0FA8E
:10B1800000BF40219148FDF759FB0028F9D0601C11
:10B1900084B2B442F0DB0D218C48FDF7E1FA00BF28
:10B1A00040218A48FDF74AFB0028F9D00A21874848
:10B1B000FDF7D6FA00BF40218448FDF73FFB002889
:10B1C000F9D070BD10B5044600BF80218048FDF75E
:10B1D00035FB0028F9D021467D48FDF7C1FA00BFB4
:10B1E00040217B48FDF72AFB0028F9D010BD7047AD
:10B1F0002DE9F04105460E4617460024A81E1328E7
:10B200007ED2DFE800F00A10161C22282E343A40C5
:10B21000464C52585E646A7177006EA2012108465E
:10B22000FFF7E5FF6DE076A201210846FFF7DFFF9B
:10B2300067E07CA201210846FFF7D9FF61E085A203
:10B2400001210846FFF7D3FF5BE08CA201210846ED
:10B25000FFF7CDFF55E093A201210846FFF7C7FF96
:10B260004FE09BA201210846FFF7C1FF49E0A3A2DE
:10B2700001210846FFF7BBFF43E0ABA201210846CE
:10B28000FFF7B5FF3DE0B2A201210846FFF7AFFF8F
:10B2900037E0BAA201210846FFF7A9FF31E0C2A2B8
:10B2A00001210846FFF7A3FF2BE0CAA201210846AF
:10B2B000FFF79DFF25E0D1A201210846FFF797FF88
:10B2C0001FE0D9A201210846FFF791FF19E0E1A292
:10B2D00001210846FFF78BFF13E0E9A20121084690
:10B2E000FFF785FF0DE00BE0F0A201210846FFF714
:10B2F0007EFF06E0F7A201210846FFF778FF00E095
:10B3000000BF00BF0120FFF75DFF2846FFF75AFF8F
:10B31000002404E0305DFFF755FF601CC4B2BC425E
:10B32000F8DB0D20FFF74EFF0A20FFF74BFFBDE8CB
:10B33000F08170B500240025002240F225512448F8
:10B34000FDF7ADF900BF01E0601C84B2B4F57A7F6F
:10B35000FADB002211461420FFF74AFF00BF20212C
:10B360001B48FDF76BFA0028F9D01948FDF7FCF9E6
:10B37000054600BF20211648FDF760FA0028F9D0E5
:10B380001348FDF7F1F945EA002085B2012240F2A9
:10B3900025510F48FDF783F9002401E0601C84B2B9
:10B3A000B4F57A7FFADB284670BD7CB505460C46BD
:10B3B00001208DF800008DF801508DF80240032126
:10B3C0006846FFF7CDFE04B996E19BE100380140E5
:10B3D000004C004053656E6420646973706C617941
:10B3E00020636F6D6D616E6420097C20434D445F66
:10B3F000434C4541525F53435245454E00000000C7
:10B4000053656E6420646973706C617920636F6D3D
:10B410006D616E6420097C20434D445F555044416A
:10B420005445000053656E6420646973706C6179E3
:10B4300020636F6D6D616E6420097C20434D445F15
:10B440004348414E47455F4252494748544E455351
:10B450005300000053656E6420646973706C6179F9
:10B4600020636F6D6D616E6420097C20434D445FE5
:10B4700053454E445F4441544100000053656E649F
:10B4800020646973706C617920636F6D6D616E64A7
:10B4900020097C20434D445F53454E445F494E464E
:10B4A0004F00000053656E6420646973706C6179AD
:10B4B00020636F6D6D616E6420097C20434D445F95
:10B4C0004352454154455F504F50555000000000D5
:10B4D00053656E6420646973706C617920636F6D6D
:10B4E0006D616E6420097C20434D445F555044419A
:10B4F00054455F504F5055500000000053656E6436
:10B5000020646973706C617920636F6D6D616E6426
:10B5100020097C20434D445F44454C4554455F50D1
:10B520004F5055500000000053656E6420646973ED
:10B53000706C617920636F6D6D616E6420097C2091
:10B54000434D445F434845434B5F4C454400000036
:10B5500053656E6420646973706C617920636F6DEC
:10B560006D616E6420097C20434D445F434150541B
:10B570005552455F53435245454E000053656E6436
:10B5800020646973706C617920636F6D6D616E64A6
:10B5900020097C20434D445F53544152545F534330
:10B5A000414E5F4C4544000053656E6420646973EE
:10B5B000706C617920636F6D6D616E6420097C2011
:10B5C000434D445F53544F505F5343414E5F4C458E
:10B5D0004400000053656E6420646973706C617987
:10B5E00020636F6D6D616E6420097C20434D445F64
:10B5F00053454E445F464F4E5400000053656E6401
:10B6000020646973706C617920636F6D6D616E6425
:10B6100020097C20434D445F524551554553545FAA
:10B620005245424F4F54000053656E642064697365
:10B63000706C617920636F6D6D616E6420097C2090
:10B64000434D445F53454E445F505245444546493F
:10B650004E45000053656E6420646973706C6179B7
:10B6600020636F6D6D616E6420097C20434D445FE3
:10B67000504C41595F5052454445494E45440000A5
:10B6800053656E6420646973706C617920636F6DBB
:10B690006D616E6420097C20434D445F53454E44E8
:10B6A0005F4857434F4E46494700000053656E645C
:10B6B00020646973706C617920636F6D6D616E6475
:10B6C00020097C20434D445F5550444154455F461A
:10B6D0005700000053656E6420646973706C617973
:10B6E00020636F6D6D616E6420097C20434D445F63
:10B6F00046575F494E464F00C8A202210120FFF77E
:10B7000076FD3EE0AB2D3CD01A2D3AD0092C36D236
:10B71000DFE804F035050B11171D23292F00C6A201
:10B7200003210120FFF763FD2AE0CAA203210120C3
:10B73000FFF75DFD24E0D1A203210120FFF757FDB3
:10B740001EE0D8A203210120FFF751FD18E0E1A27D
:10B7500003210120FFF74BFD12E0E9A203210120A4
:10B76000FFF745FD0CE0F0A203210120FFF73FFDAC
:10B7700006E0F8A203210120FFF739FD00E000BF39
:10B7800000BF7CBD38B50222FCA1FE4809F067FB72
:10B790000446042C05D10422F8A1FA4809F05FFB05
:10B7A000044634B96B460222F749F64809F0FFFC1B
:10B7B0000446F44809F05EFE38BDF449086000BF55
:10B7C000F24909680029FBD1704770B500240025B3
:10B7D0000020EF49087000E0641CED48007810B9C3
:10B7E000EC488442F8D3EB48844206D3EAA2032112
:10B7F0000120FFF7FCFC01251BE00020E449087054
:10B80000EB48007810B101280ED106E0E9A2012131
:10B810000846FFF7ECFC002507E0ECA2032101201D
:10B82000FFF7E5FC012500E000BF00BF0020E04974
:10B830000870284670BD10B5044600BF8021E94855
:10B84000FCF7FCFF0028F9D0AB21E648FCF788FFA5
:10B8500000BF4021E348FCF7F1FF0028F9D00121A7
:10B86000E048FCF77DFF00BF4021DE48FCF7E6FF23
:10B870000028F9D02146DB48FCF772FF00BF4021C9
:10B88000D848FCF7DBFF0028F9D00D21D548FCF79C
:10B8900067FF00BF4021D348FCF7D0FF0028F9D054
:10B8A0000A21D048FCF75CFF00BF4021CD48FCF7DF
:10B8B000C5FF0028F9D0052C22D2DFE804F00309E7
:10B8C0000F151B00C8A201210846FFF790FC18E0E5
:10B8D000CEA201210846FFF78AFC12E0D4A2012182
:10B8E0000846FFF784FC0CE0DBA201210846FFF7C5
:10B8F0007EFC06E0E1A201210846FFF778FC00E0AB
:10B9000000BF00BF10BD2DE9F0418CB007460D46C9
:10B910000026142107A80BF063F9002400200490EE
:10B9200003903B46DE4A012108460095FFF75FFC85
:10B93000002207A9384605F0F8FDDA49DA4809F08F
:10B940007CFE8046012207A98E4809F088FA8046CD
:10B95000B8F1000F60D102AB052205A9894809F0B2
:10B9600040FB804602980528F4D105980490BDF864
:10B9700016000390CD48B0F80100BDF810108842C1
:10B9800006D1CA48B0F80300BDF80C10884208D0B0
:10B99000C7A203210120FFF72AFC01200CB0BDE85B
:10B9A000F0810120FFF70EFC1020FFF70BFC28466A
:10B9B000FFF708FC73488089401F84B2E0B2FFF7AC
:10B9C00001FC2012FFF7FEFB204606F0D1FDC54921
:10B9D00008602146C34800680BF0E0F8052169487B
:10B9E00009F053FD02AB2246BE480168654809F0E4
:10B9F000F8FA002606E0BB490968885DFFF7E2FB1C
:10BA0000701C86B202988642F5D30D20FFF7DAFB50
:10BA10000A20FFF7D7FB67E16AE100004465766919
:10BA2000636520726573706F6E73652009097C20F1
:10BA3000535543434553530044657669636520720B
:10BA40006573706F6E73652009097C204572726F93
:10BA50007200000044657669636520726573706FDB
:10BA60006E73652009097C204552524F525F49444C
:10BA70005F4455504C494341544500004465766944
:10BA8000636520726573706F6E73652009097C2091
:10BA90004552524F525F49445F4E4F545F464F5597
:10BAA0004E44000044657669636520726573706F6B
:10BAB0006E73652009097C204552524F525F5354E2
:10BAC0004F524147455F4E4F545F415641494C41AB
:10BAD000424C450044657669636520726573706FFA
:10BAE0006E73652009097C204552524F525F4441D4
:10BAF00054415F494D4147455F464F524D415400C7
:10BB000044657669636520726573706F6E73652036
:10BB100009097C204552524F525F5041434B4147E7
:10BB2000455F494400000000446576696365207202
:10BB30006573706F6E73652009097C204552524F02
:10BB4000525F5041434B4147455F434845434B5348
:10BB5000554D000044657669636520726573706FAA
:10BB60006E73652009097C204552524F525F44454F
:10BB7000564943455F425553590000006272692E91
:10BB800062696E00A42800208C0000209000002034
:10BB9000BD000020FFFF0F00446973706C617920C5
:10BBA0006E6F7420726573706F6E73652100000094
:10BBB000BE000020446973706C61792072657370F7
:10BBC0006F6E7365204F4B21000000004469737055
:10BBD0006C617920726573706F6E73652065727227
:10BBE0006F722100003801404465766963652077F3
:10BBF00061726E696E672009097C205741524E4977
:10BC00004E475F544F4F5F484F540000446576697C
:10BC10006365207761726E696E672009097C205721
:10BC200041524E494E475F44414D41474544000013
:10BC3000446576696365207761726E696E67200975
:10BC4000097C205741524E494E475F4F55545F4F34
:10BC5000465F504F574552004465766963652077CB
:10BC600061726E696E672009097C205741524E4906
:10BC70004E475F4F50454E4E45440000446576693F
:10BC80006365207761726E696E672009097C2057B1
:10BC900041524E494E475F53494D5F455252000055
:10BCA000988A010828000020C82A00207138002046
:10BCB000496D61676527732073697A65206E6F74BB
:10BCC000206669742077697468207072656465669F
:10BCD000696E656420696D61676527732073697A91
:10BCE0006521000070000020F348006806F070FC39
:10BCF000F24809F0BFFBB8F1000F06D1F0A2012114
:10BD00000846FFF774FA002048E6F6A20321012056
:10BD1000FFF76DFA012041E6F0B5A1B006460C46EA
:10BD2000002514211CA80AF05BFF3346F3A2012171
:10BD300008460094FFF75BFA02221CA9304605F082
:10BD4000F4FBFE49FE4809F078FC074601221CA9D5
:10BD5000DA4809F084F807464FBB0120FFF732FAB2
:10BD60000E20FFF72FFA3046FFF72CFAE0B2FFF76C
:10BD700029FA2012FFF726FA00BF02AB642203A9BA
:10BD8000CE4809F02EF9002505E003A9485DFFF72C
:10BD900019FA681C85B202988542F6D302980028E9
:10BDA000EBD10D20FFF70EFA0A20FFF70BFAC3487C
:10BDB00009F060FBE3A201210846FFF718FA21B061
:10BDC000F0BD70472DE9F04F85B00027BA4600243A
:10BDD000A146A04600250026E0A201210846FFF763
:10BDE00006FA0020E349088040F68551E2480AF04F
:10BDF000F7FE002211460B20FFF7FAF9FFF7E5FCEA
:10BE00008246BAF1000F04D00121A920FFF7CDFA34
:10BE1000DAE00120D9490870002404E03220FFF75D
:10BE2000CCFC601C84B2D548007808B1642CF5DBEA
:10BE3000642C14DBD2A203210120FFF7D8F90121E1
:10BE4000A920FFF7B2FA0020CA49088040F68551C0
:10BE5000C9480AF0C5FE0020C8490870B4E0CE48C1
:10BE6000008800F2E7304FF47A7190FBF1FBCB4889
:10BE7000B0F80300CDE9000BC848B0F80130C84A5B
:10BE800001210846FFF7B3F901208DF80800D12001
:10BE90008DF80900C14840788DF80A00BF48B0F815
:10BEA000010000128DF80B00BC48C0788DF80C0022
:10BEB000BA48B0F8030000128DF80D00B6480088AB
:10BEC00000F2E7304FF47A7190FBF1F0C0B28DF8D8
:10BED0000E00E8208DF80F0003208DF810000921D6
:10BEE00002A8FFF73DF94FF47A70FFF766FCAA4805
:10BEF00004884FF0000965E0FFF71BF90020A9490D
:10BF0000087001208DF80800D2208DF809008DF806
:10BF10000A8000208DF80B0000270DE002A8C15D0B
:10BF2000A148FCF71DFC00BF40219F48FCF786FCA0
:10BF30000028F9D0781C87B2042FEFDBB4F57A7FA4
:10BF400002DD4FF47A7600E02646434697A20121AF
:10BF500008460096FFF74BF9874901EB0900314687
:10BF6000FFF7FEF8002503E00A20FFF726FC6D1C12
:10BF70008C48007810B9B5F5FA7FF5D39848007869
:10BF800010B9B5F5FA7F0ED3B5F5FA7F05D995A2AC
:10BF900003210220FFF72BF914E09AA203210220CB
:10BFA000FFF725F90EE008F1010000F0FF0809EBAA
:10BFB00006001FFA80F9A01B84B298A2012102207A
:10BFC000FFF715F9002C97D199A201210846FFF738
:10BFD0000EF9FFF7F6FE05B0BDE8F08F0FB42DE9BE
:10BFE000F04F87B0DDF864B000240027DDF85D5025
:10BFF000142101A80AF0F4FDA1460026BBF1070FA9
:10C0000006D0BBF1080F04D0BBF1090F4DD131E2CE
:10C0100000BF9DF84D00C0EB001028444079012876
:10C0200044D0022804D0032841D0042840D1DDE1C7
:10C030008449434809F001FB8046B8F1000F16D14E
:10C04000002000909DF84D00C0EB0010284480684F
:10C0500000880090002201A9BDF8000005F065FAF3
:10C06000012201A9154808F0FAFE804600BFB8F188
:10C07000000F1ED1052006F07BFA064606AB05220E
:10C0800031460E4808F0ADFF80460698052811D1CC
:10C090003178707801EB0020B278F17802EB012161
:10C0A000484387B2F81CC117CEE0F4E11AE156E12B
:10C0B000DDE116E10FE1000070000020A42800205F
:10C0C00055706461746520524F4D277320707265FE
:10C0D000646566696E656420737563636573732157
:10C0E000000000005265616420696D61676520662B
:10C0F000696C65206572726F722100005570646111
:10C10000746520666F6E7420666F72206469737048
:10C110006C6179206D6F64756C6520097C20466FB9
:10C120006E7449443A2025642C206C656E677468EF
:10C130003A20256420627974657300003300002082
:10C14000C82A002055706461746520666F6E742083
:10C15000737563636573732100000000537461722B
:10C160007420636170747572652073637265656EA7
:10C170000000000088000020EC2A0020470000207A
:10C18000436170747572652073637265656E2074A7
:10C19000696D656F757421008A0000207138002078
:10C1A000DC8A0108440000200038014043617074BB
:10C1B0007572652064617461207061636B6167658D
:10C1C00020097C205061636B6167652049443A20F7
:10C1D00025642C204C656E6774683A202564000045
:10C1E0004D00002057616974207365727665722076
:10C1F000726573706F6E73652074696D656F7574A9
:10C200002100000053657276657220726573706F4D
:10C210006E7365206572726F7221000053657276CD
:10C22000657220726573706F6E7365204F4B2100CD
:10C23000456E642063617074757265207363726506
:10C24000656E21002800002000EB91718F103846A8
:10C2500006F08EF9814606AB3A464946F74808F0A3
:10C26000C0FE8046F54809F005F90698B8422BD182
:10C270000120FEF7A7FF5846FEF7A4FF002405E0C3
:10C2800010A9085DFEF79EFF601C84B20C2CF7DB42
:10C29000002404E0305DFEF795FF601C84B2052C9D
:10C2A000F8DB0020FEF78EFF002405E019F80400FB
:10C2B000FEF788FF601C84B2BC42F7DB0D20FEF75E
:10C2C00081FF0A20FEF77EFF484606F081F93046DE
:10C2D00006F07EF905E0D94809F0CCF8304606F0C2
:10C2E00077F9C5E04FF0000A0120FEF76BFF5846D2
:10C2F000FEF768FF05208DF84B00002405E010A92B
:10C30000085DFEF75FFF601C84B20C2CF7DB012098
:10C310008DF84B009DF84D00C0EB00102844B0F89C
:10C3200006A00AF0FF00FEF74DFF4FEA2A20FEF7B5
:10C3300049FF00240AE09DF84D10C1EB011129448A
:10C340008968085DFEF73EFF601C84B25445F2DB4D
:10C350000D20FEF737FF0A20FEF734FF88E04FF08C
:10C36000000A0120FEF72EFF5846FEF72BFF0220A1
:10C370008DF84B00002405E010A9085DFEF722FFB0
:10C38000601C84B20C2CF7DB01208DF84B009DF86B
:10C390004D00C0EB00102844B0F806A00AF0FF00E2
:10C3A000FEF710FF4FEA2A20FEF70CFF00240AE0F8
:10C3B0009DF84D10C1EB011129448968085DFEF715
:10C3C00001FF601C84B25445F2DB002405E09C4967
:10C3D000085DFEF7F7FE601C84B2072CF7DB0D202A
:10C3E000FEF7F0FE0A20FEF7EDFE41E04FF0000AF6
:10C3F0000120FEF7E7FE5846FEF7E4FE03208DF825
:10C400004B00002405E010A9085DFEF7DBFE601C70
:10C4100084B20C2CF7DB01208DF84B009DF84D0009
:10C42000C0EB00102844B0F806A00AF0FF00FEF7A9
:10C43000C9FE4FEA2A20FEF7C5FE00240AE09DF857
:10C440004D10C1EB011129448968085DFEF7BAFE61
:10C45000601C84B25445F2DB7A480078FEF7B2FEE5
:10C460000D20FEF7AFFE0A20FEF7ACFE00E000BF95
:10C4700000BF11E00120FEF7A5FE5846FEF7A2FE20
:10C48000002405E010A9085DFEF79CFE601C84B244
:10C490000C2CF7DB00E000BF00BF07B0BDE8F00FD9
:10C4A0005DF814FBF0B58FB0054600240027002688
:10C4B0002B4665A201210846FEF799FE69480068EF
:10C4C00018B16848006804F0F2FF284605F09CF8AF
:10C4D000644908600846006800284AD00846006899
:10C4E000008861490880002211460220FEF780FE84
:10C4F000FFF76BF9074601225A480168891C06209C
:10C50000FEF776FEFFF761F9074600242BE00720CF
:10C51000059054480068406804EB4412104400F150
:10C520001001112268460AF0C2FA4E4800684068BD
:10C5300004EB44128118212206A80AF0B8FA06A8D2
:10C540000FC8FFF74BFD012046490968496804EB15
:10C55000441211440877FFF738F907460FB1012656
:10C5600006E0601C84B23F4800688078A042CEDCC0
:10C5700005E03EA203210120FEF739FE0126012E2F
:10C5800004D13FA203210120FEF731FE30460FB057
:10C59000F0BD0146002007E00A78303A00EB800346
:10C5A00002EB430290B2491C0A782E2AF4D170475C
:10C5B0002DE9F04105460C4600262946354809F08C
:10C5C0003CF80746F7B900BF3349324809F06EF826
:10C5D000074617B93048407A00B912E02E48407A31
:10C5E0002E2800D1F0E72C48007A00F0100038B96E
:10C5F00029480930FFF7CDFF2080A41C701C86B2AB
:10C60000E2E700BF3046BDE8F08170B50446002681
:10C610002146204809F011F80546FDBB00BF1E4920
:10C620001C4809F043F8054615B91B48407A00B983
:10C630003DE01948407A2E2831D1F0E7A4280020A7
:10C640005C000020BC00002053776170207061679F
:10C650006520090909097C20506167652049443A31
:10C66000202564006C000020740000204C6F616481
:10C670002070616765206572726F72210000000092
:10C68000537761702070616765206572726F7221E7
:10C69000000000005C2600203C26002008E0FE4848
:10C6A000007A00F0100008B9701C86B2B7E700BF2E
:10C6B000304670BD2DE9F041ADF51A7D07464FF0CB
:10C6C000000800260025142195A80AF089FAF348ED
:10C6D000FFF79BFF0646002E37DD0221304605F0AE
:10C6E00055FF044674B32146EC48FFF761FF064648
:10C6F00000BF24E0142195A80AF072FA34F815005E
:10C70000012295A904F011FFE4498BA808F095FFD8
:10C71000012295A902A808F0A2FB01AB042294A96A
:10C7200002A808F05EFC0198042806D19DF8530287
:10C73000B84202D134F8158003E0681C85B2B542D6
:10C74000D8DB00BF204605F043FF40460DF51A7DBB
:10C75000BDE8F08138B50122AFF6E031D04808F0ED
:10C760007EFB044634B96B460222CE49CC4808F021
:10C7700038FC0446CA4808F07DFECA480388CAA2AD
:10C7800001210846FEF733FDFFF71BFB38BD7CB5E2
:10C7900004460025CE4D2E461522314620460AF08D
:10C7A00086F9902024F8010F60206080207961884C
:10C7B000CDE9001034F80139C64A01210846FEF7D8
:10C7C00016FDFFF7FEFA7CBD10B5044601225102AA
:10C7D000C148FCF770FB00224FF48061BE48FCF7B3
:10C7E0006AFB00224FF40061BB48FCF764FB04F0D5
:10C7F000010030B100224FF40061B748FCF75BFB49
:10C8000004E00122D102B448FCF755FB04F0020019
:10C8100030B100224FF48061AF48FCF74CFB04E0DC
:10C8200001229102AC48FCF746FB10BD38B5002050
:10C8300006F0D1FE054625BBA849002008F0FCFA09
:10C840006A460121002007F02BF8044694B9A44859
:10C8500009F0ACF8914809F0A9F8A24809F0A6F847
:10C86000A1A009F0A3F8A148007820F002009F4998
:10C8700008700CE09D48007840F002009B49087069
:10C8800005E09A48007840F002009849087038BDE9
:10C8900010B500200022002100BF10E00146002258
:10C8A00008E001F080031BB1882383EA410100E026
:10C8B0004900521C082AF4DB8D4C2154401CFF28EF
:10C8C000ECDD10BD70B50025002403F0A5FF04F0D9
:10C8D00025F804F02CF904F068F904F057FA04F094
:10C8E000BFFA04F0EDFA03F0C9FF04F07DF904F09B
:10C8F0000BF904F039FC0120FCF7EEF800BF6120D1
:10C90000FCF739F80028FAD045F25550FEF708FC3C
:10C910000620FEF708FC40F6FF70FEF707FCFEF766
:10C9200008FCFEF70BFCFFF7B3FF4FF4FA60FEF7CD
:10C9300044FFFFF77BFF6D48007800F0020010B164
:10C9400001206C4908706CA200210120FEF74FFC09
:10C95000FFF737FA6548007840F001006349087036
:10C9600008460078FFF730FF6748FFF710FF3220D6
:10C97000664908706648FCF7CFFC054605EB451193
:10C980004800C11700EB11510C13282C05DA0022C6
:10C9900004216048FCF78FFA06E0322C04DB012208
:10C9A00004215C48FCF787FAFEF7C3FB70BD90B02A
:10C9B000002400250027FFF785FF1A210846FEF70F
:10C9C000F4FC4FF4006154480AF00AF9002053497E
:10C9D00008804D49B1F80300C11700EB917189102F
:10C9E000494AB2F8012051434D4A118004F00DFD2F
:10C9F0004C4908700EA804F001FC4B480E990160E8
:10CA0000BDF83C1081809DF83E1081714748464931
:10CA10000A6802608A88828089798171FFF79AFEAC
:10CA2000022220490420FEF7E3FBFEF7CEFE0120A0
:10CA3000FFF740FE07461FB90220FFF73BFE0746FF
:10CA40001FB13846FFF72EFD06E0002211461120E7
:10CA5000FEF7CEFBFEF7B9FEFEE3FEF76AFB3448B5
:10CA60000078B8B100203249087032A200210120BC
:10CA7000FEF7BDFBFFF7A5F934480068B0F5883F25
:10CA800003D233A134A009F0AFF8EF21AB20FEF7B9
:10CA90008CFC65E066E000003C2600202E000020B3
:10CAA000A42800208C0000204C6F61642063757204
:10CAB00072656E74206272696768746E6573732044
:10CAC000097C2056616C75653A20256400000000E1
:10CAD00000F80708248B0108001401400C240020F2
:10CAE00028000020330000204C6F67007F000020EA
:10CAF0000C0B00204A000020444556494345205372
:10CB000074617274000000007138002086000020FB
:10CB100000240140001001400C0C00205A000020AD
:10CB20008A000020BC0000205C0000206300002080
:10CB30007E000020537461727420757064617465A6
:10CB4000206669726D7761726500000078000020D0
:10CB50006466772E62696E0066772E62696E0000E9
:10CB600003F046FA00245FE1FC480068406804EBEB
:10CB700044110844C07A01282BD1F8490968496852
:10CB800004EB44121144D1F81D00002517E0C5EB59
:10CB900005110144897B81B1C5EB051101448989E7
:10CBA00059B90021C5EB051202449173EB4A126892
:10CBB000526804EB44131A441177691C8DB2E7499B
:10CBC0000968496804EB44121144097BA942DEDC80
:10CBD00000BFE2480068406804EB44110844007F4D
:10CBE00000287DD1DD480068406804EB441108440A
:10CBF0000388DBA201210846FEF7F9FAD74800684E
:10CC0000406804EB44110844C07A012804D002288B
:10CC100067D0032866D1D4E0D0480068406804EBB0
:10CC200044110844007B00287DD0CC48006840684F
:10CC300004EB44110844D0F81D604FF000080025B3
:10CC400038E0C6480068406804EB44110844407B63
:10CC5000401CC1B2C1480068406804EB4412104453
:10CC60004173BE480068406804EB44110844407BAF
:10CC7000BA490968496804EB44121144097B8842A7
:10CC800007DB0021B5480068406804EB44121044FB
:10CC90004173B2480068406804EB44110844407B8B
:10CCA000C0EB00103044807B10B14FF001080AE067
:10CCB000681C85B2A9480068406804EB4411084428
:10CCC000007BA842BDDC00BFB8F1000F54D0A348E0
:10CCD0000068406804EB44110844007B012802E02E
:10CCE000A0E06DE094E013D100209C4909684968F8
:10CCF00004EB44121144487398490968496804EBED
:10CD000044121144497BC1EB01113144A1F80300E5
:10CD100092480068406804EB44110844407BC0EB33
:10CD20000010304400E039E0B0F803108B48006890
:10CD3000406804EB44121044C181082005908748E4
:10CD40000068406804EB4412104400F11001112205
:10CD5000684609F0ACFE81480068406804EB441264
:10CD60008118212207A809F0A2FE07A80FC8FFF723
:10CD700035F9FEF72AFD10E083A201210846FEF7EF
:10CD800036FA76480068406804EB441281180222A3
:10CD90001520FEF72DFAFEF718FD10E084A2012100
:10CDA0000846FEF724FA6D480068406804EB441218
:10CDB000811802221520FEF71BFAFEF706FD28E077
:10CDC00000BF0820059065480068406804EB4412E5
:10CDD000104400F110011122684609F068FE5F4816
:10CDE0000068406804EB44128118212207A809F06A
:10CDF0005EFE07A80FC8FFF7F1F8FEF7E6FC00217A
:10CE000056480068406804EB44121044C18100E0B9
:10CE100000BF00BF012051490968496804EB441272
:10CE200011440877601C84B24C4800688078A042A6
:10CE30003FF79AAE6948007800287DD04FF000088F
:10CE400046480068038866A201210846FEF7CFF92C
:10CE500042480068B0F80080404604F0D5FB064622
:10CE6000002E6AD0002434E000252AE0706804EB2C
:10CE700044110844018839480068406805EB4512B0
:10CE80001044008881421AD15C480078712808D18A
:10CE9000706804EB441108440088594909888842A5
:10CEA0000CD02E4A1268526805EB4513D1187268EF
:10CEB00004EB4413D0181D2209F0F9FD06E0681CAC
:10CEC00085B2264800688078A842CFDC00BF601C8D
:10CED00084B2B078A042C7DC2048006804F0E7FACA
:10CEE0001E48066045480078702836D100248CE042
:10CEF0001A480068406804EB44110844008840491F
:10CF0000098888427FD1072005901448006840684E
:10CF100004EB4412104400F110011122684609F09C
:10CF2000C6FD0E480068406804EB441281182122B7
:10CF300007A809F0BCFD01E08BE07EE007A80FC860
:10CF4000FFF74CF8012005490968496804EB4412D1
:10CF500011440877FEF739FC5DE05DE06C000020CD
:10CF600055706461746520646973706C61792773AE
:10CF700020706F70757020097C20506F7075702064
:10CF800049443A2025640000416C6C20706F707534
:10CF9000702773206974656D73206E6F74206C69DF
:10CFA00076652E436C65617220706F70757021001C
:10CFB000506F70757020646F6E277420636F6E748D
:10CFC00061696E20616E79206974656D2E436C65B0
:10CFD000617220706F707570210000003A000020AF
:10CFE00052656C6F616420706167652009097C205F
:10CFF000506167652049443A20256400870000207D
:10D0000056000020FFE7601C84B2F7480068807873
:10D01000A0423FF76DAF0AE0F4480078722806D1CD
:10D020000222F3490920FEF7E3F8FEF7CEFB0021C8
:10D03000EE480078FEF7B9F904E00121EB480078EA
:10D04000FEF7B3F9F020E94908700020E9490870BB
:10D0500000BFE948007878B30026E8A2002101204B
:10D06000FEF7C5F8EB48007800F0010090B1EA48FF
:10D07000007878B1002211460D20FEF7B9F8FEF7CE
:10D08000A4FB064641F28830FEF797FB16B9002054
:10D09000E1490870002211460220FEF7A9F8FEF7C8
:10D0A00094FB002211461120FEF7A2F8FEF78DFB3B
:10D0B0000020D149087000BFD848007888B3002606
:10D0C000B046D448007800F0010090B1D248007812
:10D0D00078B1002211460D20FEF78AF8FEF775FBA5
:10D0E000064641F28830FEF768FB16B90020CA49AF
:10D0F0000870CB480088FFF7D5F980460020C74963
:10D100000870BA480078F02814D0B8F1000F09D0A0
:10D110000020C34908800121B4480078FEF745F992
:10D1200005E008E00021B1480078FEF73EF9F02064
:10D13000AE49087000BFBB480078C0B30026BAA251
:10D1400000210120FEF753F80020B5490880A748C8
:10D150000078622806D1A448006804F0A8F90020ED
:10D16000A1490860002211460220FEF741F8FEF7AF
:10D170002CFB06469D480078622805D100219B487B
:10D180000078FEF712F90BE02EB1012197480078E4
:10D19000FEF70BF904E0002194480078FEF705F94A
:10D1A000F0209249087000209E49087000BFA348F3
:10D1B0000078B0B30026A2A200210120FEF717F8E4
:10D1C0009748008830B18848006804F070F9002062
:10D1D00085490860002211460220FEF709F8FEF793
:10D1E000F4FA002211460C20FEF702F8FEF7EDFAE1
:10D1F000064641F28830FEF7E0FA26B10121A72069
:10D20000FEF7D3F806E00021A720FEF7CEF80120B4
:10D210008149087001208049087000208749087002
:10D2200000BF8B48007840B300268AA2002101206D
:10D23000FDF7DDFF002211460D20FDF7D9FFFEF7B7
:10D24000C4FA064641F28830FEF7B7FA2EB1012142
:10D25000A820FEF7AAF807E0B0E00021A820FEF71A
:10D26000A4F800206C49087000206B4908707849C8
:10D27000087001206949087000BF7A48007820B121
:10D28000FEF7A0FD0020774908707748007810B1BC
:10D2900000207549087075480078E8B10026744987
:10D2A000087874490988FEF737FDFEF78EFA0646BE
:10D2B0002EB101214D480078FEF777F804E00021F7
:10D2C0004A480078FEF771F80020684908706849FC
:10D2D00008806849088000BF67480078F8B10026D8
:10D2E0006648017866480088FEF70DFB0646002078
:10D2F00063490880614908702EB101213B480078DC
:10D30000FEF753F804E0002138480078FEF74DF8A6
:10D31000F0203649087000205749087000BF59486E
:10D32000007830B158480078FEF785FA002055495A
:10D3300008705648007800B30026022254490420A1
:10D34000FDF756FFFEF741FA06466420FEF735FA70
:10D350002EB1012125480078FEF727F806E0FEF7F8
:10D3600011FA002121480078FEF71FF8F0201F492C
:10D37000087000204549087000BF46480078E8B1B1
:10D380004FF00008CF26FDF7D4FF804609208DF826
:10D39000380008F0FF008DF839004FEA28208DF89A
:10D3A0003A008DF83B6030128DF83C0005210EA844
:10D3B000FDF7D6FE00203749087000BFFFF74DBBD0
:10D3C0000FB42DE9FE430020029000240025002622
:10D3D0004FF004089DF82D00BDF82B10CDE900108A
:10D3E000BDF8293058E000006C00002087000020C4
:10D3F000560000203A0000203F0000204465766976
:10D400006365206F7574206F6620636F6E74726F32
:10D410006C2100007F0000203E0000203900002029
:10D42000740000203B000020436C656172204C4575
:10D43000442073637265656E210000003C0000208B
:10D440005363616E20616C6C204C45447321000075
:10D450003D00002053746F70207363616E204C4553
:10D460004421000040000020410000204200002034
:10D4700052000020540000204300002050000020F3
:10D480004E000020480000204B00002045000020F6
:10D490008C00002038000020ECA201210846FDF796
:10D4A000A6FE15250AAFFDF7F4FAF748FDF730FBA5
:10D4B0008046F54E00BF12E0281B042801DD042041
:10D4C00000E0281B0246391902A809F0F0FA30469C
:10D4D0000299FDF7EDFB8046361D201D84B2AC425B
:10D4E000EADBFDF7E3FABDE8FE035DF814FB1CB5CB
:10D4F000E64840788DF80000E448B0F801000012DA
:10D500008DF80100E148C0788DF80200DF48B0F8DE
:10D51000030000128DF80300DC4840798DF8040008
:10D52000052269461220FDF763FEFEF74EF91CBD89
:10D5300038B5144600208DF80300D5488078302196
:10D5400001EB20108DF80000D148807800F00F002A
:10D5500030308DF801003A208DF8020069462046EF
:10D5600009F056FACA484078302101EB20108DF8B6
:10D570000000C748407800F00F0030308DF80100FF
:10D580003A208DF802006946204609F084FAC04826
:10D590000078302101EB20108DF80000BC480078A5
:10D5A00000F00F0030308DF8010000208DF80200EF
:10D5B0006946204609F06FFA38BD7FB514461D460E
:10D5C000AFF6DC21204609F023FA2F20E07032204C
:10D5D0002071302060719DF80600302101EB201091
:10D5E000A0719DF8060000F00F003030E0719DF84A
:10D5F000050001EB201020729DF8050000F00F00DF
:10D60000303060729DF8040001EB2010A0729DF88C
:10D61000040000F00F003030E0722E2020734DB176
:10D62000012D06D1692060736420A0737820E07317
:10D6300007E000BF742060737820A0737420E0734B
:10D6400000BF00BF002020747FBD30B58DB000202A
:10D650000C9003900F2107A809F0C2FA8C4803C868
:10D66000012307AACDE90101FFF7A7FFAFF6883133
:10D67000884807F0E2FF05462DB9022207A986482F
:10D6800007F0EDFB0546042D50D1042207A982487E
:10D6900007F0E5FB0546002D48D19DF82400302811
:10D6A00002D031283ED12CE09DF82500401EC0B2AA
:10D6B0008DF825009DF82500302821D131208DF8E6
:10D6C000240032208DF825009DF82300302806DD47
:10D6D0009DF82300401EC0B28DF8230010E03920D1
:10D6E0008DF823009DF82200302806DD9DF82200E9
:10D6F000401EC0B28DF8220002E039208DF82200D1
:10D7000010E09DF82500302805D18DF8240039203F
:10D710008DF8250005E09DF82500401EC0B28DF86B
:10D72000250000BF00BF07A808F0E5F8002D49D18B
:10D73000574903C904AACDE90101FFF7F9FE00200A
:10D740008DF816008DF8170004A9544809F04EF919
:10D75000044614B15148201A039074208DF8290012
:10D7600078208DF82A0074208DF82B00012207A95B
:10D770004B4807F074FB05464948C06803990844C4
:10D780000390474807F076FE4348C16807F07DFEE6
:10D790000CAB01223E49891C3F4807F008FD0546B5
:10D7A0000CAB01223A49491C3B4807F000FD0546F5
:10D7B0000CAB042203A9384807F0F9FC05463648AB
:10D7C00007F058FE0DB030BD4178491C41704178DA
:10D7D00001F00F010A2904D1417801F0F001103164
:10D7E0004170417860290ED1002141708178491C37
:10D7F0008170817801F00F010A2904D1817801F04C
:10D80000F001103181707047417891B95921417010
:10D81000817801F00F0141B9817801F0F0011039F0
:10D82000C9B241F00901817040E08178491E8170E0
:10D830003CE0417801F00F01A1BB417801F0F0011B
:10D840001039C9B241F0090141702FE053657420CD
:10D850006E657720636F6E66696720097C206C6552
:10D860006457696474683A2025642C206C656448A8
:10D8700065696768743A2025642C206C6564547966
:10D8800070653A202564000000F807087138002010
:10D890005C0000205C260020802600200C1C00205C
:10D8A000A4280020FFE74178491E41707047F849DD
:10D8B00009880180F649891C09884180F449091DBD
:10D8C00009684160F249083109688160704730B5E4
:10D8D00085B00024002501208DF800005D208DF822
:10D8E00001000F22EB490DF1020009F0E0F81121CF
:10D8F0006846FDF735FC00BF07E0002501E0681C25
:10D9000085B2642DFBDB601C84B24CF25030844243
:10D91000F3DBAB208DF8000001208DF801005D20C5
:10D920008DF802000F22DB490DF1030009F0BFF86A
:10D9300012216846FDF714FC05B030BD2DE9F04713
:10D940008AB004464FF0000960780C2870D2DFE8F6
:10D9500000F034350A7093E1F8F6F5066FAB01205C
:10D96000CD49087039E1CDA200210846FDF73FFC02
:10D970000220D04908700120CF490870CF480078B4
:10D9800040F00100CD49087008460078FEF71CFF02
:10D990000220FEF78FFE8146C9480088814506D0E7
:10D9A000C748A0F800900120C649087002E0012095
:10D9B000C54908704FF000090FE100BFC3A2002164
:10D9C0000846FDF714FC0020C74908606078B94993
:10D9D0000870BA48007820F00100B849087008467D
:10D9E0000078FEF7F1FEFFF772FFB448007800F010
:10D9F000080028B10120BD4908700420BC49087006
:10DA0000AD480078012802D10020AB490870012000
:10DA1000FEF750FE8146AA480088814505D0A848F7
:10DA2000A0F800900120A74908704FF00009D4E049
:10DA3000CDE0B0A200210846FDF7D9FB05A803F010
:10DA4000DDFBB34805990160BDF8181081809DF891
:10DA50001A10817103208DF81C00AD480168CDF8C3
:10DA60001D108188ADF8211080798DF823000821E0
:10DA700007A8FDF775FBB0E0A6A200210846FDF758
:10DA8000B6FBA348D4F802100160E1888180217AB6
:10DA9000817103F069FB9E4903C9CDE9080103F0D8
:10DAA00093FB03F0C0FB98E000256846FFF7FFFEFC
:10DAB000019828430021029A41EA020540EA010642
:10DAC0000B208DF80C004FF0010A1BE00A22002306
:10DAD0002846314608F000FF3020101803A901F84D
