:020000040800F2
:1000000030F1002081020008214400082344000848
:10001000274400082B4400082F440008000000007B
:100020000000000000000000000000003344000851
:100030003544000800000000374400083944000837
:100040009B0200089B0200089B0200089B0200081C
:100050009B0200089B0200089B0200089B0200080C
:100060009B0200089B0200089B0200089B020008FC
:100070009B0200089B0200089B0200089B020008EC
:100080009B0200089B0200089B0200089B020008DC
:100090009B0200089B0200089B020008CF44000856
:1000A0009B0200089B0200089B0200089B020008BC
:1000B00061450008754500089B0200089B02000886
:1000C0009B0200089B0200089B0200089B0200089C
:1000D0009B0200084B4400089B0200089B0200089A
:1000E0009B0200089B0200089B0200089B0200087C
:1000F0009B0200089B0200089B0200089B0200086C
:100100009B0200089B0200089B0200089B0200085B
:100110009B0200089B020008D14400089B020008D3
:100120009B0200089B0200089B0200089B0200083B
:1001300000F002F800F094F80AA090E8000C824465
:100140008344AAF10107DA4501D100F089F8AFF242
:10015000090EBAE80F0013F0010F18BFFB1A43F0A5
:1001600001031847E4790000047A0000103A24BF24
:1001700078C878C1FAD8520724BF30C830C144BF0C
:1001800004680C607047000000230024002500264E
:10019000103A28BF78C1FBD8520728BF30C148BFEA
:1001A0000B6070476E2906F09181702906F0D182AC
:1001B000662907F05B84652907F05884672907F0F2
:1001C00055846129AFF3008003681B0A28BF41F002
:1001D0008001692906F04081642906F03D81752976
:1001E00006F03A816F2906F05F82782906F09D8239
:1001F000E92906F0FB81E42906F0F881F52906F0EB
:10020000F581EF2906F05C82F82906F09C820368EC
:10021000DB0928BF41F08001632906F0628673295B
:1002200006F06786E32906F07286F32906F07786E2
:10023000002070471FB59DE8030006F005F806F0A2
:10024000C7FE04000020002107F0FAFB401C60609C
:100250000020002107F0DEFBE0601FBD10B510BDDF
:1002600006F089FE1146FFF7E5FF02F0B6F906F049
:100270005FFF03B4FFF7F2FF03BC06F08DFF000041
:100280000948804709480047FEE7FEE7FEE7FEE72A
:10029000FEE7FEE7FEE7FEE7FEE7FEE70448054966
:1002A000054A064B704700009F0300083101000813
:1002B0003069002030F1002030E9002030E90020D2
:1002C0000CB50020019000906C48006840F480302C
:1002D0006A49086000BF6948006800F40030009077
:1002E0000198401C0190009818B90198B0F5A06FD2
:1002F000F1D16248006800F4003010B10120009094
:1003000001E0002000900098012843D15C4800687B
:1003100040F010005A4908600846006820F00300C9
:1003200008600846006840F00200086053484068D2
:10033000524948600846406848600846406840F4B2
:10034000806048600846406820F47C104860084699
:10035000406840F4E81048600846006840F080704B
:10036000086000BF4548006800F000700028F9D020
:100370004248406820F00300404948600846406811
:1003800040F00200486000BF3C48406800F00C00AC
:100390000828F9D10CBD10B5FFF792FF10BD10B5BC
:1003A0003648006840F0010034490860084640685B
:1003B00034490840314948600846006832490840DD
:1003C0002E4908600846006820F48020086008462E
:1003D000406820F4FE0048604FF41F008860FFF77B
:1003E000DAFF4FF000602949086010BD10B5002108
:1003F00000200022214B5B6803F00C0121B104298D
:1004000006D0082928D107E0214B224C236027E0A1
:100410001F4B204C236023E0184B5B6803F47010E3
:10042000164B5B6803F48032022303EB904022B941
:10043000194B4343174C23600DE0104B5B6803F4EA
:10044000003323B1144B4343124C236003E0104BA1
:100450004343104C236003E00D4B0E4C236000BF60
:1004600000BF064B5B68C3F303130C4CE15C094B04
:100470001B68CB40074C236010BD000000100240F9
:10048000002002400000FFF8FFFFF6FE08ED00E04C
:1004900000127A000000002000093D000400002046
:1004A000DF48006840F00100DD4908600846406808
:1004B000DC490840DA49486008460068DA490840E3
:1004C000D74908600846006820F480200860084684
:1004D000406820F4FE0048604FF41F0088607047B9
:1004E000CF49096821F48031CD4A1160114609686D
:1004F00021F480211160B0F5803F03D0B0F5802F4A
:100500000ED106E0C649096841F48031C44A116041
:1005100007E0C349096841F4A021C14A116000E025
:1005200000BF00BF704710B5014600220023002025
:100530004A11012A02D1BA4C236806E0022A02D1EC
:10054000B74C236A01E0B64C636A01F01F02012434
:1005500094401C400CB1012000E0002010BD38B5D3
:10056000002000900024002500BF3120FFF7DBFFB2
:1005700005460098401C00900098B0F5A06F01D08F
:10058000002DF2D03120FFF7CEFF08B1012400E0AA
:100590000024204638BD01460020A14A106820F002
:1005A000F80040EAC10010607047A0490860704739
:1005B000024600209A4B586820F47C1042EA01035E
:1005C0001843974B58607047984908667047014632
:1005D0000020934A506820F00300084350607047A1
:1005E0008F48406800F00C007047014600208C4A9C
:1005F000506820F0F000084350607047014600202A
:10060000874A506820F4E060084350607047014614
:100610000020834A506820F4605040EAC1005060D6
:10062000704729B17E4A527A02437D4B5A7204E0E8
:100630007B4A527A82437A4B5A7270477B49D8314F
:100640000860704701460020754A506820F4404019
:100650000843506070470021714A20321170704A7F
:1006600082F82010012802D004280AD104E00121D8
:100670006B4A2032117005E00521694A2032117061
:1006800000E000BF00BF70476949086070476449D7
:10069000096A0143624A116270476549443908603A
:1006A000704730B500210022002400235C4D6D68A6
:1006B00005F00C0121B1042905D0082923D105E05A
:1006C0005C4D056022E05B4D05601FE0544D6D6898
:1006D00005F47012524D6D6805F48034022505EB67
:1006E00092421CB9544D554305600BE04C4D6D686A
:1006F00005F400351DB1504D5543056002E04D4DE8
:100700005543056002E04B4D056000BF00BF444DFE
:100710006D6805F0F0010909484D6B5C0568DD4026
:1007200045603F4D6D6805F4E061090A434D6B5C1F
:100730004568DD4085603A4D6D6805F46051C90A31
:100740003E4D6B5C4568DD40C560354D6D6805F418
:100750004041890B3A4D6B5CC568B5FBF3F505610B
:1007600030BD29B12E4A526902432D4B5A6104E033
:100770002B4A526982432A4B5A61704729B1284A51
:1007800092690243264B9A6104E0254A92698243AA
:10079000234B9A61704729B1214AD2690243204B09
:1007A000DA6104E01E4AD26982431D4BDA61704768
:1007B00029B11B4AD2680243194BDA6004E0184A97
:1007C000D2688243164BDA60704729B1144A126925
:1007D0000243134B1A6104E0114A12698243104B21
:1007E0001A61704712494039086070470F49C86460
:1007F00070470B49C87170470948406A40F08070E3
:1008000007494862704701460020054A92680A403D
:100810000AB1012000E0002070470149887270474A
:10082000001002400000FFF8FFFFF6FE0000424209
:100830008004424200127A0000093D0014000020AA
:100840002400002010B50446CC48844208D1012180
:100850000420FFF7ADFF00210420FFF7A9FF46E0C9
:10086000C748844208D101210820FFF7A1FF0021D9
:100870000820FFF79DFF3AE0C248844208D10121D9
:100880001020FFF795FF00211020FFF791FF2EE0C9
:10089000BD48844208D101212020FFF789FF0021B3
:1008A0002020FFF785FF22E0B848844208D10121CB
:1008B0004020FFF77DFF00214020FFF779FF16E081
:1008C000B348844208D101218020FFF771FF002145
:1008D0008020FFF76DFF0AE0AE48844207D1012176
:1008E0008015FFF765FF0021A015FFF761FF10BD20
:1008F00010B501210846FFF75BFF00210120FFF73B
:1009000057FF10BD2DE9F0410246002500260020CA
:1009100000230024002791F803C00CF00F0591F884
:1009200003C00CF0100CBCF1000F03D091F802C012
:100930004CEA050591F800C0BCF1000F31D01468F5
:1009400000202BE04FF0010C0CFA00F3B1F800C0CE
:100950000CEA03069E4220D183004FF00F0C0CFAE4
:1009600003F7BC4305FA03FC4CEA040491F803C006
:10097000BCF1280F06D14FF0010C0CFA00FCC2F8B4
:1009800014C00AE091F803C0BCF1480F05D14FF044
:10099000010C0CFA00FCC2F810C0401C0828D1D38E
:1009A0001460B1F800C0BCF1FF0F34DD54680020C2
:1009B0002EE000F1080C4FF0010808FA0CF3B1F832
:1009C00000C00CEA03069E4221D183004FF00F0CB9
:1009D0000CFA03F7BC4305FA03FC4CEA040491F853
:1009E00003C0BCF1280F05D100F1080C08FA0CF87F
:1009F000C2F8148091F803C0BCF1480F07D100F190
:100A0000080C4FF0010808FA0CF8C2F81080401CDE
:100A10000828CED35460BDE8F0814FF6FF71018005
:100A2000022181700421C170704702460020936842
:100A30000B400BB1012000E00020704701468868A0
:100A400080B2704702460020D3680B400BB10120F2
:100A500000E0002070470146C86880B2704701611D
:100A60007047416170470AB1016100E04161704720
:100A7000C16070474FF480320A43826181618261B4
:100A800082698269704702460020434B18684FF61E
:100A90008073184040EA021008433F4B18607047CB
:100AA0003E49C8617047F0B50A4600230024002182
:100AB000002500F00046B6F1004F02D1364EF16934
:100AC00001E0354E7168C0F3034583B200F440166F
:100AD000B6F5401F08D121F070612F4E766826F0E0
:100AE00070662D4F7E6012E000F48016B6F5801F10
:100AF00006D1032606FA05F4A14341F0706106E031
:100B0000460D360103FA06F6B14341F0706122B199
:100B1000460D360103FA06F6314300F00046B6F101
:100B2000004F02D11C4EF16101E01B4E7160F0BD1F
:100B300030B500228B071C0F0F2303FA04F2164B6B
:100B400008338C1053F824309343134C08348D1021
:100B500044F8253023468C1053F824308C07240F9A
:100B600000FA04F423430C4C08348D1044F825306B
:100B700030BD0A49DC3108607047000000080140C0
:100B8000000C014000100140001401400018014019
:100B9000001C0140002001400000014000002042F4
:100BA00010B50446FB48844209D101218803FFF7B0
:100BB000FFFD00214FF48040FFF7FAFD32E0F648D8
:100BC000844209D101214804FFF7FFFD00214FF4C1
:100BD0000030FFF7FAFD25E0F048844209D10121F9
:100BE0008804FFF7F2FD00214FF48020FFF7EDFDB0
:100BF00018E0EB48844209D10121C804FFF7E5FD64
:100C000000214FF40020FFF7E0FD0BE0E5488442AF
:100C100008D101210805FFF7D8FD00214FF480100D
:100C2000FFF7D3FD10BD2DE9F04786B005460E460F
:100C30000024A24600BFA1460027B08900B100BF32
:100C40002F462C8A4CF6FF700440F08804432C8217
:100C5000AC894EF6F3100440B0883189084371899D
:100C600008430443AC81AC8A4FF6FF400440B0898E
:100C70000443AC8201A8FFF714FDC648874202D1A5
:100C8000DDF810A001E0DDF80CA0A88900F4004018
:100C900040B10AEBCA0000EB0A1031684900B0FB12
:100CA000F1F807E00AEBCA0000EB0A10316889008E
:100CB000B0FBF1F86420B8FBF0F0040120096421D6
:100CC00001FB1089A88900F4004040B1322000EBFC
:100CD000C900B0FBF1F000F00700044308E0322047
:100CE00000EB09106421B0FBF1F000F00F000443A9
:100CF0002C8106B0BDE8F0874FF416510160002149
:100D00008180C18001810C21418100218181704756
:100D100010B502460020108A4FF2FF0318400B88DE
:100D20004C8823438C882343CC8823431843108268
:100D300010BD0021018041808180C180704721B1B8
:100D4000828942F40052828104E082894DF6FF7369
:100D50001A4082817047F0B5034600240026002522
:100D6000002040F66A17B94200D100BF1846C1F30F
:100D7000421401F01F06012707FA06F5012C01D1E4
:100D80000C3004E0022C01D1103000E014301AB114
:100D900007682F43076002E00768AF430760F0BDB4
:100DA0001AB1838A0B43838202E0838A8B43838256
:100DB0007047028A4FF6F0731A400282028A0A4391
:100DC0000282704782894FF2FF731A4082818289C2
:100DD0000A438281704721B1828942F002028281F6
:100DE00004E082894FF6FD731A4082817047028ABF
:100DF0004FF6DF731A400282028A0A43028270476A
:100E000021B1028A42F48042028204E0028A4BF657
:100E1000FF731A4002827047C1F308028280704754
:100E200001468888C0F308007047818941F00101BC
:100E300081817047028BD2B20283028B42EA012287
:100E400002837047028B02F47F420283028B0A43C3
:100E50000283704721B1828A42F02002828204E03C
:100E6000828A4FF6DF731A408282704721B1828AEC
:100E700042F01002828204E0828A4FF6EF731A4039
:100E80008282704721B1828A42F00802828204E0A5
:100E9000828A4FF6F7731A408282704721B18289A5
:100EA00042F40042828103E08289C2F30E02828111
:100EB000704721B1828A42F40062828204E0828A11
:100EC0004FF2FF731A4082827047828A4FF6FB739B
:100ED0001A408282828A0A438282704721B1828AC2
:100EE00042F00202828204E0828A4FF6FD731A40C9
:100EF0008282704702460020B1F5007F00D100BF1A
:100F000013880B400BB1012000E00020704701F472
:100F10000072B2F5007F00D100BFCA430280704763
:100F200070B50246002400230025002040F66A1612
:100F3000B14200D100BFC1F3421501F01F030126E9
:100F400006FA03F3012D02D19689334006E0022D03
:100F500002D1168A334001E0968A33400C120126F2
:100F600006FA04F41688344013B10CB1012000E0F5
:100F7000002070BD10B50022002340F66A14A14283
:100F800000D100BF0A1201249440A3B2DC430480C4
:100F900010BD0000003801400044004000480040FF
:100FA000004C00400050004031490143314A11607B
:100FB000704770B5002100230F22C47804B32D4C74
:100FC000246804F4E064C4F5E064210AC1F1040378
:100FD000CA40447804FA03F184781440214309019B
:100FE000254C0678A155047804F01F050124AC4077
:100FF00005786D11AD0005F1E025C5F8004109E067
:10100000047804F01F050124AC401C4D06787611CD
:1010100045F8264070BD1A4A0A400243154B1B1F73
:101020001A60704739B1134A121D12680243114BFE
:101030001B1D1A6006E00F4A121D126882430D4BF9
:101040001B1D1A607047042808D14FF0E021096980
:1010500041F004014FF0E022116107E04FF0E02180
:10106000096921F004014FF0E0221161704700008E
:101070000000FA050CED00E000E400E080E100E093
:1010800080FFFF1F10B50446FE48844208D10121AD
:10109000C014FFF78DFB0021E014FFF789FBC4E0CB
:1010A000B4F1804F08D101210846FFF78EFB0021E3
:1010B0000120FFF78AFBB8E0F348844208D1012100
:1010C0000220FFF782FB00210220FFF77EFBACE04D
:1010D000EE48844208D101210420FFF776FB00216D
:1010E0000420FFF772FBA0E0E948844208D1012107
:1010F0000820FFF76AFB00210820FFF766FB94E059
:10110000E448844208D101211020FFF75EFB002152
:101110001020FFF75AFB88E0DF48844208D1012104
:101120002020FFF752FB00212020FFF74EFB7CE040
:10113000DA48844208D101214014FFF739FB00212D
:101140006014FFF735FB70E0D548844209D10121D6
:10115000C804FFF72DFB00214FF40020FFF728FB08
:1011600063E0D048844209D101210805FFF720FB44
:1011700000214FF48010FFF71BFB56E0CA48844261
:1011800009D101214805FFF713FB00214FF400109E
:10119000FFF70EFB49E0C548844208D101214020F9
:1011A000FFF713FB00214020FFF70FFB3DE0C04895
:1011B000844208D101218020FFF707FB0021802015
:1011C000FFF703FB31E0BB48844208D101218015C1
:1011D000FFF7FBFA0021A015FFF7F7FA25E0B64864
:1011E000844209D101210804FFF7E2FA00214FF4FB
:1011F0008030FFF7DDFA18E0B048844209D10121C0
:101200004804FFF7D5FA00214FF40030FFF7D0FA79
:101210000BE0AB48844208D101218804FFF7C8FAEB
:1012200000214FF48020FFF7C3FA10BD002202888E
:10123000944B98420ED0994B98420BD0B0F1804F0E
:1012400008D0914B984205D0904B984202D0904BD9
:10125000984204D14FF68F731A404B881A438D4B36
:10126000984207D08C4B984204D04FF6FF431A4067
:10127000CB881A4302808B8883850B880385814B3A
:1012800098420BD0854B984208D08B4B984205D0A2
:101290008A4B984202D08A4B984201D10B7A03863E
:1012A00001238382704770B5002400220023058C3F
:1012B0004FF6FE7635400584028C8388048B4FF60A
:1012C0008F752C40B51E2C400D882C43751E2A406E
:1012D0000D892A434D882A436A4DA8420BD06F4D91
:1012E000A84208D0744DA84205D0744DA84202D03F
:1012F000734DA84213D14FF6F7752A404D892A4302
:101300004FF6FB752A408D882A434FF6FF652B4028
:101310004FF6FF552B408D892B43CD892B4383807E
:101320000483CD888586028470BD70B500240022B8
:101330000023058C4FF6EF7635400584028C8388B8
:10134000048B48F6FF752C404FF6FF452C400D8866
:101350004FF6FF7606EA05252C434FF6DF752A4047
:101360000D8906EA05152A434D8806EA05152A4324
:10137000444DA84202D0494DA8421DD14FF67F7579
:101380002A404D894FF6FF7606EA05152A434FF6A7
:10139000BF752A408D8806EA05152A434FF6FF35AA
:1013A0002B404FF2FF752B408D8906EA85052B43B4
:1013B000CD8906EA85052B4383800483CD88058784
:1013C000028470BD70B5002400220023058C4FF606
:1013D000FF6635400584028C8388848B4FF68F75B9
:1013E0002C404FF6FC752C400D882C434FF6FF55D2
:1013F0002A400D894FF6FF7606EA05252A434D88D7
:1014000006EA05252A431F4DA84202D0234DA842D3
:101410001DD14FF2FF752A404D894FF6FF7606EA3F
:1014200005252A434FF6FF352A408D8806EA052513
:101430002A434EF6FF752B404DF6FF752B408D89E4
:1014400006EA05152B43CD8906EA05152B43838053
:101450008483CD888587028470BD70B50022002307
:101460000024058C4EF6FF7635400584038C848875
:10147000828B48F6FF752A404FF6FF452A400D88BB
:1014800020E00000002C0140000400400008004063
:10149000000C0040001000400014004000340140E7
:1014A000004C014000500140005401400018004031
:1014B000001C00400020004000400140004401406A
:1014C000004801404FF6FF7606EA05252A434DF60F
:1014D000FF752B400D8906EA05352B434D8806EA3A
:1014E00005352B43FA4DA84202D0FA4DA84208D147
:1014F0004BF6FF752C408D894FF6FF7606EA851571
:101500002C4384808283CD88A0F84050038470BD32
:10151000828B4FF2FF331A408283828B4FF6FF7328
:1015200003EA01231A4382837047F0B50C4615463F
:10153000002200210026078C4EF6FF7C07EA0C07EC
:101540000784828B018C4FF6FF7707EA043640F65A
:10155000FF473A404FF6FF7707EA05273A434FF631
:10156000FF7707EA03373A43D94FB8420ED0D94F35
:10157000B8420BD0B0F1804F08D0D74FB84205D059
:10158000D64FB84202D0D64FB84206D14DF6FF77BB
:10159000394046F48057394305E047F6FF57394054
:1015A00044F48057394382830184F0BD828B4FF627
:1015B000F3731A408283828B0A4382837047F0B5AB
:1015C0000C461546002200210026078C4FF6FF6CC2
:1015D00007EA0C070784828B018C4FF6FF7707EA36
:1015E00004264FF60C773A404FF6FF7707EA0317C9
:1015F0002F433A43B64FB8420ED0B64FB8420BD045
:10160000B0F1804F08D0B44FB84205D0B34FB842C4
:1016100002D0B34FB84206D14FF6FF57394046F4D7
:101620008077394305E04FF2FF57394044F4807723
:10163000394382830184F0BD028B4FF2FF331A409D
:101640000283028B4FF6FF7303EA01231A430283DE
:101650007047F0B50C461546002200210026078C85
:101660004FF6EF7C07EA0C070784028B018C4FF6DC
:10167000FF7707EA041640F6FF473A404FF6FF7738
:1016800007EA03373A434FF6FF7707EA05273A435D
:101690008F4FB8420ED08F4FB8420BD0B0F1804F71
:1016A00008D08D4FB84205D08C4FB84202D08C4F35
:1016B000B84206D14FF6DF77394046F0100739437C
:1016C00005E04FF65F77394044F010073943028355
:1016D0000184F0BD028B4FF6F3731A400283028B34
:1016E0000A4302837047F0B50C46154600220021DC
:1016F000068C4FF6FE773E400684028B018C4FF637
:101700000C7632407E1C06EA03162E433243704E9E
:10171000B0420ED06F4EB0420BD0B0F1804F08D027
:101720006D4EB04205D06D4EB04202D06C4EB0420C
:1017300006D14FF6FD76314044F00106314305E015
:101740004FF6F576314044F00106314302830184BF
:10175000F0BD70B505460C465D4885420ED05D482B
:1017600085420BD0B5F1804F08D05B48854205D04B
:101770005A48854202D05A48854200D100E000BF55
:10178000208850B92389A28861882846FFF7ABFFDB
:10179000E1882846FFF79EFF25E0208804280AD12B
:1017A0002389A28861882846FFF753FFE1882846ED
:1017B000FFF742FF17E0208808280AD12389A28872
:1017C00061882846FFF7FBFEE1882846FFF7EEFE1A
:1017D00009E02389A28861882846FFF7A6FEE188F0
:1017E0002846FFF795FE70BD2DE9F04105460C46F1
:1017F00000260127608808B9022600E00026A0889C
:10180000012801D1022700E001272088A0B92389FF
:10181000A28861882846FFF766FFE1882846FFF71F
:1018200059FF23893A4631462846FFF712FFE188DF
:101830002846FFF701FF13E02389A2886188284624
:10184000FFF707FFE1882846FFF7F6FE23893A46AF
:1018500031462846FFF747FFE1882846FFF73AFF61
:10186000BDE8F0810A884B881A438B881A43CB88DD
:101870001A430B891A434B891A438B891A43A0F8E0
:10188000442070474FF6FF71818000210180C180A4
:101890004180017270470021018041808180C180B8
:1018A000018141818181C181704700210180418096
:1018B000012181800021C1800181704700210180C8
:1018C00041808180C1800181418181817047000018
:1018D000002C01400034014000040040000800409A
:1018E000000C004021B1028842F00102028004E0B5
:1018F00002884FF6FE731A400280704731B1B0F88B
:10190000442042F40042A0F8442005E0B0F844200E
:10191000C2F30E02A0F8442070471AB183890B432A
:10192000838102E083898B43838170478182704782
:1019300041EA0203A0F8483070471AB183890B438B
:10194000838102E083898B438381704701894FF64D
:10195000F8721140018170470A46002101894FF653
:101960008F73194011430181704730B504460D460D
:1019700029462046FFF7F0FF208940F0070020812C
:1019800030BD2DE9F04104460D4616461F46602D38
:1019900006D13B46012231462046FFF75AFE05E0BC
:1019A0003B46012231462046FFF79DFE2946204650
:1019B000FFF7D2FF208940F007002081BDE8F081C9
:1019C00030B50C4600210189C9B24FF6FF7505EA12
:1019D0000325154325432943018130BD2DE9F041FD
:1019E00005460E4617469846002443463A46314679
:1019F0002846FFF7E5FF2C894FF6F870044044F0C5
:101A000007044FF68F70044044F070042C81BDE849
:101A1000F081F0B504460D4616461F463B46324659
:101A200029462046FFF7CCFF208940F480402081E2
:101A3000F0BD0185828270470A46002101884FF679
:101A40008F731940114301807047F0B50C4615465D
:101A50001E460021002200230189028B038C4FF6D1
:101A6000F877394021434FF6FC473A4040F20117DE
:101A70003A434FF6DD773B404FF6FF7707EA06170C
:101A80002F433B43018102830384F0BD0A460021BA
:101A9000018B4FF68F7319401143018370470A463B
:101AA0000021018B48F6FF7319404FF6FF7303EADC
:101AB00002231943018370470A460021818B4FF6A8
:101AC0008F7319401143818370470A460021818B2F
:101AD00048F6FF7319404FF6FF7303EA02231943D8
:101AE0008183704721B1028842F08002028004E0C5
:101AF00002884FF67F731A400280704721B18288B6
:101B000042F00402828004E082884FF6FB731A40A0
:101B10008280704721B1828842F00802828004E00E
:101B200082884FF6F7731A408280704721B182880D
:101B300042F00102828004E082884FF6FE731A4070
:101B4000828070470A460021018B4FF6F7731940D7
:101B50001143018370470A460021018B4FF2FF7346
:101B600019404FF6FF7303EA0223194301837047BC
:101B70000A460021818B4FF6F77319401143818388
:101B800070470A460021818B4FF2FF7319404FF6D0
:101B9000FF7303EA02231943818370470A46002139
:101BA000018B4FF6FB7319401143018370470A46BE
:101BB0000021018B4FF6FF3319404FF6FF7303EA04
:101BC00002231943018370470A460021818B4FF697
:101BD000FB7319401143818370470A460021818BB2
:101BE0004FF6FF3319404FF6FF7303EA0223194300
:101BF000818370470A460021018B4FF67F7319409D
:101C00001143018370470A460021018BC1F30E0185
:101C10004FF6FF7303EA02231943018370470A4614
:101C20000021818B4FF67F731940114381837047E8
:101C30000A460021818BC1F30E014FF6FF7303EAC0
:101C400002231943818370470A460021018C4FF615
:101C5000FD7319401143018470470A460021018C2D
:101C60004FF6F77319401143018470470A4600216B
:101C7000018C4FF6DF7319404FF6FF7303EA02132E
:101C80001943018470470A460021018C4FF67F7387
:101C900019404FF6FF7303EA02131943018470479A
:101CA0000A460021018C4FF6FF5319404FF6FF738F
:101CB00003EA02231943018470470A460021018C7C
:101CC0004FF2FF7319404FF6FF7303EA02231943E3
:101CD000018470470A460021018C4DF6FF731940BC
:101CE0004FF6FF7303EA023319430184704730B59E
:101CF000002301248C40A3B2048C9C430484048CF4
:101D000002FA01F5ADB22C43048430BD30B5002396
:101D100004248C40A3B2048C9C430484048C02FAF7
:101D200001F5ADB22C43048430BD70B503460020EC
:101D300000241846183001258D40ACB21D8CA543F7
:101D40001D8409B1082909D100EB6100056825F05F
:101D5000700505600568154305600EE00D1FC5F3AD
:101D60004E052844056825F4E045056005684FF6F2
:101D7000FF7606EA02263543056070BD21B1028870
:101D800042F00202028004E002884FF6FD731A401E
:101D90000280704721B1028842F00402028004E010
:101DA00002884FF6FB731A400280704721B1828887
:101DB00042F08002828004E082884FF67F731A40EE
:101DC0008280704702884FF6F7731A4002800288BB
:101DD0000A430280704782884FF68F731A408280D0
:101DE00082880A438280704702894FF6F8731A404E
:101DF000028102890A430281704702894FF67F738C
:101E00001A40028102890A43028170478184704727
:101E10008185704781867047018770478187704749
:101E2000A0F84010704702884FF6FF431A40028026
:101E300002880A43028070470146888E7047014637
:101E4000088F70470146888F70470146B1F84000FF
:101E500070470146888C70470146088D70470246DE
:101E60000020138A0B400BB1012000E000207047D6
:101E7000CA430282704730B5024600200023002486
:101E8000158A05EA0103958905EA010413B10CB12D
:101E9000012000E0002030BDCA43028270470000EC
:101EA00001460020FE4A106800F038000843106028
:101EB0007047FB49096821F00801F94A1160114691
:101EC0000968014311607047F549096821F0100164
:101ED000F34A116011460968014311607047F148E7
:101EE000EF494860F04848607047EE48EC49486068
:101EF000ED4848607047EA48006940F08000E849D2
:101F000008617047E648006940F08000E4490861D4
:101F100070470420E249C96801F0010109B10120BC
:101F20000EE0DF49C96801F0040109B1022007E0B1
:101F3000DB49C96801F0100109B1032000E0042069
:101F4000704700B502460423FFF7E3FF034603E0B2
:101F5000FFF7DFFF0346521E012B01D1002AF7D104
:101F600002B90523184600BD30B5044604254FF4D8
:101F70003020FFF7E6FF0546042D17D1C848006959
:101F800040F00200C649086108464461006940F01B
:101F9000400008614FF43020FFF7D3FF0546C048EA
:101FA000006941F6FD710840BD490861284630BD11
:101FB00010B504244FF43020FFF7C3FF0446042C6F
:101FC00016D1B748006940F00400B54908610846D9
:101FD000006940F0400008614FF43020FFF7B1FF86
:101FE0000446AF48006941F6FB710840AC490861FE
:101FF000204610BD00B502460423FFF78AFF0346C2
:1020000003E0FFF786FF0346521E012B01D1002A91
:10201000F7D102B90523184600BD10B504244FF4CA
:102020003020FFF7E7FF0446042C16D19C480069D6
:1020300040F004009A4908610846006940F04000F9
:1020400008614FF43020FFF7D5FF0446944800693B
:1020500041F6FB71084092490861204610BD0020FE
:102060008F49C96901F0020109B1012000E0002097
:10207000704730B5A5250424FFF7F1FF00B1002516
:102080004FF43020FFF75DFF0446042C3AD1854819
:1020900083498860844888600846006940F02000D1
:1020A00008610846006940F0400008614FF43020A4
:1020B000FFF747FF0446042C1BD17948006941F61D
:1020C000DF710840764908610846006940F0100059
:1020D000086176480580E002FFF733FF0446052CCF
:1020E00010D06F48006941F6EF7108406C490861F3
:1020F00008E0052C06D06A48006941F6EF710840F7
:1021000067490861204630BD78B506460C4604256F
:1021100000200090E802FFF714FF0546042D24D1AB
:102120005F48006940F001005D4908613480E802C1
:10213000FFF707FF0546042D10D1B01C0090200CBE
:1021400000990880E802FFF7FCFE05465448006944
:1021500041F6FE7108405249086106E050480069A6
:1021600041F6FE7108404E490861284678BD70B5B9
:1021700004460D460426F002FFF7E3FE0646042E51
:1021800011D14748006940F00100454908612580A8
:10219000F002FFF7D6FE06464148006941F6FE719F
:1021A00008403F490861304670BD70B505460E468F
:1021B0000424E002FFF7C5FE0446042C17D1394879
:1021C00037498860384888600846006940F0100048
:1021D00008612E80E002FFF7B4FE0446052C06D00D
:1021E0002F48006941F6EF7108402D4908612046EB
:1021F00070BD2DE9F04304464FF6FF763746B046F2
:10220000B1460425E443E6B2C4F30727C4F3074804
:102210004FEA1469E802FFF794FE0546042D49D100
:1022200020481F498860204888600846006940F0BF
:1022300010000861FF2E06D01C4808300680E80216
:10224000FFF77FFE0546042D08D1FF2F06D0174863
:102250000A300780E802FFF774FE0546042D0AD114
:10226000B8F1FF0F07D011480C30A0F80080E80249
:10227000FFF767FE0546042D0AD1B9F1FF0F07D01D
:102280000A480E30A0F80090E802FFF75AFE054613
:10229000052D0FD00248006941F6EF71084007E0B4
:1022A0000020024023016745AB89EFCD00F8FF1FF6
:1022B000664908612846BDE8F08330B50546042428
:1022C0004FF43020FFF73DFE0446042C41D1604816
:1022D0005E4988605F4888600846006940F02000D9
:1022E00008610846006940F0400008614FF4302062
:1022F000FFF727FE0446042C22D15448006941F61A
:10230000DF710840514908610846006940F010003B
:1023100008611DB100205049088002E0A5204E4907
:1023200008804FF43020FFF70CFE0446052C10D037
:102330004648006941F6EF7108404449086108E0E9
:10234000052C06D04148006941F6DF7108403F493D
:102350000861204630BDF0B505460E4617460424F8
:102360003B483A4988603B488860E002FFF7E9FD56
:102370000446042C19D13548006940F01000334957
:10238000086147F0F800304328433349891C08802E
:10239000E002FFF7D6FD0446052C06D02B48006965
:1023A00041F6EF710840294908612046F0BD2748F1
:1023B000C069800870472548006A7047002023499B
:1023C000096801F0200109B1012000E000207047F8
:1023D00029B11E4A126902431C4B1A6104E01B4AD0
:1023E00012698243194B1A61704701460020012986
:1023F00008D1164AD26902F001020AB1012008E0B0
:10240000002006E0114AD2680A400AB1012000E02B
:10241000002070470D49C860704704200B49C96807
:1024200001F0010109B101200EE00849C96801F07D
:10243000040109B1022007E00449C96801F0100154
:1024400009B1032000E00420704700000020024092
:1024500023016745AB89EFCD00F8FF1F0E490860E7
:1024600070470D49486070470B49886070474AF6CD
:10247000AA200949086070474CF6CC40064908601C
:10248000704701460020044AD2680A400AB1012080
:1024900000E0002070470000003000407047FE4917
:1024A000086000BFFC4909680029FBD1704700B5EE
:1024B000002200BF13E05520F849096888545521CF
:1024C000F6480368501C1954AA21F4480368901C6C
:1024D0001954F2480368D01C1954101D82B2B2F589
:1024E000D85FE8DB0120EE4908704FF4FA60FFF78F
:1024F000D6FF002213E0AA20E84909688854AA21DF
:10250000E6480368501C19545521E4480368901CA0
:102510001954E2480368D01C1954101D82B2B2F558
:10252000D85FE8DB0120DE4908704FF4FA60FFF75E
:10253000B6FF00BD2DE9F0418046002700250026AA
:10254000B8F1050F0ED2DFE808F0030507090B000C
:10255000D44D09E0D44D07E0D44D05E0D44D03E05F
:10256000D44D01E0002500BF00BFF5B12C462D1D64
:10257000208887B2B7F5D85F17D1002610E02C4627
:102580002D1DB91B042901DD042100E0B91B0A46F9
:10259000C24909688819214603F09DFD301D86B2A5
:1025A000BE42ECDB0120BE490870BDE8F081C249A3
:1025B0000A68120C02800A884280091D0A7802719A
:1025C0000279012A02DB0279042A01DD022202716A
:1025D000C0220280902242807047002402F0C6FE92
:1025E000B648FFF7E4FF02F034FF02F0ADFF02F05F
:1025F000D4FEB34800684FF47A72B0FBF2F1B1F147
:10260000807F00D31DE021F07F40401E4FF0E0228C
:10261000506150170F22002807DA13071E0EA94B2E
:1026200000F00F052D1F5E5503E013071D0EA64B8E
:102630001D5400BF00204FF0E02290610720106180
:1026400000BF02F0FCFF0120FEF71EF800BF612072
:10265000FDF769FF0028FAD045F25550FFF7FEFE5E
:102660000620FFF7FEFE40F6FF70FFF7FDFEFFF7C6
:10267000FEFEFFF701FF4FF4D85003F0EFFB874950
:1026800008604FF4D8518548006803F09BFD012095
:10269000834908708D490880884A1188CA1701EB60
:1026A00092729210894B1B8802FB03F0C21700EB59
:1026B0005272D210864B1A60002086498871487188
:1026C0000120854908700020844908700846007878
:1026D000FFF730FF6BE0FFF7CAFE81480088022851
:1026E0000BDB80480188804803F06CFD00207D49A9
:1026F00008807B4908807D4908707D48007878B360
:102700007448857900240AE0002004EB440101EBC1
:102710000411784A126811440873601C84B2764828
:1027200000788442F0DB00206A49887103E0FFF7FB
:102730009EFEFFF7BCFE714800780028F7D04FF4EA
:10274000D8515648006803F03DFD012054490870F7
:10275000604885710020694908706549087000BFAC
:102760006748007818B35B48857900240AE00020A8
:1027700004EB440101EB04115E4A12681144087332
:10278000601C84B25C4800788442F0DB4FF4D8517E
:102790004248006803F016FD00204E498871FFF79B
:1027A0007DFE4C48857100205549087000BF92E7B6
:1027B00010B50246002013E000BF524B1B8803F007
:1027C0008003002BF9D0135C4E4C241D238000BFE6
:1027D0004C4B1B8803F04003002BF9D0431C98B2EC
:1027E0008842E9DB10BD2DE9FF4F05468C46DDF838
:1027F00034E0109C00220026924600200021AA5DB1
:10280000814694E0DDF83CB004FB0EB74FEAE77B6D
:1028100007EB9B7BCBF38F00DDF83CB004FB0EB7DE
:102820004FEAE77B07EB9B7B4FEAAB0BA7EB8B0BEE
:102830004FEA4B6B4FEA1B614FF000086FE01F5CE3
:102840004FF0030B0BFA01FB27EA0B071F5402F0B2
:10285000030797B1119F47B113F800B0119F8F4044
:102860004BEA070B03F800B007E01F5C02F0030B14
:102870000BFA01FB47EA0B071F5492100AF10107FC
:1028800007F0FF0A8F1CF9B2BAF1040F3ED1771C92
:10289000BEB2AA5D38E000006000002028000020E1
:1028A000480000200090040800B0040800D004088C
:1028B00000F004080010050800A005084E000020E4
:1028C0000000002018ED00E000E400E04A000020D5
:1028D000380000203C000020460000204C00002072
:1028E000700000202C0000207400002068000020F0
:1028F000430000203000002035000020440000206C
:1029000045000020003801404FF0000A082902D19C
:102910000021471CB8B208F101071FFA87F8E0450B
:102920008DDB671CBCB209F101071FFA87F9029F12
:10293000B945FFF667AFBDE8FF8F2DE9F0410446CA
:102940000D4600260027B446002103FB052081B276
:1029500008464FEAE17801EB98784FEAA8064FEA7B
:10296000E17801EB98784FEAA808A1EB88084FEAD4
:1029700048684FEA1867A05D384100F0030C6046D4
:10298000BDE8F0812DE9FF4F81B014469846DDF88F
:1029900038B04FF00009002000900027824600BFA9
:1029A000002525E000261FE01098284483B20F98E8
:1029B000304482B2DDE90101FFF7BFFF00900098CB
:1029C000B84040EA090000F0FF09B81CC7B2082F60
:1029D00008D1002784F80090641CB9460AF1010070
:1029E0001FFA80FA701C86B24645DDDB681C85B292
:1029F0005D45D7DB504605B0BDE8F08F0FB430B56C
:102A000089B0119CFB48007806281CD2DFE800F052
:102A100003070B0F13170020F749087014E001207B
:102A2000F549087010E00220F34908700CE003201B
:102A3000F149087008E00420EF49087004E005201F
:102A4000ED49087000E000BF00BF0420ADF8180099
:102A5000BDF8180003F002FACDF81A00DDF81A00EC
:102A600020B9012009B030BC5DF814FBE3480078C0
:102A70000A2190FBF1F0401CDE49085CDDF81A10D9
:102A80000870DE4800780A2190FBF1F201FB120089
:102A9000401CD849085CDDF81A104870D548C07A47
:102AA000DDF81A108870D348007BDDF81A10C87062
:102AB0000C2003F0D3F9CDF81E00DDF81E0008B994
:102AC0000120CFE7DDF81E000090BDF83930BDF8D9
:102AD0003720BDF81850E9B2DDF81A0002F092FF75
:102AE000BDF83400BDF832109022CDE90304CDE9E1
:102AF0000121C0200090DDF81E305A88198898689E
:102B0000BF4B1B68FFF76FFEDDF81E10886803F0EF
:102B1000D5F9DDF81E0003F0D1F9DDF81A0003F055
:102B2000CDF900209EE70FB470B588B0DDE91145FE
:102B3000B448007806281CD2DFE800F003070B0F2A
:102B400013170020B049087014E00120AE49087046
:102B500010E00220AC4908700CE00320AA4908707C
:102B600008E00420A849087004E00520A649087080
:102B700000E000BF00BF0520ADF81400BDF8140050
:102B800003F06CF9CDF81600DDF8160020B901202D
:102B900008B070BC5DF814FB9C488078012101EB03
:102BA00020109849085CDDF8161008709748807866
:102BB00000F00F00401C9349085CDDF816104870C7
:102BC0009048C07ADDF8161088709048407801214E
:102BD00001EB20108B49085CDDF81610C8708B489B
:102BE000407800F00F00401C8649085CDDF81610A4
:102BF00008710C2003F032F9CDF81A00DDF81A0044
:102C000008B90120C4E7DDF81A000090BDF839309A
:102C1000BDF83720BDF81460F1B2DDF8160002F0FF
:102C2000F1FEBDF83400BDF832109022CDE9030466
:102C3000CDE90121C0200090DDF81A305A881988AA
:102C400098686F4B1B68FFF7CEFDDDF81A10886897
:102C500003F034F9DDF81A0003F030F9DDF816005E
:102C600003F02CF9002093E7F0B50D461E46059CB5
:102C7000002106FB0523DF1703EB9777C7F38F01CE
:102C80001346D71702EB9777BF10A2EB87074FEADF
:102C9000470C04F0030707FA0CF7FCB2D71702EB56
:102CA0009777BF10A2EB87074FEA470C032707FA75
:102CB0000CF710F801C02CEA07074754435C234384
:102CC0004354F0BD78B504460025002600BF16E049
:102CD00000260EE000200090A088284483B260887F
:102CE000304482B2C02146480068FFF7BDFF701C27
:102CF00086B2B4F80700B042ECDC681C85B2B4F8C8
:102D00000900A842E4DC01204149087078BD2DE9A2
:102D1000F04788B004462046FFF7D4FFE07A012848
:102D200006D0022879D0032875D0052874D1A3E0F5
:102D3000D4F80D50002600272888B4F807108842E0
:102D400001DA288801E0B4F8070006466888B4F87C
:102D50000910884201DA688801E0B4F809000746E2
:102D60006879002845D12888B04202DC6888B842DA
:102D70002EDD4FF00008C14606FB07F1C81CC11745
:102D800000EB9171C1F38F090121484603F074F8FB
:102D900080460020CDE9007002902988A86833465B
:102DA0004246FFF7EFFD0022A08861889023CDE91D
:102DB0000131CDE90302C020009011483A46314666
:102DC00003684046FFF70FFD404603F077F810E038
:102DD0000022A08861889023CDE90131CDE903026A
:102DE000C02000906A882988A868054B1B68FFF7F7
:102DF000FAFCD6E0C02000205C0000203600002055
:102E000028000020B42000205B0000205400002097
:102E10004800002001E01DE0C2E06088FE49088013
:102E2000A088488001200871887108464079097996
:102E3000CDE90110208AADF80000A07C8DF80200D9
:102E40001322214603A803F046F903A80FC8FFF791
:102E50006AFEA6E001200190208AADF80000A07C67
:102E60008DF802001322214603A803F034F903A8C9
:102E70000FC8FFF7C3FD94E0D4F80D5000260027DB
:102E8000B146D5F806000088B4F80710884203DA86
:102E9000D5F80600008801E0B4F807000646D5F82A
:102EA00006004088B4F80910884203DAD5F8060015
:102EB000408801E0B4F809000746D5F806004079DB
:102EC00000286CD1D5F806000088B4F807108842B5
:102ED0000DDAB4F80710D5F806201288881A00EB2E
:102EE000D071628802EB61011FFA81F901E0B4F848
:102EF0000290D5F806000088B04204DCD5F8060040
:102F00004088B84237DD4FF00008C24606FB07F1A3
:102F1000C81CC11700EB9171C1F38F0A0121504603
:102F200002F0AAFF8046B8F1000F1FD00020CDE9C3
:102F300000700290D5F8062011889068334642460A
:102F4000FFF720FD0021A0889022CDE90129CDE9DD
:102F50000301C0200090B1483A463146036840461C
:102F6000FFF741FC404602F0A9FF03E0012008B052
:102F7000BDE8F08713E00021A0889022CDE9012967
:102F8000CDE90301C020009055F8063F5A8855F856
:102F9000063919889868A14B1B68FFF724FC00E0EC
:102FA00000BF00BF01209E4908700020DFE70FB47A
:102FB00000B587B0BDF82200BDF83610884213DD99
:102FC000132208A901A803F0CBF8BDF84400ADF81E
:102FD00000009DF846008DF802000DA80FC8FFF70D
:102FE000E6FF07B05DF814FBBDF82200BDF827101E
:102FF0000844BDF83610884201DA0020F1E7BDF838
:103000002400BDF83810884208DCBDF82400BDF863
:1030100029100844BDF8381088420EDDBDF838008C
:10302000BDF8241088420ADCBDF83800BDF83D1018
:103030000844BDF82410884201DC0020D1E70120BB
:10304000CFE72DE9F0438DB0064600BF4FF00008F2
:1030500000200C90002700247248007800EB40010B
:1030600001EB001070490968084431190A680260D0
:103070004A684260896881600C3400206949097897
:1030800001EB410202EB0111674A12681144A1F8F9
:1030900011006449097801EB410202EB0111624A17
:1030A0001268114408735F48007800EB400101EB9F
:1030B00000105D4909680844807900280ADD5949F3
:1030C000097801EB410202EB0111574A1268881896
:1030D000FFF7F8FD5348007800EB400101EB0010CA
:1030E000514909680844C07A012806D0022850D006
:1030F000032866D0052877D177E000250C2002F060
:10310000ADFE4849097801EB410202EB0111464A44
:1031100012681144C1F80D004248007800EB4001EC
:1031200001EB0010404909680844D0F80D0018B9B7
:1031300001200DB0BDE8F0833A48007800EB400173
:1031400001EB0010384909680844D0F80D504FF0E1
:10315000060831194246284602F0BDFF04EB08007C
:1031600084B229886A885143C81CC11700EB917149
:10317000C1F38F01E980E88802F070FEA860A868BA
:1031800008B90120D5E7EA883119A86802F0A3FF41
:10319000B2E0301900880C90A01C84B23119BDF83F
:1031A0003020224802F097FFBDF83000204484B25E
:1031B00030191F4902680A6082888A808079887184
:1031C0009AE0301900880C90A01C84B23119BDF827
:1031D0003020184802F07FFFBDF83000204484B250
:1031E000305D1549087087E085E000250A2002F06F
:1031F00035FE0C49097801EB410202EB01110A4A44
:1032000012681144C1F80D000648007800EB400137
:1032100001EB0010044911E03C00002028000020D0
:10322000480000203500002030000020B42000209D
:1032300054000020C0200020360000200968084407
:10324000D0F80D0008B9012073E7F748007800EBCB
:10325000400101EB0010F54909680844D0F80D5011
:10326000601C305C2880305D297840EA012028808D
:10327000A01C84B2288802F0F1FDC5F80200D5F840
:10328000020008B9012054E72A883119D5F8020054
:1032900002F021FF0C2002F0E1FDC5F80600D5F890
:1032A000060008B9012044E7D5F80600DFF878C326
:1032B00000909CF800C00CEB4C0909EB0C1CDFF8EB
:1032C0006C93D9F80090CC44BCF80930DFF858C3AF
:1032D0009CF800C00CEB4C0909EB0C1CDFF84C937C
:1032E000D9F80090CC44BCF807202978D5F8020022
:1032F00002F088FB00E000BF00BFCB48007800EB85
:10330000400101EB0010C949096808448079E8BB15
:10331000C549097801EB410202EB0111C34A126869
:103320008818FFF7F4FC00273EE007EB470000EBAE
:103330000710BE4909680844807940B307EB47008D
:1033400000EB0710B94A12688118132201A802F095
:10335000C2FE07EB470000EB0710B44909680844B8
:10336000018AADF80010807C8DF8020007EB470061
:1033700000EB0710AD4A12688118132207A802F06B
:10338000AAFE07A80FC8FFF712FE01E011E009E04E
:1033900040B107EB470101EB0711A44A12688818F6
:1033A000FFF7B5FC781CC7B29F4800788742BCDBAA
:1033B0000AE09D49097801EB410202EB01119B4AA9
:1033C00012688818FFF7A3FC01209749097801EBE0
:1033D000410202EB0111954A126811440873002062
:1033E000A7E6002101604160816070472DE9F04F40
:1033F00091B082460E460024A0460025A14600203A
:10340000109000BF18E204EB440000EB0410874961
:1034100009680844008850457ED104EB440000EB65
:103420000410824909680844C07A012802D005289E
:1034300038D117E004EB440000EB04107B49096825
:103440000844D0F80D70B86802F038FD04EB440170
:1034500001EB0411754A12681144D1F80D0002F015
:103460002DFD20E004EB440000EB04106F490968D7
:103470000844D0F80D70BF1C7968886802F01EFD02
:10348000786802F01BFD386802F018FD04EB440177
:1034900001EB0411654A12681144D1F80D0002F0E5
:1034A0000DFD00E000BF00BF0BA8FFF79AFF00254D
:1034B0004FF00C0971194A460BA802F00CFE04EB00
:1034C000440000EB04105949096808444088BDF8DD
:1034D0002E10884227D104EB440000EB041053491E
:1034E000096808448088BDF8301088421BD104EB7D
:1034F000440000EB04104D4909680844B0F8070087
:10350000BDF8331088420ED104EB440000EB0410E8
:1035100046490968084400E08CE1B0F80900BDF8AC
:103520003510884208D004EB440101EB04113F4AF6
:1035300012688818FFF7C6FB711904EB440202EB0E
:1035400004123A4B1B68D0184A4602F0C4FD002012
:1035500004EB440101EB0411344A1268114408736E
:1035600005EB090085B204EB440000EB04102F4981
:1035700009680844C07A012806D0022858D00328D8
:103580006ED005287ED180E000270C2002F066FC7A
:1035900004EB440101EB0411244A12681144C1F800
:1035A0000D0004EB440000EB0410204909680844B6
:1035B000D0F80D0018B9012011B0BDE8F08F04EB70
:1035C000440000EB0410194909680844D0F80D7054
:1035D0004FF0060971194A46384602F07CFD05EBAA
:1035E000090085B239887A885143C81CC11700EB9D
:1035F0009171C1F38F01F980F88802F02FFCB86057
:10360000B86808B90120D7E7FA887119B86802F0DC
:1036100062FD002004EB440101EB0411034A12682F
:103620001144A1F8110096E0350000203000002080
:10363000701900881090A81C85B27119BDF840203F
:10364000FE4802F048FDBDF84000284485B27119DB
:10365000FB480A6802608A888280897981717AE0F1
:10366000701900881090A81C85B27119BDF840200F
:10367000F44802F030FDBDF84000284485B2705D8A
:10368000F14900E066E0087065E000270A2002F0DA
:10369000E5FB04EB440101EB0411EC4A1268114410
:1036A000C1F80D0004EB440000EB0410E749096881
:1036B0000844D0F80D0008B901207DE704EB440070
:1036C00000EB0410E14909680844D0F80D70681C4B
:1036D000305C3880705D397840EA01203880A81C61
:1036E00085B2388802F0BAFBC7F80200D7F80200AA
:1036F00008B9012060E73A887119D7F8020002F092
:10370000EAFC0C2002F0AAFBC7F80600D7F8060076
:1037100008B9012050E7D7F8060004EB440C0CEB85
:10372000041CDFF828B30090DBF800B0DC44BCF8E0
:10373000093004EB440C0CEB041CDFF810B3DBF88D
:1037400000B0DC44BCF807203978D7F8020002F05A
:1037500059F900E000BF00BF04EB440000EB041087
:10376000BA49096808448079E8BB04EB440101EBDD
:103770000411B64A12688818FFF7C9FA4FF000081A
:1037800040E008EB480000EB0810B0490968084425
:10379000807948B308EB480000EB0810AB4A126888
:1037A0008118132201A802F096FC04EB440000EB00
:1037B0000410A64909680844018AADF80010807C0D
:1037C0008DF8020004EB440000EB04109F4A1268DD
:1037D0008118132206A802F07EFC06A80FC8FFF786
:1037E000E6FB08B101E012E008E008EB480101EB5C
:1037F0000811964A12688818FFF789FA08F1010043
:103800001FFA80F8924800788045BADB08E004EBA4
:10381000440101EB04118D4A12688818FFF777FA0A
:10382000012004EB440101EB0411884A12681144A1
:10383000087306E0601C84B2854800788442FFF675
:10384000E2AD00BF0020B7E62DE9F0438BB007469C
:1038500000250024A146002600BFAFE105EB45008E
:1038600000EB05107949096808440088B8427DD109
:10387000012005EB450101EB0511744A1268114462
:10388000087305EB450101EB0511704A12688818B1
:10389000FFF718FA05EB450000EB05106B490968C6
:1038A00008448079002868D1002445E004EB4400F6
:1038B00000EB04106549096808448079D0BB04EB2B
:1038C000440000EB04106149096808440088B842CC
:1038D00030D004EB440000EB04105C4A12688118FD
:1038E000132201A802F0F7FB05EB450000EB0510E1
:1038F000564909680844018AADF80010807C8DF8AB
:10390000020005EB450000EB0510504A12688118D3
:10391000132206A802F0DFFB06A80FC8FFF747FB3B
:1039200040B104EB440101EB0411484A12688818C5
:10393000FFF7EDF9601C84B2454800788442B5DB9E
:10394000002415E004EB440000EB04103F49096833
:103950000844807940B104EB440101EB04113B4A77
:1039600012688818FFF7D3F9601C00E024E184B2E4
:10397000374800788442E5DB7CE005EB450000EB4E
:1039800005103249096808448079012872D1002461
:103990003BE004EB440000EB04102C4909680844A8
:1039A000807980BB04EB440000EB0410274A1268C6
:1039B0008118132201A802F08EFB05EB450000EBF5
:1039C0000510224909680844018AADF80010807C7E
:1039D0008DF8020005EB450000EB05101B4A12684C
:1039E0008118132206A802F076FB06A80FC8FFF77D
:1039F000DEFA40B104EB440101EB0411134A1268F2
:103A00008818FFF784F9601C84B21148007884425A
:103A1000BFDB00242AE004EB440000EB04100B4958
:103A2000096808448079F8B104EB440000EB041005
:103A30000649096808440088B8420BE0B420002019
:103A400054000020C020002036000020300000205C
:103A50003500002008D004EB440101EB0411FC4ABE
:103A600012688818FFF753F9601C84B2F94800788F
:103A70008442D0DB1321F848007802F0FDF90646B5
:103A8000002410E004EB440202EB0412F04B1B682C
:103A9000D11804EB440202EB04129019132202F035
:103AA0001AFB601C84B2EB4800788442EADBE848E9
:103AB000006802F003FAE8480078401EE649087002
:103AC0001321E548007802F0D7F9E14908604FF08A
:103AD0000009002463E004EB440000EB04103044D0
:103AE0000088B84213D004EB440202EB041291198F
:103AF00009EB490202EB0912D54B1B68D0181322BF
:103B000002F0E9FA09F101001FFA80F945E004EB3F
:103B1000440000EB04103044C07A012804D002288D
:103B200017D0052837D118E004EB440000EB04104F
:103B30003044D0F80D80D8F8080002F0BFF904EB4B
:103B4000440101EB04113144D1F80D0002F0B6F943
:103B500022E00020C14988711EE004EB440000EB24
:103B600004103044D0F80D80D8F80610886802F0B0
:103B7000A5F9D8F8060002F0A1F9D8F8020002F081
:103B80009DF904EB440101EB04113144D1F80D001F
:103B900002F094F900E000BF00BF601C84B2AD48A1
:103BA0000078844297DBAB480078401EA949087032
:103BB000304602F083F906E0681C85B2A54800781B
:103BC0008542FFF64BAE00BF00200BB0BDE8F0838E
:103BD00070B58CB006460025002400BF01E105EB5E
:103BE000450000EB05109A49096808440088B04276
:103BF0007ED1012005EB450101EB0511944A1268C5
:103C00001144087305EB450101EB0511904A126858
:103C10008818FFF757F805EB450000EB05108C49B5
:103C2000096808448079002868D1002445E004EB45
:103C3000440000EB04108649096808448079D0BB31
:103C400004EB440000EB0410814909680844008833
:103C5000B04230D004EB440000EB04107C4A126800
:103C60008118132201A802F036FA05EB450000EB9B
:103C70000510774909680844018AADF80010807C76
:103C80008DF8020005EB450000EB0510704A126844
:103C90008118132207A802F01EFA07A80FC8FFF721
:103CA00086F940B104EB440101EB0411684A126843
:103CB0008818FFF72CF8601C84B2664800788442AC
:103CC000B5DB002413E004EB440000EB0410604972
:103CD00009680844807940B104EB440101EB041108
:103CE0005B4A12688818FFF712F8601C84B200E083
:103CF00075E0584800788442E5DB6FE005EB45004D
:103D000000EB05105249096808448079012865D103
:103D100000243BE004EB440000EB04104C4909682C
:103D20000844807980BB04EB440000EB0410484A4F
:103D300012688118132201A802F0CDF905EB4500A5
:103D400000EB0510424909680844018AADF80010EB
:103D5000807C8DF8020005EB450000EB05103C4A25
:103D600012688118132207A802F0B5F907A80FC836
:103D7000FFF71DF940B104EB440101EB0411344A93
:103D800012688818FEF7C3FF601C84B231480078BF
:103D90008442BFDB00241DE004EB440000EB041070
:103DA0002B4909680844807990B104EB440000EB8A
:103DB00004102749096808440088B04208D004EB81
:103DC000440101EB0411224A12688818FEF79FFF94
:103DD000601C84B21F4800788442DDDB06E0681C6A
:103DE00085B21C4800788542FFF6F9AE00BF0CB0E2
:103DF00070BD73B500240425FEF777F81848FEF768
:103E0000B3F80546BDF80200BDF8001040EA0144D1
:103E100021461348FEF778F905469DF804402146EF
:103E20000F48001DFEF770F90546FEF76BF87CBDE4
:103E30002DE9F84F074688461546002400200090DB
:103E4000002681464FF0040A052F1AD20AE000002E
:103E50003000002035000020340000203C0000200D
:103E600000A00508DFE807F0030507090B00F84E7E
:103E700009E0F84E07E0F84E05E0F84E03E0F84E92
:103E800001E0002600BF00BF002E2CD0FEF72DF869
:103E9000B146002406E04846FEF766F8824609F57A
:103EA0000069641C042CF6D329463046FEF72CF931
:103EB0008246361D002412E0281B042801D9042064
:103EC00000E0281B024608EB0401684602F003F9F3
:103ED00030460099FEF718F98246361D241DAC4283
:103EE000EAD3FEF70FF8BDE8F88F2DE9F04387B06D
:103EF0000024002006900026022005900027D948C3
:103F0000007801287ED1D7484078801E14287AD2C4
:103F1000DFE800F0D8FEFD79FCFBFAF937C2B6BC49
:103F2000663E132543790AF800200490732004901C
:103F3000022104A8FEF73CFC40E20025002004908A
:103F4000C8488578B0F803000490BDF81020C54932
:103F5000491D2846FFF76CFF002005902EE2002047
:103F6000C14988710120C14908700020C04908700A
:103F700008460078FEF7DEFA0020BE49087005907A
:103F80001CE20020B94908700120BB49087015E205
:103F9000002000F0A7FD00F027FAB2484088ADF8F5
:103FA0000C00B0488088ADF80E00AE4880798DF8DE
:103FB00010009DF81000B149097988420DD09DF894
:103FC000100001280BDB9DF81000042807DCDDE958
:103FD0000301FFF70EFF00F007FA01200590EDE165
:103FE0004FF0000800200490002581469D4890F87D
:103FF0000280B0F803000490BDF8100001F02EFF1D
:10400000054601E0DBE1D6E185B3BDF81020954916
:10401000491D284602F05FF8B8F1060F16D2DFE816
:1040200008F00306090C0F12DFF8549211E0DFF8D4
:1040300054920EE0DFF850920BE0DFF8509208E067
:10404000DFF84C9205E0DFF84C9202E04FF00009F7
:1040500000BF00BFB9F1000F09D0BDF810202946FC
:10406000484601F09BFE0020059002E005E001209B
:104070000590284601F022FF01E0012005909DE116
:104080000120854908700020059097E101208349AF
:1040900008700020059091E100200590012105A8FD
:1040A000FEF786FB02200590002400E0641C4CF221
:1040B00050308442FAD34FF4D85179480068FEF763
:1040C00077FB7BE1002455E004EB440000EB041097
:1040D000744909680844C07A01281FD104EB4400E0
:1040E00000EB04106F4909680844D0F80D50A86827
:1040F00001F0E4FE04EB440101EB0411694A12688B
:10410000114406E0D8E0E1E0EAE0F5E084E05CE0BC
:104110005AE0D1F80D0001F0D1FE2AE004EB440092
:1041200000EB04105F4909680844C07A052820D1D3
:1041300000BF04EB440000EB04105A49096808442E
:10414000D0F80D5055F8020F01F0B8FE6968886884
:1041500001F0B4FE686801F0B1FE04EB440101EB2C
:104160000411504A12681144D1F80D0001F0A6FE66
:1041700000BF641C4C4800788442A5D34A480078AC
:10418000002803DD4748006801F098FE00204649FA
:1041900008704649087034498871344908703449B8
:1041A0000870344908709020ADF80900C020ADF8BF
:1041B00007000020ADF80200ADF804006846FEF7E5
:1041C00081FD00200590F9E0F8E0002004902548EA
:1041D00040880490BDF81000082803DCBDF81000EA
:1041E000012802DA0120059015E0BDF810003049E1
:1041F0000880224A1188CA1701EB927292102C4B48
:104200001B8802FB03F0C21700EB5272D210294B3D
:104210001A6000200590D1E09020ADF80900C02080
:10422000ADF807000020ADF80200ADF804006846C4
:10423000FEF748FD0B4880781C49087013211B4885
:10424000007801F019FE1749086000200590B5E0DC
:104250000090040800B0040800D0040800F004082E
:1042600000100508740000203C00002046000020DB
:104270004C0000206E000020450000204E00002071
:10428000000004080018040800300408004804086E
:104290000060040800780408430000204400002067
:1042A00028000020300000203500002034000020CD
:1042B0004A00002038000020524840880690BDF88F
:1042C0001800FFF785FC0020059077E04D484088F6
:1042D0000690BDF81800FFF7B7FA002005906DE0D2
:1042E0004848408806904749891CBDF81800FFF7E8
:1042F0007DF80020059061E0424840880690002447
:104300000DE004EB440000EB04103F490968084449
:104310000088BDF81810884200D104E0641C3B48B6
:1043200000788442EDD300BF38480078844202D23E
:10433000012005903EE035480078354909788842EB
:1043400028DB00BF32480078401C3149087008461D
:10435000007800EB400101EB001631462A48006866
:1043600001F09CFD054695B1274805602548801C55
:10437000FEF767FE07463FB9002005902348007806
:10438000401C2249087004E00120059001E0012052
:1043900005900FE01B48801CFEF753FE07463FB90F
:1043A0000020059019480078401C1849087001E069
:1043B0000120059002E00120059000BF01E00120EE
:1043C0000590144801880F4801F0FCFE00201149B7
:1043D00008809DF81400022803D0012105A8FEF7EB
:1043E000E7F907B0BDE8F0830B48006800F4E0602F
:1043F0000A490843001D08490860BFF3408F00BF09
:10440000FEE700007400002030000020350000208E
:10441000340000202C0000200CED00E00000FA0524
:10442000704700F0CCF800F0CAF800F0C8F800F0CF
:10443000C6F87047704770476748006820B1664803
:104440000068401E6449086070476448008800F0B6
:104450002000002834D00021614A11800121614AE6
:1044600011705E49091D0988C8B25F490988B1F514
:10447000015F21DA5D495C4A128888545A490988EB
:10448000491C594A118011460988012903D1012884
:1044900001D00021118054490988491E534A515CBA
:1044A0000A290CD150490988891E515C0D2906D171
:1044B00001214F4A117002E001214D4A117005E0BF
:1044C000002046490888091D088800BF70477047CA
:1044D00010B548480088401C4649088008460088B6
:1044E0000A2838DB3F48007820B13D480088401C4E
:1044F0003B4908804048807950B13F4840790128C5
:1045000003D100203C49487102E001203A4948713A
:104510003A480078E0B1002037498871384800787F
:10452000401C37490870084600780A2810DB3548D7
:104530000078401C3349087008460078052801D1EE
:104540000020087001203049087000202C490870B4
:1045500000202849088001212C48FDF789FC10BD66
:1045600010B52B48006800F078FD01218807FDF7A1
:104570007FFC10BD10B51E48007820B1FFF7B5FCD8
:1045800000201B4908702048007830B11D48007891
:10459000FDF7D0FF00201C4908701E48007848B184
:1045A0001B48006800F000F901201B49087000203A
:1045B0001849087001211948FDF75AFC10BD184828
:1045C000006800F4E06017490843001D14490860C2
:1045D000BFF3408F00BFFEE76000002000380140BD
:1045E00070000020680000202C00002074000020D3
:1045F000690000206C0000203C00002046000020E4
:104600006E0000204C0000206A00002000100040D6
:104610002800002048000020720000200004004014
:104620000CED00E00000FA05F74A1279022A03D0E7
:10463000F54A1279032A2DD18A7802F003030A88F9
:1046400063F39F020B7903F0030342EA03128B79B1
:1046500003F0030342EA83120B7A03F0030342EAF6
:1046600003228B7A03F0030342EA832202800A8842
:1046700092100A804A8892104A808A8892108A8012
:10468000CA889210CA800A8992100A814A899210B7
:104690004A8188E0DC4A1279042A2DD18A7802F016
:1046A00003030A8863F39F020B7903F0030342EAD2
:1046B00003128B7903F0030342EA83120B7A03F0AF
:1046C000030342EA03228B7A03F0030342EA8322C4
:1046D00002800A8892100A804A8892104A808A884A
:1046E00092108A80CA889210CA800A8992100A8120
:1046F0004A8992104A8156E0C34A1279012A52D15E
:104700008A7802F003030A8863F39F020B7903F0AF
:10471000030342EA03128B7903F0030342EA831294
:104720000B7A03F0030342EA03228B7A03F00303BC
:1047300042EA83220B7B03F0030342EA03328B7BC2
:1047400042EA83320B7C42EA03428B7C42EA834298
:104750000B7D42EA03528B7D42EA835202800A8833
:1047600092100A804A8892104A808A8892108A8021
:10477000CA889210CA800A8992100A814A899210C6
:104780004A818A8992108A81CA899210CA810A8ACA
:1047900092100A824A8A92104A828A8A92108A82E7
:1047A000CA8A9210CA8270472DE9F04F8FB0064630
:1047B00000200E9000270024834681460D900220A1
:1047C0000C900020029001900025824680468E4881
:1047D000007904287ED1062002908B490888C117F1
:1047E00000EB917189100D9187490888C11700EB82
:1047F000917189100E9184490888C11700EB91715D
:10480000C1F38701019100BF6BE0002760E0002445
:1048100031E0204604EBD0725210A4EB4203214653
:1048200004EBD172521003EB02130D9A53430E9A0C
:1048300002FB0AF203EB42023A4495B203A800EBF2
:10484000440071190988018005F5106085B203A93B
:10485000A01D01EB400071190988018005F5106069
:1048600085B203A904F10C0001EB4000711909881D
:104870000180601CC4B202988442CADB4FF0000B76
:1048800021E041464A1C1FFA82F8604A02EB4100CF
:1048900003A9FFF7C9FE41464A1C1FFA82F85B4A8A
:1048A00002EB410006A9FFF7BFFE41464A1C1FFA72
:1048B00082F8564A02EB410009A9FFF7B5FE0BF159
:1048C000010000F0FF0BBBF1080FDADBB81CC7B228
:1048D000019800E009E0874299DB0AF1010000F04D
:1048E000FF0ABAF1080F90DBF9E006200290464972
:1048F0000888C11700EB91718910C9000D914249D8
:104900000888C11700EB917189100E913E49088803
:10491000C11700EB9171C1F3870101914FF0000ABB
:10492000D9E039480079032864D100275EE04FF0D0
:10493000000956E0002425E00D9860430AEB890247
:104940000E9901FB0200384485B203A800EB440035
:1049500071190988018005F5106085B203A9A01DB1
:1049600001EB400071190988018005F5106085B2DE
:1049700003A904F10C0001EB4000711909880180C2
:10498000601CC4B202988442D6DB4FF0000B21E0D9
:1049900041464A1C1FFA82F81C4A02EB410003A957
:1049A000FFF742FE41464A1C1FFA82F8174A02EB03
:1049B000410006A9FFF738FE41464A1C1FFA82F85B
:1049C000124A02EB410009A9FFF72EFE0BF101008C
:1049D00000F0FF0BBBF1080FDADB09F101004FFA21
:1049E00080F90C988145A5DBB81CC7B201988742B5
:1049F0009DDB6CE004480079022868D1002763E061
:104A00004FF001095BE000004E000020CE44002082
:104A1000002425E00D9860430AEB89020E9901FB02
:104A20000200384485B203A800EB440071190988DC
:104A3000018005F5106085B203A9A01D01EB4000BF
:104A400071190988018005F5106085B203A904F188
:104A50000C0001EB4000711909880180601CC4B290
:104A600002988442D6DB4FF0000B21E041464A1CFD
:104A70001FFA82F8FE4A02EB410003A9FFF7D4FDBA
:104A800041464A1C1FFA82F8F94A02EB410006A986
:104A9000FFF7CAFD41464A1C1FFA82F8F44A02EBAE
:104AA000410009A9FFF7C0FD0BF1010000F0FF0B69
:104AB000BBF1080FDADBA9F101004FFA80F9B9F177
:104AC000000FA5DAB81CC7B20198874298DB0AF13B
:104AD000010000F0FF0ABAF1040FFFF622AF0FB099
:104AE000BDE8F08FE3490979022903D0E14909794A
:104AF000032924D180B94FF48051DF4A1161490064
:104B000011611021DD4A1160202111601021DC4A61
:104B10001160202111602BE04FF48051D64A516181
:104B2000490051611021D54A121D116020211160E8
:104B30001021D34A121D11602021116018E0CD49C7
:104B40000979042914D140B9C902CB4A1161202145
:104B5000CA4A1160CA4A11600AE04FF40051C64ABD
:104B600051612021C54A121D1160C54A121D1160F4
:104B70007047C0490979042948D100F0040149B1BE
:104B80004FF48051BC4A11611021BC4A1160BC4AEB
:104B900011600AE04FF48051B74A51611021B74AC1
:104BA000121D1160B64A121D116000F0020149B1D8
:104BB0004FF40041B04A11618021B04A1160B04AFF
:104BC00011600AE04FF40041AB4A51618021AB4AC9
:104BD000121D1160AA4A121D116000F0010149B1B5
:104BE0004FF48041A44A11614021A44A1160A44AB3
:104BF00011603BE04FF480419F4A516140219F4A40
:104C0000121D11609E4A121D11602FE000F002017A
:104C100049B14FF40041984A11618021974A1160CF
:104C2000974A11600AE04FF40041934A5161802194
:104C3000924A121D1160924A121D116000F001018A
:104C400049B14FF480418C4A116140218B4A116077
:104C50008B4A11600AE04FF48041874A516140213C
:104C6000864A121D1160864A121D1160704710B5E8
:104C700085B000217F4A1279022A07D07D4A127935
:104C8000032A03D07B4A1279042A7DD17D4A126817
:104C900002F47F4204927A4A121F12684FF6F073B0
:104CA0001A400392744AD26802F470420292764A21
:104CB0001268D2B20192714A121F12681A40009211
:104CC0000288BDF808301A436B4BDA6042884FF413
:104CD0007F4303EA0222BDF804301A436A4B1A608C
:104CE0004288BDF8003043EA2222644B1B1F1A6041
:104CF0000279BDF810301A43624B1A608288BDF801
:104D00000C3043EA22225E4B1B1F1A609A145D4B43
:104D10001B1D1A601B1D1A60C288BDF808301A439B
:104D2000554BDA6002894FF47F4303EA0222BDF853
:104D300004301A43544B1A600289BDF8003043EA2C
:104D400022224E4B1B1F1A60827ABDF810301A4384
:104D50004C4B1A604289BDF80C3043EA2222484B82
:104D60001B1F1A609A14474B1B1D1A601B1D1A60EB
:104D70008289BDF808301A433F4BDA60C2894FF48C
:104D80007F4303EA022200E008E1BDF804301A4341
:104D90003D4B1A60C289BDF8003043EA2222374BEE
:104DA0001B1F1A60027CBDF810301A43354B1A6085
:104DB000028ABDF80C3043EA2222314B1B1F1A60D5
:104DC0009A14304B1B1D1A601B1D1A60428ABDF8D5
:104DD00008301A43284BDA60828A4FF47F4303EA93
:104DE0000222BDF804301A43274B1A60828ABDF8AC
:104DF000003043EA2222214B1B1F1A60827DBDF83E
:104E000010301A431F4B1A60C28ABDF80C3043EAB7
:104E100022221B4B1B1F1A609A141A4B1B1D1A606F
:104E20001B1D1A60028BBDF808301A43124BDA6062
:104E3000428B4FF47F4303EA0222BDF804301A4349
:104E4000114B1A60428BBDF8003043EA22220B4B13
:104E50001B1F1A60027FBDF810301A43094B1A60FD
:104E6000828BBDF80C3043EA2222054B1B1F0DE05C
:104E7000CE4400204E0000200010014010180140D8
:104E8000100C01400C0801400C1401401A609A14E7
:104E9000FE4B1A601B1D1A60C28BBDF808301A4306
:104EA000FB4BDA60028C4FF47F4303EA0222BDF829
:104EB00004301A43F74B1A60028CBDF8003043EA05
:104EC0002222F54B1A6090F82220BDF810301A43C8
:104ED000EE4B1B1F1A60428CBDF80C3043EA2222B5
:104EE000EE4B1A609A14E94B1A601B1D1A60828CF3
:104EF000BDF808301A43E64BDA60C28C4FF47F43AA
:104F000003EA0222BDF804301A43E24B1A60C28C55
:104F1000BDF8003043EA2222DF4B1A6090F82820C7
:104F2000BDF810301A43D94B1B1F1A60028DBDF813
:104F30000C3043EA2222D94B1A609A14D34B1A60E0
:104F40001B1D1A60428DBDF808301A43D04BDA6041
:104F5000828D4FF47F4303EA0222BDF804301A43E6
:104F6000CC4B1A60828DBDF8003043EA2222CA4B36
:104F70001A6090F82E20BDF810301A43C34B1B1F47
:104F80001A60C28DBDF80C3043EA2222C34B1A606E
:104F90009A14BE4B1A601B1D1A605CE0C04A12795D
:104FA000012A58D1002154E0B94AD2686FF30F02A8
:104FB000B74BDA601A46D26803884FF6FF74634035
:104FC0001A43B34BDA60B34A12686FF30F02B14B66
:104FD0001A6002881214438842EA032223465A4088
:104FE000AC4B1B681A43AB4B1A60AB4A12686FF3A9
:104FF0000F02A94B1A601A461268438884EA2323D9
:105000001A43A54B1A60A14A121F126802F47F428C
:105010009E4B1B1F1A601A461268037983F0FF0328
:105020001A439A4B1B1F1A609C4A12686FF30F02B7
:105030009A4B1A601A461268838884EA23231A431B
:10504000964B1A609A14914B1A601B1D1A604A1CE9
:10505000D1B20829A8DB05B010BD2DE9F04F97B0FB
:1050600080464FF0000A002600240020169003908E
:1050700002200290002001900025834600278146EF
:105080008848007858B14FF410528749874801F09A
:1050900022F80020FFF726FD002082490870804892
:1050A000007904283FD17E4890F800B0804800780D
:1050B00000EBC0004FF6FF7101EA8015002614E0F6
:1050C0007C480068814503D10020FFF70BFD01E01B
:1050D00009F10209754901EB4500FFF7C8FD05F12B
:1050E000180085B206F10800C6B25E45E8DB002074
:1050F000FFF7F8FC4FF4004064490860091D0860A0
:105100006B480078FFF735FD69480078401C684916
:10511000087008460078082801D100200870012096
:10512000FFF7E0FC1CE15E480079022803D05C48F0
:105130000079032874D15A490888C11700EB91718E
:10514000C1F3870B5A48007800EBC0004FF6FF719F
:1051500001EAC01552480079032820D100261BE03F
:1051600054480068814503D10020FFF7BBFC01E0F3
:1051700009F102094D4901EB4500FFF778FD05F102
:10518000180085B2494901EB4500FFF770FD05F1B4
:10519000180085B2B01CC6B25E45E1DB23E0404892
:1051A000007902281FD100261BE042480068814593
:1051B00003D10020FFF796FC01E009F102093B4909
:1051C00001EB4500FFF753FD05F1180085B23749A3
:1051D00001EB4500FFF74BFD05F1180085B2B01C4F
:1051E000C6B25E45E1DB0020FFF77CFC4FF40040D7
:1051F00026490860091D08602D480078FFF7B9FCB2
:105200002B480078401C2A4908700846007804287A
:1052100001D1002008700120FFF764FCA0E0FFE747
:105220001F48007901287CD10C20019002200290B7
:105230001B490888C11700EB9171891089000391FF
:1052400017490888C11700EB91714FEAA10A144968
:105250000888C11700EB9171C1F3870B002677E036
:10526000002016906EE0002462E0039804FB00F139
:10527000169A0AFB02F001EB4000304487B207EBBC
:105280000A0018F8000004A916E000001008014008
:10529000001001400C1401400C1801400C0C01409E
:1052A0004E00002072000020CE440020CE200020BE
:1052B000730000203800002021F8140018F80700BF
:1052C00011F8141040EA012004A921F8140007F590
:1052D000106087B207EB0A0018F8001004AA04F166
:1052E0000C0022F8101018F8071012F8100041EA0C
:1052F000002081B204F10C0022F8101007F51060B4
:1053000087B207EB0A0018F8001004F1180022F821
:10531000101018F8071012F8100041EA002081B2AE
:1053200000E01DE004F1180022F81010601CC4B267
:105330000198844299DB04A8FFF799FC1698401C59
:1053400040B216900299169888428CDB701CC6B247
:105350005E4585DB4FF4004003490860091D086085
:1053600017B0BDE8F08F00001008014010B5012112
:105370000C20FBF703FA01213020FBF7FFF9012194
:105380004020FBF7FBF9012140F20120FBF7F6F981
:1053900001218803FBF7F2F910BD0EB50121084683
:1053A000FBF7F9F940F2E730ADF804004720ADF81B
:1053B00000000020ADF806001020ADF8020069469C
:1053C0008006FBF733FF012211469007FCF7A5FA90
:1053D00001218807FCF786FA01210220FBF7DBF99F
:1053E00041F28730ADF804004720ADF800000020FE
:1053F000ADF806001020ADF802006946AA48FBF798
:1054000015FF01221146A848FCF787FA0121A6489A
:10541000FCF768FA01211020FBF7BDF94CF24F3080
:10542000ADF804004720ADF800000020ADF80600FC
:105430001020ADF8020069469C48FBF7F7FE0122F8
:1054400011469A48FCF769FA01219848FCF74AFA94
:105450000EBD08B501219648FBF725FB4FF480509F
:10546000ADF8000003208DF8020010208DF8030035
:1054700069469048FBF746FA4FF40040ADF800004B
:1054800069468C48FBF73EFA8B480079012806D123
:10549000C002ADF8000069468648FBF733FAFF20EA
:1054A000ADF8000069468348FBF72CFA4FF6FF7011
:1054B000ADF8000069468148FBF724FA4FF6FF700B
:1054C000ADF8000069467E48FBF71CFA4FF6FF7006
:1054D000ADF8000069467B48FBF714FA4FF6FF7001
:1054E000ADF8000069467848FBF70CFA00217148D6
:1054F000FBF7BEFA00217148FBF7BAFA00217048A9
:10550000FBF7B6FA00216F48FBF7B2FA00216E48AC
:10551000FBF7AEFA4FF48060ADF8000004208DF880
:10552000030069466348FBF7EDF94FF40070ADF8EE
:10553000000003208DF8020018208DF80300694652
:105540005C48FBF7DFF908BD1FB54FF4E130009070
:105550000020ADF80400ADF80600ADF80800ADF885
:105560000C000C20ADF80A0069465848FBF75BFBBD
:10557000012240F225515548FBF7EDFB012153482C
:10558000FBF7DDFB1FBD08B5002240F225514F4857
:10559000FBF7E1FB002201218807FCF7BEF900219F
:1055A0004FF08040FCF79EF9002201213E48FCF7B5
:1055B000B4F900213C48FCF795F9002201213B4851
:1055C000FCF7ABF900213948FCF78CF925208DF860
:1055D000000001208DF8010000208DF803006846CE
:1055E000FBF7E7FC1C208DF8000003208DF801007C
:1055F00000208DF803006846FBF7DBFC1D208DF8CA
:10560000000004208DF8010000208DF8030068469A
:10561000FBF7CFFC36208DF8000005208DF8010047
:1056200000208DF803006846FBF7C3FC4FF0E02034
:10563000006920F007004FF0E021086108BD08B5BF
:105640004FF44070FBF7B0FC25208DF800000120DE
:105650008DF801008DF803006846FBF7AAFC1C20BA
:105660008DF8000003208DF8010001208DF8030063
:105670006846FBF79EFC1D208DF8000004208DF885
:10568000010001208DF803006846FBF792FC3620EC
:105690008DF8000005208DF8010001208DF8030031
:1056A0006846FBF786FC08BD00040040001000407F
:1056B00000023000000801404E000020000C0140B4
:1056C0000010014000140140001801400038014062
:1056D0002DE9F0470746894614464FF0000AD046A8
:1056E0000025062F10D2DFE807F0030507090B0D90
:1056F000F74D0BE0F74D09E0F74D07E0F74D05E0FA
:10570000F74D03E0F74D01E0002500BF00BF002D7D
:1057100043D06E1C307860800020607109EB490036
:1057200000F1030A05EB0A00861C96F8008005EBE1
:105730000A00461C307840EA082805EB0806307855
:1057400020802088FF2802D06088FF2804D1002014
:1057500020806080A06020E0218862885143C81DBD
:10576000C11700EB5171C1F3CF01E180E08800F077
:1057700075FBA060A06870B1E188A06800F022FD10
:1057800005EB0800461CA06838B1E288A0683146E5
:1057900000F0A1FC01E0BDE8F08700BFFBE72DE9C8
:1057A000F04F0D4614461E464FF00009CA4600222F
:1057B00000279446934600210023D4F8088018F867
:1057C0000C7000BF86E00246DFF81CE3BEF800E084
:1057D00005FB0E284FEAE87E08EB9E7ECEF38F0194
:1057E00090464FEAE27E02EB9E7E4FEAAE0EA2EBBF
:1057F0008E0E4FEA4E6E4FEA1E634FF000095DE0D9
:10580000DFF8E882D8F8008018F801804FF0030E26
:105810000EFA03FE28EA0E08DFF8D0E2DEF800E018
:105820000EF8018007F00108B8F1000F21D086B111
:10583000DFF8B882D8F8008018F8018006FA03FE75
:1058400048EA0E08DFF8A4E2DEF800E00EF8018076
:105850000FE0DFF89882D8F8008018F8018007FA86
:1058600003FE48EA0E08DFF884E2DEF800E00EF8F6
:1058700001807F100BF1010808F0FF0B03F1020813
:1058800008F0FF03BBF1080F09D10CF101081FFA62
:1058900088FCD4F8088018F80C704FF0000B082B27
:1058A00004D1002301F101081FFA88F102F1010877
:1058B0001FFA88F209F101081FFA88F9B4F800808C
:1058C000C8459DDC05F101081FFA88F50AF10108B9
:1058D0001FFA88FAB4F80280D0453FF774AFBDE8EC
:1058E000F08F2DE9F04F0C464FF00008C14600261E
:1058F000B2460027B34600210025D3F808C01CF8A3
:1059000007A0064600BF77E00646B2F800E004FBB9
:105910000E6C4FEAEC7E0CEB9E7E4FEAAE0EACEBCB
:105920008E0E4FEA4E6E4FEA1E65B2F800E004FBA1
:105930000E6C4FEAEC7E0CEB9E7ECEF38F014FF0A7
:1059400000084DE0D2F808C01CF801C04FF0030E6B
:105950000EFA05FE2CEA0E0CD2F808E00EF801C093
:105960000AF0010CBCF1000F14D0DDF824C0BCF12A
:10597000000F0FD0D2F808C01CF801E0DDF824C0F9
:105980000CFA05FC4EEA0C0E0EF0FF0CD2F808E003
:105990000EF801C04FEA6A0A0BF1010C0CF0FF0B84
:1059A00005F1020C0CF0FF05BBF1080F09D107F15E
:1059B000010C1FFA8CF7D3F808C01CF807A04FF0B1
:1059C000000B082D04D1002501F1010C1FFA8CF108
:1059D00006F1010C1FFA8CF608F1010C1FFA8CF885
:1059E000B3F800C0C445ADDC04F1010C1FFA8CF41F
:1059F00009F1010C1FFA8CF9B3F802C0CC4583DC25
:105A0000BDE8F08F2DE9FF4F8FB005468B461C9EF9
:105A1000002400200E9081460D9001200C900B90E8
:105A200000200A9000278046099082460390ADF836
:105A30000600ADF80400308000BF00BF00BF74E076
:105A4000285D892862D1601CC4B2285D6E2827D1E8
:105A50000998404501DACDF8248004A820F8178081
:105A6000781CC7B24FF00008BDF8060028B1BDF899
:105A7000060050441FFA80FA55E001AA00210B9855
:105A8000FFF726FE039810B913B0BDE8F08FBDF8FC
:105A9000060050441FFA80FA039800F00FFA42E023
:105AA000285D66282FD1601CC4B2285D30380628D6
:105AB00027D2DFE800F00306091D202300200B9009
:105AC00020E001200B901DE002200B901AE0000066
:105AD0000000040800180408003004080048040806
