:020000040800F2
:10000000D8EE0020D1010008512400085324000834
:100010005D24000867240008712400080000000027
:100020000000000000000000000000007B24000829
:100030007D240008000000007F24000881240008BF
:10004000EB010008EB010008EB010008EB010008E0
:10005000EB010008EB010008EB010008EB010008D0
:10006000EB010008EB010008EB010008EB010008C0
:10007000EB010008EB010008EB0100082731000844
:10008000EB010008EB010008EB010008EB010008A0
:10009000EB010008EB010008EB010008EB01000890
:1000A000EB010008EB010008EB010008EB01000880
:1000B0007F30000863300008EB010008EB01000806
:1000C000EB010008EB010008EB010008EB01000860
:1000D000EB01000889240008EB010008EB0100088F
:1000E000EF240008EB010008EB010008EB01000819
:1000F000EB010008EB010008EB010008EB01000830
:10010000EB010008EB010008EB010008EB0100081F
:10011000EB010008EB0100088B240008EB0100084C
:10012000EB01000891300008EB010008EB0100082A
:1001300000F002F800F03CF80AA090E8000C8244BD
:100140008344AAF10107DA4501D100F031F8AFF29A
:10015000090EBAE80F0013F0010F18BFFB1A43F0A5
:100160000103184784380000A4380000103A24BF67
:1001700078C878C1FAD8520724BF30C830C144BF0C
:1001800004680C607047000000230024002500264E
:10019000103A28BF78C1FBD8520728BF30C148BFEA
:1001A0000B6070471FB503F068FA1FBD10B510BD96
:1001B00003F022FA1146FFF7F5FF02F040F803F0D2
:1001C00040FA03B4FFF7F2FF03BC03F04BFA000060
:1001D0000948804709480047FEE7FEE7FEE7FEE7DB
:1001E000FEE7FEE7FEE7FEE7FEE7FEE70448054917
:1001F000054A064B70470000D9020008310100088B
:10020000D8620020D8EE0020D8E20020D8E20020FA
:1002100000200021674A126842F48032654B1A6060
:1002200000BF644A126802F40031401C11B9B0F5F5
:10023000A06FF6D15F4A126812F4003F01D001218D
:1002400000E00021012942D15B4A126842F010020D
:10025000594B1A601A46126822F003021A601A46B5
:10026000126842F002021A60524A5268514B5A60B8
:100270001A4652685A601A46526842F480625A60BE
:100280001A46526822F47C125A601A46526842F4A6
:10029000E8125A601A46126842F080721A6000BF73
:1002A000444A126812F0007FFAD0424A526822F0A3
:1002B0000302404B5A601A46526842F002025A60EA
:1002C00000BF3C4A526802F00C02082AF9D170477C
:1002D00010B5FFF79DFF10BD10B53648006840F01F
:1002E00001003449086008464068344908403149F3
:1002F000486008460068324908402E4908600846B0
:10030000006820F4802008600846406820F4FE0061
:1003100048604FF41F008860FFF7DAFF4FF000607D
:100320002849086010BD10B5002000210022214B93
:100330005B6803F00C0020B1042806D0082828D1FF
:1003400007E0214B214C236027E01F4B1F4C23600B
:1003500023E0184B5B6803F47011164B5B6803F4E1
:100360008032022303EB914122B9194B4B43174CC6
:1003700023600DE00F4B5B6813F4003F04D0144B77
:100380004B43124C236003E00F4B4B430F4C236055
:1003900003E00D4B0D4C236000BF00BF054B5B68B5
:1003A000C3F303130B4CE05C084B1B68C340074CC2
:1003B000236010BD00100240002002400000FFF842
:1003C000FFFFF6FE08ED00E000127A0000000020BA
:1003D00000093D0004000020D848006840F00100FA
:1003E000D649086008464068D5490840D349486066
:1003F00008460068D3490840D049086008460068AC
:1004000020F4802008600846406820F4FE00486020
:100410004FF41F0088607047C849096821F4803193
:10042000C64A11601146096821F480211160B0F5B7
:10043000803F03D0B0F5802F0ED106E0BF49096898
:1004400041F48031BD4A116007E0BC49096841F4BC
:10045000A021BA4A116000E000BF00BF704710B58C
:1004600001460022002300204A11012A02D1B34C88
:10047000236806E0022A02D1B04C236A01E0AF4CA7
:10048000636A01F01F02012494401C4201D0012044
:1004900000E0002010BD70B500240025002600BF3C
:1004A0003120FFF7DCFF0646641CB4F5A06F01D0D5
:1004B000002EF5D03120FFF7D2FF08B1012500E072
:1004C0000025284670BD00219C4A116821F0F801E2
:1004D00041EAC001116070479B49086070470022E3
:1004E000964B5A6822F47C1240EA01031A43934B5C
:1004F0005A60704794490866704700218F4A5168D6
:1005000021F003010143516070478C48406800F0BE
:100510000C0070470021894A516821F0F001014325
:10052000516070470021854A516821F4E061014320
:10053000516070470021814A516821F4605141EABD
:10054000C0015160704729B17C4A527A02437B4B0B
:100550005A7206E0794A527AC343DBB21A40774BAB
:100560005A7270477949086070470021734A516890
:1005700021F440410143516070470021744A1170D9
:100580006E4A82F82010012802D0042808D103E026
:1005900001216F4A117004E005216D4A117000E0DD
:1005A00000BF00BF70476B49086070476349096A24
:1005B0000143624A1162704767490860704730B56D
:1005C00000210022002300245C4D6D6805F00C0121
:1005D00021B1042905D0082923D105E05F4D05602C
:1005E00022E05E4D05601FE0544D6D6805F4701209
:1005F000524D6D6805F48033022505EB92421BB91C
:10060000574D554305600BE04C4D6D6815F4003FA8
:1006100003D0534D5543056002E0504D55430560EE
:1006200002E04E4D056000BF00BF444D6D6805F00F
:10063000F00109094B4D6C5C0568E54045603F4D94
:100640006D6805F4E061090A464D6C5C4568E5405B
:1006500085603A4D6D6805F46051C90A414D6C5C86
:100660004568E540C560354D6D6805F44041890B2E
:100670003C4D10356C5CC568B5FBF4F5056130BDCB
:1006800029B12E4A526902432C4B5A6104E02B4A8D
:1006900052698243294B5A61704729B1274A9269AE
:1006A0000243264B9A6104E0244A92698243234B19
:1006B0009A61704729B1214AD26902431F4BDA611E
:1006C00004E01E4AD26982431C4BDA61704729B1AB
:1006D0001A4AD2680243194BDA6004E0174AD2681A
:1006E0008243164BDA60704729B1144A12690243FB
:1006F000124B1A6104E0114A126982430F4B1A61CE
:1007000070471949086070470F49C86470470B4922
:10071000C87170470948406A40F0807007494862D4
:10072000704701460020054A92680A4201D0012024
:1007300000E00020704701498872704700100240B5
:100740000000FFF8FFFFF6FE00004242D8004242E0
:1007500020100240800442423C04424200127A00CF
:1007600000093D00140000204004424210B5044638
:10077000C748844208D101210420FFF7A8FF0021C7
:100780000420FFF7A4FF46E0C248844208D10121BB
:100790000820FFF79CFF00210820FFF798FF3AE0B0
:1007A000BD48844208D101211020FFF790FF0021AD
:1007B0001020FFF78CFF2EE0B848844208D10121B9
:1007C0002020FFF784FF00212020FFF780FF22E098
:1007D000B348844208D101214020FFF778FF00216F
:1007E0004020FFF774FF16E0AE48844208D1012193
:1007F0008020FFF76CFF00218020FFF768FF0AE0F0
:10080000A948844207D101218015FFF760FF00212C
:10081000A015FFF75CFF10BD10B501210846FFF7DA
:1008200056FF00210120FFF752FF10BD2DE9F041D6
:1008300000220023002400250026002791F803C091
:100840000CF00F0291F803C01CF0100F03D091F8C8
:1008500002C04CEA0202B1F800C01CF0FF0F31D018
:10086000066800242BE04FF0010C0CFA04F5B1F8F7
:1008700000C00CEA0503AB4220D1A5004FF00F0CDD
:100880000CFA05F7BE4302FA05FC4CEA060691F89D
:1008900003C0BCF1280F06D14FF0010C0CFA04FC88
:1008A000C0F814C00AE091F803C0BCF1480F05D1AC
:1008B0004FF0010C0CFA04FCC0F810C0641C082CAA
:1008C000D1D30660B1F800C0BCF1FF0F34DD46683B
:1008D00000242EE004F1080C4FF0010808FA0CF592
:1008E000B1F800C00CEA0503AB4221D1A5004FF0DE
:1008F0000F0C0CFA05F7BE4302FA05FC4CEA06069B
:1009000091F803C0BCF1280F05D104F1080C08FAD6
:100910000CF8C0F8148091F803C0BCF1480F07D15F
:1009200004F1080C4FF0010808FA0CF8C0F8108028
:10093000641C082CCED34660BDE8F0814FF6FF71F1
:100940000180022181700421C1707047024600209D
:1009500093680B4201D0012000E00020704701465F
:10096000886880B2704702460020D3680B4201D0ED
:10097000012000E0002070470146C86880B270473F
:1009800001617047416170470AB1016100E0416156
:100990007047C16070474FF480320A4382618161C1
:1009A00082618269826970470022404B1A684FF663
:1009B00080731A4042EA00120A433C4B1A607047A7
:1009C0003B49C8617047F0B5002200230024002590
:1009D00000F00046B6F1004F02D1344EF46901E058
:1009E000324E7468C0F3034582B200F44016B6F587
:1009F000401F08D124F070642C4E766826F0706693
:100A00002A4F7E6012E000F48016B6F5801F06D1F2
:100A1000032606FA05F39C4344F0706406E0460D95
:100A2000360102FA06F6B44344F0706421B1460D73
:100A3000360102FA06F6344300F00046B6F1004FE4
:100A400002D11A4EF46101E0184E7460F0BD30B569
:100A500000228B071C0F0F2303FA04F2134B0833F9
:100A60008C1053F8244094438D1043F825408C108B
:100A700053F824308C07240F00FA04F423430B4C62
:100A800008348D1044F8253030BD0A49086070479D
:100A900000080140000C014000100140001401401A
:100AA00000180140001C01400020014000000140EE
:100AB00000002042DC00204236490143364A1160E2
:100AC000704770B5002100230F22C4784CB3324C1C
:100AD000246804F4E064C4F5E0644FEA1421C1F131
:100AE000040322FA01F2447804FA03F1847804EA58
:100AF000020444EA01014FEA0111284C0678A1558D
:100B0000047804F01F054FF0010404FA05F4057899
:100B10004FEA65154FF0E02606EB8505C5F8004164
:100B200009E0047804F01F040125A5401C4C067858
:100B3000761144F8265070BD1A4A0A4002431A4BF7
:100B40001A60704741B1194A126842EA00024FF038
:100B5000E023C3F8102D07E0144A126822EA0002CD
:100B60004FF0E023C3F8102D7047042808D14FF050
:100B7000E021096941F004014FF0E022116107E032
:100B80004FF0E021096921F004014FF0E0221161EA
:100B9000704700000000FA050CED00E000E400E002
:100BA00080E100E080FFFF1F08ED00E010ED00E0B5
:100BB00010B50446BE48844208D101218014FFF7D5
:100BC00086FD0021A014FFF782FD16E0B94884429B
:100BD00008D101210014FFF787FD00212014FFF741
:100BE00083FD0AE0B448844207D10121C013FFF716
:100BF0007BFD0021E013FFF777FD10BD10B500224B
:100C0000028802F441520B884C8823438C8823438A
:100C1000CC8823430C8923434C8923438C89234369
:100C2000CC8923431A430280838B4FF2FF74234005
:100C300083830B8A038210BD2DE9F04F85B00446F3
:100C40000D4600260227B0464FF00109B246B346D2
:100C5000A08B4FF240010840A08302202084A68B85
:100C6000A868022801D100BF38E0A88810B94FF069
:100C7000010901E04FF002098E48844200D100E0F2
:100C800000BF6846FFF79BFCDDF800B0E888B0F5D0
:100C9000007F0BD14FEA1B2000EB80004000A968C9
:100CA000B0FBF1F0401D1FFA80FA0CE04FEA49104A
:100CB000BBFBF0F000EB80004000A968B0FBF1F056
:100CC000401D1FFA80FA0A20BAFBF0FA0AF0010868
:100CD000AAEB0800C0F34F074FEA0828022F01DBF8
:100CE000FF2F02DD02274FF00008E88840EA0800E5
:100CF00038432084A888A98908436988084329883B
:100D0000084340F400600643A68305B0BDE8F08FB9
:100D10000021018041808180C180018141818181E8
:100D2000C1810721018270470021018041808180BB
:100D3000C1800221816000218181704721B1028838
:100D400042F04002028004E002884FF6BF731A406E
:100D50000280704721B1828B42F48062828304E07A
:100D6000828B4FF6FF331A408283704770B50023A1
:100D700000240B1101259D40ACB21AB18588254392
:100D8000858004E08588E643B6B23540858070BD35
:100D900010B51AB183880B43838004E08388CC4369
:100DA000A4B22340838010BD8181704701468889A9
:100DB0007047A1F57E42FF3A04D0028842F4807267
:100DC000028004E002884FF6FF631A4002807047F9
:100DD00021B1828842F00402828004E082884FF6CA
:100DE000FB731A408280704702884FF2FF731A40EB
:100DF000028002880A4302807047018841F48051D2
:100E00000180704721B1028842F40052028004E060
:100E100002884DF6FF731A40028070470246002098
:100E2000012901D0108B00E0908A70470146088AA2
:100E30007047B1F5804F04D1028842F480420280AD
:100E400004E002884BF6FF731A40028070470246A6
:100E5000002013890B4201D0012000E000207047E0
:100E6000CA4302817047F0B50246002000230024E7
:100E7000002501F00F070126BE40B3B20C11012678
:100E8000A640B4B2968806EA040516891E4202D02E
:100E90000DB1012000E00020F0BD10B5002201F0EE
:100EA0000F040123A3409AB2D343038110BD000075
:100EB0000030014000380040003C004010B50446BE
:100EC000FF48844208D10121C014FFF700FC002133
:100ED000E014FFF7FCFBC4E0B4F1804F08D101211E
:100EE0000846FFF701FC00210120FFF7FDFBB8E0F9
:100EF000F448844208D101210220FFF7F5FB0021CC
:100F00000220FFF7F1FBACE0EF48844208D1012159
:100F10000420FFF7E9FB00210420FFF7E5FBA0E038
:100F2000EA48844208D101210820FFF7DDFB0021B7
:100F30000820FFF7D9FB94E0E548844208D101215D
:100F40001020FFF7D1FB00211020FFF7CDFB88E038
:100F5000E048844208D101212020FFF7C5FB002191
:100F60002020FFF7C1FB7CE0DB48844208D101214F
:100F70004014FFF7ACFB00216014FFF7A8FB70E002
:100F8000D648844209D10121C804FFF7A0FB002103
:100F90004FF40020FFF79BFB63E0D148844209D166
:100FA00001210805FFF793FB00214FF48010FFF7A4
:100FB0008EFB56E0CB48844209D101214805FFF75A
:100FC00086FB00214FF40010FFF781FB49E0C64883
:100FD000844208D101214020FFF786FB00214020F8
:100FE000FFF782FB3DE0C148844208D10121802007
:100FF000FFF77AFB00218020FFF776FB31E0BC4849
:10100000844208D101218015FFF76EFB0021A01555
:10101000FFF76AFB25E0B748844209D101210804A3
:10102000FFF755FB00214FF48030FFF750FB18E02D
:10103000B148844209D101214804FFF748FB00214F
:101040004FF40030FFF743FB0BE0AC48844208D17B
:1010500001218804FFF73BFB00214FF48020FFF7BC
:1010600036FB10BD00220288954B98420ED09A4B59
:1010700098420BD0B0F1804F08D0924B984205D0E7
:10108000914B984202D0914B984204D14FF68F7306
:101090001A404B881A438E4B984207D08D4B98428A
:1010A00004D04FF6FF431A40CB881A4302808B8846
:1010B00083850B880385824B98420BD0864B9842E0
:1010C00008D08C4B984205D08B4B984202D08B4B6A
:1010D000984201D10B7A038601238382704770B551
:1010E000002200230024058C4FF6FE76354005844F
:1010F000038C8488028B4FF68F752A40B51E2A40D8
:101100000D882A43751E2B400D892B434D882B4398
:101110006B4DA8420BD0704DA84208D0754DA84227
:1011200005D0754DA84202D0744DA84213D14FF698
:10113000F7752B404D892B434FF6FB752B408D885F
:101140002B434FF6FF652C404FF6FF552C408D8901
:101150002C43CD892C4384800283CD8885860384EB
:1011600070BD70B5002200230024058C4FF6EF7689
:1011700035400584038C8488028B48F6FF752A402D
:101180004FF6FF452A400D882D0642EA15424FF6DC
:10119000DF752B400D892D0543EA15434D882D053C
:1011A00043EA1543464DA84202D04B4DA8421BD1FD
:1011B0004FF67F752B404D892D0543EA15434FF6B9
:1011C000BF752B408D882D0543EA15434FF6FF353B
:1011D0002C404FF2FF752C408D89AD0444EA154434
:1011E000CD89AD0444EA154484800283CD88058707
:1011F000038470BD70B5002200230024058C4FF6D7
:10120000FF6635400584038C8488828B4FF68F758A
:101210002A404FF6FC752A400D882A434FF6FF55A9
:101220002B400D892D0643EA15434D882D0643EAD0
:101230001543234DA84202D0274DA8421BD14FF29F
:10124000FF752B404D892D0643EA15434FF6FF35B8
:101250002B408D882D0643EA15434EF6FF752C4032
:101260004DF6FF752C408D892D0544EA1544CD8936
:101270002D0544EA154484808283CD8885870384C4
:1012800070BD70B5002200230024058C4EF6FF7659
:1012900035400584038C8488828B48F6FF752A408C
:1012A0004FF6FF452A400D882D0642EA15424DF6BD
:1012B000FF752B400D892D0743EA15434D881FE02C
:1012C000002C01400004004000080040000C0040D9
:1012D000001000400014004000340140004C014068
:1012E000005001400054014000180040001C004024
:1012F00000200040004001400044014000480140FF
:101300002D0743EA1543F84DA84202D0F74DA842F5
:1013100006D14BF6FF752C408D89AD0544EA154486
:1013200084808283CD88A0F84050038470BD828B76
:101330004FF2FF331A408283828B0B0642EA13423C
:1013400082837047F0B5002400250026078C4EF6F6
:10135000FF7C07EA0C070784848B058C0F073E0C83
:1013600040F6FF473C40170644EA17441F0744EA8B
:101370001744DD4FB8420ED0DC4FB8420BD0B0F16D
:10138000804F08D0DA4FB84205D0DA4FB84202D0C9
:10139000D94FB84206D14DF6FF773D4046F480570D
:1013A0003D4305E047F6FF573D4041F480573D433C
:1013B00084830584F0BD828B4FF6F3731A408283D9
:1013C000828B0A4382837047F0B5002400250026F3
:1013D000078C4FF6FF6C07EA0C070784848B058C9B
:1013E0000F063E0C4FF60C773C401F0542EA1747AC
:1013F0003C43BD4FB8420ED0BC4FB8420BD0B0F109
:10140000804F08D0BA4FB84205D0BA4FB84202D088
:10141000B94FB84206D14FF6FF573D4046F48077AA
:101420003D4305E04FF2FF573D4041F480773D4397
:1014300084830584F0BD028B4FF2FF331A40028390
:10144000028B0B0642EA134202837047F0B5002478
:1014500000250026078C4FF6EF7C07EA0C0707846F
:10146000048B058C0F053E0C40F6FF473C401F07E0
:1014700044EA1744170644EA17449B4FB8420ED07B
:101480009A4FB8420BD0B0F1804F08D0984FB84275
:1014900005D0984FB84202D0974FB84206D14FF6C8
:1014A000DF773D4046F010073D4305E04FF65F779C
:1014B0003D4041F010073D4304830584F0BD028B9D
:1014C0004FF6F3731A400283028B0A43028370477C
:1014D000F0B500240025068C4FF6FE773E400684CA
:1014E000048B058C4FF60C7634401E0542EA1646F6
:1014F00034437D4EB0420ED07C4EB0420BD0B0F1A2
:10150000804F08D07A4EB04205D07A4EB04202D019
:10151000794EB04206D14FF6FD76354041F00106D6
:10152000354305E04FF6F576354041F00106354389
:1015300004830584F0BD70B504460D466A488442B4
:101540000ED06A4884420BD0B4F1804F08D068486E
:10155000844205D06748844202D06748844200D163
:1015600000E000BF288850B92B89AA8869882046E6
:10157000FFF7AEFFE9882046FFF7A1FF25E02888A6
:1015800004280AD12B89AA8869882046FFF75EFFC4
:10159000E9882046FFF74FFF17E0288808280AD17E
:1015A0002B89AA8869882046FFF70EFFE988204624
:1015B000FFF701FF09E02B89AA8869882046FFF719
:1015C000C1FEE9882046FFF7B2FE70BD2DE9F0416B
:1015D00004460D4600260127688808B9022600E067
:1015E0000026A888012801D1022700E001272888C9
:1015F000A0B92B89AA8869882046FFF769FFE98886
:101600002046FFF75CFF2B893A4631462046FFF71C
:101610001DFFE9882046FFF70EFF13E02B89AA88FB
:1016200069882046FFF712FFE9882046FFF703FF8D
:101630002B893A4631462046FFF74AFFE988204683
:10164000FFF73DFFBDE8F0810A884B881A438B887D
:101650001A43CB881A430B891A434B891A438B8947
:101660001A43A0F8442070474FF6FF718180002193
:101670000180C1804180017270470021018041805A
:101680008180C180018141818181C18170470021B8
:1016900001804180012181800021C180018170474A
:1016A0000021018041808180C1800181418181814F
:1016B000704721B1028842F00102028004E00288F2
:1016C0004FF6FE731A400280704731B1B0F84420E3
:1016D00042F40042A0F8442005E0B0F84420C2F3F0
:1016E0000E02A0F844207047002C01400034014055
:1016F0000004004000080040000C004010B51AB182
:1017000083890B43838104E08389CC43A4B22340C3
:10171000838110BD8182704741EA0203A0F84830FE
:10172000704710B51AB183890B43838104E0838924
:10173000CC43A4B22340838110BD01894FF6F872D7
:10174000114001817047002202894FF68F731A40C1
:101750000A430281704730B504460D4629462046AB
:10176000FFF7F1FF208940F00700208130BD2DE90F
:10177000F04104460D4616461F46602D06D13B46F5
:10178000012231462046FFF761FE05E03B4601227B
:1017900031462046FFF79CFE29462046FFF7D3FF3F
:1017A000208940F007002081BDE8F08130B5002499
:1017B0000489E4B21D0642EA15450D432C43048119
:1017C00030BD2DE9F04104460D46164698460027E7
:1017D0004346324629462046FFF7E8FF27894FF661
:1017E000F870074047F007074FF68F70074047F043
:1017F00070072781BDE8F081F0B504460D46164616
:101800001F463B46324629462046FFF7CFFF208938
:1018100040F480402081F0BD018582827047002223
:1018200002884FF68F731A400A4302807047F0B562
:101830000024002500260489058B068C4FF6F877D6
:101840003C400C434FF6FC473D4040F201173D43FE
:101850004FF6DD773E401F0542EA17473E430481BD
:1018600005830684F0BD0022028B4FF68F731A4069
:101870000A43028370470022028B48F6FF731A4026
:101880000B0642EA1342028370470022828B4FF616
:101890008F731A400A43828370470022828B48F676
:1018A000FF731A400B0642EA13428283704721B14C
:1018B000028842F08002028004E002884FF67F73C3
:1018C0001A400280704721B1828842F0040282806F
:1018D00004E082884FF6FB731A408280704721B182
:1018E000828842F00802828004E082884FF6F77313
:1018F0001A408280704721B1828842F001028280C2
:1019000004E082884FF6FE731A40828070470022FE
:10191000028B4FF6F7731A400A4302837047002286
:10192000028B4FF2FF731A400B0642EA1342028306
:1019300070470022828B4FF6F7731A400A43828366
:1019400070470022828B4FF2FF731A400B0642EA67
:101950001342828370470022028B4FF6FB731A40BA
:101960000A43028370470022028B4FF6FF331A406E
:101970000B0642EA1342028370470022828B4FF625
:10198000FB731A400A43828370470022828B4FF612
:10199000FF331A400B0642EA13428283704700224B
:1019A000028B4FF67F731A400A430283704700226E
:1019B000028BC2F30E020B0642EA13420283704707
:1019C0000022828B4FF67F731A400A43828370474E
:1019D0000022828BC2F30E020B0642EA134282837C
:1019E00070470022028C4FF6FD731A400A430284AE
:1019F00070470022028C4FF6F7731A400A430284A4
:101A000070470022028C4FF6DF731A400B0542EA42
:101A10001342028470470022028C4FF67F731A40F3
:101A20000B0542EA1342028470470022028C4FF6F3
:101A3000FF531A400B0642EA134202847047002209
:101A4000028C4FF2FF731A400B0642EA13420284E3
:101A500070470022028C4DF6FF731A400B0742EAD2
:101A600013420284704730B5002301248C40A3B296
:101A7000048CDD43ADB22C400484048C02FA01F5E1
:101A8000ADB22C43048430BD30B5002304248C4017
:101A9000A3B2048CDD43ADB22C400484048C02FA62
:101AA00001F5ADB22C43048430BD70B50023002491
:101AB00003461846183301258D40ACB2058CE64329
:101AC000B6B23540058409B1082909D103EB610399
:101AD0001D6825F070051D601D6815431D600CE034
:101AE0000D1FADB203EB65031D6825F4E0451D60D5
:101AF0001D68160645EA16451D6070BD21B10288B5
:101B000042F00202028004E002884FF6FD731A40A0
:101B10000280704721B1028842F00402028004E092
:101B200002884FF6FB731A400280704721B1828809
:101B300042F08002828004E082884FF67F731A4070
:101B40008280704702884FF6F7731A40028002883D
:101B50000A430280704782884FF68F731A40828052
:101B600082880A438280704702894FF6F8731A40D0
:101B7000028102890A430281704702894FF67F730E
:101B80001A40028102890A430281704781847047AA
:101B900081857047818670470187704781877047CC
:101BA000A0F84010704702884FF6FF431A400280A9
:101BB00002880A43028070470146888E70470146BA
:101BC000088F70470146888F70470146B1F8400082
:101BD00070470146888C70470146088D7047024661
:101BE0000020138A0B4201D0012000E00020704742
:101BF000CA430282704730B5024600200023002409
:101C0000158A05EA0103958905EA010413B10CB1AF
:101C1000012000E0002030BDCA430282704700006E
:101C20000020474908604749C1F804044649086054
:101C300001F10401086045484549086070470021EA
:101C40003F498279002A43D03E4AD2F800240368F3
:101C50009A433C4BC3F800241A46D2F80424036884
:101C60009A4301F104031A60027911440A68036877
:101C700042EA03020A60334AD2F80824036822EADF
:101C80000302304BC3F808241A46D2F80C24036828
:101C900022EA03022F4B1A604279102A10D1294AF6
:101CA000D2F8082403681A43264BC3F808241A46BE
:101CB000D2F80C2403681A43224BC3F80C240DE01D
:101CC0001F49427911440A6803681A430A6005E013
:101CD000027911440A6803689A430A607047002138
:101CE000016001710C2141710021817170471A4915
:101CF000096841EA0001134AC2F81014704701460E
:101D00000020134A12680A4201D0012000E000209E
:101D100070470F4908607047014600200022084BB9
:101D20001B6803EA0102074BD3F814340B4202D0BC
:101D30000AB1012000E000207047054908607047A3
:101D4000000401400000014008040140FFFF0F00B3
:101D5000140401400C0401401004014001684FF6D6
:101D6000FE72114001600021016041608160C1602C
:101D70008749884208D186490839496841F00F01EE
:101D8000834A083A516088E081491431884208D179
:101D90007F490839496841F0F0017D4A083A5160AD
:101DA0007BE07B492831884208D179490839496864
:101DB00041F47061764A083A51606EE074493C31F2
:101DC000884208D172490839496841F47041704A23
:101DD000083A516061E06E495031884208D16C493F
:101DE0000839496841F47021694A083A516054E061
:101DF00067496431884208D165490839496841F426
:101E00007001634A083A516047E06149783188427D
:101E100008D15F490839496841F070615C4A083A65
:101E200051603AE05B49884208D1A0F10401096899
:101E300041F00F01584AC2F804142EE055491431FC
:101E4000884207D15549096841F0F001524AC2F869
:101E5000041422E04F492831884207D14F490968CC
:101E600041F470614C4AC2F8041416E049493C310F
:101E7000884207D14949096841F47041464AC2F88D
:101E800004140AE043495031884206D143490968A5
:101E900041F47021404AC2F80414704710B5002282
:101EA000026847F6F0739A430C6A8B6823430C6907
:101EB00023434C6923438C692343CC6923434C6AF5
:101EC00023438C6A23431A430260CB6843600B6848
:101ED00083604B68C36010BD002101604160816078
:101EE000C160016141618161C161016241628162E0
:101EF000704721B1026842F00102026004E002680A
:101F00004FF6FE731A40026070471AB103680B4324
:101F1000036002E003688B430360704741607047D1
:101F20000146486880B2704702460020002112F046
:101F3000805F02D01A4B196801E0174B19681142F3
:101F400001D0012000E00020704710F0805F02D037
:101F50001249086001E010494860704702460020BD
:101F6000002112F0805F02D00D4B196801E00A4B8E
:101F70001968114201D0012000E00020704710F0E4
:101F8000805F02D00549086001E00349486070475E
:101F9000080002400804024000000240040402401D
:101FA0000004024010B501210320FEF769FB012166
:101FB00040F27D20FEF771FB01211020FEF77AFB35
:101FC00001214CF20300FEF775FB10BD08B580201F
:101FD000ADF8000010208DF8030001208DF80200FC
:101FE0006946FF48FEF722FC00228021FC48FEF7EC
:101FF000CBFC08BD2DE9FE4F00240025002600275C
:1020000000200290804681468246019083460090DF
:102010000820009000BF0DE1302507EBC700C00588
:10202000040C002601E14FEAC60B4FF0000A77E0EE
:102030004FF0000967E04FF000085DE004EB090095
:10204000E84931F810004FEA480201219140084266
:1020500021D0009A02FB08F2921C09EB490302EB23
:1020600003123A4491B20BF1080290B2012300220C
:1020700000F002FC009A02FB08F2921C09EB4903F3
:1020800002EB03123A4491B20BF1090290B2012320
:10209000002200F0F1FB04EB0900D24931F81000F6
:1020A0004FEA480202219140084221D0009A02FBE7
:1020B00008F2921C09EB490302EB03123A4491B275
:1020C0000BF10A0290B20223002200F0D5FB009A25
:1020D00002FB08F2921C09EB490302EB03123A449B
:1020E00091B20BF10B0290B20223002200F0C4FB6C
:1020F00008F101001FFA80F8B8F1060F9EDB09F124
:1021000001001FFA80F9B9F1030F94DBE01C84B2DF
:102110000BF102001FFA80FB0AF101001FFA80FA9E
:10212000BAF1080F84DB4FEAC60B4FF0000A77E0E4
:102130004FF0000967E04FF000085DE004EB090094
:10214000A84931F810004FEA4802012191400842A5
:1021500021D0009A02FB08F2921D09EB490302EB21
:1021600003123A4491B20BF1080290B2012300220B
:1021700000F082FB009A02FB08F2921D09EB490372
:1021800002EB03123A4491B20BF1090290B201231F
:10219000002200F071FB04EB0900924931F81000B5
:1021A0004FEA480202219140084221D0009A02FBE6
:1021B00008F2921D09EB490302EB03123A4491B273
:1021C0000BF10A0290B20223002200F055FB009AA4
:1021D00002FB08F2921D09EB490302EB03123A4499
:1021E00091B20BF10B0290B20223002200F044FBEB
:1021F00008F101001FFA80F8B8F1060F9EDB09F123
:1022000001001FFA80F9B9F1030F94DBE01C84B2DE
:102210000BF102001FFA80FB0AF101001FFA80FA9D
:10222000BAF1080F84DBB01CC6B2AE42FFF6FBAEBB
:10223000781CC7B2042FFFF6EFAEBDE8FE8F70B575
:1022400000BF00250024FFF7ADFEFFF7BFFE00F042
:10225000BDFF4FF49051634801F082F900BF07E0E1
:10226000002401E0601C84B2642CFBDB681C85B296
:1022700042F210708542F3DB01205B4908700020B8
:102280005A49087001F0FBF800BF58480078002850
:10229000FBD001F0FAF8FFF7ADFE002508E00024BE
:1022A00001E0601C84B2B4F57A7FFADB681C85B269
:1022B0004CF250308542F2DB00F081FF01F04CF827
:1022C00000BFFEE72DE9F84F002400250026002777
:1022D000A046A146A246A346002000904FF0080B5E
:1022E00000BF8CE04FF0000A002582E04FF00008AC
:1022F0006CE000275CE0002656E00098384439493D
:1023000031F8100072000121914008421FD00BFBF0
:1023100006F2921C07EB470302EB0312224491B230
:102320000AF1080290B20123002200F0A5FA0BFB8B
:1023300006F2921C07EB470302EB0312224491B210
:102340000AF1090290B20123002200F095FA0098E8
:1023500038441830234931F81000720001219140AF
:1023600008421FD00BFB06F2921D07EB470302EB5E
:102370000312224491B20AF1080290B20123002212
:1023800000F07AFA0BFB06F2921D07EB470302EB13
:102390000312224491B20AF1090290B201230022F1
:1023A00000F06AFA701C86B2062EA6DB781C87B293
:1023B000032FA0DB0098C01C80B200900AF102003D
:1023C0001FFA80FA08F101001FFA80F8B8F1080F2F
:1023D0008FDB0098183080B2009005F1300007E0E4
:1023E00000080140540000202C0000202B00002099
:1023F00085B2B5F5906FFFF679AF601C84B2042CFE
:10240000FFF670AFBDE8F88F2DE9F04104460025D6
:1024100000270020844603FB01261FFA86FC66463F
:102420004FEAEC780CEB98784FEAA8054FEAEC7885
:102430000CEB98784FEAA808ACEB88084FEA48689C
:102440004FEA1867665D3E4106F00300BDE8F08183
:10245000704710B500F0D5F800BFFEE710B500F0EA
:10246000D0F800BFFEE710B500F0CBF800BFFEE7E4
:1024700010B500F0C6F800BFFEE770477047704720
:1024800010B500F04AFC10BD70470020654989680E
:10249000C1F30B01644A118064490968C1F3072143
:1024A000604AD2F8082802F00F0241EA02215E4A8F
:1024B00051805F49D1F8081801F03D015D4A12686A
:1024C000024641EA4201594A126802F0C00241EA5A
:1024D0000201C8B25849096801F00F0140EA012120
:1024E000514A91804FF6FE71544A1182704710B5DF
:1024F00000205349096811F4805F63D0514909787D
:1025000000295BD047498968C1F30B024E490B880B
:102510000988491C4C4C21804C4921F8132043491F
:102520000968C1F307213F4AD2F8082802F00F02D8
:1025300041EA022221460B88098801F1010121802C
:10254000424921F813203A49D1F8081801F03D0119
:10255000384A1268024641EA4201344A126802F0DF
:10256000C00241EA0201C8B23349096801F00F0113
:1025700040EA012221460B88098801F101012180EE
:10258000324921F8132021460988B1F5905F15D111
:102590002F4909780A2909D100212D4A11700121FA
:1025A0002C4A11700021274A117007E02849097848
:1025B000491C274A11700021234A11804FF4805191
:1025C0001F4A11601E49096811F4004F18D02249B2
:1025D000097889B11349896811F4804F0CD01149E9
:1025E000896811F4004F07D000211B4A1170164A68
:1025F00011800121134A11704FF40041104A1160FB
:1026000010BD1648006800F4E060154940EA01007A
:1026100000F104004FF0E021C1F80C0DBFF3408F32
:1026200000BFFEE7001001402E000020081401400A
:102630000000014008080140080C01400010004063
:10264000140401402A00002028000020540000202B
:102650002D0000202B0000202C0000200CED00E0BD
:102660000000FA050246002101E0491C521C1078C6
:102670000028FAD188B270470A8802804A884280CE
:102680008A888280CA88C28070472DE9F04F88B05E
:1026900048B1B0F800B08B440FFA8BF1B0F802B03B
:1026A00093440FFA8BF2DF08B3EBC70F00D97F1CFE
:1026B0004FEAD10BCDF814B0DDF814B0A1EBCB0B81
:1026C000CDF818B058B901EB030BBBF5C87F04DB9C
:1026D000C1F5C87B1FFA8BF610E09EB20EE001EB4D
:1026E000030BB0F904E08E44F34506DBB0F804B008
:1026F000ABEB010B1FFA8BF600E09EB20024B5E0B5
:1027000004EB020BBBF1950F02DD08B0BDE8F08FC2
:1027100002EB040B4FF0350E0BFB0EFB0BEBD10B5A
:10272000CDF810B0DDF850B0BBF1010F02D1DFF8E9
:102730004CC506E0DDF850B0BBF1020F01D1DFF867
:1027400040C5DDF810B0DC444FF0085E0EEB4C1BCA
:10275000DDF818E0CEF1070E0BEB8E084FF0085EA7
:102760000EEB4C1B0BF11C0BCDF808B0DDF848B09C
:1027700004FB07BBCDF800B09DB24FF0000BCDF8C5
:102780001CB000256CE008F0E009DDF81CB00BF18E
:10279000010E1FFA8EFECDF81CE0BBF1000F0BD12D
:1027A000DDF800B09BF800B0CDF80CB0DDF800B05B
:1027B0000BF1010BCDF800B0DDF81CB00BF0070BEE
:1027C000CDF81CB0DDF80CB01BF0800F02D04FF03C
:1027D000010A01E04FF0000ADDF84CB0BBF1000F38
:1027E00009D0BBF1010F09D0BBF1020F0DD0BBF135
:1027F000030F18D110E088F800A014E098F800B09A
:102800008BEA0A0B88F800B00DE098F800B00BEAEC
:102810000A0B88F800B006E098F800B04BEA0A0B03
:1028200088F800B000BF00BFA8F1040808F0E00B72
:10283000CDF804B0DDF804B0D94505D0DDF808B016
:102840000BF12008CDF80880DDF80CB04FEA4B6B97
:102850004FEA1B6BCDF80CB005F1010B1FFA8BF59D
:10286000B54290DB04F1010B1FFA8BF4DDF844B0A4
:102870005C45FFF645AF48E72DE9F041B0F5C87F6C
:1028800001DA962901DBBDE8F081C410A0EBC40792
:10289000BDB280272F41FEB222B1012A28D0022AE0
:1028A00072D14BE0012B10D135274F43DFF8D4C351
:1028B000674417F804C04CEA060C35274F43DFF88D
:1028C000C483474407F804C011E0022B0FD1352719
:1028D0004F43DFF8B4C3674417F804C04CEA060C52
:1028E00035274F43DFF8A083474407F804C04BE087
:1028F000012B10D135274F43DFF888C367443F5D74
:1029000077404FF0350C01FB0CFCDFF87883C444B2
:102910000CF8047011E0022B0FD135274F43DFF87C
:1029200068C367443F5D77404FF0350C01FB0CFCFA
:10293000DFF85483C4440CF8047025E0012B10D157
:1029400035274F43DFF83CC367443F5D37404FF0C6
:10295000350C01FB0CFCDFF82C83C4440CF804702C
:1029600011E0022B0FD135274F43DFF81CC367441A
:102970003F5D37404FF0350C01FB0CFCDFF808835E
:10298000C4440CF8047000BF00BF7CE72DE9F04F91
:1029900085B00C4615461E46301B07B20E98401BEC
:1029A0000FFA80F8002F01DA784207B2B8F1000F71
:1029B00003DAC8F100000FFA80F801200390A64264
:1029C00001DA801E0390012002900E98A84202DADC
:1029D0004FF0FF300290A246AB4647453CDD1FFA60
:1029E0008BF11FFA8AF0DDE90F23FFF745FFC7EBF4
:1029F000480000B20490A8EB0700400000B201902C
:102A00004FEA480000B200904FF0000921E004981E
:102A1000002809DB029858440FFA80FB04990198BA
:102A2000084400B2049004E000990498084400B2FD
:102A30000490039850440FFA80FA1FFA8BF11FFAA2
:102A40008AF0DDE90F23FFF717FF09F101000FFA04
:102A500080F9B945DBDB3AE01FFA8BF11FFA8AF007
:102A6000DDE90F23FFF708FFC8EB470000B2049031
:102A7000A7EB0800400000B20190780000B200907F
:102A80004FF0000921E00498002809DB0398504426
:102A90000FFA80FA01990498084400B2049004E007
:102AA00000990498084400B20490029858440FFA20
:102AB00080FB1FFA8BF11FFA8AF0DDE90F23FFF785
:102AC000DBFE09F101000FFA80F9C145DBDB05B03F
:102AD000BDE8F08F2DE9FE4304460D4616461F461D
:102AE000DDE90A8933462A46214600208DE8200385
:102AF000FFF74CFF33463A46214600208DE880031D
:102B0000FFF744FF23462A46214600208DE8800334
:102B1000FFF73CFF33462A46314600208DE880030C
:102B2000FFF734FFBDE8FE832DE9F04F86B0044681
:102B30000D4616461F462846FFF794FD00EB400061
:102B400040044FEA1048102E0DD0202E1BD1B4F9AE
:102B50000400404506DD2088A188A1EB0801084457
:102B600000B220800FE0B4F9040040450ADDB4F95A
:102B70000410A1EB080000EBD071228802EB610188
:102B800009B2218000BF00BF2846FFF76BFD8046D9
:102B90004FF0010A002005902EE015F8010B04907B
:102BA0000498202824DB0498203800EBC0001FFA8A
:102BB00080F9364800EB090B09200F9BCDE901B7DE
:102BC00003930090062300220FFA8AF12046FFF7B4
:102BD0005CFD0AF106001FFA80FAB4F90000B4F9AE
:102BE00004100844801F504502DC06B0BDE8F08F99
:102BF0000598401C80B2059005984045CDDBF4E770
:102C00002DE9F04F86B004460D4616461F46304665
:102C1000FFF728FD80461FFA84FB4FF0000929E0EA
:102C200016F8010B0590059820281FDB0598203821
:102C300000EBC0001FFA80FA1448504404900920A9
:102C40000F9B04998DE88300039306232A460FFA0D
:102C50008BF10020FFF719FD0BF106001FFA80FB36
:102C6000BBF5C87F02DB06B0BDE8F08F09F10100BB
:102C70001FFA80F9C145D3DBF5E70000542400605A
:102C80006443006054240020644300208836000818
:102C9000294909684FF47A72B1FBF2F1481EB0F18C
:102CA000807F01D301211CE020F07F41491E4FF0BD
:102CB000E022516100BF5117002905DA0F210901F7
:102CC0001E4A0B23D15404E00F2109011C4A53175B
:102CD000D15400BF00214FF0E02291610721116122
:102CE000002109B1002070470120FCE700201549B0
:102CF000086004E013480068401C1249086011484D
:102D00000068B0F57A7FF5D370470F49086000BFBF
:102D10000D4909680029FBD170470C480068401C28
:102D20000A4908600848006820B107480068401E4A
:102D300005490860704700000000002018ED00E021
:102D400000E400E0400000203C00002034000020AF
:102D5000F0B589B000240025002600274220ADF8F8
:102D6000200018208DF8230001208DF8220008A9EA
:102D7000FF48FDF75BFD4FF4006490250826002016
:102D8000ADF814001020ADF81600ADF81840002082
:102D9000ADF81A008DF81C0005A9F648FEF762F997
:102DA0007020ADF804000120ADF806000420ADF855
:102DB0000800ADF80A500220ADF80C000020ADF874
:102DC0000E00ADF81000A010ADF8120001A9E948FE
:102DD000FEF785F92020ADF80400ADF80A6001A9DE
:102DE000E448FEF7BEF98021E248FEF7C6FE202146
:102DF000E048FEF7B0FE05218807FEF7B5FE20216A
:102E00004806FEF7A0FC40F2712402261827002095
:102E1000ADF81400ADF81600ADF81840ADF81A0082
:102E20008DF81C0005A9A007FEF71CF97020ADF86D
:102E300004000120ADF806000420ADF80800ADF84C
:102E40000A600220ADF80C000020ADF80E00ADF8CD
:102E500010003002ADF8120001A94005FEF781F91B
:102E60002020ADF80400ADF80A7001A94006FEF775
:102E7000C1F901220821C806FEF740FC0122042105
:102E8000BC48FEF73BFC01218807FEF712FC01213C
:102E9000B848FEF70EFC09B0F0BD00B591B04FF494
:102EA0000040ADF8000018208DF8030003208DF8D5
:102EB00002006946B048FDF7B9FC0021AF48FDF7B4
:102EC0003DFFAF48FEF74AFFAC480C300190AD48DB
:102ED000029010200390352004900020059080205F
:102EE000069000200790089009904FF400500A9037
:102EF00000200B9001A9A248FEF7D0FF4FF44040FC
:102F0000ADF830004FF48270ADF832000020ADF81B
:102F10003400ADF836000120ADF838004002ADF8BD
:102F20003A000020ADF83C00ADF83E000720ADF8B7
:102F300040000CA99148FDF761FE00218F48FDF784
:102F400061FF01218D48FDF7F9FE8F48008840F0B0
:102F500002008E49A1F804088D48806D20F0010020
:102F60008B4988654FF03500C865864848664FF044
:102F700001024FF002018248FEF7C7FF2020ADF8A2
:102F8000000018208DF8030003208DF80200694628
:102F90007948FDF74BFC00217E48FDF7CFFE7E48C7
:102FA000FEF7DCFE7B480C3001907C48029010203C
:102FB000039035200490002005908020069000208A
:102FC0000790089009900A900B9001A97248FEF7AB
:102FD00065FF4FF44040ADF830004FF48270ADF81B
:102FE00032000020ADF83400ADF836000120ADF815
:102FF00038004002ADF83A000020ADF83C00ADF8D2
:103000003E000720ADF840000CA96248FDF7F6FD30
:1030100000216048FDF7F6FE01215E48FDF78EFEB7
:103020005A48B0F8040C40F002005849A1F8040CCA
:103030005748D0F81C0420F00100574908604FF0B1
:10304000350001F10401086054485149C1F82804D1
:103050004FF001024FF002014F48FEF756FF11B04A
:1030600000BD4F48006828B193204949886501F2A6
:103070001C4108604FF6FB704A49088070470120E8
:10308000474908604FF6F7704FF08041088270475B
:103090004548464908604FF092003D49C1F81C047C
:1030A0004FF03500C1F820043D4800F108000078D9
:1030B00000F101003A4901F1080108700846007862
:1030C00002282FD100200870081F0068401C091F2B
:1030D000086008460068042824D100200860A1F197
:1030E00008000088401C0839088008460088962897
:1030F0000DD10020091D0860091F088008310860F3
:103100002048234948662548294908600AE02048A4
:10311000406E35301E4948662548006800F135008C
:10312000C1F8280470474FF40030194948609220D4
:1031300088653520C8651A4808300078401C184951
:1031400008310870704710B5002035E000210CE010
:10315000002335224243114C22445354352242432A
:10316000084C224453544A1C91B23529F0DB21E02B
:103170000008014000040040000C014000380040FD
:1031800058000240644300200438004000300040F2
:1031900000000240003C00401C0402405424002077
:1031A00048000020100400402000001004040240E9
:1031B00028040240421C90B29628C7DB10BD10B50F
:1031C000FFF76BFEFFF7C4FD10BD000008B54FF41C
:1031D0000040ADF8000048208DF8030003208DF872
:1031E00002006946D848FDF721FB0F210020FDF7BA
:1031F0002EFC4FF48050ADF8000048208DF80300FD
:1032000003208DF802006946CF48FDF70FFB0C2123
:103210000020FDF71CFC4FF48070ADF80000482042
:103220008DF8030003208DF802006946C648FDF7BB
:10323000FDFA4FF44040ADF8000048208DF803003F
:1032400003208DF802006946C048FDF7EFFAC02060
:10325000ADF8000048208DF8030003208DF802002F
:103260006946BB48FDF7E2FAC020ADF800004820EF
:103270008DF8030003208DF802006946B548FDF77C
:10328000D5FA40F63D00ADF8000048208DF8030067
:1032900003208DF802006946AB48FDF7C7FA0F20FE
:1032A000ADF8000048208DF8030003208DF80200DF
:1032B0006946A848FDF7BAFA40F6FF70ADF800007D
:1032C00048208DF8030003208DF8020069469F48CE
:1032D000FDF7ACFA4FF6C070ADF8000048208DF84D
:1032E000030003208DF8020069469B48FDF79EFA13
:1032F0000F20ADF8000048208DF8030003208DF862
:10330000020069469248FDF791FA08BD1CB568466F
:10331000FEF7E5FC4FF40040009000208DF804001B
:1033200008208DF8050001208DF806006846FEF79C
:1033300086FC6846FEF7D3FC4FF4805000900020D6
:103340008DF8040008208DF8050001208DF8060096
:103350006846FEF774FC1CBD08B51C208DF8000003
:1033600002208DF8010000208DF8020001208DF868
:1033700003006846FDF7A5FB1D208DF80000022024
:103380008DF8010000208DF8020001208DF8030067
:103390006846FDF796FB0F208DF8000001208DF8A0
:1033A000010000208DF8020001208DF8030068461E
:1033B000FDF787FB39208DF8000001208DF8010012
:1033C00000208DF8020001208DF803006846FDF70B
:1033D00078FB08BD08B51C208DF8000002208DF890
:1033E000010000208DF802008DF803006846FDF70B
:1033F00068FB1D208DF8000002208DF801000020E0
:103400008DF802008DF803006846FDF75AFB0F2087
:103410008DF8000001208DF8010000208DF80200D9
:103420008DF803006846FDF74CFB39208DF800004D
:1034300001208DF8010000208DF802008DF80300B6
:103440006846FDF73EFB08BD08B528208DF8000052
:1034500000208DF801008DF8020001208DF8030096
:103460006846FDF72EFB36208DF8000001208DF810
:1034700001008DF803006846FDF723FB08BD10B579
:10348000FFF744FFFFF7E0FF10BD0EB501A8FEF700
:1034900026FC4FF40040019000208DF80800082021
:1034A0008DF8090000208DF80A0001A8FEF7C7FB7F
:1034B00001A8FEF714FC4FF48050019000208DF815
:1034C000080008208DF8090000208DF80A0001A8E6
:1034D000FEF7B5FB28208DF8000000208DF80100D4
:1034E0008DF802008DF803006846FDF7EAFA3620F1
:1034F0008DF8000001208DF8010000208DF80300F8
:103500006846FDF7DEFA0EBD0EB501211020FDF76D
:10351000D1F80120ADF804004720ADF800000020EC
:10352000ADF806001020ADF8020069460B48FDF723
:1035300099FD012211460948FEF7E0F801210748EC
:10354000FEF7B7F80EBD0000000801400010014072
:1035500000180140000C0140001401400010004020
:103560004FF000020429C0F0128010F0030C00F0AC
:103570001E80CCF1040CBCF1020F18BF00F8012B27
:10358000A8BF20F8022BA1EB0C0100F010B85FEAF5
:10359000C17C24BF00F8012B00F8012B48BF00F8C4
:1035A000012B70477047704770474FF0000200B51D
:1035B000134694469646203922BFA0E80C50A0E856
:1035C0000C50B1F12001BFF4F7AF090728BFA0E804
:1035D0000C5048BF0CC05DF804EB890028BF40F8D0
:1035E000042B08BF704748BF20F8022B11F0804F12
:1035F00018BF00F8012B7047754600F029F8AE4659
:1036000005006946534620F00700854618B020B5EE
:10361000FCF7ECFDBDE820404FF000064FF000073E
:103620004FF000084FF0000B21F00701AC46ACE86A
:10363000C009ACE8C009ACE8C009ACE8C0098D46D7
:1036400070470446AFF300802046FCF7BAFD000047
:1036500000487047746200200148704770470000BE
:103660007862002003494FF01800ABBE704700009D
:103670000900000026000200704710B5FFF7ECFFBC
:103680004FF00001016010BD0000000000000000CC
:1036900000002020202020002000005050000000CA
:1036A000000000000050F850F8500000002078A002
:1036B0007028F0200000C8D020202058980000205A
:1036C000502040A89870000020202000000000003A
:1036D0000020408080804020000020100808081052
:1036E00020000000A870F870A8000000002020F85A
:1036F000202000000000000000202040000000000A
:103700000070000000000000000000000020000029
:10371000101020202040400000708888A888887001
:103720000000602020202020700000708808708039
:1037300080F8000070880830088870000010305051
:1037400090F810100000F08080F0088870000030C1
:103750004080B0C888700000F808102040808000C9
:103760000070888870888870000070888878088861
:1037700070000000303000303000000000303000B9
:103780003030600000102040804020100000000019
:10379000F800F80000000040201008102040000051
:1037A0007088081020002000007088B8A8B88078C1
:1037B000000070888888F888880000F08888F08881
:1037C00088F00000708880808088700000F0888811
:1037D000888888F00000F88080F08080F80000F889
:1037E0008080F08080800000708880B888887000B9
:1037F00000888888F8888888000070202020202091
:103800007000000808080888887000008890A0C030
:10381000A090880000808080808080F8000088D898
:10382000A888888888000088C8A8988888880000A8
:10383000708888888888700000F08888F080808090
:10384000000070888888A890680000F08888F0A040
:1038500090880000708880700888700000F8202030
:1038600020202020000088888888888870000088B0
:10387000888888885020000088888888A8A87000D8
:103880000088885020508888000088888850202030
:10389000200000F80810204080F8000070404040F0
:1038A00040407000004040202020101000007010A8
:1038B0001010101070000020508000000000000068
:1038C000000000000000F8000020201000000000B0
:1038D0000000000070087898680000008080F08880
:1038E00088F00000000078808080780000000808E0
:1038F00078888878000000007088F08070000030C0
:103900004040604040400000000078887808700027
:1039100000000000000000000000000000000000A7
:103920000000000000000000000000000000000097
:103930000000000000000000000000000000000087
:103940000000000000000000000000000000000077
:103950000000000000000000000000000000000067
:103960000000000000000000000000000000000057
:103970000000000000000000000000000000000047
:103980000000000000000000000000000000000037
:103990000000000000000000000000000000000027
:1039A0000000000000000000000000000000000017
:1039B0000000000000000000000000000000000007
:1039C00000000000000000000000000000000000F7
:1039D00000000000000000000000000000000000E7
:1039E0000000000000000000083A0008000000206D
:1039F000540000006C0100085C3A000854000020EC
:103A000084EE00008801000800A24A0400000000C3
:103A1000000000000102030406070809000000007E
:103A20000102030401020304060708090204060850
:103A30000000000000000000000000000000000086
:103A4000046C0040000000000000000000000000C6
:0C3A50000000000000000000000000006A
:0400000508000131BD
:00000001FF
