:020000040800F2
:1000000048960020ED010008D5130008D71300081A
:10001000DB130008DF130008E313000800000000F2
:10002000000000000000000000000000E7130008CE
:10003000E913000800000000EB130008ED130008AE
:10004000070200080702000807020008070200086C
:10005000070200080702000807020008F51300085D
:10006000070200080702000807020008070200084C
:10007000070200080702000807020008070200083C
:10008000070200080702000807020008070200082C
:10009000070200080702000807020008F31300081F
:1000A000070200080702000807020008070200080C
:1000B00007020008070200080702000807020008FC
:1000C00007020008070200080702000807020008EC
:1000D00007020008EF1300080702000807020008E3
:1000E00007020008070200080702000807020008CC
:1000F00007020008070200080702000807020008BC
:1001000007020008070200080702000807020008AB
:10011000F113000807020008F7130008070200089F
:10012000070200080702000807020008070200088B
:1001300000F002F800F03AF80AA090E8000C8244BF
:100140008344AAF10107DA4501D100F02FF8AFF29C
:10015000090EBAE80F0013F0010F18BFFB1A43F0A5
:1001600001031847F44B0000144C0000103A24BF60
:1001700078C878C1FAD8520724BF30C830C144BF0C
:1001800004680C607047000000230024002500264E
:10019000103A28BF78C1FBD8520728BF30C148BFEA
:1001A0000B6070471FB51FBD10B510BD04F0E1FA1C
:1001B0001146FFF7F7FF04F025FA04F0FFFA03B445
:1001C000FFF7F2FF03BC04F003FB0000EFF309802C
:1001D000704780F309887047EFF30880704780F319
:1001E0000888704740BA7047C0BA704709488047CE
:1001F00009480047FEE7FEE7FEE7FEE7FEE7FEE709
:10020000FEE7FEE7FEE7FEE704480549054A064B20
:10021000704700000B03000831010008480E002061
:1002200048960020488E0020488E00200CB5002003
:10023000019000906C48006840F480306A49086082
:1002400000BF6948006800F4003000900198401C2D
:100250000190009818B90198B0F5A06FF1D16248EB
:10026000006800F4003010B10120009001E000208F
:1002700000900098012843D15C48006840F01000CD
:100280005A4908600846006820F0030008600846E4
:10029000006840F0020008605348406852494860D6
:1002A0000846406848600846406840F480604860FE
:1002B0000846406820F47C1048600846406840F4D6
:1002C000E81048600846006840F08070086000BF91
:1002D0004548006800F000700028F9D042484068A6
:1002E00020F00300404948600846406840F00200A2
:1002F000486000BF3C48406800F00C000828F9D175
:100300000CBD10B5FFF792FF10BD10B53648006860
:1003100040F001003449086008464068344908400C
:100320003149486008460068324908402E49086053
:100330000846006820F4802008600846406820F4E1
:10034000FE0048604FF41F008860FFF7DAFF4FF0AF
:1003500000602949086010BD10B50021002000226E
:10036000214B5B6803F00C0121B1042906D0082958
:1003700028D107E0214B224C236027E01F4B204C63
:10038000236023E0184B5B6803F47010164B5B6826
:1003900003F48032022303EB904022B9194B43430C
:1003A000174C23600DE0104B5B6803F4003323B15E
:1003B000144B4343124C236003E0104B4343104C57
:1003C000236003E00D4B0E4C236000BF00BF064BC3
:1003D0005B68C3F303130C4CE15C094B1B68CB4017
:1003E000074C236010BD00000010024000200240B6
:1003F0000000FFF8FFFFF6FE08ED00E000127A00B3
:100400000000002000093D0004000020DF480068D3
:1004100040F00100DD49086008464068DC490840BA
:10042000DA49486008460068DA490840D749086058
:100430000846006820F4802008600846406820F4E0
:10044000FE0048604FF41F0088607047CF4909687C
:1004500021F48031CD4A11601146096821F48021D0
:100460001160B0F5803F03D0B0F5802F0ED106E0CB
:10047000C649096841F48031C44A116007E0C349A4
:10048000096841F4A021C14A116000E000BF00BF2B
:10049000704710B501460022002300204A11012AAE
:1004A00002D1BA4C236806E0022A02D1B74C236A73
:1004B00001E0B64C636A01F01F02012494401C4025
:1004C0000CB1012000E0002010BD38B500200090E4
:1004D0000024002500BF3120FFF7DBFF0546009810
:1004E000401C00900098B0F5A06F01D0002DF2D014
:1004F0003120FFF7CEFF08B1012400E000242046A0
:1005000038BD01460020A14A106820F0F80040EAFA
:10051000C10010607047A049086070470246002083
:100520009A4B586820F47C1042EA01031843974B19
:100530005860704798490866704701460020934A02
:10054000506820F003000843506070478F484068AF
:1005500000F00C007047014600208C4A506820F0E3
:10056000F00008435060704701460020874A5068F9
:1005700020F4E06008435060704701460020834A41
:10058000506820F4605040EAC1005060704729B1C3
:100590007E4A527A02437D4B5A7204E07B4A527A79
:1005A00082437A4B5A7270477B49D8310860704752
:1005B00001460020754A506820F4404008435060CE
:1005C00070470021714A20321170704A82F8201061
:1005D000012802D004280AD104E001216B4A20320C
:1005E000117005E00521694A2032117000E000BF5A
:1005F00000BF70476949086070476449096A014350
:10060000624A11627047654944390860704730B5E5
:1006100000210022002400235C4D6D6805F00C01D0
:1006200021B1042905D0082923D105E05C4D0560DE
:1006300022E05B4D05601FE0544D6D6805F47012BB
:10064000524D6D6805F48034022505EB92421CB9C9
:10065000544D554305600BE04C4D6D6805F4003575
:100660001DB1504D5543056002E04D4D55430560A9
:1006700002E04B4D056000BF00BF444D6D6805F0C2
:10068000F0010909484D6B5C0568DD4045603F4D50
:100690006D6805F4E061090A434D6B5C4568DD4017
:1006A00085603A4D6D6805F46051C90A3E4D6B5C3A
:1006B0004568DD40C560354D6D6805F44041890BE6
:1006C0003A4D6B5CC568B5FBF3F5056130BD29B1EA
:1006D0002E4A526902432D4B5A6104E02B4A52695B
:1006E00082432A4B5A61704729B1284A92690243D2
:1006F000264B9A6104E0254A92698243234B9A6112
:10070000704729B1214AD2690243204BDA6104E0E3
:100710001E4AD26982431D4BDA61704729B11B4AD8
:10072000D2680243194BDA6004E0184AD268824367
:10073000164BDA60704729B1144A12690243134B11
:100740001A6104E0114A12698243104B1A61704722
:1007500012494039086070470F49C86470470B4917
:10076000C87170470948406A40F080700749486284
:10077000704701460020054A92680A400AB10120EC
:1007800000E0002070470149887270470010024065
:100790000000FFF8FFFFF6FE0000424280044242E4
:1007A00000127A0000093D001400002024000020FF
:1007B00010B50446BE48844208D101218014FFF7D9
:1007C000ADFF0021A014FFF7A9FF16E0B94884424D
:1007D00008D101210014FFF7AEFF00212014FFF71C
:1007E000AAFF0AE0B448844207D10121C013FFF7F1
:1007F000A2FF0021E013FFF79EFF10BD10B50022FD
:10080000028802F441520B884C8823438C8823438E
:10081000CC8823430C8923434C8923438C8923436D
:10082000CC8923431A430280838B4FF2FF74234009
:1008300083830B8A038210BD2DE9F04F85B00546F6
:100840000C464FF0000902274FF000084FF0010B53
:100850000026B246A88B4FF240010840A883022030
:100860002884B5F81C90A068022801D100BF38E0A8
:10087000A08810B94FF0010B01E04FF0020B8D483A
:10088000854200D100E000BF6846FFF7C0FEDDF8FA
:1008900000A0E088B0F5007F0AD14FEA1A2000EBF3
:1008A00080004000A168B0FBF1F0401D86B20BE073
:1008B0004FEA4B10BAFBF0F000EB80004000A1685B
:1008C000B0FBF1F0401D86B20A20B6FBF0F606F050
:1008D0000108A6EB0800C0F34F074FF6FF7000EACF
:1008E0000828022F01DBFF2F02DD02274FF000084E
:1008F000E08840EA080038432884A088A18908439A
:10090000618808432188084340F4006040EA0909EF
:10091000A5F81C9005B0BDE8F08F00210180418052
:100920008180C180018141818181C1810721018252
:1009300070470021018041808180C1800221816057
:1009400000218181704721B1028842F0400202807B
:1009500004E002884FF6BF731A400280704721B14D
:10096000828B42F48062828304E0828B4FF6FF33F5
:100970001A408283704730B5002400230C110125F2
:10098000A540ABB21AB185881D43858002E08588F9
:100990009D43858030BD1AB183880B43838002E07C
:1009A00083888B43838070478181704701468889A3
:1009B00070474FF6FF62914204D0028842F4807281
:1009C000028004E002884FF6FF631A4002807047FD
:1009D00021B1828842F00402828004E082884FF6CE
:1009E000FB731A408280704702884FF2FF731A40EF
:1009F000028002880A4302807047018841F48051D6
:100A00000180704721B1028842F40052028004E064
:100A100002884DF6FF731A4002807047024600209C
:100A2000012901D0108B00E0908A70470146088AA6
:100A30007047B1F5804F04D1028842F480420280B1
:100A400004E002884BF6FF731A40028070470246AA
:100A5000002013890B400BB1012000E000207047FB
:100A6000CA4302817047F0B50246002000240023EB
:100A7000002501F00F070126BE40B4B20B1101267C
:100A80009E40B3B2968806EA03051689264016B141
:100A90000DB1012000E00020F0BD10B5002201F0F2
:100AA0000F040123A3409AB2D343038110BD000079
:100AB0000030014000380040003C0040014600206A
:100AC000FE4A106800F03800084310607047FB4988
:100AD000096821F00801F94A1160114609680143CB
:100AE00011607047F549096821F01001F34A11605F
:100AF00011460968014311607047F148EF494860A9
:100B0000F04848607047EE48EC494860ED4848605E
:100B10007047EA48006940F08000E8490861704782
:100B2000E648006940F08000E4490861704704200D
:100B3000E249C96801F0010109B101200EE0DF4975
:100B4000C96801F0040109B1022007E0DB49C96866
:100B500001F0100109B1032000E00420704700B546
:100B600002460423FFF7E3FF034603E0FFF7DFFF3E
:100B70000346521E012B01D1002AF7D102B90523E9
:100B8000184600BD30B5044604254FF43020FFF769
:100B9000E6FF0546042D17D1C848006940F0020061
:100BA000C649086108464461006940F04000086198
:100BB0004FF43020FFF7D3FF0546C048006941F6E7
:100BC000FD710840BD490861284630BD10B50424B8
:100BD0004FF43020FFF7C3FF0446042C16D1B7486A
:100BE000006940F00400B54908610846006940F01A
:100BF000400008614FF43020FFF7B1FF0446AF48D2
:100C0000006941F6FB710840AC490861204610BDFF
:100C100000B502460423FFF78AFF034603E0FFF70F
:100C200086FF0346521E012B01D1002AF7D102B9DB
:100C30000523184600BD10B504244FF43020FFF7FB
:100C4000E7FF0446042C16D19C48006940F00400DC
:100C50009A4908610846006940F0400008614FF475
:100C60003020FFF7D5FF04469448006941F6FB7138
:100C7000084092490861204610BD00208F49C9698B
:100C800001F0020109B1012000E00020704730B5F9
:100C9000A5250424FFF7F1FF00B100254FF4302013
:100CA000FFF75DFF0446042C3AD1854883498860EC
:100CB000844888600846006940F0200008610846C2
:100CC000006940F0400008614FF43020FFF747FF13
:100CD0000446042C1BD17948006941F6DF710840B5
:100CE000764908610846006940F0100008617648BE
:100CF0000580E002FFF733FF0446052C10D06F4853
:100D0000006941F6EF7108406C49086108E0052C64
:100D100006D06A48006941F6EF71084067490861EA
:100D2000204630BD78B506460C46042500200090CC
:100D3000E802FFF714FF0546042D24D15F4800693F
:100D400040F001005D4908613480E802FFF707FFC9
:100D50000546042D10D1B01C0090200C009908808D
:100D6000E802FFF7FCFE05465448006941F6FE71B3
:100D700008405249086106E05048006941F6FE719A
:100D800008404E490861284678BD70B504460D46B6
:100D90000426F002FFF7E3FE0646042E11D1474871
:100DA000006940F00100454908612580F002FFF725
:100DB000D6FE06464148006941F6FE7108403F49AB
:100DC0000861304670BD70B505460E460424E00249
:100DD000FFF7C5FE0446042C17D13948374988600F
:100DE000384888600846006940F0100008612E808D
:100DF000E002FFF7B4FE0446052C06D02F48006938
:100E000041F6EF7108402D490861204670BD2DE97B
:100E1000F04304464FF6FF763746B046B146042508
:100E2000E443E6B2C4F30727C4F307484FEA146962
:100E3000E802FFF794FE0546042D49D120481F49DA
:100E40008860204888600846006940F0100008610A
:100E5000FF2E06D01C4808300680E802FFF77FFE10
:100E60000546042D08D1FF2F06D017480A30078009
:100E7000E802FFF774FE0546042D0AD1B8F1FF0F12
:100E800007D011480C30A0F80080E802FFF767FE99
:100E90000546042D0AD1B9F1FF0F07D00A480E30DC
:100EA000A0F80090E802FFF75AFE0546052D0FD086
:100EB0000248006941F6EF71084007E00020024057
:100EC00023016745AB89EFCD00F8FF1F6649086134
:100ED0002846BDE8F08330B5054604244FF43020A1
:100EE000FFF73DFE0446042C41D160485E4988600E
:100EF0005F4888600846006940F0200008610846A5
:100F0000006940F0400008614FF43020FFF727FEF1
:100F10000446042C22D15448006941F6DF71084090
:100F2000514908610846006940F0100008611DB190
:100F300000205049088002E0A5204E4908804FF467
:100F40003020FFF70CFE0446052C10D046480069FF
:100F500041F6EF7108404449086108E0052C06D0CD
:100F60004148006941F6DF7108403F490861204669
:100F700030BDF0B505460E46174604243B483A49B5
:100F800088603B488860E002FFF7E9FD0446042CD6
:100F900019D13548006940F010003349086147F025
:100FA000F800304328433349891C0880E002FFF7EA
:100FB000D6FD0446052C06D02B48006941F6EF719A
:100FC0000840294908612046F0BD2748C0698008CB
:100FD00070472548006A704700202349096801F0DE
:100FE000200109B1012000E00020704729B11E4A0C
:100FF000126902431C4B1A6104E01B4A12698243C6
:10100000194B1A61704701460020012908D1164A80
:10101000D26902F001020AB1012008E0002006E0D6
:10102000114AD2680A400AB1012000E0002070474E
:101030000D49C860704704200B49C96801F00101DF
:1010400009B101200EE00849C96801F0040109B1A5
:10105000022007E00449C96801F0100109B103202A
:1010600000E0042070470000002002402301674593
:10107000AB89EFCD00F8FF1F10B50446CC48844281
:1010800008D101210420FFF749FB00210420FFF7CC
:1010900045FB46E0C748844208D101210820FFF7FC
:1010A0003DFB00210820FFF739FB3AE0C2488442AB
:1010B00008D101211020FFF731FB00211020FFF79C
:1010C0002DFB2EE0BD48844208D101212020FFF7EE
:1010D00025FB00212020FFF721FB22E0B8488442B5
:1010E00008D101214020FFF719FB00214020FFF724
:1010F00015FB16E0B348844208D101218020FFF798
:101100000DFB00218020FFF709FB0AE0AE48844276
:1011100007D101218015FFF701FB0021A015FFF782
:10112000FDFA10BD10B501210846FFF7F7FA0021BE
:101130000120FFF7F3FA10BD2DE9F041024600252A
:101140000026002000230024002791F803C00CF0A3
:101150000F0591F803C00CF0100CBCF1000F03D088
:1011600091F802C04CEA050591F800C0BCF1000FEF
:1011700031D0146800202BE04FF0010C0CFA00F382
:10118000B1F800C00CEA03069E4220D183004FF064
:101190000F0C0CFA03F7BC4305FA03FC4CEA0404F9
:1011A00091F803C0BCF1280F06D14FF0010C0CFAE6
:1011B00000FCC2F814C00AE091F803C0BCF1480F6B
:1011C00005D14FF0010C0CFA00FCC2F810C0401C15
:1011D0000828D1D31460B1F800C0BCF1FF0F34DD92
:1011E000546800202EE000F1080C4FF0010808FAC6
:1011F0000CF3B1F800C00CEA03069E4221D1830033
:101200004FF00F0C0CFA03F7BC4305FA03FC4CEA51
:10121000040491F803C0BCF1280F05D100F1080CBB
:1012200008FA0CF8C2F8148091F803C0BCF1480F1A
:1012300007D100F1080C4FF0010808FA0CF8C2F8C9
:101240001080401C0828CED35460BDE8F0814FF6D2
:10125000FF710180022181700421C1707047024634
:10126000002093680B400BB1012000E00020704784
:101270000146886880B2704702460020D3680B4060
:101280000BB1012000E0002070470146C86880B221
:10129000704701617047416170470AB1016100E028
:1012A00041617047C16070474FF480320A438261E8
:1012B0008161826182698269704702460020434BE6
:1012C00018684FF68073184040EA021008433F4BFD
:1012D000186070473E49C8617047F0B50A46002360
:1012E00000240021002500F00046B6F1004F02D195
:1012F000364EF16901E0354E7168C0F3034583B2A3
:1013000000F44016B6F5401F08D121F070612F4E51
:10131000766826F070662D4F7E6012E000F480162D
:10132000B6F5801F06D1032606FA05F4A14341F065
:10133000706106E0460D360103FA06F6B14341F04E
:10134000706122B1460D360103FA06F6314300F012
:101350000046B6F1004F02D11C4EF16101E01B4E78
:101360007160F0BD30B500228B071C0F0F2303FA0C
:1013700004F2164B08338C1053F824309343134C6B
:1013800008348D1044F8253023468C1053F824304F
:101390008C07240F00FA04F423430C4C08348D10FE
:1013A00044F8253030BD0A49DC3108607047000040
:1013B00000080140000C01400010014000140140F1
:1013C00000180140001C01400020014000000140C5
:1013D00000002042704700F00FF800F00DF800F018
:1013E0000BF800F009F87047704770477047704776
:1013F00070477047704770470648006800F4E06027
:1014000005490843001D03490860BFF3408F00BF32
:10141000FEE700000CED00E00000FA0510B5024602
:10142000802A01DA10461BE051B1FF2A01DD0023BA
:1014300004E0A2F18003164C34F8133018460FE094
:10144000002007E0124B33F81030934200D103E044
:10145000431C98B28028F5DB00BF00F18003D8B2AE
:1014600010BD0246002100E0491C0A4830F8110076
:1014700020B1084830F811009042F5D1054830F805
:10148000110018B1044830F8110070471046FCE70D
:10149000DE470008DE480008BE4A00080146F74A59
:1014A000108811B940F0380003E020F0380242F013
:1014B0002800F24B1880704770B50446002542F2B0
:1014C0001070EF49086004E0ED480068401EEC49E8
:1014D00008608021E948FFF7BAFA18B1E8480068C7
:1014E0000028F1D12146E548FFF75EFA42F210707C
:1014F000E349086004E0E2480068401EE0490860F3
:101500000221DE48FFF7A3FA18B9DD480068002879
:10151000F1D142F21070DA49086004E0D84800685E
:10152000401ED74908600121D448FFF790FA18B946
:10153000D34800680028F1D1D048FFF737FAC5B288
:10154000284670BD10B5FF20FFF7B6FF10BD10B5DF
:10155000CC48CD490860FFF7F5FF044600BFFFF710
:10156000F1FF0446C8480068401EC7490860FF2CC8
:1015700003D0084600680028F1D1204610BD10B500
:101580000120C2490860FFF7DDFF10BD70B50446B9
:101590000E4642F22830BE49086000BFFFF7D2FF76
:1015A0000546BB480068401EB9490860FF2D03D1BD
:1015B000084600680028F1D1FE2D01D0002070BD42
:1015C00000BFFF20FFF778FF04F8010BFF20FFF7B3
:1015D00073FF04F8010BFF20FFF76EFF04F8010B07
:1015E000FF20FFF769FF04F8010B301F80B20600EF
:1015F000E7D1FFF7A7FFFFF7A5FF0120DFE72DE900
:10160000F04104460D46FFF7A2FFFF2802D000205C
:10161000BDE8F0812846FFF74FFFFD2D1CD00027C5
:1016200000BF14F8010BFFF747FF14F8010BFFF799
:1016300043FF781EC0B20700F3D1FF20FFF73CFF45
:10164000FF20FFF739FFFFF77DFF064606F01F007A
:10165000052801D00020DBE70120D9E72DE9F04182
:1016600004460D46012089490860091D0860FFF7FE
:101670006EFFFF2802D0FF20BDE8F08104F080005B
:1016800050B104F07F0400217720FFF7E7FF064602
:10169000012E01DD3046EFE72046FFF70DFF280E53
:1016A000FFF70AFFC5F30740FFF706FFC5F3072062
:1016B000FFF702FFE8B2FFF7FFFE0127402C00D141
:1016C0009527482C00D187273846FFF7F5FE4C2C8C
:1016D00001D1FFF737FFC82700BFFFF733FF0646EA
:1016E00006F0800018B1781EC0B20700F5D1304670
:1016F000C2E72DE9F8438046B8F1000F02D001207F
:10170000BDE8F8836348007800F0020010B161483A
:101710000078F5E701205D4908600020FFF7BEFE74
:101720000C2402E0FFF70EFF641E002CFAD1002704
:1017300000214020FFF792FF012863D142F2080503
:101740004FF4D5714820FFF789FF01283CD100BF35
:1017500004E0FFF7F7FE0DF80400641C042CF8D336
:101760009DF8020001284DD19DF80300AA2849D117
:101770004FF4FA6500BF6D1E002400E0641CB4F550
:101780007A7FFBD335B14FF08041E920FFF766FF48
:101790000028F0D1002D35D000217A20FFF75EFF20
:1017A00080BB002404E0FFF7CDFE0DF80400641CAC
:1017B000042CF8D39DF8000000F0400008B10C2084
:1017C00000E0042007461DE00021E920FFF746FF66
:1017D000012802DC0227E92601E00127412642F226
:1017E000080500BF6D1E2DB100213046FFF736FF02
:1017F0000028F7D12DB14FF400715020FFF72EFFD4
:1018000000B10027244807700120204908604FB12B
:101810002048007820F001001E4908700120FFF7E1
:101820003DFE02E001201B4908701A48007867E776
:101830002DE9F04107460D4616461C4607B914B976
:101840000420BDE8F0811348007800F0010008B1E1
:101850000320F6E71048007800F0080000B976028F
:10186000012C1BD131465120FFF7F8FE70BB6102FD
:101870002846FFF78BFE48B3002427E000300140E4
:101880002C000020504001003000002010080140D2
:10189000340000202800002029000020314652207A
:1018A000FFF7DCFE90B900BF4FF400712846FFF748
:1018B0006DFE00B905E005F50075601EC0B20400BC
:1018C000F2D100BF00214C20FFF7C8FE01206F4974
:1018D000086004B1B5E70020B3E72DE9F041074601
:1018E0000D4616461C4607B914B90420BDE8F08120
:1018F0006748007800F0010008B10320F6E764486B
:10190000007800F0040008B10220EFE76148007899
:1019100000F0080000B97602012C0BD131465820A6
:10192000FFF79CFE40BBFE212846FFF768FE18B378
:10193000002421E05748007800F0060018B1214645
:10194000D720FFF78BFE31465920FFF787FE98B965
:1019500000BFFC212846FFF752FE00B905E005F55F
:101960000075601EC0B20400F3D100BFFD2100204D
:10197000FFF745FE00B9012401204449086004B185
:10198000B4E70020B2E770B505460DB1012070BD87
:101990003F48047804F0010060B900214D20FFF7B2
:1019A0005DFE00B10124FF20FFF786FD0646012001
:1019B00036490860364804702046E8E72DE9FF47BD
:1019C00081460E4615464846FFF7DDFF00F0010050
:1019D00018B1032004B0BDE8F087012726B1012E1D
:1019E00007D0032E49D144E0012028490860002790
:1019F00045E000214920FFF731FEC8BB10216846B1
:101A0000FFF7C4FDA0B39DF800000121B1EBA01FBA
:101A10000AD19DF809009DF8081000EB0120401C38
:101A200084B2A002286022E09DF8050000F00F00BB
:101A30009DF80A1000EBD1109DF8091001F0030188
:101A400000EB410000F102089DF8080080119DF8AC
:101A5000071000EB81009DF8061001F0030100EB78
:101A60008120441CA8F1090004FA00F02860002736
:101A700005E080202860002701E0042700BF00BFA8
:101A80000120024908603846A4E770471008014069
:101A90002800002029000020F648704770B5034652
:101AA0000C4603E014F8015B03F8015B1500A2F19A
:101AB0000102F7D170BD30B5034601E003F8011B08
:101AC0001400A2F10102F9D130BDF0B503461C4665
:101AD0000D46002000BF1600A2F1010207D014F845
:101AE000017B15F801CBA7EB0C063000F3D0F0BD5D
:101AF000024600E0521C107810B110788842F9D1EB
:101B0000107870472DE9F04104460D46E66AAE4272
:101B10002FD0207908B360780123324604F13001D8
:101B2000FFF7DBFE10B10120BDE8F081002020713D
:101B3000D4E907100844B0420FD9E7780AE0E06919
:101B4000064460780123324604F13001FFF7C5FEF8
:101B5000781EC7B2012FF2DC00BF55B160780123B7
:101B60002A4604F13001FFF763FE08B10120DBE7EC
:101B7000E5620020D8E770B5044600212046FFF753
:101B8000C1FF0546002D59D1207803284FD1607937
:101B900000284CD00020E0624FF40072002104F1D4
:101BA0003000FFF788FF552184F82E12AA2184F80F
:101BB0002F12522084F8300052213120015561212A
:101BC00032200155412133200155722184F814122D
:101BD00084F81512412184F81612612184F8171235
:101BE000217C84F81812208A010A84F819122069CD
:101BF000010C84F81A122069010E84F81B12217B53
:101C000084F81C12A089010A84F81D12E068010CF6
:101C100084F81E12E068010E84F81F126078012318
:101C200004F130016269FFF758FE002060716078AE
:101C300000221146FFF7C2FE00B10125284670BD03
:101C40000246891E9069801E884201D80020704794
:101C50009378906A01FB0300F9E72DE9F04105460E
:101C60000C46022C02D3A869A04202D80120BDE88C
:101C7000F0812878012804D002282CD003285AD1DA
:101C80003DE0274607EB5707286A00EB5721284617
:101C9000FFF738FF00B14EE0C7F3080105F130004F
:101CA00010F801807F1C286A00EB57212846FFF7B7
:101CB00029FF00B13FE0C7F3080105F13000405CA7
:101CC00048EA002804F0010010B14FEA1810CEE7EE
:101CD000C8F30B00CBE7286A00EB14212846FFF776
:101CE00011FF00B127E040F2FF1000EA440105F1C6
:101CF00030000E183078717840EA0120B7E7286A82
:101D000000EBD4112846FFF7FDFE00B113E040F2CE
:101D1000FF1000EA840105F130000E18F07800068B
:101D2000B17840EA0140717840EA012031780843F7
:101D300020F070409BE700BF4FF0FF3097E72DE9A0
:101D4000F04705460E461746022E02D3A869B04258
:101D500002D84FF002088AE02878012804D002282F
:101D600041D003287DD154E0B14609EB5909286AD6
:101D700000EB59212846FFF7C5FE8046B8F1000F59
:101D800000D071E0C9F3080105F130000C1806F02D
:101D9000010020B1F9B2207861F31F1000E038464D
:101DA000207009F1010901202871286A00EB5921EE
:101DB0002846FFF7A7FE8046B8F1000F00D053E099
:101DC000C9F3080105F130000C1806F0010010B14C
:101DD000C7F3071005E0207800F0F000C7F30321F7
:101DE0000843207040E0286A00EB16212846FFF7E0
:101DF00089FE8046B8F1000F00D035E040F2FF10B8
:101E000000EA460105F130000C182770380A6070AE
:101E10002AE0286A00EBD6112846FFF773FE8046B9
:101E2000B8F1000F00D01FE040F2FF1000EA860179
:101E300005F130000C18E0780006A17840EA014076
:101E4000617840EA01202178084300F070400743A0
:101E50002770380A6070380CA070380EE07003E00C
:101E6000FFE74FF0020800BF00BF01202871404685
:101E7000BDE8F087699A33282DE9F04104460E4603
:101E8000022E02D3A069B04201D8022725E0002724
:101E90001FE031462046FFF7E0FE054605B91BE08E
:101EA000012D01D1022717E0681C08B9012713E0B2
:101EB000002231462046FFF742FF074607B10BE0FC
:101EC0002069401C20B12069401C20610120607104
:101ED0002E46A069B042DCD800BF3846BDE8F0818C
:101EE0002DE9F04704468946B9F1000F06D1E768AD
:101EF00017B1A069B84211D801270FE04946204622
:101F0000FFF7ABFE0646022E02D20120BDE8F087A5
:101F1000A069B04201D93046F8E74F463D4600BFC0
:101F20006D1CA069A84204D80225BD4201D9002039
:101F3000ECE729462046FFF790FE064606B909E081
:101F4000701C08B1012E01D13046DFE7BD42E7D158
:101F50000020DBE700BF6FF0704229462046FFF704
:101F6000EEFE8046B8F1000F08D1B9F1000F05D0A0
:101F70002A4649462046FFF7E2FE8046B8F1000FA8
:101F800009D1E5602069401C68B12069401E2061CC
:101F90000120607107E0B8F1010F02D14FF0FF306E
:101FA00000E0012005462846B0E72DE9F04104464F
:101FB0000E46E680A568012D03D020688069A842FE
:101FC00002D80220BDE8F0812DB9206800780328EE
:101FD00001D12068456A65B9E56020680089B04292
:101FE00001DC0220EEE72068406A00EB1610206159
:101FF00020E020688078070112E029462068FFF77A
:102000002CFE0546681C08B90120DBE7022D03D32E
:1020100020688069A84201D80220D3E7F01B86B26D
:10202000BE42EADAE56029462068FFF709FE00EBC8
:10203000161020612068303006F00F0100EB4110CF
:1020400060610020BEE72DE9F0410446884600BFEC
:10205000E088401C86B20EB1206910B90420BDE8AA
:10206000F08106F00F0000286FD12069401C20612C
:10207000E06828B920680089B04266DC0420EEE7F9
:1020800020688078401E00EA161000285DD1E168C3
:102090002068FFF7E2FD0546012D01D80220DEE7AA
:1020A000681C08B90120DAE720688069A84246D890
:1020B000B8F1000F01D10420D1E7E1682068FFF7F3
:1020C0000FFF05460DB90720C9E7012D01D10220F8
:1020D000C5E7681C08B90120C1E700212068FFF7A7
:1020E00011FD08B10120BAE7216801F130004FF479
:1020F00000720021FFF7DFFC29462068FFF7A0FDF2
:102100002168C862002710E00120216808710021C1
:102110002068FFF7F7FC08B10120A0E72068C06A3B
:10212000401C2168C862781CC7B220688078B84219
:10213000EADC2068C06AC01B2168C86200BFE56095
:1021400029462068FFF77CFD2061E680206830305A
:1021500006F00F0100EB4110606100207FE72DE9E0
:10216000F04705460C46207820F04000401E00EB6A
:10217000800101EBC00600274FF0010800BFFA48BC
:10218000C05D205CF849C95D2144497840EA0129D5
:10219000B8F1000F10D04846FFF763F98046802E53
:1021A00007D23146761C35F81100FFF75AF9404541
:1021B00008D00020BDE8F0874FF6FF70814501D0C0
:1021C0000020F7E7781C07460D28D8D3207800F0C8
:1021D000400038B1B8F1000F04D035F8160008B14E
:1021E0000020E7E70120E5E7F0B50346087800F0B6
:1021F0003F00401E00EB800707EBC00200250126D0
:1022000000BFD948405D085CD74F7F5D0F447F78A1
:1022100040EA07244EB1802A01D30020F0BD2646B3
:102220001046521C23F8104005E04FF6FF70844220
:1022300001D00020F2E7681C05460D28E1D308789C
:1022400000F0400030B1802A01D30020E6E70020F2
:1022500023F812000120E1E7F0B504461D464D7356
:102260000F27CF7200270F738F76BC4681F81BC0F3
:10227000571E07EB870C0CEBC706002738463B467A
:1022800000BF4FF6FF77B84203D03746761C34F8CC
:102290001700DFF8D4C21CF803C001F80C000712C5
:1022A000DFF8C4C21CF803C08C448CF8017008B974
:1022B0004FF6FF705F1C3B460D2FE2D34FF6FF77C2
:1022C000B84202D034F816700FB942F040020A70DA
:1022D000F0BD2DE9FC4780468A4617461C460B2276
:1022E00051464046FFF7DAFB052C0ADD00BF6010BF
:1022F00000EBC43137F8022B881884B238880028E4
:10230000F5D1072500BF2046E11704EB1171091133
:10231000A4EB0111303101F0FF09B9F1390F03DDF0
:1023200009F1070000F0FF0928466D1E0DF8009026
:102330002046E11704EB1171C1F30F14002CE2D118
:102340007E200DF80500002600E0761CAE4203D288
:1023500018F806002028F8D100BF082D04D228461E
:102360006D1C1DF8000000E020203146761C08F8A6
:102370000100082EF1D3BDE8FC8730B501460020EE
:102380000B2200BF431003EBC01411F8015B63196B
:10239000D8B2531E1A00F5D130BD2DE9F0470446DE
:1023A00000212046FFF701FE074617B13846BDE879
:1023B000F0874FF0FF09CA4600BF21692068FFF788
:1023C000A1FB074607B154E065692E780EB90427D2
:1023D0004FE0E87A00F03F08E52E05D008F008004D
:1023E00028B1B8F10F0F02D04FF0FF093AE0B8F171
:1023F0000F0F1CD1E069A0B306F0400030B195F892
:102400000DA026F04006B146E08820844E450AD152
:10241000687B504507D12946E069FFF7A0FE10B15F
:10242000A9F1010000E0FF2000F0FF091AE0B9F176
:10243000000F05D12846FFF7A0FF504500D118E056
:102440004FF0FF094FF6FF702084A069C07A00F0BA
:10245000010030B90B222846A169FFF736FB00B90D
:1024600007E0FFE700212046FFF7EDFD0746002FBC
:10247000A3D000BF38469AE72DE9F04704464FF055
:10248000FF09CA4604274CE021692068FFF73AFBA0
:10249000074607B148E0666935780DB9042743E07F
:1024A000F07A00F03F08E52D07D02E2D05D008F07A
:1024B000080028B1B8F10F0F02D04FF0FF0929E052
:1024C000B8F10F0F1AD105F0400030B196F80DA009
:1024D00025F04005A946E08820844D450AD1707B4F
:1024E000504507D13146E069FFF77EFE10B1A9F1F2
:1024F000010000E0FF2000F0FF090BE0B9F1000F40
:1025000004D13046FFF739FF504502D04FF6FF7037
:10251000208409E000212046FFF795FD074607B11A
:1025200002E020690028AFD100BF0FB10020206178
:102530003846BDE8F0872DE9F04F85B00446D4F861
:102540001880D4F81CB00C22414601A8FFF7A6FA67
:1025500000BF9DF80F0000F0010040B3002088F894
:102560000B00E06101270FE09E4C00083B465A46F5
:1025700001A94046FFF7ADFE2046FFF70EFF0546D6
:1025800005B103E0781C87B2642FEFDB00BF642F36
:1025900003D1072005B0BDE8F08F042D01D02846F7
:1025A000F8E79DF80F0088F80B00C4F81CB09DF800
:1025B0000F0000F0020070B1002601E0701C86B22E
:1025C0003BF816000028F9D106F119000D2190FB07
:1025D000F1F086B200E0012600212046FFF7E5FC7D
:1025E00005460DB12846D5E700200746049000BFF8
:1025F00021692068FFF786FA054605B119E0606990
:1026000090F80090B9F1E50F02D0B9F1000F08D1B0
:102610000FB9E0880490781C80B20746B04201D11F
:1026200007E0002701212046FFF70DFD0546002D9C
:10263000DED000BF4DBB012E27DD20460499FFF7F9
:10264000B4FC05460DBBA069FFF797FE0090701E15
:1026500086B200BF21692068FFF754FA054605B12C
:1026600012E0F2B26169E069009BFFF7F5FD01201D
:102670002168087100212046FFF7E5FC05461DB9D9
:10268000701E80B20600E5D100BFD5B9216920686F
:10269000FFF738FA0546A5B9D4F814A02022002186
:1026A0005046FFF708FA0B225046A169FFF7F6F9EA
:1026B000A069C07A00F018008AF80C000120216897
:1026C0000871284666E770B50446E688208C4FF608
:1026D000FF72904201D1304600E0208C0146204636
:1026E000FFF763FC0546E5B900BF21692068FFF7E5
:1026F00009FA054605B110E0E5206169087001207E
:1027000021680871E088B04200DB06E00021204625
:10271000FFF799FC0546002DE7D000BF042D00D13E
:102720000225284670BD2DE9F34F83B082460498F8
:10273000D0F800B001E00BF1010B9BF800002F284E
:10274000F9D09BF800005C28F5D0DAF81C90002541
:102750002E4600BF3046761C1BF80040202C03DBC1
:102760002F2C01D05C2C00D11CE0802D03D306203F
:1027700005B0BDE8F08FE4B201212046FEF74EFE21
:1027800004460CB90620F3E7802C06DA2146FEA0A9
:10279000FFF7AEF908B10620EAE728466D1C29F8D4
:1027A0001040D7E700BF0BEB060104980160202C16
:1027B00001DA042000E00020074608E0681E39F82E
:1027C0001040202C02D02E2C00D002E06D1E002DD7
:1027D000F4D100BF0DB90620CAE7002029F8150082
:1027E0000B222021DAF81800FFF765F9002600E037
:1027F000761C39F816002028FAD039F816002E2851
:10280000F6D00EB147F0030700E06D1E25B1681E3B
:1028100039F810002E28F8D14FF00008CDF80880C4
:102820000820019000BF3046761C39F8104004B9EA
:1028300055E0202C03D02E2C04D1AE4202D047F01C
:102840000307F0E7DDE90110884201D2AE4216D15C
:1028500001980B2802D147F0030740E0AE4201D0B7
:1028600047F00307AE4200D939E02E460820029017
:102870000B2001904FEA88604FEA1068D3E7802C64
:102880000BDB00212046FEF7C9FD04461CB1A4F174
:102890008000C0490C5C47F0020700BF24B121460C
:1028A000BDA0FFF725F918B15F2447F003070FE03B
:1028B000412C04DB5A2C02DC48F0020808E0612CB1
:1028C00006DB7A2C04DC48F00108A4F1200084B275
:1028D000DAF818300298411C02911C54A3E700BF9B
:1028E000DAF818000078E52803D10520DAF8181086
:1028F00008700198082803D14FEA88604FEA1068F1
:1029000008F00C000C2803D008F00300032801D1C4
:1029100047F0020707F0020058B908F00300012849
:1029200001D147F0100708F00C00042801D147F04E
:102930000807DAF81800C772002019E72DE9FC5FD4
:1029400081460E4606F10908D9F81000002851D03A
:10295000D9F81440207B0190002714E0E55D202D7C
:1029600000D112E0052D00D1E525019800F0080006
:1029700030B1412D04DB5A2D02DC05F12000C5B237
:1029800008F8015B7F1C082FE8D300BF207A2028BD
:1029900019D02E2008F8010B082711E0E55D202D45
:1029A00000D10FE0019800F0100030B1412D04DBA0
:1029B0005A2D02DC05F12000C5B208F8015B7F1C2E
:1029C0000B2FEBD300BFE07A3072E07F0106A07FCF
:1029D00041EA0041607F41EA0020217F08433060E6
:1029E000217E607E41EA0020B080A17DE07D41EA49
:1029F0000020F080002088F80000B06980B3F06902
:102A000070B3B06900900027D9F8100020B3B9F86E
:102A100020004FF6FF7188421ED0D9F81CB015E097
:102A200000215046FEF7FAFC8246BAF1000F01D1B0
:102A3000002710E000BFF069401EB84201D800270F
:102A400009E038467F1C009901F800A03BF8021B02
:102A50005FEA010AE4D100BF00210098C15500BF20
:102A6000BDE8FC9F2DE9F3410446019800782F282A
:102A700003D0019800785C2802D10198401C019095
:102A80000020A06001980078202807D2002120466D
:102A9000FFF78BFA0646002060612FE000BF01A916
:102AA0002046FFF740FE064606B126E02046FFF727
:102AB00074FC0646A069C77A46B1042E00D01CE01B
:102AC00000BF07F0040000B9052616E007F0040077
:102AD00000B112E06569E87A00F0100008B9052637
:102AE0000BE0A97EE87E41EA00212A7D687D42EA6A
:102AF000002041EA0040A060D1E700BF3046BDE8B9
:102B0000FC8170B504460D46607801232A4604F125
:102B10003001FEF78DFE08B1032070BD94F82E122F
:102B200094F82F0241EA00204AF65521884201D04C
:102B30000220F2E794F86900010694F8680041EA7F
:102B4000004194F8670041EA002094F866100843B9
:102B500020F07F401249884201D10020DDE794F83F
:102B60008500010694F8840041EA004194F883004E
:102B700041EA002094F88210084320F07F40084981
:102B800088420FD10020C8E7222A3A3C3E3F7C7F92
:102B900000000000AB4C00082B2C3B3D5B5D0000AF
:102BA000464154000120B8E72DE9F74F88B0089856
:102BB000006801900198007830380790079809283C
:102BC0000AD8019840783A2806D10198801C0190D3
:102BD00008990198086001E000200790079818B153
:102BE0000B200BB0BDE8F08FFA49079851F8204050
:102BF000099804600CB90C20F3E7207878B160786C
:102C0000FEF7C1FE804608F0010040B90A9820B1E5
:102C100008F0040008B10A20E3E70020E1E7002003
:102C20002070079860706078FEF763FD804608F0BA
:102C3000010008B10320D4E70A9820B108F004008D
:102C400008B10A20CDE74FF0000B59462046FFF7A8
:102C500058FF054600BF012D21D14FF0000ABAF1FF
:102C6000000F03D0AAF1010000F0FF0A4FF4DF705B
:102C700000EB0A1104F130000F18387978B1F87AB6
:102C80000106B87A41EA0041787A41EA0020397AAF
:102C900040EA010B59462046FFF733FF0546032D56
:102CA00001D101209DE70DB10D209AE73B20015D88
:102CB00094F83C0041EA0020B0F5007F01D00D20DF
:102CC0008FE74620015D94F8470041EA0029B9F1F9
:102CD000000F0ED194F85700010694F8560041EA0F
:102CE000004194F8550041EA002094F8541040EA5D
:102CF0000109C4F81C904020065DE670012E03D047
:102D0000022E01D00D206CE709FB06F93D20005D85
:102D10000646A07016B1701E304008B10D2060E765
:102D20004120015D94F8420041EA00202081207A90
:102D300000F00F0008B10D2053E74320015D94F827
:102D4000440041EA00200690069870B994F85300B8
:102D5000010694F8520041EA004194F8510041EA1A
:102D6000002094F85010084306903E20015D94F82E
:102D70003F0041EA00200290029808B90D2030E798
:102D800002984844218900EB11100590DDE9050106
:102D9000814201D20D2024E7DDE90510401AA17817
:102DA000B0FBF1F00490049808B90D2019E7012553
:102DB00040F6F6710498884200D302254FF6F6716A
:102DC0000498884200D303250498801CA0610598CC
:102DD0005844A062029858442062032D16D12089DD
:102DE00008B10D20FDE694F85F00010694F85E003E
:102DF00041EA004194F85D0041EA002094F85C103B
:102E000008436062A0698000039014E0208908B93B
:102E10000D20E6E6206A48446062022D02D1A069D6
:102E2000400007E0207E00F00100A16901EB4101B4
:102E300000EB51000390E169039800F2FF10B1EB41
:102E4000502F01D20D20CCE64FF0FF302061002042
:102E5000E060032D5CD1607194F8601094F861001B
:102E600041EA0020584460616078012304F1300198
:102E70006269FEF7DDFCE8BB94F82E1294F82F028D
:102E800041EA00204AF65521884241D13320005DB5
:102E900001063220005D41EA00413120005D41EA37
:102EA000002094F8301008434B49884230D194F800
:102EB0001702010694F8160241EA004194F815023F
:102EC00041EA002094F814120843444988421FD173
:102ED00094F81F02010694F81E0241EA004194F89A
:102EE0001D0241EA002094F81C120843E06094F8A7
:102EF0001B0200E00CE0010694F81A0241EA0041CE
:102F000094F8190241EA002094F81812084320614D
:102F1000257033480088401C80B231490880E08029
:102F20000020E062207100BF5BE670B504460D46EC
:102F300024B1207810B1E088A84201D0092070BDEA
:102F40006078FEF720FD00F0010008B10320F6E7ED
:102F50000020F4E70246012A01DB0B2070471D48E0
:102F600050F822300BB10020187009B10020087011
:102F7000184840F822100020F0E72DE9F7438CB004
:102F8000054616460020286006F01F0626F00102BE
:102F900003A90DA8FFF708FE0746CDF824D0114875
:102FA0000A9027B903A80D99FFF75CFD0746089C16
:102FB0000FB904B9062706F01C00002862D09FB1A3
:102FC000042F03D103A8FFF7B6FA074646F0080618
:102FD000089C13E038000020525261417272416136
:102FE0003C0000204C000020E07A00F0110008B105
:102FF000072703E006F0040000B10827002F40D1A6
:1030000006F0080000283CD0FEF746FD804684F814
:103010000E804FEA1821E1734FEA184121744FEAFC
:10302000186161740020E072207700216177A17738
:10303000E177A17EE07E41EA0021227D607D42EAC7
:10304000002041EA00490020A0760021E1762075A9
:103050006175012003990871B9F1000F11D003982F
:10306000D0F82C8049460398FEF706FF074647B97B
:10307000A9F101000399C86041460398FEF742FD9B
:1030800007460EE06FB9E07A00F0100008B104279F
:1030900007E006F0020020B1E07A00F0010000B184
:1030A000072747B906F0080008B146F02006039844
:1030B000C06AE8612C62F7B9AE71A17EE07E41EA98
:1030C0000021227D607D42EA002041EA0040286123
:1030D000E07F0106A07F41EA0041607F41EA0020D5
:1030E000217F0843E8600020A860A8610398286059
:1030F0000398C088A88038460FB0BDE8F0832DE95A
:10310000FF4F83B0044615469A46DDF810B0002004
:10311000CAF80000A1882068FFF707FF0290029814
:1031200018B1029807B0BDE8F08FA07900F08000D8
:1031300008B10220F6E7A07900F0010008B90720E5
:10314000F0E7D4E90210401A00900098854200D9B7
:10315000009DB5E02089C0F3080000287ED12068DA
:103160008078401EA16800EA512000F0FF09B9F103
:10317000000F1DD1A06810B92069019004E06169B9
:103180002068FEF76AFD01900198022805D2A07917
:1031900040F08000A0710220C4E70198401C28B9CB
:1031A000A07940F08000A0710120BBE70198606128
:1031B00061692068FEF744FD06462EB9A07940F00B
:1031C0008000A0710220ADE74E444FEA5528B8F1C7
:1031D000000F2DD009EB080021688978884203D9B7
:1031E00020688078A0EB090808F0FF032168487880
:1031F00032465946FEF71CFB28B1A07940F080000A
:10320000A07101208EE7A07900F0400068B1A069AC
:10321000801B404509D2A169891B0BEB41204FF46B
:10322000007204F12401FEF739FC4FEA48273DE023
:10323000A069B04226D0A07900F0400098B1216882
:103240004878012304F12401A269FEF746FB30B15E
:10325000A07940F08000A071012063E713E0A0791D
:1032600020F04000A071216848780123324604F123
:103270002401FEF7DDFA28B1A07940F08000A071AA
:1032800001204FE7A6612089C0F30800C0F5007750
:10329000AF4200D92F462089C0F3080204F1240070
:1032A00011183A465846FEF7F9FB00BFBB44A06828
:1032B0003844A060DAF800003844CAF80000ED1B7A
:1032C000002D7FF447AF00202CE72DE9FF4F83B09E
:1032D000044615469B46049801900020CBF8000058
:1032E000A1882068FFF721FE0290029818B1029889
:1032F00007B0BDE8F08FA07900F0800008B102208F
:10330000F6E7A07900F0020008B90720F0E7E068CE
:103310002844E168884200D20025CDE02089C0F32E
:103320000800002877D120688078401EA16800EA54
:10333000512000F0FF0ABAF1000F2AD1A06858B955
:10334000D4F81080B8F1000F0BD100212068FEF7EF
:10335000C7FD8046206104E061692068FEF7C0FD7A
:103360008046B8F1000F00D1A9E0B8F1010F05D1F6
:10337000A07940F08000A0710220B9E708F10100B7
:1033800028B9A07940F08000A0710120B0E7C4F80E
:103390001480A07900F0400090B1216848780123A2
:1033A00004F12401A269FEF798FA28B1A07940F04F
:1033B0008000A07101209BE7A07920F04000A0715F
:1033C00061692068FEF73CFC06462EB9A07940F002
:1033D0008000A07102208BE756444FEA5529B9F1CD
:1033E000000F2FD00AEB090021688978884203D9A1
:1033F00020688078A0EB0A0909F0FF03216848786B
:1034000032460199FEF769FA30B1A07940F08000A8
:10341000A07101206CE72CE0A069801B48450ED20A
:10342000A069801B019A02EB40214FF4007204F165
:103430002400FEF733FBA07920F04000A0714FEA92
:1034400049272DE0A069B04212D0D4E90201884298
:103450000ED2216848780123324604F12401FEF798
:10346000E7F928B1A07940F08000A07101203FE782
:10347000A6612089C0F30800C0F50077AF4200D9EB
:103480002F462189C1F3080204F1240150183A465D
:103490000199FEF703FBA07940F04000A07100BF46
:1034A000019838440190A0683844A060DBF800001F
:1034B0003844CBF80000ED1B002D7FF42FAF00BF88
:1034C000D4E90201884201D9A068E060A07940F007
:1034D0002000A07100200BE72DE9F0410446A188EF
:1034E0002068FFF722FD0746002F4FD1A07900F09A
:1034F000200000284AD0A07900F0400078B121686F
:103500004878012304F12401A269FEF7E6F910B11D
:103510000120BDE8F081A07920F04000A071E169B0
:103520002068FEF7EFFA0746002F2FD1256AE87AC8
:1035300040F02000E872207B2877A089010A697793
:10354000E068010CA977E068010EE977207CA87695
:10355000208A010AE9762069000C28752069010E8D
:103560006975FEF799FA0646AE75310AE975310CB0
:103570002976310E6976A07920F02000A071012013
:10358000216808712068FEF7F6FA07463846C0E75A
:1035900070B504462046FFF79FFF05460DB9002091
:1035A0002060284670BD2DE9F04704460E46A188EC
:1035B0002068FFF7BAFC8246BAF1000F02D05046ED
:1035C000BDE8F087A07900F0800008B10220F7E79D
:1035D000E068B04204D2A07900F0020000B9E668C9
:1035E000D4F808904FF00008C4F80880002E77D077
:1035F000206880784702B9F1000F11D0701EB0FB2F
:10360000F7F1A9F10100B0FBF7F0814208D3A9F16D
:103610000100791E8843A060A068361A656918E029
:103620002569ADB900212068FEF75AFC0546012D39
:1036300005D1A07940F08000A0710220C0E7681C8D
:1036400028B9A07940F08000A0710120B8E7256179
:103650006561002D44D029E0A07900F0020038B166
:1036600029462068FEF73CFC054635B93E461FE07A
:1036700029462068FEF7F1FA0546681C28B9A079AA
:1036800040F08000A07101209AE7012D03D9206845
:103690008069A84205D8A07940F08000A07102207E
:1036A0008EE76561A0683844A060F61BBE42D3D89F
:1036B00000BFA0683044A060C6F3080068B1294686
:1036C0002068FEF7BDFA8046B8F1000F06D1A07958
:1036D00040F08000A071022072E701E008EB56285C
:1036E0002089C0F3080050B3A069404527D0A079D5
:1036F00000F0400090B121684878012304F12401D2
:10370000A269FEF7EAF828B1A07940F08000A07124
:10371000012055E7A07920F04000A0712168487889
:103720000123424604F12401FEF782F828B1A07972
:1037300040F08000A071012042E7C4F81880D4E96D
:103740000201884205D9A068E060A07940F020001D
:10375000A071504634E733B583B0044600222146B9
:1037600004A8FFF721FA05465DBBC4F818D0FE484F
:10377000E06120460499FFF775F90546F5B96069DF
:1037800098B16069C07A00F0100068B16069817E0C
:10379000C07E41EA00216069027D407D42EA00204E
:1037A00041EA0040A06000E005253DB92068C088DE
:1037B000A08000212046FEF7F8FB0546042D00D12D
:1037C0000525284605B030BDFEB504460E46A18845
:1037D0002068FFF7AAFB054615BB2EB9002120463D
:1037E000FEF7E3FB05461BE0C4F818D0DE48E061B5
:1037F0002046FEF741FE0546042D02D1002020613F
:1038000000256DB931462046FFF798F80021204683
:10381000FEF719FC0546042D02D100202061002589
:103820002846FEBD33B58DB00D46002204A90DA873
:10383000FFF7BAF904468CB901A80A90CA480B9060
:1038400004A80D99FFF70EF904463CB9099820B178
:10385000294604A8FFF772F800E0062420460FB0BE
:1038600030BD2DE9F74F82B08B4614460022214629
:1038700002A8FFF799F901900198002877D12068F4
:1038800001698069801E814204D820680069CBF8F4
:1038900000006CE0206890F800A00026BAF1010F4B
:1038A0001DD1022700BF39462068FEF7D6F98046B1
:1038B00008F1010010B9012001900FE0B8F1010FEB
:1038C00002D10220019009E0B8F1000F00D1761C6E
:1038D000781C0746216889698842E4D33DE0206866
:1038E00087692068006A00904FF00009002500BF3A
:1038F000B9F1000F0FD1009A531C114600932068B4
:10390000FEF700F90190019800B125E0206800F170
:1039100030054FF40079BAF1020F09D1287869789F
:1039200040EA012000B9761CAD1CA9F1020910E0A3
:10393000E8780006A97840EA0140697840EA012069
:103940002978084320F0704000B9761C2D1DA9F19C
:103950000409781E0700CBD100BF20680661BAF1C8
:10396000030F02D1012021684871CBF80060019853
:1039700005B0BDE8F08F70B50446A1882068FFF758
:10398000D4FA054655B9A07900F0800008B10225A7
:1039900004E0A07900F0020000B90725002D36D11F
:1039A000D4E9021088422DD9A068E060A07940F0E7
:1039B0002000A071A06838B921692068FEF75CFA80
:1039C0000546002020611DE061692068FEF745F989
:1039D00006460025701C00B90125012E00D10225E4
:1039E00085B920688069B0420CD96FF07042616976
:1039F0002068FEF7A4F9054625B931462068FEF790
:103A00003BFA05461DB1A07940F08000A071284620
:103A100070BD71B595B001220CA915A8FFF7C4F8C7
:103A20000446002C4DD1CDF848D04F4813900CA837
:103A30001599FFF717F8044600BF002C41D1119DDE
:103A40000DB9062404E0E87A00F0010000B1072473
:103A5000A97EE87E41EA00212A7D687D42EA0020B5
:103A600041EA0046E4B9E87A00F01000C0B1022E45
:103A700001D2022414E024220CA903A8FEF70EF8B8
:103A80000596022103A8FEF790FA044644B903A85C
:103A9000FEF7F2FC044604B90724042C00D10024EC
:103AA0007CB90CA8FEF70FFE044654B926B1314686
:103AB0000C98FEF7E1F904461CB90C98FEF75BF888
:103AC0000446204616B070BD2DE9F1478DB0FDF7D4
:103AD000E3FF0746012204A90DA8FFF765F8064693
:103AE000002E71D101A80A901F480B9004A80D99CF
:103AF000FEF7B8FF064606B9082600BF042EF0D12F
:103B000000210498FEF7ECF90546002605B90726C2
:103B1000012D00D10226681C00B9012626B900211A
:103B20000498FDF7EFFF0646002E6BD12946049856
:103B3000FEF786F88246049800F130044FF40072D4
:103B400000212046FDF7B7FF0B2220212046FDF77C
:103B5000B2FF2E2020701020E072A775390AE1759F
:103B6000390C2176390E01E04C0000206176A576F3
:103B7000290AE176280C2075290E6175202221463C
:103B800004F12000FDF78AFF2E2084F82100DDF8E3
:103B9000188004980078032804D10498406A4045AE
:103BA00000D1B04684F83A804FEA182184F83B10DF
:103BB000C8F30741342001554FEA186184F83510E5
:103BC000049890F8029019E03FE00498C0F82CA007
:103BD0000AF1010A01200499087100210498FDF7F7
:103BE00091FF064606B10CE04FF40072002120461A
:103BF000FDF761FFA9F1010000F0FF09B9F1000F25
:103C0000E3D100BF1EB904A8FEF795FC064626B115
:103C100029460498FEF730F917E0099C1020E0725D
:103C2000A775390AE175390C2176390E6176A576CA
:103C3000290AE176280C2075290E61750120049966
:103C400008710498FDF797FF064630460EB0BDE8B0
:103C5000F087F7B58CB00F461446012203A90CA8D3
:103C6000FEF7A2FF0646EEB9CDF824D0FE480A9032
:103C700003A80C99FEF7F6FE064600BF96B9089D0C
:103C80000DB906260EE004F0270407EA0400E97ADD
:103C9000A1430843E8720120039908710398FDF7D6
:103CA0006AFF064630460FB0F0BD73B58CB00D46C6
:103CB000012203A90CA8FEF777FF0646FEB9CDF84E
:103CC00024D0E9480A9003A80C99FEF7CBFE0646DB
:103CD00000BFA6B9089C0CB9062610E0A879A0750B
:103CE000E8880112E17528792076A88801126176AA
:103CF0000120039908710398FDF73DFF0646304601
:103D00000EB070BDF3B59BB00F46012212A91BA8DF
:103D1000FEF74AFF0546002D10D112980990CDF804
:103D200060D0D148199012A81B99FEF79BFE05465A
:103D300000BF002D76D1179808B9042572E01798B6
:103D400000F10B01152203A8FDF7A8FE242212A9F9
:103D500009A8FDF7A3FE394609A8FEF783FE05462C
:103D600005B90825042D5DD109A8FEF7E4FB054639
:103D7000002D57D10E9C13220DF10E0104F10D0000
:103D8000FDF78CFE9DF80C0040F02000E072012051
:103D9000129908710B991498884239D0E07A00F092
:103DA0001000002834D0A37EE27E43EA022394F878
:103DB00014C0627D4CEA022243EA02410998FDF7F1
:103DC0003FFF06460EB9022522E031460998FDF76D
:103DD00099FE0546099800F15004CDB960782E2867
:103DE00016D109980078032806D109990B98496AD9
:103DF000884201D1002000E00B980646A676310AE1
:103E0000E176300C2075310E617501200999087139
:103E100045B912A8FEF757FC05461DB91298FDF7E3
:103E2000AAFE054628461DB0F0BD2DE9F74F8EB01D
:103E300091460E98012803DB0B2011B0BDE8F08FEE
:103E40000F98012801DD1320F7E7A9F1010000EA2E
:103E5000090008B11320F0E784490E9851F820B00A
:103E6000BBF1000F01D10C20E7E700208BF8000028
:103E70000E980B9000200A900B98FDF73AFC0090EA
:103E8000009800F0010008B10320D6E7009800F088
:103E9000040008B10A20D0E700BF03AA01210B9853
:103EA000FDF78CFD10B90398802801D20120C4E7EA
:103EB0000F9808B1002000E03F2080460398A0EB57
:103EC00008000390B9F1000F13D14FF4FA61039881
:103ED000B0FBF1F009904FF0000A01E00AF1010A8D
:103EE000634830F81A1009988142F7D8614830F8D1
:103EF0001A904FEA5929B9F1000F01D14FF0010989
:103F0000B9F1800F01D94FF080090398B0FBF9F7A0
:103F1000012540F6F670874200D302254FF6F67071
:103F2000874200D30325032D0AD1082000EB870028
:103F300000F2FF10460A202002900020019011E0BC
:103F4000012D05D107EB4700401C4008C01C01E0D3
:103F50007800001D064606F2FF10460A0120029076
:103F60002020019002984044069006983044059025
:103F7000019905980844049004984844A0EB08006F
:103F80000399884201D90E2057E708AA03210B980C
:103F9000FDF714FD28B9089818B10898B0F5004F3E
:103FA00001D901200890089904980844401E491E30
:103FB0008843089008990498081A0890032D08D19E
:103FC00008990298084402900899069808440690B7
:103FD00001E008980644DDE90201081A811B0198F6
:103FE000081AB0FBF9F7022D03D140F6F6708742AC
:103FF00005D3032D05D14FF6F670874201D20E206E
:104000001BE7012D02D0022D0CD102E001200C9003
:104010000BE00398B0F5803F01D2042000E00620B9
:104020000C9002E00C200C9000BF00BF00BF0F9866
:1040300010B1F0200D904DE04FF4007200210BF113
:104040003000FDF738FD0BF5F77401206070A070AB
:104050000020E0700C982071FE20607103984044AD
:104060003F21B0FBF1F007E04C00002038000020B9
:104070002C4D0008424D0008FF21B0FBF1F00890E4
:104080003F21089841EA9000A0710898E0713F2014
:10409000207200216172A172E1720398207303986B
:1040A000010A61730398010CA1730398010EE17377
:1040B00055218BF82E12AA218BF82F1201230022F2
:1040C0000BF130010B98FDF708FC08B10120B4E6B4
:1040D000F8200D900BF130044FF4007200212046BF
:1040E000FDF7E9FC0B22D0A12046FDF7D7FC4FF4E9
:1040F000007A84F80BA04FEA1A21217384F80D90FE
:104100000298A0730298010AE17301202074032D24
:1041100001D1002001E04FF40070824684F811A024
:104120004FEA1A21A1740398B0F5803F05D2039895
:10413000E0740398010A217510E0039884F82000C8
:104140000398C0F30721212001550398C0F30741CC
:10415000222001550398010E232001550D9860750A
:104160003F20207600216176FF20A076E17684F85A
:104170001C804FEA182161774FEA1841A1774FEA76
:104180001861E177FDF788FC0890032D3ED108986F
:1041900084F843000898C0F307214420015508988B
:1041A000C0F30741452001550898010E46200155EE
:1041B00084F82460C6F3072125200155C6F3074182
:1041C00026200155310E27200155022084F82C00AD
:1041D00000212D2001552E2001552F2001550120B1
:1041E00084F8300031200155062084F83200332055
:1041F0000155802084F84000292084F842001322D1
:104200008CA104F14700FDF749FC1FE0089884F8F1
:1042100027000898C0F30721282001550898C0F30B
:104220000741292001550898010E2A200155A6753D
:10423000310AE175802084F82400292084F82600C2
:10424000132281A104F12B00FDF728FC552084F8EE
:10425000FE01AA2140F2FF100155012342462146EA
:104260000B98FDF73AFB08B10120E6E5032D06D1D6
:10427000012308F1060221460B98FDF72EFB069854
:1042800007904FF0000A61E04FF4007200212046D1
:10429000FDF711FC0D980890032D14D0012D01D1CC
:1042A0006E4801E06FF0FF000899084308900898F5
:1042B00020700898000A60700898000CA070089898
:1042C000000EE07019E0089860F0FF000890089870
:1042D00020700898000A60700898000CA070089878
:1042E000000EE070FF202071FF216171A171E1716A
:1042F00020726172A1720F21E1720798411C02467F
:104300000123079121460B98FDF7E7FA08B1012038
:1043100093E54FF4007200212046FDF7CCFB01200D
:1043200008900EE00798411C0246012307912146A0
:104330000B98FDF7D2FA08B101207EE50898401CE1
:1043400008900898B042EDD30AF1010ABAF1000FC3
:104350009AD0032D01D1484600E00198824600BF63
:104360000798411C02460123079121460B98FDF74F
:10437000B4FA08B1012060E5AAF101005FEA000A81
:10438000EED1032D46D15220207060706120A070C4
:104390004120E070722084F8E401722140F2E510BF
:1043A00001554121401C01556121401C0155781ED9
:1043B00084F8E801C0F3072140F2E9100155781EA6
:1043C000C0F307414FF4F5700155781E010E40F21D
:1043D000EB100155022084F8EC01002140F2ED10B1
:1043E0000155401C0155401C0155552084F8FE0123
:1043F000AA2140F2FF100155012308F101022146D4
:104400000B98FDF76AFA012308F1070221460B9881
:10441000FDF763FA002211460B98FDF7CFFA08B1B9
:1044200001200AE5002008E5EBFE904D53444F5370
:10443000352E30004E4F204E414D45202020204645
:1044400041543332202020004E4F204E414D452014
:1044500020202046415420202020200000FFFF0083
:1044600010B501210520FCF73FF901212020FCF7C0
:104470003BF901210803FCF737F910BD08B52020EE
:10448000ADF8000001208DF8020018208DF803001F
:1044900069464348FCF750FE8020ADF8000001203B
:1044A0008DF8020018208DF8030069463C48FCF79F
:1044B00043FE4020ADF8000001208DF802000420EA
:1044C0008DF8030069463648FCF736FE0120ADF84A
:1044D00000008DF8020010208DF803006946304876
:1044E000FCF72AFE4FF40070ADF8000001208DF8B3
:1044F000020010208DF803004001ADF8000069466D
:104500002848FCF719FE00224FF400712548FCF7FB
:10451000C4FE4FF48060ADF8000069462148FCF706
:104520000BFE00224FF480611E48FCF7B6FE4FF4EC
:104530000060ADF8000069461A48FCF7FDFD002256
:104540004FF400611748FCF7A8FE08BD00B585B020
:104550006846FCF7E2F94FF48270ADF802000020E3
:10456000ADF80400ADF80000ADF80E00ADF808009D
:10457000ADF806003820ADF80C004FF40070ADF82F
:104580000A0041100848FCF714FA69460648FCF78F
:1045900035F901210448FCF7D6F905B000BD00004B
:1045A00000080140001401400030014010B51C48D3
:1045B00040681C490860084600681B4908601849A3
:1045C0000868FBF70CFE18480068804710BD38B536
:1045D0000020FDF78EF804464CB914490020FEF780
:1045E000B9FC6A4601210020FDF7E8F9054638BD0F
:1045F00010B5FFF735FFFFF741FFFFF7A7FFFFF704
:10460000E6FF10BD10B5FFF7F3FF00BF00F01FF885
:10461000074800780028F9D1FFF7C8FF002010BD37
:1046200000800008440000204000002050010020CD
:104630004800002070B503460C4603E014F8015B07
:1046400003F8015B1500A2F10102F7D170BD2DE95D
:10465000F041ADF50E7D00240425002600208D904C
:104660008C9000270290804601223BA103A8FEF710
:1046700084FC8046B8F1000F6AD102AB042201A984
:1046800003A8FEF73CFD042201A98CA8FFF7D2FF86
:104690000698001F8C9988425AD18C9800F2FF70BE
:1046A000C0F3C7272E4EFCF72EFA00BF09E03046B4
:1046B000FCF768FA0546042D00D004E006F5006614
:1046C000641CBC42F3D300BF042D32D1244E2CE035
:1046D00002AB4FF40062234903A8FEF710FD8046A9
:1046E000002417E00298001B042801D9042001E0EF
:1046F0000298001B02461B4801198DA8FFF79AFF7C
:1047000030468D99FCF70EFB0546361D042D00D072
:1047100003E0241D02988442E4D300BF02998C98E0
:10472000401A8C90042D00D002E08C980028CFD144
:1047300000BFFCF7F5F9042D07D107A0FFF769F9D1
:10474000804600200849087002E0012006490870F0
:104750000DF50E7DBDE8F08166772E62696E000072
:1047600000800008E80500204800002070477047DE
:104770007047754600F028F8AE4605006946534676
:1047800020F00700854618B020B5FBF73DFDBDE8D9
:1047900020404FF000064FF000074FF000084FF0A8
:1047A000000B21F00701AC46ACE8C009ACE8C00939
:1047B000ACE8C009ACE8C0098D4670470446AFF3C9
:1047C00000802046FBF7FBFC00487047E80D002006
:1047D00001491820ABBEFEE7260002007047C70063
:1047E000FC00E900E200E400E000E500E700EA0088
:1047F000EB00E800EF00EE00EC00C400C500C900CB
:10480000E600C600F400F600F200FB00F900FF002D
:10481000D600DC00A200A300A500A7209201E100C1
:10482000ED00F300FA00F100D100AA00BA00BF00C9
:104830001023AC00BD00BC00A100AB00BB00912563
:104840009225932502252425612562255625552587
:104850006325512557255D255C255B2510251425ED
:1048600034252C251C2500253C255E255F255A2551
:10487000542569256625602550256C256725682502
:104880006425652559255825522553256B256A250C
:1048900018250C25882584258C2590258025B10395
:1048A000DF009303C003A303C303B500C403A6033F
:1048B0009803A903B4031E22C603B503292261226B
:1048C000B1006522642220232123F7004822B00092
:1048D0001922B7001A227F20B200A025A000610093
:1048E000620063006400650066006700680069009C
:1048F0006A006B006C006D006E006F00700071004C
:1049000072007300740075007600770078007900FB
:104910007A00A100A200A300A500AC00AF00E00057
:10492000E100E200E300E400E500E600E700E80063
:10493000E900EA00EB00EC00ED00EE00EF00F00013
:10494000F100F200F300F400F500F600F800F900C1
:10495000FA00FB00FC00FD00FE00FF000101030166
:104960000501070109010B010D010F0111011301DF
:104970001501170119011B011D011F01210123014F
:104980002501270129012B012D012F0131013301BF
:10499000350137013A013C013E0140014201440129
:1049A000460148014B014D014F0151015301550191
:1049B000570159015B015D015F01610163016501FF
:1049C000670169016B016D016F017101730175016F
:1049D00077017A017C017E019201B103B203B30336
:1049E000B403B503B603B703B803B903BA03BB03F3
:1049F000BC03BD03BE03BF03C003C103C303C403A1
:104A0000C503C603C703C803C903CA03300431047E
:104A100032043304340435043604370438043904CA
:104A20003A043B043C043D043E043F04400441047A
:104A3000420443044404450446044704480449042A
:104A40004A044B044C044D044E044F0451045204D8
:104A500053045404550456045704580459045A0482
:104A60005B045C045E045F04702171217221732178
:104A70007421752176217721782179217A217B2172
:104A80007C217D217E217F2141FF42FF43FF44FFA6
:104A900045FF46FF47FF48FF49FF4AFF4BFF4CFFDA
:104AA0004DFF4EFF4FFF50FF51FF52FF53FF54FF8A
:104AB00055FF56FF57FF58FF59FF5AFF00004100AE
:104AC00042004300440045004600470048004900BA
:104AD0004A004B004C004D004E004F00500051006A
:104AE000520053005400550056005700580059001A
:104AF0005A002100E0FFE1FFE5FFE2FFE3FFC00015
:104B0000C100C200C300C400C500C600C700C80081
:104B1000C900CA00CB00CC00CD00CE00CF00D00031
:104B2000D100D200D300D400D500D600D800D900DF
:104B3000DA00DB00DC00DD00DE00780100010201AC
:104B40000401060108010A010C010E011001120105
:104B50001401160118011A011C011E012001220175
:104B60002401260128012A012C012E0130013201E5
:104B70003401360139013B013D013F01410143014F
:104B8000450147014A014C014E01500152015401B7
:104B9000560158015A015C015E0160016201640125
:104BA000660168016A016C016E0170017201740195
:104BB000760179017B017D019101910392039303B9
:104BC0009403950396039703980399039A039B0311
:104BD0009C039D039E039F03A003A103A303A403BF
:104BE000A503A603A703A803A903AA03100411049D
:104BF00012041304140415041604170418041904E9
:104C00001A041B041C041D041E041F042004210498
:104C10002204230424042504260427042804290448
:104C20002A042B042C042D042E042F040104020456
:104C300003040404050406040704080409040A0420
:104C40000B040C040E040F04602161216221632116
:104C50006421652166216721682169216A216B2110
:104C60006C216D216E216F2121FF22FF23FF24FF84
:104C700025FF26FF27FF28FF29FF2AFF2BFF2CFFF8
:104C80002DFF2EFF2FFF30FF31FF32FF33FF34FFA8
:104C900035FF36FF37FF38FF39FF3AFF00000103C9
:104CA0000507090E10121416181C1E809A90418ECA
:104CB000418F804545454949498E8F9092924F9941
:104CC0004F555559999A9B9C9D9E9F41494F55A57B
:104CD000A5A6A7A8A9AAABAC21AEAFB0B1B2B3B498
:104CE000B5B6B7B8B9BABBBCBDBEBFC0C1C2C3C4FC
:104CF000C5C6C7C8C9CACBCCCDCECFD0D1D2D3D4EC
:104D0000D5D6D7D8D9DADBDCDDDEDFE0E1E2E3E4DB
:104D1000E5E6E7E8E9EAEBECEDEEEFF0F1F2F3F4CB
:104D2000F5F6F7F8F9FAFBFCFDFEFF0000040002BF
:104D30000001800040002000100008000400020074
:104D4000000000800040002000100008004000200B
:104D50000010000800040002784D00080000002048
:104D60004C0000006C010008C44D00084C000020FD
:104D7000FC9500008801000800A24A040000000021
:104D800000000000010203040607080900000000FB
:104D900001020304010203040607080902040608CD
:104DA0000100000000000000000000000000000002
:104DB00000000000000000000000000000000000F3
:044DC00000000000EF
:0400000508000131BD
:00000001FF
