:020000040800F2
:1000000038F1002081020008354400083744000818
:100010003B4400083F44000843440008000000003F
:10002000000000000000000000000000474400083D
:1000300049440008000000004B4400084D440008FB
:100040009B0200089B0200089B0200089B0200081C
:100050009B0200089B0200089B0200089B0200080C
:100060009B0200089B0200089B0200089B020008FC
:100070009B0200089B0200089B0200089B020008EC
:100080009B0200089B0200089B0200089B020008DC
:100090009B0200089B0200089B020008E144000844
:1000A0009B0200089B0200089B0200089B020008BC
:1000B00073450008A14500089B0200089B02000848
:1000C0009B0200089B0200089B0200089B0200089C
:1000D0009B0200085F4400089B0200089B02000886
:1000E0009B0200089B0200089B0200089B0200087C
:1000F0009B0200089B0200089B0200089B0200086C
:100100009B0200089B0200089B0200089B0200085B
:100110009B0200089B020008E34400089B020008C1
:100120009B0200089B0200089B0200089B0200083B
:1001300000F002F800F094F80AA090E8000C824465
:100140008344AAF10107DA4501D100F089F8AFF242
:10015000090EBAE80F0013F0010F18BFFB1A43F0A5
:10016000010318477C7B00009C7B0000103A24BFF1
:1001700078C878C1FAD8520724BF30C830C144BF0C
:1001800004680C607047000000230024002500264E
:10019000103A28BF78C1FBD8520728BF30C148BFEA
:1001A0000B6070476E2906F04382702906F08C833D
:1001B000662907F02785652907F02485672907F058
:1001C00021856129AFF3008003681B0A28BF41F035
:1001D0008001692906F0F081642906F0ED81752916
:1001E00006F0EA816F2906F01783782906F0588314
:1001F000E92906F0AF82E42906F0AC82F52906F081
:10020000A982EF2906F01483F82906F057830368C2
:10021000DB0928BF41F08001632906F02887732994
:1002200006F02D87E32906F03887F32906F03D878D
:10023000002070471FB59DE8030006F0B3F806F0F4
:100240008DFF04000020002107F0C6FC401C606008
:100250000020002107F0AAFCE0601FBD10B510BD12
:1002600006F04FFF1146FFF7E5FF02F0BCF907F07B
:100270002BF803B4FFF7F2FF03BC07F059F80000B6
:100280000948804709480047FEE7FEE7FEE7FEE72A
:10029000FEE7FEE7FEE7FEE7FEE7FEE70448054966
:1002A000054A064B704700009D0300083101000815
:1002B0003869002038F1002038E9002038E90020B2
:1002C0000CB50020019000906B48006840F480302D
:1002D0006949086000BF6848006800F40030009079
:1002E0000198401C0190009818B90198B0F5A06FD2
:1002F000F1D16148006810F4003F02D00120009065
:1003000001E0002000900098012842D15B4800687D
:1003100040F01000594908600846006820F00300CA
:1003200008600846006840F00200086052484068D3
:10033000514948600846406848600846406840F4B3
:10034000806048600846406820F47C104860084699
:10035000406840F4E81048600846006840F080704B
:10036000086000BF4448006810F0007FFAD042489F
:10037000406820F00300404948600846406840F06B
:100380000200486000BF3C48406800F00C000828AC
:10039000F9D10CBD10B5FFF793FF10BD10B536486D
:1003A000006840F00100344908600846406834495C
:1003B00008403149486008460068324908402E49E3
:1003C00008600846006820F48020086008464068FD
:1003D00020F4FE0048604FF41F008860FFF7DAFF4A
:1003E0004FF000602849086010BD10B500210020C2
:1003F0000022214B5B6803F00C0121B1042906D0D7
:10040000082928D107E0214B214C236027E01F4B0E
:100410001F4C236023E0184B5B6803F47010164BED
:100420005B6803F48032022303EB904022B9194B3E
:100430004343174C23600DE00F4B5B6813F4003F00
:1004400004D0144B4343124C236003E00F4B43434F
:100450000F4C236003E00D4B0D4C236000BF00BF29
:10046000054B5B68C3F303130B4CE15C084B1B6843
:10047000CB40074C236010BD00100240002002401A
:100480000000FFF8FFFFF6FE08ED00E000127A0022
:100490000000002000093D0004000020DD48006845
:1004A00040F00100DB49086008464068DA4908402E
:1004B000D849486008460068D8490840D5490860CE
:1004C0000846006820F4802008600846406820F450
:1004D000FE0048604FF41F0088607047CD490968EE
:1004E00021F48031CB4A11601146096821F4802142
:1004F0001160B0F5803F03D0B0F5802F0ED106E03B
:10050000C449096841F48031C24A116007E0C14919
:10051000096841F4A021BF4A116000E000BF00BF9C
:10052000704710B501460022002300204A11012A1D
:1005300002D1B84C236806E0022A02D1B54C236AE6
:1005400001E0B44C636A01F01F02012494401C4294
:1005500001D0012000E0002010BD38B5002000903F
:100560000024002500BF3120FFF7DBFF054600987F
:10057000401C00900098B0F5A06F01D0002DF2D083
:100580003120FFF7CEFF08B1012400E0002420460F
:1005900038BD014600209F4A106820F0F80040EA6C
:1005A000C100106070479E490860704702460020F5
:1005B000984B586820F47C1042EA01031843954B8D
:1005C0005860704796490866704701460020914A76
:1005D000506820F003000843506070478D48406821
:1005E00000F00C007047014600208A4A506820F055
:1005F000F00008435060704701460020854A50686B
:1006000020F4E06008435060704701460020814AB2
:10061000506820F4605040EAC1005060704729B132
:100620007C4A527A02437B4B5A7204E0794A527AEE
:100630008243784B5A7270477A4908607047014686
:100640000020744A506820F44040084350607047CE
:100650000021754A11706F4A82F82010012802D0DB
:10066000042808D103E001216F4A117004E005213C
:100670006D4A117000E000BF00BF70476B49086011
:1006800070476449096A0143624A116270476749C9
:1006900044390860704730B500210022002400234F
:1006A0005C4D6D6805F00C0121B1042905D00829C5
:1006B00023D105E05E4D056022E05D4D05601FE041
:1006C000544D6D6805F47012524D6D6805F4803418
:1006D000022505EB92421CB9564D554305600BE0CF
:1006E0004C4D6D6815F4003F03D0524D55430560E5
:1006F00002E04F4D5543056002E04D4D056000BFDF
:1007000000BF444D6D6805F0F00109094A4D6B5C6E
:100710000568DD4045603F4D6D6805F4E061090AFC
:10072000454D6B5C4568DD4085603A4D6D6805F46C
:100730006051C90A404D6B5C4568DD40C560354D70
:100740006D6805F44041890B3C4D6B5CC568B5FB99
:10075000F3F5056130BD29B12E4A526902432D4B94
:100760005A6104E02B4A526982432A4B5A6170470E
:1007700029B1284A92690243264B9A6104E0254A2E
:1007800092698243234B9A61704729B1214AD26909
:100790000243204BDA6104E01E4AD26982431D4BBA
:1007A000DA61704729B11B4AD2680243194BDA60FB
:1007B00004E0184AD2688243164BDA60704729B1C8
:1007C000144A12690243134B1A6104E0114A126978
:1007D0008243104B1A6170471449403908607047D2
:1007E0000F49C86470470B49C87170470948406A8F
:1007F00040F0807007494862704701460020054A72
:1008000092680A4201D0012000E0002070470149AF
:1008100088727047001002400000FFF8FFFFF6FEEC
:1008200000004242D800424220100240800442426E
:1008300000127A0000093D0014000020240000206E
:1008400010B50446CA48844208D101210420FFF7AC
:10085000A9FF00210420FFF7A5FF46E0C548844218
:1008600008D101210820FFF79DFF00210820FFF794
:1008700099FF3AE0C048844208D101211020FFF7D7
:1008800091FF00211020FFF78DFF2EE0BB4884422E
:1008900008D101212020FFF785FF00212020FFF74C
:1008A00081FF22E0B648844208D101214020FFF7B1
:1008B00079FF00214020FFF775FF16E0B148844220
:1008C00008D101218020FFF76DFF00218020FFF774
:1008D00069FF0AE0AC48844207D101218015FFF787
:1008E00061FF0021A015FFF75DFF10BD10B50121CC
:1008F0000846FFF757FF00210120FFF753FF10BD07
:100900002DE9F041024600250026002000230024A6
:10091000002791F803C00CF00F0591F803C01CF0FC
:10092000100F03D091F802C04CEA050591F800C001
:10093000BCF1000F31D0146800202BE04FF0010C07
:100940000CFA00F3B1F800C00CEA03069E4220D175
:1009500083004FF00F0C0CFA03F7BC4305FA03FCBD
:100960004CEA040491F803C0BCF1280F06D14FF003
:10097000010C0CFA00FCC2F814C00AE091F803C0A4
:10098000BCF1480F05D14FF0010C0CFA00FCC2F885
:1009900010C0401C0828D1D31460B1F800C0BCF1CD
:1009A000FF0F34DD546800202EE000F1080C4FF0FA
:1009B000010808FA0CF3B1F800C00CEA03069E42E5
:1009C00021D183004FF00F0C0CFA03F7BC4305FA5A
:1009D00003FC4CEA040491F803C0BCF1280F05D1D4
:1009E00000F1080C08FA0CF8C2F8148091F803C062
:1009F000BCF1480F07D100F1080C4FF0010808FACC
:100A00000CF8C2F81080401C0828CED35460BDE812
:100A1000F0814FF6FF710180022181700421C170C5
:100A200070470246002093680B4201D0012000E08D
:100A3000002070470146886880B270470246002057
:100A4000D3680B4201D0012000E00020704701462E
:100A5000C86880B2704701617047416170470AB150
:100A6000016100E041617047C16070474FF480321E
:100A70000A438261816182618269826970470246AC
:100A80000020424B18684FF68073184040EA02106D
:100A900008433E4B186070473D49C8617047F0B548
:100AA0000A46002300240021002500F00046B6F18C
:100AB000004F02D1354EF16901E0344E7168C0F348
:100AC000034583B200F44016B6F5401F08D121F06B
:100AD00070612E4E766826F070662C4F7E6012E0B4
:100AE00000F48016B6F5801F06D1032606FA05F439
:100AF000A14341F0706106E0460D360103FA06F6A7
:100B0000B14341F0706122B1460D360103FA06F699
:100B1000314300F00046B6F1004F02D11B4EF161A7
:100B200001E01A4E7160F0BD30B500228B071C0F3A
:100B30000F2303FA04F2154B08338C1053F82430BA
:100B40009343124C08348D1044F8253023468C1002
:100B500053F824308C07240F00FA04F423430B4C81
:100B600008348D1044F8253030BD0A4908607047BC
:100B700000080140000C0140001001400014014039
:100B800000180140001C014000200140000001400D
:100B900000002042DC00204210B50446FB4884429D
:100BA00009D101218803FFF7FDFD00214FF48040AA
:100BB000FFF7F8FD32E0F648844209D101214804EC
:100BC000FFF7FDFD00214FF40030FFF7F8FD25E0B1
:100BD000F048844209D101218804FFF7F0FD00218B
:100BE0004FF48020FFF7EBFD18E0EB48844209D179
:100BF0000121C804FFF7E3FD00214FF40020FFF7B7
:100C0000DEFD0BE0E548844208D101210805FFF72D
:100C1000D6FD00214FF48010FFF7D1FD10BD2DE966
:100C2000F04786B005460E460024A24600BFA14606
:100C30000027B08900B100BF2F462C8A4CF6FF7008
:100C40000440F08804432C82AC894EF6F310044033
:100C5000B08831890843718908430443AC81AC8A68
:100C60004FF6FF400440B0890443AC8201A8FFF76F
:100C700012FDC648874202D1DDF810A001E0DDF880
:100C80000CA0A88910F4004F08D00AEBCA0000EBB2
:100C90000A1031684900B0FBF1F807E00AEBCA001E
:100CA00000EB0A1031688900B0FBF1F86420B8FB52
:100CB000F0F004012009642101FB1089A88910F4D7
:100CC000004F08D0322000EBC900B0FBF1F000F07B
:100CD0000700044308E0322000EB09106421B0FB58
:100CE000F1F000F00F0004432C8106B0BDE8F0875E
:100CF0004FF41651016000218180C18001810C21D7
:100D0000418100218181704710B502460020108A80
:100D10004FF2FF0318400B884C8823438C882343F1
:100D2000CC8823431843108210BD002101804180EC
:100D30008180C180704721B1828942F40052828152
:100D400004E082894DF6FF731A4082817047F0B546
:100D500003460024002600250020A1F510676A3F05
:100D600000D100BF1846C1F3421401F01F0601274D
:100D700007FA06F5012C01D10C3004E0022C01D158
:100D8000103000E014301AB107682F43076002E00A
:100D90000768AF430760F0BD1AB1838A0B438382B3
:100DA00002E0838A8B4383827047028A4FF6F07396
:100DB0001A400282028A0A430282704782894FF2F5
:100DC000FF731A40828182890A438281704721B170
:100DD000828942F00202828104E082894FF6FD732B
:100DE0001A4082817047028A4FF6DF731A400282EE
:100DF000028A0A430282704721B1028A42F4804289
:100E0000028204E0028A4BF6FF731A4002827047A6
:100E1000C1F308028280704701468888C0F3080049
:100E20007047818941F0010181817047028BD2B204
:100E30000283028B42EA012202837047028B02F492
:100E40007F420283028B0A430283704721B1828A68
:100E500042F02002828204E0828A4FF6DF731A4059
:100E60008282704721B1828A42F01002828204E0BD
:100E7000828A4FF6EF731A408282704721B1828ACC
:100E800042F00802828204E0828A4FF6F7731A4029
:100E90008282704721B1828942F40042828103E05C
:100EA0008289C2F30E028281704721B1828A42F4A4
:100EB0000062828204E0828A4FF2FF731A408282CB
:100EC0007047828A4FF6FB731A408282828A0A43F5
:100ED0008282704721B1828A42F00202828204E05B
:100EE000828A4FF6FD731A408282704702460020C4
:100EF000B1F5007F00D100BF13880B4201D0012063
:100F000000E00020704701F40072B2F5007F00D1CC
:100F100000BFCA430280704770B502460024002318
:100F200000250020A1F510666A3E00D100BFC1F384
:100F3000421501F01F03012606FA03F3012D02D129
:100F40009689334006E0022D02D1168A334001E033
:100F5000968A33400C12012606FA04F416883440AF
:100F600013B10CB1012000E0002070BD10B50022CB
:100F70000023A1F510646A3C00D100BF0A120124CD
:100F80009440A3B2DC43048010BD0000003801404F
:100F90000044004000480040004C00400050004029
:100FA00031490143314A1160704770B50021002377
:100FB0000F22C4780CB32D4C246804F4E064C4F50B
:100FC000E064210AC1F10403CA40447804FA03F141
:100FD0008478144021430901254C0678A1550478F2
:100FE00004F01F050124AC4005786D114FF0E02698
:100FF00006EB8505C5F8004109E0047804F01F05FB
:101000000124AC401B4D0678761145F8264070BD92
:10101000194A0A400243154B1B1F1A60704739B129
:10102000124A121D12680243104B1B1D1A6006E083
:101030000E4A121D126882430C4B1B1D1A6070472A
:10104000042808D14FF0E021096941F004014FF074
:10105000E022116107E04FF0E021096921F004016D
:101060004FF0E022116170470000FA050CED00E03E
:1010700000E400E080E100E080FFFF1F10B50446BF
:10108000FE48844208D10121C014FFF78BFB0021E8
:10109000E014FFF787FBC4E0B4F1804F08D10121D1
:1010A0000846FFF78CFB00210120FFF788FBB8E022
:1010B000F348844208D101210220FFF780FB002180
:1010C0000220FFF77CFBACE0EE48844208D101210E
:1010D0000420FFF774FB00210420FFF770FBA0E061
:1010E000E948844208D101210820FFF768FB00216C
:1010F0000820FFF764FB94E0E448844208D1012112
:101100001020FFF75CFB00211020FFF758FB88E060
:10111000DF48844208D101212020FFF750FB002145
:101120002020FFF74CFB7CE0DA48844208D1012103
:101130004014FFF737FB00216014FFF733FB70E02A
:10114000D548844209D10121C804FFF72BFB0021B7
:101150004FF40020FFF726FB63E0D048844209D11A
:1011600001210805FFF71EFB00214FF48010FFF757
:1011700019FB56E0CA48844209D101214805FFF70E
:1011800011FB00214FF40010FFF70CFB49E0C548AC
:10119000844208D101214020FFF711FB00214020AB
:1011A000FFF70DFB3DE0C048844208D101218020BB
:1011B000FFF705FB00218020FFF701FB31E0BB4872
:1011C000844208D101218015FFF7F9FA0021A0150A
:1011D000FFF7F5FA25E0B648844209D10121080459
:1011E000FFF7E0FA00214FF48030FFF7DBFA18E058
:1011F000B048844209D101214804FFF7D3FA002105
:101200004FF40030FFF7CEFA0BE0AB48844208D130
:1012100001218804FFF7C6FA00214FF48020FFF770
:10122000C1FA10BD00220288944B98420ED0994B0F
:1012300098420BD0B0F1804F08D0914B984205D026
:10124000904B984202D0904B984204D14FF68F7346
:101250001A404B881A438D4B984207D08C4B9842CA
:1012600004D04FF6FF431A40CB881A4302808B8884
:1012700083850B880385814B98420BD0854B984220
:1012800008D08B4B984205D08A4B984202D08A4BAB
:10129000984201D10B7A038601238382704770B58F
:1012A000002400220023058C4FF6FE76354005848D
:1012B000028C8388048B4FF68F752C40B51E2C4012
:1012C0000D882C43751E2A400D892A434D882A43D8
:1012D0006A4DA8420BD06F4DA84208D0744DA84269
:1012E00005D0744DA84202D0734DA84213D14FF6D9
:1012F000F7752A404D892A434FF6FB752A408D88A1
:101300002A434FF6FF652B404FF6FF552B408D8942
:101310002B43CD892B4383800483CD88858602842B
:1013200070BD70B5002400220023058C4FF6EF76C7
:1013300035400584028C8388048B48F6FF752C4069
:101340004FF6FF452C400D884FF6FF7606EA05253F
:101350002C434FF6DF752A400D8906EA05152A430E
:101360004D8806EA05152A43444DA84202D0494D4E
:10137000A8421DD14FF67F752A404D894FF6FF7662
:1013800006EA05152A434FF6BF752A408D8806EAFE
:1013900005152A434FF6FF352B404FF2FF752B40C2
:1013A0008D8906EA85052B43CD8906EA85052B4301
:1013B00083800483CD880587028470BD70B50024C6
:1013C00000220023058C4FF6FF6635400584028C11
:1013D0008388848B4FF68F752C404FF6FC752C401C
:1013E0000D882C434FF6FF552A400D894FF6FF76A6
:1013F00006EA05252A434D8806EA05252A431F4D9E
:10140000A84202D0234DA8421DD14FF2FF752A40B9
:101410004D894FF6FF7606EA05252A434FF6FF353C
:101420002A408D8806EA05252A434EF6FF752B4093
:101430004DF6FF752B408D8906EA05152B43CD89A6
:1014400006EA05152B4383808483CD888587028433
:1014500070BD70B5002200230024058C4EF6FF7687
:1014600035400584038C8488828B48F6FF752A40BA
:101470004FF6FF452A400D8820E00000002C014077
:101480000004004000080040000C00400010004034
:101490000014004000340140004C01400050014065
:1014A0000054014000180040001C00400020004093
:1014B0000040014000440140004801404FF6FF76E3
:1014C00006EA05252A434DF6FF752B400D8906EAED
:1014D00005352B434D8806EA05352B43FA4DA842C6
:1014E00002D0FA4DA84208D14BF6FF752C408D89E9
:1014F0004FF6FF7606EA85152C4384808283CD88DB
:10150000A0F84050038470BD828B4FF2FF331A4025
:101510008283828B4FF6FF7303EA01231A4382838F
:101520007047F0B50C461546002200210026078CB6
:101530004EF6FF7C07EA0C070784828B018C4FF67E
:10154000FF7707EA043640F6FF473A404FF6FF7749
:1015500007EA05273A434FF6FF7707EA03373A438E
:10156000D94FB8420ED0D94FB8420BD0B0F1804F0E
:1015700008D0D74FB84205D0D64FB84202D0D64F88
:10158000B84206D14DF6FF77394046F480573943CB
:1015900005E047F6FF57394044F4805739438283CA
:1015A0000184F0BD828B4FF6F3731A408283828BE5
:1015B0000A4382837047F0B50C461546002200218D
:1015C0000026078C4FF6FF6C07EA0C070784828B16
:1015D000018C4FF6FF7707EA04264FF60C773A4066
:1015E0004FF6FF7707EA03172F433A43B64FB84247
:1015F0000ED0B64FB8420BD0B0F1804F08D0B44FE8
:10160000B84205D0B34FB84202D0B34FB84206D16A
:101610004FF6FF57394046F48077394305E04FF2E3
:10162000FF57394044F48077394382830184F0BD09
:10163000028B4FF2FF331A400283028B4FF6FF7387
:1016400003EA01231A4302837047F0B50C4615469E
:10165000002200210026078C4FF6EF7C07EA0C07DA
:101660000784028B018C4FF6FF7707EA041640F6D9
:10167000FF473A404FF6FF7707EA03373A434FF602
:10168000FF7707EA05273A438F4FB8420ED08F4FB6
:10169000B8420BD0B0F1804F08D08D4FB84205D082
:1016A0008C4FB84202D08C4FB84206D14FF6DF774C
:1016B000394046F01007394305E04FF65F7739406F
:1016C00044F01007394302830184F0BD028B4FF6CA
:1016D000F3731A400283028B0A4302837047F0B50A
:1016E0000C46154600220021068C4FF6FE773E4040
:1016F0000684028B018C4FF60C7632407E1C06EA83
:1017000003162E433243704EB0420ED06F4EB0429D
:101710000BD0B0F1804F08D06D4EB04205D06D4E69
:10172000B04202D06C4EB04206D14FF6FD76314049
:1017300044F00106314305E04FF6F576314044F0C0
:101740000106314302830184F0BD70B505460C46A5
:101750005D4885420ED05D4885420BD0B5F1804F83
:1017600008D05B48854205D05A48854202D05A4885
:10177000854200D100E000BF208850B92389A288AB
:1017800061882846FFF7ABFFE1882846FFF79EFFF8
:1017900025E0208804280AD12389A2886188284668
:1017A000FFF753FFE1882846FFF742FF17E0208844
:1017B00008280AD12389A28861882846FFF7FBFE02
:1017C000E1882846FFF7EEFE09E02389A2886188B8
:1017D0002846FFF7A6FEE1882846FFF795FE70BD74
:1017E0002DE9F04105460C4600260127608808B91E
:1017F000022600E00026A088012801D1022700E08F
:1018000001272088A0B92389A28861882846FFF78C
:1018100066FFE1882846FFF759FF23893A4631469B
:101820002846FFF712FFE1882846FFF701FF13E083
:101830002389A28861882846FFF707FFE1882846A8
:10184000FFF7F6FE23893A4631462846FFF747FF61
:10185000E1882846FFF73AFFBDE8F0810A884B8807
:101860001A438B881A43CB881A430B891A434B8936
:101870001A438B891A43A0F8442070474FF6FF7132
:10188000818000210180C180418001727047002168
:10189000018041808180C180018141818181C1813C
:1018A0007047002101804180012181800021C18099
:1018B000018170470021018041808180C1800181C8
:1018C0004181818170470000002C014000340140BB
:1018D0000004004000080040000C004021B10288D4
:1018E00042F00102028004E002884FF6FE731A40C3
:1018F0000280704731B1B0F8442042F40042A0F8B1
:10190000442005E0B0F84420C2F30E02A0F84420C1
:1019100070471AB183890B43838102E083898B432B
:10192000838170478182704741EA0203A0F8483002
:1019300070471AB183890B43838102E083898B430B
:101940008381704701894FF6F87211400181704719
:101950000A46002101894FF68F7319401143018116
:10196000704730B504460D4629462046FFF7F0FF84
:10197000208940F00700208130BD2DE9F041044668
:101980000D4616461F46602D06D13B4601223146C4
:101990002046FFF75AFE05E03B460122314620462D
:1019A000FFF79DFE29462046FFF7D2FF208940F031
:1019B00007002081BDE8F08130B50C460021018987
:1019C000C9B24FF6FF7505EA0325154325432943A0
:1019D000018130BD2DE9F04105460E461746984677
:1019E000002443463A4631462846FFF7E5FF2C8956
:1019F0004FF6F870044044F007044FF68F7004402F
:101A000044F070042C81BDE8F081F0B504460D4629
:101A100016461F463B46324629462046FFF7CCFF76
:101A2000208940F480402081F0BD0185828270478A
:101A30000A46002101884FF68F7319401143018037
:101A40007047F0B50C4615461E46002100220023C3
:101A50000189028B038C4FF6F877394021434FF60A
:101A6000FC473A4040F201173A434FF6DD773B40DE
:101A70004FF6FF7707EA06172F433B4301810283A6
:101A80000384F0BD0A460021018B4FF68F73194085
:101A90001143018370470A460021018B48F6FF730A
:101AA00019404FF6FF7303EA02231943018370477D
:101AB0000A460021818B4FF68F73194011438183B1
:101AC00070470A460021818B48F6FF7319404FF694
:101AD000FF7303EA022319438183704721B102880F
:101AE00042F08002028004E002884FF67F731A40C1
:101AF0000280704721B1828842F00402828004E0B3
:101B000082884FF6FB731A408280704721B1828829
:101B100042F00802828004E082884FF6F7731A4090
:101B20008280704721B1828842F00102828004E005
:101B300082884FF6FE731A40828070470A46002161
:101B4000018B4FF6F77319401143018370470A4622
:101B50000021018B4FF2FF7319404FF6FF7303EA28
:101B600002231943018370470A460021818B4FF6F7
:101B7000F77319401143818370470A460021818B16
:101B80004FF2FF7319404FF6FF7303EA0223194324
:101B9000818370470A460021018B4FF6FB73194081
:101BA0001143018370470A460021018B4FF6FF3332
:101BB00019404FF6FF7303EA02231943018370476C
:101BC0000A460021818B4FF6FB7319401143818334
:101BD00070470A460021818B4FF6FF3319404FF6BC
:101BE000FF7303EA02231943818370470A460021E9
:101BF000018B4FF67F7319401143018370470A46EA
:101C00000021018BC1F30E014FF6FF7303EA02239B
:101C10001943018370470A460021818B4FF67F7379
:101C200019401143818370470A460021818BC1F31B
:101C30000E014FF6FF7303EA0223194381837047B5
:101C40000A460021018C4FF6FD73194011430184AF
:101C500070470A460021018C4FF6F7731940114373
:101C6000018470470A460021018C4FF6DF7319404A
:101C70004FF6FF7303EA02131943018470470A46C3
:101C80000021018C4FF67F7319404FF6FF7303EA72
:101C900002131943018470470A460021018C4FF654
:101CA000FF5319404FF6FF7303EA022319430184DF
:101CB00070470A460021018C4FF2FF7319404FF61E
:101CC000FF7303EA02231943018470470A46002187
:101CD000018C4DF6FF7319404FF6FF7303EA023390
:101CE00019430184704730B5002301248C40A3B20E
:101CF000048C9C430484048C02FA01F5ADB22C439D
:101D0000048430BD30B5002304248C40A3B2048C7D
:101D10009C430484048C02FA01F5ADB22C43048484
:101D200030BD70B503460020002418461830012548
:101D30008D40ACB21D8CA5431D8409B1082909D181
:101D400000EB6100056825F0700505600568154326
:101D500005600EE00D1FC5F34E052844056825F407
:101D6000E045056005684FF6FF7606EA0226354332
:101D7000056070BD21B1028842F00202028004E0D9
:101D800002884FF6FD731A400280704721B1028825
:101D900042F00402028004E002884FF6FB731A400E
:101DA0000280704721B1828842F08002828004E084
:101DB00082884FF67F731A408280704702884FF600
:101DC000F7731A40028002880A43028070478288B3
:101DD0004FF68F731A40828082880A438280704750
:101DE00002894FF6F8731A40028102890A43028180
:101DF000704702894FF67F731A40028102890A43B5
:101E00000281704781847047818570478186704761
:101E10000187704781877047A0F84010704702889B
:101E20004FF6FF431A40028002880A43028070473F
:101E30000146888E70470146088F70470146888F9B
:101E400070470146B1F8400070470146888C7047E2
:101E50000146088D704702460020138A0B4201D0CC
:101E6000012000E000207047CA430282704730B56D
:101E70000246002000230024158A05EA0103958903
:101E800005EA010413B10CB1012000E0002030BDCF
:101E9000CA4302827047000001460020FE4A1068D3
:101EA00000F03800084310607047FB49096821F0D2
:101EB0000801F94A11601146096801431160704731
:101EC000F549096821F01001F34A116011460968CB
:101ED000014311607047F148EF494860F04848609D
:101EE0007047EE48EC494860ED4848607047EA4862
:101EF000006940F08000E84908617047E6480069E1
:101F000040F08000E449086170470420E249C96854
:101F100011F0010F01D001200EE0DF49C96811F076
:101F2000040F01D0022007E0DB49C96811F0100F4F
:101F300001D0032000E00420704700B502460423CE
:101F4000FFF7E3FF034603E0FFF7DFFF0346521E00
:101F5000012B01D1002AF7D102B90523184600BD93
:101F600030B5044604254FF43020FFF7E6FF054660
:101F7000042D17D1C848006940F00200C649086125
:101F800008464461006940F0400008614FF4302089
:101F9000FFF7D3FF0546C048006941F6FD710840D0
:101FA000BD490861284630BD10B504244FF43020E7
:101FB000FFF7C3FF0446042C16D1B748006940F070
:101FC0000400B54908610846006940F04000086116
:101FD0004FF43020FFF7B1FF0446AF48006941F6E7
:101FE000FB710840AC490861204610BD00B50246AF
:101FF0000423FFF78AFF034603E0FFF786FF03464B
:10200000521E012B01D1002AF7D102B9052318462F
:1020100000BD10B504244FF43020FFF7E7FF04465D
:10202000042C16D19C48006940F004009A490861CC
:102030000846006940F0400008614FF43020FFF787
:10204000D5FF04469448006941F6FB710840924967
:102050000861204610BD00208F49C96911F0020FA8
:1020600001D0012000E00020704730B5A5250424F0
:10207000FFF7F1FF00B100254FF43020FFF75DFFBF
:102080000446042C3AD18548834988608448886096
:102090000846006940F0200008610846006940F0E9
:1020A000400008614FF43020FFF747FF0446042C3E
:1020B0001BD17948006941F6DF7108407649086113
:1020C0000846006940F01000086176480580E0028B
:1020D000FFF733FF0446052C10D06F48006941F626
:1020E000EF7108406C49086108E0052C06D06A4889
:1020F000006941F6EF71084067490861204630BD2C
:1021000078B506460C46042500200090E802FFF74B
:1021100014FF0546042D24D15F48006940F00100FA
:102120005D4908613480E802FFF707FF0546042D8A
:1021300010D1B01C0090200C00990880E802FFF735
:10214000FCFE05465448006941F6FE7108405249BC
:10215000086106E05048006941F6FE7108404E49AA
:102160000861284678BD70B504460D460426F00285
:10217000FFF7E3FE0646042E11D14748006940F000
:102180000100454908612580F002FFF7D6FE0646AA
:102190004148006941F6FE7108403F4908613046F8
:1021A00070BD70B505460E460424E002FFF7C5FE7B
:1021B0000446042C17D1394837498860384888606C
:1021C0000846006940F0100008612E80E002FFF729
:1021D000B4FE0446052C06D02F48006941F6EF7185
:1021E00008402D490861204670BD2DE9F0430446A2
:1021F0004FF6FF763746B046B1460425E443E6B2D3
:10220000C4F30727C4F307484FEA1469E802FFF74D
:1022100094FE0546042D49D120481F498860204876
:1022200088600846006940F010000861FF2E06D063
:102230001C4808300680E802FFF77FFE0546042DA3
:1022400008D1FF2F06D017480A300780E802FFF7B1
:1022500074FE0546042D0AD1B8F1FF0F07D01148CE
:102260000C30A0F80080E802FFF767FE0546042D59
:102270000AD1B9F1FF0F07D00A480E30A0F800903C
:10228000E802FFF75AFE0546052D0FD00248006907
:1022900041F6EF71084007E0002002402301674546
:1022A000AB89EFCD00F8FF1F664908612846BDE8FD
:1022B000F08330B5054604244FF43020FFF73DFE8F
:1022C0000446042C41D160485E4988605F488860BC
:1022D0000846006940F0200008610846006940F0A7
:1022E000400008614FF43020FFF727FE0446042C1D
:1022F00022D15448006941F6DF7108405149086114
:102300000846006940F0100008611DB100205049E6
:10231000088002E0A5204E4908804FF43020FFF7E6
:102320000CFE0446052C10D04648006941F6EF71BA
:1023300008404449086108E0052C06D0414800697E
:1023400041F6DF7108403F490861204630BDF0B5D5
:1023500005460E46174604243B483A4988603B48E8
:102360008860E002FFF7E9FD0446042C19D13548E6
:10237000006940F010003349086147F0F80030432D
:1023800028433349891C0880E002FFF7D6FD044644
:10239000052C06D02B48006941F6EF710840294909
:1023A00008612046F0BD2748C0698008704725486D
:1023B000006A704700202349096811F0200F01D0FE
:1023C000012000E00020704729B11E4A1269024333
:1023D0001C4B1A6104E01B4A12698243194B1A61B3
:1023E000704701460020012908D1164AD26912F02F
:1023F000010F01D0012008E0002006E0114AD26858
:102400000A4201D0012000E0002070470D49C86059
:10241000704704200B49C96811F0010F01D0012059
:102420000EE00849C96811F0040F01D0022007E04E
:102430000449C96811F0100F01D0032000E0042006
:10244000704700000020024023016745AB89EFCDB3
:1024500000F8FF1F0E49086070470D49486070473B
:102460000B49886070474AF6AA20094908607047FE
:102470004CF6CC4006490860704701460020044AEB
:10248000D2680A4201D0012000E00020704700001D
:10249000003000407047F749086000BFF5490968FF
:1024A0000029FBD1704710B5002400BF13E0552070
:1024B000F149096808555521EF480268601C11541C
:1024C000AA21ED480268A01C1154EB480268E01CE8
:1024D0001154201D84B2B4F5586FE8DBE64800685B
:1024E00002F07EF9E448006802F05AFE4FF47A7078
:1024F000FFF7D1FF002413E0AA20DF49096808553F
:10250000AA21DD480268601C11545521DA4802688E
:10251000A01C1154D8480268E01C1154201D84B23C
:10252000B4F5586FE8DBD448006802F059F9D24896
:10253000006802F035FE4FF47A70FFF7ACFF10BD73
:102540002DE9F0418046002700250026B8F1050F4F
:102550000ED2DFE808F0030507090B00C74D09E0BC
:10256000C74D07E0C74D05E0C74D03E0C74D01E08B
:10257000002500BF00BFF5B12C462D1D208887B275
:10258000B7F5586F17D1002610E02C462D1DB91B4A
:10259000042901DD042100E0B91B0A46B649096897
:1025A0008819214603F045FE301D86B2BE42ECDBA1
:1025B0000120B7490870BDE8F081B6490A68120CDD
:1025C00002800A884280091D0A7802710279012A74
:1025D00002DB0279042A01DD0122027190220280CD
:1025E000602242807047002402F072FFAA48FFF781
:1025F000E4FF02F0E0FF03F058F802F080FFA74884
:1026000000684FF47A72B0FBF2F1B1F1807F00D331
:102610001DE021F07F40401E4FF0E0225061501736
:102620000F22002807DA13071E0E9D4B00F00F053E
:102630002D1F5E5503E013071D0E9A4B1D5400BF5E
:1026400000204FF0E02290610720106100BF03F0EE
:10265000A7F80120FEF712F800BF6120FDF761FF27
:102660000028FAD045F25550FFF7F4FE0620FFF798
:10267000F4FE40F6FF70FFF7F3FEFFF7F4FEFFF7FE
:10268000F7FE4FF4586003F097FC7B4908604FF465
:1026900058617948006803F043FE01207C490870C6
:1026A000814908807C4A1188CA1701EB9272921006
:1026B0007D4B1B8802FB03F0C21700EB5272D21055
:1026C0007A4B1A6000207A49887148710120794953
:1026D000087000207849087008460078FFF730FF3E
:1026E0006BE0FFF7C0FE7548008802280BDB7448DA
:1026F0000188744803F014FE0020714908806F4976
:102700000880714908707148007878B36848857905
:1027100000240AE0002004EB440101EB04116C4AA0
:10272000126811440873601C84B26A4800788442BD
:10273000F0DB00205E49887103E0FFF794FEFFF7AD
:10274000B2FE654800780028F7D04FF458614A4837
:10275000006803F0E5FD01204D490870544885717B
:1027600000205D4908705949087000BF5B48007837
:1027700018B34F48857900240AE0002004EB440197
:1027800001EB0411524A126811440873601C84B2B0
:10279000504800788442F0DB4FF4586136480068B6
:1027A00003F0BEFD002042498871FFF773FE4048E8
:1027B000857100204949087000BF92E710B50246B4
:1027C000002011E000BF464B1B8813F0800FFAD0A9
:1027D000135C434C241D238000BF414B1B8813F026
:1027E000400FFAD0431C98B28842EBDB10BD2DE9B4
:1027F000FF4F05468C46DDF834E0109C0022002691
:10280000924600200021AA5D814693E0DDF83CB0AD
:1028100004FB0EB74FEAE77B07EB9B7BCBF38F0004
:10282000DDF83CB004FB0EB74FEAE77B07EB9B7B80
:102830004FEAAB0BA7EB8B0B4FEA4B6B4FEA1B61DD
:102840004FF000086EE01F5C4FF0030B0BFA01FB2A
:1028500027EA0B071F5412F0030F4BD0119F47B10B
:1028600013F800B0119F8F404BEA070B03F800B03C
:1028700040E037E0480000205000002000900408AD
:1028800000B0040800D0040800F004080010050897
:102890003900002000A00508600000200000002092
:1028A00018ED00E000E400E03A00002030000020D5
:1028B00058000020370000203C000020700000205D
:1028C000280000209500002068000020340000202F
:1028D000540000202B00002035000020360000208E
:1028E000003801401F5C02F0030B0BFA01FB47EAC2
:1028F0000B071F5492100AF1010707F0FF0A8F1C03
:10290000F9B2BAF1040F04D1771CBEB2AA5D4FF040
:10291000000A082902D10021471CB8B208F10107BA
:102920001FFA87F8E0458EDB671CBCB209F101078E
:102930001FFA87F9029FB945FFF668AFBDE8FF8F20
:102940002DE9F04104460D4600260027B44600213B
:1029500003FB052081B208464FEAE17801EB987845
:102960004FEAA8064FEAE17801EB98784FEAA80809
:10297000A1EB88084FEA48684FEA1867A05D384124
:1029800000F0030C6046BDE8F0812DE9FF4F81B0F7
:1029900014469846DDF838B04FF00009002000904A
:1029A0000027824600BF002525E000261FE0109882
:1029B000284483B20F98304482B2DDE90101FFF769
:1029C000BFFF00900098B84040EA090000F0FF09FE
:1029D000B81CC7B2082F08D1002784F80090641CE7
:1029E000B9460AF101001FFA80FA701C86B246450A
:1029F000DDDB681C85B25D45D7DB504605B0BDE820
:102A0000F08F0FB430B589B0119CFC4800780628CF
:102A10001CD2DFE800F003070B0F13170020F84962
:102A2000087014E00120F649087010E00220F44913
:102A300008700CE00320F249087008E00420F04917
:102A4000087004E00520EE49087000E000BF00BFF8
:102A50000420ADF81800BDF8180003F0ADFACDF869
:102A60001A00DDF81A0020B9012009B030BC5DF869
:102A700014FBE44800780A2190FBF1F0401CDF4988
:102A8000085CDDF81A100870DE4800780A2190FB17
:102A9000F1F201FB1200401CD849085CDDF81A1065
:102AA0004870D648C07ADDF81A108870D348007B89
:102AB000DDF81A10C8700C2003F07EFACDF81E0065
:102AC000DDF81E0008B90120CFE7DDF81E000090F8
:102AD000BDF83930BDF83720BDF81850E9B2DDF83F
:102AE0001A0003F03DF8BDF83400BDF83210602242
:102AF000CDE90304CDE9012190200090DDF81E30DE
:102B00005A8819889868C04B1B68FFF770FEDDF87B
:102B10001E10886803F080FADDF81E0003F07CFACE
:102B2000DDF81A0003F078FA00209EE70FB470B5C4
:102B300088B0DDE91145B548007806281CD2DFE8E9
:102B400000F003070B0F13170020B149087014E0C1
:102B50000120AF49087010E00220AD4908700CE078
:102B60000320AB49087008E00420A949087004E07C
:102B70000520A749087000E000BF00BF0520ADF8A0
:102B80001400BDF8140003F017FACDF81600DDF8B4
:102B9000160020B9012008B070BC5DF814FB9D48F8
:102BA0008078012101EB20109849085CDDF81610AF
:102BB00008709848807800F00F00401C9349085C2A
:102BC000DDF8161048709148C07ADDF8161088704C
:102BD00090484078012101EB20108C49085CDDF819
:102BE0001610C8708B48407800F00F00401C8749D1
:102BF000085CDDF8161008710C2003F0DDF9CDF843
:102C00001A00DDF81A0008B90120C4E7DDF81A003F
:102C10000090BDF83930BDF83720BDF81460F1B22E
:102C2000DDF8160002F09CFFBDF83400BDF832104C
:102C30006022CDE90304CDE9012190200090DDF868
:102C40001A305A88198898686F4B1B68FFF7CFFDB8
:102C5000DDF81A10886803F0DFF9DDF81A0003F0D8
:102C6000DBF9DDF8160003F0D7F9002093E7F0B5A3
:102C70000D461E46059C002106FB0523DF1703EBCE
:102C80009777C7F38F011346D71702EB9777BF10DB
:102C9000A2EB87074FEA470C04F0030707FA0CF78B
:102CA000FCB2D71702EB9777BF10A2EB87074FEA6A
:102CB000470C032707FA0CF710F801C02CEA0707A6
:102CC0004754435C23434354F0BD78B50446002584
:102CD000002600BF16E000260EE000200090A0882D
:102CE000284483B26088304482B29021464800680C
:102CF000FFF7BDFF701C86B2B4F80700B042ECDCF1
:102D0000681C85B2B4F80900A842E4DC01204249FD
:102D1000087078BD2DE9F04788B004462046FFF7DB
:102D2000D4FFE07A012806D0022879D0032875D094
:102D3000052874D1A3E0D4F80D5000260027288878
:102D4000B4F80710884201DA288801E0B4F80700D7
:102D500006466888B4F80910884201DA688801E0FC
:102D6000B4F8090007466879002845D12888B042A0
:102D700002DC6888B8422EDD4FF00008C14606FB31
:102D800007F1C81CC11700EB9171C1F38F09012134
:102D9000484603F01FF980460020CDE900700290FC
:102DA0002988A86833464246FFF7EFFD0022A08835
:102DB00061886023CDE90131CDE9030290200090C4
:102DC00011483A46314603684046FFF710FD404639
:102DD00003F022F910E00022A08861886023CDE989
:102DE0000131CDE90302902000906A882988A86803
:102DF000054B1B68FFF7FBFCD6E011E088000020C4
:102E0000450000202C000020500000207C00002005
:102E1000440000203D000020390000201DE0C2E0F9
:102E20006088FE490880A088488001200871887168
:102E3000084640790979CDE90110208AADF80000F3
:102E4000A07C8DF802001322214603A803F0F1F9BB
:102E500003A80FC8FFF76AFEA6E001200190208AB0
:102E6000ADF80000A07C8DF802001322214603A8D3
:102E700003F0DFF903A80FC8FFF7C3FD94E0D4F80F
:102E80000D5000260027B146D5F806000088B4F89A
:102E90000710884203DAD5F80600008801E0B4F88C
:102EA00007000646D5F806004088B4F809108842A5
:102EB00003DAD5F80600408801E0B4F809000746B7
:102EC000D5F80600407900286CD1D5F806000088B6
:102ED000B4F8071088420DDAB4F80710D5F80620C8
:102EE0001288881A00EBD071628802EB61011FFA28
:102EF00081F901E0B4F80290D5F806000088B042EC
:102F000004DCD5F806004088B84237DD4FF00008F1
:102F1000C24606FB07F1C81CC11700EB9171C1F353
:102F20008F0A0121504603F055F88046B8F1000F92
:102F30001FD00020CDE900700290D5F8062011883E
:102F4000906833464246FFF720FD0021A0886022AA
:102F5000CDE90129CDE9030190200090B0483A461F
:102F6000314603684046FFF742FC404603F054F800
:102F700003E0012008B0BDE8F08713E00021A0883D
:102F80006022CDE90129CDE903019020009055F898
:102F9000063F5A8855F8063919889868A04B1B686F
:102FA000FFF725FC00E000BF00BF01209D4908702D
:102FB0000020DFE70FB400B587B0BDF82200BDF8F0
:102FC0003610884213DD132208A901A803F076F910
:102FD000BDF84400ADF800009DF846008DF80200F1
:102FE0000DA80FC8FFF7E6FF07B05DF814FBBDF8AA
:102FF0002200BDF827100844BDF83610884201DAD7
:103000000020F1E7BDF82400BDF83810884208DC44
:10301000BDF82400BDF829100844BDF838108842D6
:103020000EDDBDF83800BDF8241088420ADCBDF87A
:103030003800BDF83D100844BDF82410884201DC7A
:103040000020D1E70120CFE72DE9F0438DB00646FF
:1030500000BF4FF0000800200C90002700247248A9
:10306000007800EB400101EB00107049096808444A
:1030700031190A6802604A684260896881600C34CC
:1030800000206949097801EB410202EB0111674A0E
:1030900012681144A1F811006349097801EB41025B
:1030A00002EB0111614A1268114408735E4800780E
:1030B00000EB400101EB00105C490968084480798D
:1030C00000280ADD5849097801EB410202EB0111A1
:1030D000564A12688818FFF7F8FD5348007800EB4D
:1030E000400101EB0010514909680844C07A0128E9
:1030F00006D0022850D0032866D0052877D177E083
:1031000000250C2002F058FF4749097801EB4102E5
:1031100002EB0111454A12681144C1F80D00424802
:10312000007800EB400101EB0010404909680844B9
:10313000D0F80D0018B901200DB0BDE8F0833A4871
:10314000007800EB400101EB0010384909680844A1
:10315000D0F80D504FF0060831194246284603F0CA
:1031600068F804EB080084B229886A885143C81CB7
:10317000C11700EB9171C1F38F01E980E88802F07B
:103180001BFFA860A86808B90120D5E7EA883119B3
:10319000A86803F04EF8B2E0301900880C90A01C2B
:1031A00084B23119BDF83020214803F042F8BDF84F
:1031B0003000204484B230191E4902680A608288B7
:1031C0008A80807988719AE0301900880C90A01C60
:1031D00084B23119BDF83020174803F02AF8BDF841
:1031E0003000204484B2305D1449087087E085E0E7
:1031F00000250A2002F0E0FE0B49097801EB4102AC
:1032000002EB0111094A12681144C1F80D00064889
:10321000007800EB400101EB001011E058000020A5
:1032200050000020390000202B0000205400002016
:103230007C0000203D000020880000202C000020A1
:10324000FB4909680844D0F80D0008B9012073E76C
:10325000F848007800EB400101EB0010F4490968E0
:103260000844D0F80D50601C305C2880305D29780F
:1032700040EA01202880A01C84B2288802F09CFE2D
:10328000C5F80200D5F8020008B9012054E72A88E1
:103290003119D5F8020002F0CCFF0C2002F08CFEB0
:1032A000C5F80600D5F8060008B9012044E7D5F8AE
:1032B0000600DFF880C300909CF800C00CEB4C09BE
:1032C00009EB0C1CDFF86893D9F80090CC44BCF8EB
:1032D0000930DFF860C39CF800C00CEB4C0909EB27
:1032E0000C1CDFF84C93D9F80090CC44BCF80720B4
:1032F0002978D5F8020002F033FC00E000BF00BFDF
:10330000CC48007800EB400101EB0010C849096887
:1033100008448079F0BBC749097801EB410202EB10
:103320000111C34A12688818FFF7F4FC00273EE039
:1033300007EB470000EB0710BD4909680844807996
:1033400048B307EB470000EB0710B94A1268811831
:10335000132201A802F06DFF07EB470000EB0710F6
:10336000B34909680844018AADF80010807C8DF8E3
:10337000020007EB470000EB0710AD4A1268811806
:10338000132207A802F055FF07A80FC8FFF712FE87
:1033900008B101E010E008E007EB470101EB07117D
:1033A000A34A12688818FFF7B5FC781CC7B2A14879
:1033B00000788742BCDB0AE09E49097801EB4102B4
:1033C00002EB01119A4A12688818FFF7A3FC01204A
:1033D0009849097801EB410202EB0111944A126805
:1033E000114408730020A7E600210160416081605C
:1033F00070472DE9F04F91B082460E460024A0465A
:103400000025A1460020109000BF19E204EB440003
:1034100000EB0410864909680844008850457DD1B6
:1034200004EB440000EB0410814909680844C07AA9
:10343000012802D0052839D117E004EB440000EB45
:1034400004107B4909680844D0F80D70B86802F090
:10345000E3FD04EB440101EB0411754A12681144C9
:10346000D1F80D0002F0D8FD21E004EB440000EBA0
:1034700004106F4909680844D0F80D7007F102077D
:103480007968886802F0C8FD786802F0C5FD386880
:1034900002F0C2FD04EB440101EB0411644A12681E
:1034A0001144D1F80D0002F0B7FD00E000BF00BFED
:1034B0000BA8FFF799FF00254FF00C0971194A4638
:1034C0000BA802F0B6FE04EB440000EB04105849D0
:1034D000096808444088BDF82E10884227D104EBC3
:1034E000440000EB04105249096808448088BDF884
:1034F000301088421BD104EB440000EB04104C490F
:1035000009680844B0F80700BDF8331088420ED1AE
:1035100004EB440000EB0410454900E08EE109682B
:103520000844B0F80900BDF83510884208D004EB13
:10353000440101EB04113E4A12688818FFF7C5FBED
:10354000711904EB440202EB0412394B1B68D018CA
:103550004A4602F06EFE002004EB440101EB041128
:10356000334A12681144087305EB090085B204EB75
:10357000440000EB04102E4909680844C07A012871
:1035800006D0022858D003286ED005287ED180E0CE
:1035900000270C2002F010FD04EB440101EB0411A4
:1035A000234A12681144C1F80D0004EB440000EBFB
:1035B00004101F4909680844D0F80D0018B901200B
:1035C00011B0BDE8F08F04EB440000EB0410184983
:1035D00009680844D0F80D704FF0060971194A4681
:1035E000384602F026FE05EB090085B239887A8854
:1035F0005143C81CC11700EB9171C1F38F01F980D1
:10360000F88802F0D9FCB860B86808B90120D7E79B
:10361000FA887119B86802F00CFE002004EB44012E
:1036200001EB0411024A12681144A1F8110096E05E
:10363000540000202B000020701900881090A81C56
:1036400085B27119BDF84020FE4802F0F2FDBDF8C8
:103650004000284485B27119FB480A6802608A88D4
:103660008280897981717AE0701900881090A81C95
:1036700085B27119BDF84020F44802F0DAFDBDF8BA
:103680004000284485B2705DF14900E066E00870B2
:1036900065E000270A2002F08FFC04EB440101EBF7
:1036A0000411EC4A12681144C1F80D0004EB440007
:1036B00000EB0410E74909680844D0F80D0008B988
:1036C00001207DE704EB440000EB0410E1490968A8
:1036D0000844D0F80D70681C305C3880705D397813
:1036E00040EA01203880A81C85B2388802F064FCCA
:1036F000C7F80200D7F8020008B9012060E73A884D
:103700007119D7F8020002F094FD0C2002F054FC6D
:10371000C7F80600D7F8060008B9012050E7D7F827
:10372000060004EB440C0CEB041CDFF828B30090FB
:10373000DBF800B0DC44BCF8093004EB440C0CEBC3
:10374000041CDFF810B3DBF800B0DC44BCF8072041
:103750003978D7F8020002F003FA00E000BF00BF9A
:1037600004EB440000EB0410BA490968084480796E
:10377000E8BB04EB440101EB0411B64A1268881857
:10378000FFF7C8FA4FF0000840E008EB480000EBF4
:103790000810B04909680844807948B308EB48002C
:1037A00000EB0810AB4A12688118132201A802F03E
:1037B00040FD04EB440000EB0410A64909680844EE
:1037C000018AADF80010807C8DF8020004EB440003
:1037D00000EB04109F4A12688118132206A802F019
:1037E00028FD06A80FC8FFF7E5FB08B101E012E0CD
:1037F00008E008EB480101EB0811964A12688818A6
:10380000FFF788FA08F101001FFA80F89248007863
:103810008045BADB08E004EB440101EB04118D4A5A
:1038200012688818FFF776FA012004EB440101EBD7
:103830000411884A12681144087306E0601C84B2BF
:10384000854800788442FFF6E1AD00BF0020B7E66E
:103850002DE9F0438BB0074600250024A146002641
:1038600000BFAFE105EB450000EB051079490968A1
:1038700008440088B8427DD1012005EB450101EBE9
:103880000511744A12681144087305EB450101EBF8
:103890000511704A12688818FFF717FA05EB450002
:1038A00000EB05106B49096808448079002868D14D
:1038B000002445E004EB440000EB0410654909686E
:1038C00008448079D0BB04EB440000EB041061494C
:1038D000096808440088B84230D004EB440000EB8B
:1038E00004105C4A12688118132201A802F0A1FC9E
:1038F00005EB450000EB0510564909680844018AAC
:10390000ADF80010807C8DF8020005EB450000EB5F
:103910000510504A12688118132206A802F089FC8B
:1039200006A80FC8FFF746FB40B104EB440101EBCA
:103930000411484A12688818FFF7ECF9601C84B239
:10394000454800788442B5DB002415E004EB4400D0
:1039500000EB04103F4909680844807940B104EB4A
:10396000440101EB04113B4A12688818FFF7D2F9B1
:10397000601C00E024E184B2374800788442E5DB33
:103980007CE005EB450000EB05103249096808446E
:103990008079012872D100243BE004EB440000EB65
:1039A00004102C4909680844807980BB04EB44006A
:1039B00000EB0410274A12688118132201A802F0B4
:1039C00038FC05EB450000EB051022490968084466
:1039D000018AADF80010807C8DF8020005EB4500EF
:1039E00000EB05101B4A12688118132206A802F08A
:1039F00020FC06A80FC8FFF7DDFA40B104EB440134
:103A000001EB0411134A12688818FFF783F9601C50
:103A100084B2114800788442BFDB00242AE004EB22
:103A2000440000EB04100B49096808448079F8B1A0
:103A300004EB440000EB04100649096808440088C0
:103A4000B8420BE07C0000203D00002088000020F0
:103A50002C000020540000202B00002008D004EB94
:103A6000440101EB0411FC4A12688818FFF752F96F
:103A7000601C84B2F94800788442D0DB1321F848F6
:103A8000007802F0A7FA0646002410E004EB440296
:103A900002EB0412F04B1B68D11804EB440202EB5A
:103AA00004129019132202F0C4FB601C84B2EB488C
:103AB00000788442EADBE848006802F0ADFAE848A2
:103AC0000078401EE64908701321E548007802F0AE
:103AD00081FAE14908604FF00009002463E004EB3B
:103AE000440000EB041030440088B84213D004EBCB
:103AF000440202EB0412911909EB490202EB09128C
:103B0000D54B1B68D018132202F093FB09F101007A
:103B10001FFA80F945E004EB440000EB0410304448
:103B2000C07A012804D0022817D0052837D118E020
:103B300004EB440000EB04103044D0F80D80D8F8BA
:103B4000080002F069FA04EB440101EB041131446E
:103B5000D1F80D0002F060FA22E00020C14988711E
:103B60001EE004EB440000EB04103044D0F80D805C
:103B7000D8F80610886802F04FFAD8F8060002F06C
:103B80004BFAD8F8020002F047FA04EB440101EBCB
:103B900004113144D1F80D0002F03EFA00E000BFFC
:103BA00000BF601C84B2AD480078844297DBAB480C
:103BB0000078401EA9490870304602F02DFA06E050
:103BC000681C85B2A54800788542FFF64BAE00BF61
:103BD00000200BB0BDE8F08370B58CB00646002520
:103BE000002400BF01E105EB450000EB05109A49F8
:103BF000096808440088B0427ED1012005EB4501E8
:103C000001EB0511944A12681144087305EB450154
:103C100001EB0511904A12688818FFF756F805EB7A
:103C2000450000EB05108C4909680844807900289C
:103C300068D1002445E004EB440000EB0410864901
:103C4000096808448079D0BB04EB440000EB041001
:103C50008149096808440088B04230D004EB440030
:103C600000EB04107C4A12688118132201A802F0AC
:103C7000E0FA05EB450000EB0510774909680844B8
:103C8000018AADF80010807C8DF8020005EB45003C
:103C900000EB0510704A12688118132207A802F081
:103CA000C8FA07A80FC8FFF785F940B104EB440133
:103CB00001EB0411684A12688818FFF72BF8601CA2
:103CC00084B2664800788442B5DB002413E004EB3C
:103CD000440000EB0410604909680844807940B151
:103CE00004EB440101EB04115B4A12688818FFF7EA
:103CF00011F8601C84B200E075E0584800788442F6
:103D0000E5DB6FE005EB450000EB05105249096863
:103D100008448079012865D100243BE004EB44008D
:103D200000EB04104C4909680844807980BB04EB1F
:103D3000440000EB0410484A12688118132201A8BD
:103D400002F077FA05EB450000EB051042490968DF
:103D50000844018AADF80010807C8DF8020005EB64
:103D6000450000EB05103C4A12688118132207A891
:103D700002F05FFA07A80FC8FFF71CF940B104EB87
:103D8000440101EB0411344A12688818FEF7C2FF9F
:103D9000601C84B2314800788442BFDB00241DE0FF
:103DA00004EB440000EB04102B49096808448079B7
:103DB00090B104EB440000EB041027490968084463
:103DC0000088B04208D004EB440101EB0411224A00
:103DD00012688818FEF79EFF601C84B21F480078A6
:103DE0008442DDDB06E0681C85B21C480078854211
:103DF000FFF6F9AE00BF0CB070BD73B5002404250A
:103E0000FEF76FF81848FEF7ABF80546BDF802005C
:103E1000BDF8001040EA014421461348FEF770F94E
:103E200005469DF8044021460F48001DFEF768F93D
:103E30000546FEF763F87CBD2DE9F84F0746884636
:103E40001546002400200090002681464FF0040A09
:103E5000052F1AD20AE00000540000202B00002099
:103E60002A0000205800002000A00508DFE807F025
:103E7000030507090B00F84E09E0F84E07E0F84E7D
:103E800005E0F84E03E0F84E01E0002600BF00BF59
:103E9000002E2CD0FEF725F8B146002406E0484657
:103EA000FEF75EF8824609F50069641C042CF6D31F
:103EB00029463046FEF724F98246361D002412E0DA
:103EC000281B042801D9042000E0281B024608EB27
:103ED0000401684602F0ADF930460099FEF710F98A
:103EE0008246361D241DAC42EAD3FEF707F8BDE832
:103EF000F88F2DE9F04387B00024002006900026BB
:103F0000022005900027D948007801287ED1D748A3
:103F10004078801E14287AD2DFE800F0D8FEFD79C0
:103F2000FCFBFAF937C2B6BC663E132543790AF8A2
:103F30000020049075200490022104A8FEF73EFCA6
:103F400040E2002500200490C8488578B0F80300BE
:103F50000490BDF81020C549491D2846FFF76CFFA5
:103F6000002005902EE20020C14988710120C1493E
:103F700008700020C049087008460078FEF7E0FA93
:103F80000020BE49087005901CE20020B949087065
:103F90000120BB49087015E2002000F033FE00F05C
:103FA0002DFAB2484088ADF80C00B0488088ADF8D2
:103FB0000E00AE4880798DF810009DF81000B149D0
:103FC000097988420DD09DF8100001280BDB9DF87F
:103FD0001000042807DCDDE90301FFF70EFF00F005
:103FE0000DFA01200590EDE14FF00008002004904B
:103FF000002581469D4890F80280B0F803000490A7
:10400000BDF8100001F0D8FF054601E0DBE1D6E184
:1040100085B3BDF810209549491D284602F009F9DD
:10402000B8F1060F16D2DFE808F00306090C0F12EC
:10403000DFF8549211E0DFF854920EE0DFF850926E
:104040000BE0DFF8509208E0DFF84C9205E0DFF873
:104050004C9202E04FF0000900BF00BFB9F1000F21
:1040600009D0BDF810202946484601F045FF002040
:10407000059002E005E001200590284601F0CCFF04
:1040800001E0012005909DE1012085490870002094
:10409000059097E10120834908700020059091E187
:1040A00000200590012105A8FEF788FB022005905D
:1040B000002400E0641C4CF250308442FAD34FF4E8
:1040C000586179480068FEF779FB7BE1002455E0F0
:1040D00004EB440000EB0410744909680844C07AFA
:1040E00001281FD104EB440000EB04106F4909685C
:1040F0000844D0F80D50A86801F08EFF04EB44018D
:1041000001EB0411694A1268114406E0D8E0E1E0CD
:10411000EAE0F5E084E05CE05AE0D1F80D0001F05F
:104120007BFF2AE004EB440000EB04105F490968C0
:104130000844C07A052820D100BF04EB440000EBFE
:1041400004105A4909680844D0F80D5055F8020F78
:1041500001F062FF6968886801F05EFF686801F03D
:104160005BFF04EB440101EB0411504A1268114457
:10417000D1F80D0001F050FF00BF641C4C480078DE
:104180008442A5D34A480078002803DD47480068E8
:1041900001F042FF00204649087046490870344942
:1041A00088713449087034490870344908706020B7
:1041B000ADF809009020ADF807000020ADF802002E
:1041C000ADF804006846FEF780FD00200590F9E098
:1041D000F8E000200490254840880490BDF81000C5
:1041E000082803DCBDF81000012802DA0120059040
:1041F00015E0BDF8100030490880224A1188CA171E
:1042000001EB927292102C4B1B8802FB03F0C21739
:1042100000EB5272D210294B1A6000200590D1E0B9
:104220006020ADF809009020ADF807000020ADF83F
:104230000200ADF804006846FEF747FD0B488078A1
:104240001C49087013211B48007801F0C3FE174970
:10425000086000200590B5E00090040800B0040854
:1042600000D0040800F004080010050895000020A4
:1042700058000020370000203C0000206E00002085
:104280003600002060000020000004080018040828
:10429000003004080048040800600408007804089E
:1042A0003400002035000020500000205400002081
:1042B0002B0000202A0000203A00002030000020BF
:1042C000554840880690BDF81800FFF785FC00208F
:1042D000059077E0504840880690BDF81800FFF739
:1042E000B7FA002005906DE04B48408806904A4997
:1042F000891CBDF81800FFF77CF80020059061E0EC
:1043000045484088069000240DE004EB440000EB93
:1043100004104249096808440088BDF81810884212
:1043200000D104E0641C3E4800788442EDD300BF15
:104330003B480078844202D2012005903EE0384894
:10434000007838490978884228DB00BF3548007872
:10435000401C344908700846007800EB400101EB2E
:10436000001631462D48006801F046FE054695B11D
:104370002A4805602848801CFEF766FE07463FB9BC
:104380000020059026480078401C2549087004E06C
:104390000120059001E0012005900FE01E48801CDF
:1043A000FEF752FE07463FB9002005901C480078F2
:1043B000401C1B49087001E00120059002E001202B
:1043C000059000BF01E001200590174801881248C0
:1043D00001F0A6FF0020144908809DF8140002286F
:1043E00003D0012105A8FEF7E9F907B0BDE8F08385
:1043F00000BF0100A0F10100FBD170470B4800682D
:1044000000F4E0600A490843001D08490860BFF352
:10441000408F00BFFEE70000950000205400002000
:104420002B0000202A000020280000200CED00E0D6
:104430000000FA05704700F0DAF800F0D8F800F054
:10444000D6F800F0D4F87047704770476E4800689F
:1044500020B16D480068401E6B49086070476B488A
:10446000008810F0200F34D00021694A118001210A
:10447000684A11706549091D0988C8B266490988EA
:10448000B1F5015F21DA6549634A128888546249AF
:104490000988491C604A118011460988012903D105
:1044A000012801D0002111805B490988491E5B4A1F
:1044B000515C0A290CD158490988891E515C0D2983
:1044C00006D10121564A117002E00121544A1170AF
:1044D00005E000204D490888091D088800BF704785
:1044E000704710B54F480088401C4E490880084668
:1044F00000880A2838DB4748007820B14448008803
:10450000401C434908804848807950B1464840796A
:10451000012803D100204449487102E001204249AA
:10452000487142480078E0B100203F498871404816
:104530000078401C3E490870084600780A2810DBC5
:104540003C480078401C3B49087008460078052824
:1045500001D100200870012037490870002034493B
:10456000087000202F49088001213448FDF77CFCA9
:1045700010BD10B532480068022805DA30480068DE
:10458000401C2F49086006E02E48006800F008FE35
:1045900000202B49086001218807FDF765FC10BD4C
:1045A00010B51F48007820B1FFF7A3FC00201C497C
:1045B00008702148007830B11E480078FDF7C0FF30
:1045C00000201D4908702048007858B11D48006837
:1045D00000F006F901201D49087000201A490870F2
:1045E0001B49087001211B48FDF73EFC10BD1A480D
:1045F000006800F4E06019490843001D164908608E
:10460000BFF3408F00BFFEE74800002000380140A4
:104610007000002068000020280000209500002085
:10462000690000206C0000205800002037000020A6
:104630006E0000203C0000206A00002000100040B6
:10464000740000205000002039000020720000207B
:1046500073000020000400400CED00E00000FA05AB
:10466000F84A1279022A03D0F64A1279032A2DD188
:104670008A7802F003030A8863F39F020B7903F040
:10468000030342EA03128B7903F0030342EA831225
:104690000B7A03F0030342EA03228B7A03F003034D
:1046A00042EA832202800A8892100A804A88921085
:1046B0004A808A8892108A80CA889210CA800A89A1
:1046C00092100A814A8992104A8188E0DD4A127963
:1046D000042A2DD18A7802F003030A8863F39F022B
:1046E0000B7903F0030342EA03128B7903F003030F
:1046F00042EA83120B7A03F0030342EA03228B7A25
:1047000003F0030342EA832202800A8892100A809F
:104710004A8892104A808A8892108A80CA889210A9
:10472000CA800A8992100A814A8992104A8156E009
:10473000C44A1279012A52D18A7802F003030A8806
:1047400063F39F020B7903F0030342EA03128B79B0
:1047500003F0030342EA83120B7A03F0030342EAF5
:1047600003228B7A03F0030342EA83220B7B03F0DC
:10477000030342EA03328B7B42EA83320B7C42EA38
:1047800003428B7C42EA83420B7D42EA03528B7DDB
:1047900042EA835202800A8892100A804A88921064
:1047A0004A808A8892108A80CA889210CA800A89B0
:1047B00092100A814A8992104A818A8992108A81CC
:1047C000CA899210CA810A8A92100A824A8A921071
:1047D0004A828A8A92108A82CA8A9210CA82704752
:1047E0002DE9F04F91B00746002010900026814639
:1047F000002482460F9002200E9000200490039027
:10480000002583468046029001908E480079012859
:104810006DD100BF63E08B4A1288724302EB420203
:104820001001C21700EB9272C2F38F0100254CE019
:104830000020109044E04FF000093AE00020029080
:1048400000241BE07F4A1288109B02FB03F0C21772
:1048500000EB92724B1903EBA2027A4B1B8804FB0C
:104860000322BA5C4FEA49031A4102F003026300D3
:104870009A40029B1A430292601C44B20C2CE1DB6A
:10488000029883B24046421C1FFA82F86E4A22F810
:1048900010304FF6FF72029802EA10434046421C65
:1048A0001FFA82F8684A22F8103009F101004FFA25
:1048B00080F9B9F1040FC1DB1098401C80B2109050
:1048C00010980428B7DB681C85B25E4A1088C217AE
:1048D00000EB9272B5EBA20FAADB701CC6B259486E
:1048E0004088302190FBF1F0B04294DC87E15548DC
:1048F000007904287ED10620049052490888C11707
:1049000000EB917189100F914E490888C11700EB97
:104910009171891010914B490888C11700EB917172
:10492000C1F3870103914FF0000B6BE0002660E0BC
:10493000002431E0204604EBD0725210A4EB420375
:10494000214604EBD172521003EB02130F9A53432A
:10495000109A02FB0BF203EB4202324495B205A817
:1049600000EB440079190988018005F5106085B2D3
:1049700005A9A01D01EB400079190988018005F502
:10498000106085B205A904F10C0001EB4000791913
:1049900009880180601C44B204988442CADB4FF04D
:1049A000000921E041464A1C1FFA82F8264A02EB20
:1049B000410005A9FFF754FE41464A1C1FFA82F840
:1049C000214A02EB410008A9FFF74AFE41464A1C72
:1049D0001FFA82F81C4A02EB41000BA9FFF740FEC8
:1049E00009F101004FFA80F9B9F1080FDADBB01CC8
:1049F000C6B200E00AE00398864299DB0BF10100A1
:104A000000F0FF0BBBF1080F90DBF8E006200490EC
:104A10000C490888C11700EB91718910C9000F91EA
:104A200008490888C11700EB917189101091054958
:104A30000888C11700EB9171C1F3870103914FF012
:104A4000000BD8E060000020D6440020FE4800792A
:104A5000032864D100265EE04FF0000A56E00024EF
:104A600025E00F9860430BEB8A02109901FB0200CE
:104A7000304485B205A800EB44007919098801800B
:104A800005F5106085B205A9A01D01EB400079195C
:104A90000988018005F5106085B205A904F10C00B4
:104AA00001EB4000791909880180601C44B2049828
:104AB0008442D6DB4FF0000921E041464A1C1FFA30
:104AC00082F8E24A02EB410005A9FFF7C9FD414621
:104AD0004A1C1FFA82F8DD4A02EB410008A9FFF7E1
:104AE000BFFD41464A1C1FFA82F8D84A02EB41003A
:104AF0000BA9FFF7B5FD09F101004FFA80F9B9F1F3
:104B0000080FDADB0AF101004FFA80FA0E988245AD
:104B1000A5DBB01CC6B2039886429DDB67E0CA489D
:104B20000079022863D100265EE04FF0010A56E0CA
:104B3000002425E00F9860430BEB8A02109901FBDB
:104B40000200304485B205A800EB440079190988B9
:104B5000018005F5106085B205A9A01D01EB40009C
:104B600079190988018005F5106085B205A904F15D
:104B70000C0001EB4000791909880180601C44B2E7
:104B800004988442D6DB4FF0000921E041464A1CDC
:104B90001FFA82F8AD4A02EB410005A9FFF760FD5C
:104BA00041464A1C1FFA82F8A84A02EB410008A9B4
:104BB000FFF756FD41464A1C1FFA82F8A34A02EB52
:104BC00041000BA9FFF74CFD09F101004FFA80F9F4
:104BD000B9F1080FDADBAAF101004FFA80FABAF155
:104BE000000FA5DAB01CC6B2039886429DDB0BF11C
:104BF000010000F0FF0BBBF1040FFFF627AF11B06F
:104C0000BDE8F08F90490979022903D08E490979CE
:104C1000032924D180B94FF480518D4A1161490094
:104C2000116110218B4A11602021116010218A4AE4
:104C30001160202111603AE04FF48051844A5161A3
:104C4000490051611021834A121D11602021116019
:104C50001021814A121D11602021116027E07A493C
:104C60000979042915D140B9C902794A1161202175
:104C7000784A1160784A116019E04FF40051744A83
:104C800051612021734A121D1160734A121D116077
:104C90000DE06D490979012909D118B949036F4A15
:104CA000116004E04FF400516C4A121D116070470E
:104CB00065490979042947D110F0040F08D0890209
:104CC000634A11611021634A1160634A11600AE06E
:104CD0004FF480515E4A516110215E4A121D1160ED
:104CE0005D4A121D116010F0020F09D04FF400410F
:104CF000574A11618021574A1160574A11600AE0F2
:104D00004FF40041524A51618021524A121D1160F4
:104D1000514A121D116010F0010F09D04FF480416B
:104D20004B4A116140214B4A11604B4A11603BE0F4
:104D30004FF48041464A51614021464A121D11609C
:104D4000454A121D11602FE010F0020F09D04FF4F8
:104D500000413F4A116180213E4A11603E4A116084
:104D60000AE04FF400413A4A51618021394A121D4C
:104D70001160394A121D116010F0010F09D04FF473
:104D80008041334A11614021324A1160324A116038
:104D90000AE04FF480412E4A516140212D4A121DF4
:104DA00011602D4A121D1160704710B585B00021A9
:104DB000254A1279022A07D0234A1279032A03D0FE
:104DC000214A1279042A7DD1254A126802F47F42D1
:104DD0000492214A121F12684FF6F0731A40039290
:104DE0001B4AD26802F4704202921C4A121F1268D7
:104DF000D2B20192174A121F12681A40009202881A
:104E0000BDF808301A43124BDA6042884FF47F43F2
:104E100003EA0222BDF804301A43104B1B1F1A602C
:104E20004288BDF8003043EA22220A4B1B1F1A6059
:104E30000279BDF810301A43094B1A608288BDF818
:104E40000C3043EA22220DE060000020D64400200E
:104E50000010014010180140100C014010140140D6
:104E60000C080140FE4B1B1F1A600222FD4B1A600A
:104E70001B1D1A60C288BDF808301A43FA4BDA606D
:104E800002894FF47F4303EA0222BDF804301A433B
:104E9000F44B1B1F1A600289BDF8003043EA22223E
:104EA000F24B1A60827ABDF810301A43F04B1A6048
:104EB0004289BDF80C3043EA2222E94B1B1F1A60DD
:104EC000022200E009E1E74B1A601B1D1A6082898B
:104ED000BDF808301A43E44BDA60C2894FF47F43CF
:104EE00003EA0222BDF804301A43DE4B1B1F1A608E
:104EF000C289BDF8003043EA2222DC4B1A60027CF2
:104F0000BDF810301A43DA4B1A60028ABDF80C3033
:104F100043EA2222D24B1B1F1A600222D14B1A6095
:104F20001B1D1A60428ABDF808301A43CE4BDA6066
:104F3000828A4FF47F4303EA0222BDF804301A4309
:104F4000C84B1B1F1A60828ABDF8003043EA222238
:104F5000C64B1A60827DBDF810301A43C44B1A60EC
:104F6000C28ABDF80C3043EA2222BD4B1B1F1A60D7
:104F70000222BC4B1A601B1D1A60028BBDF8083060
:104F80001A43B94BDA60428B4FF47F4303EA0222A3
:104F9000BDF804301A43B34B1B1F1A60428BBDF897
:104FA000003043EA2222B14B1A60027FBDF8103074
:104FB0001A43AF4B1A60828BBDF80C3043EA2222B1
:104FC000A74B1B1F1A600222A64B1A601B1D1A60FA
:104FD000C28BBDF808301A43A34BDA60028C4FF441
:104FE0007F4303EA0222BDF804301A439D4B1B1F86
:104FF0001A60028CBDF8003043EA22229B4B1A60F3
:1050000090F82220BDF810301A43994B1A60428C58
:10501000BDF80C3043EA2222914B1B1F1A6002227A
:10502000904B1A601B1D1A60828CBDF808301A4321
:105030008D4BDA60C28C4FF47F4303EA0222BDF845
:1050400004301A43874B1B1F1A60C28CBDF8003016
:1050500043EA2222854B1A6090F82820BDF81030D0
:105060001A43834B1A60028DBDF80C3043EA2222AA
:105070007B4B1B1F1A6002227A4B1A601B1D1A60A1
:10508000428DBDF808301A43774BDA60828D4FF4B9
:105090007F4303EA0222BDF804301A43714B1B1F01
:1050A0001A60828DBDF8003043EA22226F4B1A60ED
:1050B00090F82E20BDF810301A436D4B1A60C28D47
:1050C000BDF80C3043EA2222654B1B1F1A600222F6
:1050D000644B1A601B1D1A6060E0664A1279012A4F
:1050E0005CD1002158E0604AD2686FF30F025E4B3A
:1050F000DA601A46D26803884FF6FF7463401A4399
:10510000594BDA60574A121F12686FF30F02554B62
:105110001B1F1A6002881214438842EA03222346A6
:105120005A40504B1B1F1B681A434E4B1B1F1A60E3
:105130004E4A12686FF30F024C4B1A601A461268FF
:10514000438884EA23231A43484B1A60484A12686A
:1051500002F47F42464B1A601A461268037983F0C4
:10516000FF031A43424B1A603D4A121F12686FF345
:105170000F023B4B1B1F1A601A461268838884EA91
:1051800023231A43364B1B1F1A600222354B1A6029
:105190001B1D1A604A1CD1B20829A4DB05B010BD42
:1051A0002DE9FE4F00270025AA46AB4600200290BD
:1051B0004FF00208019000248146009000262E48FE
:1051C000007858B14FF410522C492D4801F031F8B5
:1051D0000020FFF717FD00202749087025480079B7
:1051E000042856D1234890F800902648007800EB18
:1051F000C0004FF6FF7101EA8014002513E0224839
:105200000068864203D10020FFF7FCFC00E0B61CDA
:105210001B4901EB4400FFF7C8FD04F1180084B2FC
:1052200005F10800C5B24D45E9DB0020FFF7EAFCB7
:105230004FF400400B490860091D086011480078D0
:10524000FFF736FD0F480078401C0E4908700846ED
:105250000078082801D100200870012016E0000025
:10526000100C014010140140001001400C180140C6
:105270000C0801406000002072000020D64400208D
:10528000D62000207800002030000020FFF7BAFC74
:105290000CE187480079022803D08548007903286B
:1052A00072D183490888C11700EB9171C1F3870956
:1052B0008048007800EBC0004FF6FF7101EAC0148F
:1052C0007B48007903281FD100251AE07A4800683E
:1052D000864203D10020FFF795FC00E0B61C774919
:1052E00001EB4400FFF761FD04F1180084B273493B
:1052F00001EB4400FFF759FD04F1180084B2A81C2B
:10530000C5B24D45E2DB22E06948007902281ED192
:1053100000251AE068480068864203D10020FFF7A4
:1053200071FC00E0B61C654901EB4400FFF73DFD50
:1053300004F1180084B2614901EB4400FFF735FD28
:1053400004F1180084B2A81CC5B24D45E2DB002070
:10535000FFF758FC4FF4004059490860091D0860E8
:1053600054480078FFF7A4FC52480078401C51498B
:10537000087008460078042801D100200870012038
:10538000FFF740FC92E0FFE7494800790128F9D196
:105390000020FFF737FC4FF00008002724E04046CC
:1053A000411C1FFA81F8474931F81000C0434649B3
:1053B000C8604046411C1FFA81F8424931F810008C
:1053C000C043424908600220FFF712F84FF4807092
:1053D0003B49091D08600220FFF70AF84FF480706E
:1053E00037490860781C87B2314800888000B8428D
:1053F000D5DC4FF480603249091D08600520FEF7B6
:10540000F7FF4FF480602E4908600520FEF7F0FF9B
:105410004FF480602A49091D08600520FEF7E8FF67
:10542000002724E04046411C1FFA81F8254931F845
:105430001000C0432449C8604046411C1FFA81F84F
:10544000204931F81000C043204908600220FEF7CF
:10545000CFFF4FF480501A49091D08600220FEF763
:10546000C7FF4FF4805016490860781C87B2104877
:1054700000888000B842D5DC4FF480401049091DF7
:1054800008600520FEF7B4FF4FF480400C49086027
:105490000520FEF7ADFF4FF480400949091D086063
:1054A0000520FEF7A5FF0120FFF7ACFBBDE8FE8F4E
:1054B000600000207800002030000020D62000206E
:1054C00010140140D6440020001001400C18014087
:1054D00010B501210C20FBF74BF901213020FBF71F
:1054E00047F901214020FBF743F9012140F2012057
:1054F000FBF73EF901218803FBF73AF910BD0EB521
:1055000001210846FBF741F940F2E730ADF804000D
:105510004720ADF800000020ADF806001020ADF8DF
:10552000020069468006FBF77DFE012211469007C6
:10553000FCF7EFF901218807FCF7D0F901210220DF
:10554000FBF723F941F28730ADF804004720ADF8AE
:1055500000000020ADF806001020ADF802006946FA
:10556000AA48FBF75FFE01221146A848FCF7D1F9D3
:105570000121A648FCF7B2F901211020FBF705F93B
:105580004CF24F30ADF804004720ADF80000002089
:10559000ADF806001020ADF8020069469C48FBF704
:1055A00041FE012211469A48FCF7B3F901219848BF
:1055B000FCF794F90EBD08B501219648FBF76FFA88
:1055C0000220ADF8000001208DF8020010208DF8B7
:1055D000030069469048FBF793F94FF40040ADF89B
:1055E000000069468C48FBF78BF98C48007901284C
:1055F00006D14003ADF8000069468748FBF780F903
:10560000FF20ADF8000069468548FBF779F94FF6B1
:10561000FF70ADF8000069468248FBF771F94FF65C
:10562000FF70ADF8000069467F48FBF769F94FF657
:10563000FF70ADF8000069467748FBF761F94FF657
:10564000FF70ADF8000069467848FBF759F9002172
:105650007348FBF709FA00217248FBF705FA0021AD
:105660007148FBF701FA00216B48FBF7FDF90021B7
:105670006E48FBF7F9F94FF48060ADF800000420A4
:105680008DF8030069466648FBF73AF94FF400705D
:10569000ADF8000003208DF8020018208DF80300FB
:1056A00069465F48FBF72CF908BD1FB54FF4E130A0
:1056B00000900020ADF80400ADF80600ADF8080039
:1056C000ADF80C000C20ADF80A0069465848FBF70D
:1056D000A6FA012240F225515548FBF738FB01217B
:1056E0005348FBF728FB1FBD08B5002240F22551A7
:1056F0004F48FBF72CFB002201218807FCF709F932
:1057000000214FF08040FCF7E9F8002201213F48DA
:10571000FCF7FFF800213D48FCF7E0F800220121EA
:105720003B48FCF7F6F800213948FCF7D7F825206C
:105730008DF8000001208DF8010000208DF8030095
:105740006846FBF732FC1C208DF8000003208DF822
:10575000010000208DF803006846FBF726FC1D20A1
:105760008DF8000004208DF8010000208DF8030062
:105770006846FBF71AFC36208DF8000005208DF8EE
:10578000010000208DF803006846FBF70EFC4FF087
:10579000E020006920F007004FF0E021086108BD1B
:1057A00008B54FF44070FBF7FBFB25208DF8000097
:1057B00001208DF801008DF803006846FBF7F5FB2A
:1057C0001C208DF8000003208DF8010001208DF8C9
:1057D00003006846FBF7E9FB1D208DF8000004205C
:1057E0008DF8010001208DF803006846FBF7DDFB12
:1057F00036208DF8000005208DF8010001208DF87D
:1058000003006846FBF7D1FB08BD00000004004020
:105810000010004000023000001401406000002031
:1058200000080140000C0140001001400018014038
:10583000003801402DE9F0470746894614464FF0ED
:10584000000AD0460025062F10D2DFE807F0030536
:1058500007090B0DF84D0BE0F84D09E0F84D07E096
:10586000F84D05E0F84D03E0F84D01E0002500BFDC
:1058700000BF002D43D06E1C307860800020607126
:1058800009EB490000F1030A05EB0A00861C96F8B3
:10589000008005EB0A00461C307840EA082805EB3A
:1058A0000806307820802088FF2802D06088FF28F2
:1058B00004D1002020806080A06020E021886288E0
:1058C0005143C81DC11700EB5171C1F3CF01E180F5
:1058D000E08800F071FBA060A06870B1E188A0686A
:1058E00000F01EFD05EB0800461CA06838B1E288F8
:1058F000A068314600F09DFC01E0BDE8F08700BFE4
:10590000FBE72DE9F04F0D4614461E464FF0000907
:10591000CA46002200279446934600210023D4F86B
:10592000088018F80C7000BF84E00246DFF820E31E
:10593000BEF800E005FB0E284FEAE87E08EB9E7EED
:10594000CEF38F0190464FEAE27E02EB9E7E4FEA55
:10595000AE0EA2EB8E0E4FEA4E6E4FEA1E634FF074
:1059600000095BE0DFF8EC82D8F8008018F80180CD
:105970004FF0030E0EFA03FE28EA0E08DFF8D4E219
:10598000DEF800E00EF8018017F0010F21D086B19B
:10599000DFF8C082D8F8008018F8018006FA03FE0C
:1059A00048EA0E08DFF8ACE2DEF800E00EF801800D
:1059B0000FE0DFF8A082D8F8008018F8018007FA1D
:1059C00003FE48EA0E08DFF88CE2DEF800E00EF88D
:1059D00001807F100BF1010808F0FF0B03F10208B2
:1059E00008F0FF03BBF1080F09D10CF101081FFA01
:1059F00088FCD4F8088018F80C704FF0000B082BC6
:105A000004D1002301F101081FFA88F102F1010815
:105A10001FFA88F209F101081FFA88F9B4F800802A
:105A2000C8459FDC05F101081FFA88F50AF1010855
:105A30001FFA88FAB4F80280D0453FF776AFBDE888
:105A4000F08F2DE9F04F0C464FF00008C1460026BC
:105A5000B2460027B34600210025D3F808C01CF841
:105A600007A0064600BF75E00646B2F800E004FB5A
:105A70000E6C4FEAEC7E0CEB9E7E4FEAAE0EACEB6A
:105A80008E0E4FEA4E6E4FEA1E65B2F800E004FB40
:105A90000E6C4FEAEC7E0CEB9E7ECEF38F014FF046
:105AA00000084BE0D2F808C01CF801C04FF0030E0C
:105AB0000EFA05FE2CEA0E0CD2F808E00EF801C032
:105AC0001AF0010F14D0DDF824C0BCF1000F0FD084
:105AD000D2F808C01CF801E0DDF824C00CFA05FC7F
